{
	"contracts/firstContract/firstSolidity.sol": {
		"FirstContract": {
			"abi": [
				{
					"inputs": [
						{
							"internalType": "uint32",
							"name": "",
							"type": "uint32"
						}
					],
					"name": "EmloyeeMap",
					"outputs": [
						{
							"internalType": "string",
							"name": "",
							"type": "string"
						}
					],
					"stateMutability": "view",
					"type": "function"
				},
				{
					"inputs": [
						{
							"internalType": "uint256",
							"name": "",
							"type": "uint256"
						}
					],
					"name": "EmployeeArr",
					"outputs": [
						{
							"internalType": "uint32",
							"name": "UniqueNum",
							"type": "uint32"
						},
						{
							"internalType": "string",
							"name": "name",
							"type": "string"
						}
					],
					"stateMutability": "view",
					"type": "function"
				},
				{
					"inputs": [
						{
							"internalType": "uint32",
							"name": "_UniqueNum",
							"type": "uint32"
						},
						{
							"internalType": "string",
							"name": "_name",
							"type": "string"
						}
					],
					"name": "addEmployee",
					"outputs": [],
					"stateMutability": "nonpayable",
					"type": "function"
				},
				{
					"inputs": [
						{
							"internalType": "uint32",
							"name": "_UniqueNum",
							"type": "uint32"
						},
						{
							"internalType": "string",
							"name": "_name",
							"type": "string"
						}
					],
					"name": "addEmployeeInMap",
					"outputs": [],
					"stateMutability": "nonpayable",
					"type": "function"
				},
				{
					"inputs": [],
					"name": "getID",
					"outputs": [
						{
							"internalType": "uint256",
							"name": "",
							"type": "uint256"
						}
					],
					"stateMutability": "view",
					"type": "function"
				},
				{
					"inputs": [
						{
							"internalType": "uint256",
							"name": "num",
							"type": "uint256"
						}
					],
					"name": "setID",
					"outputs": [],
					"stateMutability": "nonpayable",
					"type": "function"
				}
			],
			"devdoc": {
				"kind": "dev",
				"methods": {},
				"version": 1
			},
			"evm": {
				"assembly": "    /* \"contracts/firstContract/firstSolidity.sol\":86:2643  contract FirstContract {\r... */\n  mstore(0x40, 0x80)\n    /* \"contracts/firstContract/firstSolidity.sol\":276:280  true */\n  0x01\n    /* \"contracts/firstContract/firstSolidity.sol\":258:280  bool BooleanVal = true */\n  0x00\n  dup1\n  0x0100\n  exp\n  dup2\n  sload\n  dup2\n  0xff\n  mul\n  not\n  and\n  swap1\n  dup4\n  iszero\n  iszero\n  mul\n  or\n  swap1\n  sstore\n  pop\n    /* \"contracts/firstContract/firstSolidity.sol\":316:320  -123 */\n  0xffffffffffffffffffffffffffffffffffffffffffffffffffffffffffffff85\n    /* \"contracts/firstContract/firstSolidity.sol\":289:320  int positiveOrNegtiveNum = -123 */\n  0x01\n  sstore\n    /* \"contracts/firstContract/firstSolidity.sol\":394:397  123 */\n  0x7b\n    /* \"contracts/firstContract/firstSolidity.sol\":375:397  uint positiveNum = 123 */\n  0x03\n  sstore\n    /* \"contracts/firstContract/firstSolidity.sol\":747:789  0xE4A976FdEa6CAA37638a4554F3779663535af314 */\n  0xe4a976fdea6caa37638a4554f3779663535af314\n    /* \"contracts/firstContract/firstSolidity.sol\":725:789  address myWalletAdd = 0xE4A976FdEa6CAA37638a4554F3779663535af314 */\n  0x04\n  exp(0x0100, 0x00)\n  dup2\n  sload\n  dup2\n  0xffffffffffffffffffffffffffffffffffffffff\n  mul\n  not\n  and\n  swap1\n  dup4\n  0xffffffffffffffffffffffffffffffffffffffff\n  and\n  mul\n  or\n  swap1\n  sstore\n  pop\n    /* \"contracts/firstContract/firstSolidity.sol\":796:845  bytes32 anyNumOfByteData = \"suppose name or file\" */\n  sstore(0x05, 0x737570706f7365206e616d65206f722066696c65000000000000000000000000)\n    /* \"contracts/firstContract/firstSolidity.sol\":1033:1065  string  Name= \"solidity program\" */\n  mload(0x40)\n  dup1\n  0x40\n  add\n  0x40\n  mstore\n  dup1\n  0x10\n  dup2\n  mstore\n  0x20\n  add\n  0x736f6c69646974792070726f6772616d00000000000000000000000000000000\n  dup2\n  mstore\n  pop\n  0x06\n  swap1\n  dup1\n  mload\n  swap1\n  0x20\n  add\n  swap1\n  tag_1\n  swap3\n  swap2\n  swap1\n  tag_2\n  jump\t// in\ntag_1:\n  pop\n    /* \"contracts/firstContract/firstSolidity.sol\":1697:1734  Employee({UniqueNum:7,name:\"devesh\"}) */\n  mload(0x40)\n  dup1\n  0x40\n  add\n  0x40\n  mstore\n  dup1\n    /* \"contracts/firstContract/firstSolidity.sol\":1717:1718  7 */\n  0x07\n    /* \"contracts/firstContract/firstSolidity.sol\":1697:1734  Employee({UniqueNum:7,name:\"devesh\"}) */\n  0xffffffff\n  and\n  dup2\n  mstore\n  0x20\n  add\n  mload(0x40)\n  dup1\n  0x40\n  add\n  0x40\n  mstore\n  dup1\n  0x06\n  dup2\n  mstore\n  0x20\n  add\n  0x6465766573680000000000000000000000000000000000000000000000000000\n  dup2\n  mstore\n  pop\n  dup2\n  mstore\n  pop\n    /* \"contracts/firstContract/firstSolidity.sol\":1675:1734  Employee  employee1 = Employee({UniqueNum:7,name:\"devesh\"}) */\n  0x07\n  0x00\n  dup3\n  add\n  mload\n  dup2\n  0x00\n  add\n  exp(0x0100, 0x00)\n  dup2\n  sload\n  dup2\n  0xffffffff\n  mul\n  not\n  and\n  swap1\n  dup4\n  0xffffffff\n  and\n  mul\n  or\n  swap1\n  sstore\n  pop\n  0x20\n  dup3\n  add\n  mload\n  dup2\n  0x01\n  add\n  swap1\n  dup1\n  mload\n  swap1\n  0x20\n  add\n  swap1\n  tag_3\n  swap3\n  swap2\n  swap1\n  tag_2\n  jump\t// in\ntag_3:\n  pop\n  pop\n  pop\n    /* \"contracts/firstContract/firstSolidity.sol\":1763:1800  Employee({UniqueNum:11,name:\"aarti\"}) */\n  mload(0x40)\n  dup1\n  0x40\n  add\n  0x40\n  mstore\n  dup1\n    /* \"contracts/firstContract/firstSolidity.sol\":1783:1785  11 */\n  0x0b\n    /* \"contracts/firstContract/firstSolidity.sol\":1763:1800  Employee({UniqueNum:11,name:\"aarti\"}) */\n  0xffffffff\n  and\n  dup2\n  mstore\n  0x20\n  add\n  mload(0x40)\n  dup1\n  0x40\n  add\n  0x40\n  mstore\n  dup1\n  0x05\n  dup2\n  mstore\n  0x20\n  add\n  0x6161727469000000000000000000000000000000000000000000000000000000\n  dup2\n  mstore\n  pop\n  dup2\n  mstore\n  pop\n    /* \"contracts/firstContract/firstSolidity.sol\":1741:1800  Employee  employee2 = Employee({UniqueNum:11,name:\"aarti\"}) */\n  0x09\n  0x00\n  dup3\n  add\n  mload\n  dup2\n  0x00\n  add\n  exp(0x0100, 0x00)\n  dup2\n  sload\n  dup2\n  0xffffffff\n  mul\n  not\n  and\n  swap1\n  dup4\n  0xffffffff\n  and\n  mul\n  or\n  swap1\n  sstore\n  pop\n  0x20\n  dup3\n  add\n  mload\n  dup2\n  0x01\n  add\n  swap1\n  dup1\n  mload\n  swap1\n  0x20\n  add\n  swap1\n  tag_4\n  swap3\n  swap2\n  swap1\n  tag_2\n  jump\t// in\ntag_4:\n  pop\n  pop\n  pop\n    /* \"contracts/firstContract/firstSolidity.sol\":86:2643  contract FirstContract {\r... */\n  callvalue\n  dup1\n  iszero\n  tag_5\n  jumpi\n  0x00\n  dup1\n  revert\ntag_5:\n  pop\n  jump(tag_6)\ntag_2:\n  dup3\n  dup1\n  sload\n  tag_7\n  swap1\n  tag_8\n  jump\t// in\ntag_7:\n  swap1\n  0x00\n  mstore\n  keccak256(0x00, 0x20)\n  swap1\n  0x1f\n  add\n  0x20\n  swap1\n  div\n  dup2\n  add\n  swap3\n  dup3\n  tag_10\n  jumpi\n  0x00\n  dup6\n  sstore\n  jump(tag_9)\ntag_10:\n  dup3\n  0x1f\n  lt\n  tag_11\n  jumpi\n  dup1\n  mload\n  not(0xff)\n  and\n  dup4\n  dup1\n  add\n  or\n  dup6\n  sstore\n  jump(tag_9)\ntag_11:\n  dup3\n  dup1\n  add\n  0x01\n  add\n  dup6\n  sstore\n  dup3\n  iszero\n  tag_9\n  jumpi\n  swap2\n  dup3\n  add\ntag_12:\n  dup3\n  dup2\n  gt\n  iszero\n  tag_13\n  jumpi\n  dup3\n  mload\n  dup3\n  sstore\n  swap2\n  0x20\n  add\n  swap2\n  swap1\n  0x01\n  add\n  swap1\n  jump(tag_12)\ntag_13:\ntag_9:\n  pop\n  swap1\n  pop\n  tag_14\n  swap2\n  swap1\n  tag_15\n  jump\t// in\ntag_14:\n  pop\n  swap1\n  jump\t// out\ntag_15:\ntag_16:\n  dup1\n  dup3\n  gt\n  iszero\n  tag_17\n  jumpi\n  0x00\n  dup2\n  0x00\n  swap1\n  sstore\n  pop\n  0x01\n  add\n  jump(tag_16)\ntag_17:\n  pop\n  swap1\n  jump\t// out\n    /* \"#utility.yul\":7:327   */\ntag_8:\n    /* \"#utility.yul\":51:57   */\n  0x00\n    /* \"#utility.yul\":88:89   */\n  0x02\n    /* \"#utility.yul\":82:86   */\n  dup3\n    /* \"#utility.yul\":78:90   */\n  div\n    /* \"#utility.yul\":68:90   */\n  swap1\n  pop\n    /* \"#utility.yul\":135:136   */\n  0x01\n    /* \"#utility.yul\":129:133   */\n  dup3\n    /* \"#utility.yul\":125:137   */\n  and\n    /* \"#utility.yul\":156:174   */\n  dup1\n    /* \"#utility.yul\":146:227   */\n  tag_20\n  jumpi\n    /* \"#utility.yul\":212:216   */\n  0x7f\n    /* \"#utility.yul\":204:210   */\n  dup3\n    /* \"#utility.yul\":200:217   */\n  and\n    /* \"#utility.yul\":190:217   */\n  swap2\n  pop\n    /* \"#utility.yul\":146:227   */\ntag_20:\n    /* \"#utility.yul\":274:276   */\n  0x20\n    /* \"#utility.yul\":266:272   */\n  dup3\n    /* \"#utility.yul\":263:277   */\n  lt\n    /* \"#utility.yul\":243:261   */\n  dup2\n    /* \"#utility.yul\":240:278   */\n  eq\n    /* \"#utility.yul\":237:321   */\n  iszero\n  tag_21\n  jumpi\n    /* \"#utility.yul\":293:311   */\n  tag_22\n  tag_23\n  jump\t// in\ntag_22:\n    /* \"#utility.yul\":237:321   */\ntag_21:\n    /* \"#utility.yul\":58:327   */\n  pop\n    /* \"#utility.yul\":7:327   */\n  swap2\n  swap1\n  pop\n  jump\t// out\n    /* \"#utility.yul\":333:513   */\ntag_23:\n    /* \"#utility.yul\":381:458   */\n  0x4e487b7100000000000000000000000000000000000000000000000000000000\n    /* \"#utility.yul\":378:379   */\n  0x00\n    /* \"#utility.yul\":371:459   */\n  mstore\n    /* \"#utility.yul\":478:482   */\n  0x22\n    /* \"#utility.yul\":475:476   */\n  0x04\n    /* \"#utility.yul\":468:483   */\n  mstore\n    /* \"#utility.yul\":502:506   */\n  0x24\n    /* \"#utility.yul\":499:500   */\n  0x00\n    /* \"#utility.yul\":492:507   */\n  revert\n    /* \"contracts/firstContract/firstSolidity.sol\":86:2643  contract FirstContract {\r... */\ntag_6:\n  dataSize(sub_0)\n  dup1\n  dataOffset(sub_0)\n  0x00\n  codecopy\n  0x00\n  return\nstop\n\nsub_0: assembly {\n        /* \"contracts/firstContract/firstSolidity.sol\":86:2643  contract FirstContract {\r... */\n      mstore(0x40, 0x80)\n      callvalue\n      dup1\n      iszero\n      tag_1\n      jumpi\n      0x00\n      dup1\n      revert\n    tag_1:\n      pop\n      jumpi(tag_2, lt(calldatasize, 0x04))\n      shr(0xe0, calldataload(0x00))\n      dup1\n      0x03797a0b\n      eq\n      tag_3\n      jumpi\n      dup1\n      0x0a81eeb9\n      eq\n      tag_4\n      jumpi\n      dup1\n      0x39765bff\n      eq\n      tag_5\n      jumpi\n      dup1\n      0x59477571\n      eq\n      tag_6\n      jumpi\n      dup1\n      0xab9dbd07\n      eq\n      tag_7\n      jumpi\n      dup1\n      0xdc5d184f\n      eq\n      tag_8\n      jumpi\n    tag_2:\n      0x00\n      dup1\n      revert\n        /* \"contracts/firstContract/firstSolidity.sol\":2039:2238  function addEmployee(uint32 _UniqueNum ,string memory _name) public{\r... */\n    tag_3:\n      tag_9\n      0x04\n      dup1\n      calldatasize\n      sub\n      dup2\n      add\n      swap1\n      tag_10\n      swap2\n      swap1\n      tag_11\n      jump\t// in\n    tag_10:\n      tag_12\n      jump\t// in\n    tag_9:\n      stop\n        /* \"contracts/firstContract/firstSolidity.sol\":1944:1973  Employee[] public EmployeeArr */\n    tag_4:\n      tag_13\n      0x04\n      dup1\n      calldatasize\n      sub\n      dup2\n      add\n      swap1\n      tag_14\n      swap2\n      swap1\n      tag_15\n      jump\t// in\n    tag_14:\n      tag_16\n      jump\t// in\n    tag_13:\n      mload(0x40)\n      tag_17\n      swap3\n      swap2\n      swap1\n      tag_18\n      jump\t// in\n    tag_17:\n      mload(0x40)\n      dup1\n      swap2\n      sub\n      swap1\n      return\n        /* \"contracts/firstContract/firstSolidity.sol\":2521:2640  function addEmployeeInMap(uint32 _UniqueNum ,string memory _name) public{\r... */\n    tag_5:\n      tag_19\n      0x04\n      dup1\n      calldatasize\n      sub\n      dup2\n      add\n      swap1\n      tag_20\n      swap2\n      swap1\n      tag_11\n      jump\t// in\n    tag_20:\n      tag_21\n      jump\t// in\n    tag_19:\n      stop\n        /* \"contracts/firstContract/firstSolidity.sol\":2414:2457  mapping(uint32 => string) public EmloyeeMap */\n    tag_6:\n      tag_22\n      0x04\n      dup1\n      calldatasize\n      sub\n      dup2\n      add\n      swap1\n      tag_23\n      swap2\n      swap1\n      tag_24\n      jump\t// in\n    tag_23:\n      tag_25\n      jump\t// in\n    tag_22:\n      mload(0x40)\n      tag_26\n      swap2\n      swap1\n      tag_27\n      jump\t// in\n    tag_26:\n      mload(0x40)\n      dup1\n      swap2\n      sub\n      swap1\n      return\n        /* \"contracts/firstContract/firstSolidity.sol\":1409:1490  function getID() public view returns (uint) {\r... */\n    tag_7:\n      tag_28\n      tag_29\n      jump\t// in\n    tag_28:\n      mload(0x40)\n      tag_30\n      swap2\n      swap1\n      tag_31\n      jump\t// in\n    tag_30:\n      mload(0x40)\n      dup1\n      swap2\n      sub\n      swap1\n      return\n        /* \"contracts/firstContract/firstSolidity.sol\":1185:1252  function setID(uint num) public{\r... */\n    tag_8:\n      tag_32\n      0x04\n      dup1\n      calldatasize\n      sub\n      dup2\n      add\n      swap1\n      tag_33\n      swap2\n      swap1\n      tag_15\n      jump\t// in\n    tag_33:\n      tag_34\n      jump\t// in\n    tag_32:\n      stop\n        /* \"contracts/firstContract/firstSolidity.sol\":2039:2238  function addEmployee(uint32 _UniqueNum ,string memory _name) public{\r... */\n    tag_12:\n        /* \"contracts/firstContract/firstSolidity.sol\":2117:2144  Employee memory newEmployee */\n      0x00\n        /* \"contracts/firstContract/firstSolidity.sol\":2147:2190  Employee({UniqueNum:_UniqueNum,name:_name}) */\n      mload(0x40)\n      dup1\n      0x40\n      add\n      0x40\n      mstore\n      dup1\n        /* \"contracts/firstContract/firstSolidity.sol\":2167:2177  _UniqueNum */\n      dup5\n        /* \"contracts/firstContract/firstSolidity.sol\":2147:2190  Employee({UniqueNum:_UniqueNum,name:_name}) */\n      0xffffffff\n      and\n      dup2\n      mstore\n      0x20\n      add\n        /* \"contracts/firstContract/firstSolidity.sol\":2183:2188  _name */\n      dup4\n        /* \"contracts/firstContract/firstSolidity.sol\":2147:2190  Employee({UniqueNum:_UniqueNum,name:_name}) */\n      dup2\n      mstore\n      pop\n        /* \"contracts/firstContract/firstSolidity.sol\":2117:2190  Employee memory newEmployee = Employee({UniqueNum:_UniqueNum,name:_name}) */\n      swap1\n      pop\n        /* \"contracts/firstContract/firstSolidity.sol\":2201:2212  EmployeeArr */\n      0x0b\n        /* \"contracts/firstContract/firstSolidity.sol\":2218:2229  newEmployee */\n      dup2\n        /* \"contracts/firstContract/firstSolidity.sol\":2201:2230  EmployeeArr.push(newEmployee) */\n      swap1\n      dup1\n      0x01\n      dup2\n      sload\n      add\n      dup1\n      dup3\n      sstore\n      dup1\n      swap2\n      pop\n      pop\n      0x01\n      swap1\n      sub\n      swap1\n      0x00\n      mstore\n      keccak256(0x00, 0x20)\n      swap1\n      0x02\n      mul\n      add\n      0x00\n      swap1\n      swap2\n      swap1\n      swap2\n      swap1\n      swap2\n      pop\n      0x00\n      dup3\n      add\n      mload\n      dup2\n      0x00\n      add\n      exp(0x0100, 0x00)\n      dup2\n      sload\n      dup2\n      0xffffffff\n      mul\n      not\n      and\n      swap1\n      dup4\n      0xffffffff\n      and\n      mul\n      or\n      swap1\n      sstore\n      pop\n      0x20\n      dup3\n      add\n      mload\n      dup2\n      0x01\n      add\n      swap1\n      dup1\n      mload\n      swap1\n      0x20\n      add\n      swap1\n      tag_37\n      swap3\n      swap2\n      swap1\n      tag_38\n      jump\t// in\n    tag_37:\n      pop\n      pop\n      pop\n        /* \"contracts/firstContract/firstSolidity.sol\":2106:2238  {\r... */\n      pop\n        /* \"contracts/firstContract/firstSolidity.sol\":2039:2238  function addEmployee(uint32 _UniqueNum ,string memory _name) public{\r... */\n      pop\n      pop\n      jump\t// out\n        /* \"contracts/firstContract/firstSolidity.sol\":1944:1973  Employee[] public EmployeeArr */\n    tag_16:\n      0x0b\n      dup2\n      dup2\n      sload\n      dup2\n      lt\n      tag_39\n      jumpi\n      0x00\n      dup1\n      revert\n    tag_39:\n      swap1\n      0x00\n      mstore\n      keccak256(0x00, 0x20)\n      swap1\n      0x02\n      mul\n      add\n      0x00\n      swap2\n      pop\n      swap1\n      pop\n      dup1\n      0x00\n      add\n      0x00\n      swap1\n      sload\n      swap1\n      0x0100\n      exp\n      swap1\n      div\n      0xffffffff\n      and\n      swap1\n      dup1\n      0x01\n      add\n      dup1\n      sload\n      tag_41\n      swap1\n      tag_42\n      jump\t// in\n    tag_41:\n      dup1\n      0x1f\n      add\n      0x20\n      dup1\n      swap2\n      div\n      mul\n      0x20\n      add\n      mload(0x40)\n      swap1\n      dup2\n      add\n      0x40\n      mstore\n      dup1\n      swap3\n      swap2\n      swap1\n      dup2\n      dup2\n      mstore\n      0x20\n      add\n      dup3\n      dup1\n      sload\n      tag_43\n      swap1\n      tag_42\n      jump\t// in\n    tag_43:\n      dup1\n      iszero\n      tag_44\n      jumpi\n      dup1\n      0x1f\n      lt\n      tag_45\n      jumpi\n      0x0100\n      dup1\n      dup4\n      sload\n      div\n      mul\n      dup4\n      mstore\n      swap2\n      0x20\n      add\n      swap2\n      jump(tag_44)\n    tag_45:\n      dup3\n      add\n      swap2\n      swap1\n      0x00\n      mstore\n      keccak256(0x00, 0x20)\n      swap1\n    tag_46:\n      dup2\n      sload\n      dup2\n      mstore\n      swap1\n      0x01\n      add\n      swap1\n      0x20\n      add\n      dup1\n      dup4\n      gt\n      tag_46\n      jumpi\n      dup3\n      swap1\n      sub\n      0x1f\n      and\n      dup3\n      add\n      swap2\n    tag_44:\n      pop\n      pop\n      pop\n      pop\n      pop\n      swap1\n      pop\n      dup3\n      jump\t// out\n        /* \"contracts/firstContract/firstSolidity.sol\":2521:2640  function addEmployeeInMap(uint32 _UniqueNum ,string memory _name) public{\r... */\n    tag_21:\n        /* \"contracts/firstContract/firstSolidity.sol\":2627:2632  _name */\n      dup1\n        /* \"contracts/firstContract/firstSolidity.sol\":2604:2614  EmloyeeMap */\n      0x0c\n        /* \"contracts/firstContract/firstSolidity.sol\":2604:2626  EmloyeeMap[_UniqueNum] */\n      0x00\n        /* \"contracts/firstContract/firstSolidity.sol\":2615:2625  _UniqueNum */\n      dup5\n        /* \"contracts/firstContract/firstSolidity.sol\":2604:2626  EmloyeeMap[_UniqueNum] */\n      0xffffffff\n      and\n      0xffffffff\n      and\n      dup2\n      mstore\n      0x20\n      add\n      swap1\n      dup2\n      mstore\n      0x20\n      add\n      0x00\n      keccak256\n        /* \"contracts/firstContract/firstSolidity.sol\":2604:2632  EmloyeeMap[_UniqueNum]=_name */\n      swap1\n      dup1\n      mload\n      swap1\n      0x20\n      add\n      swap1\n      tag_48\n      swap3\n      swap2\n      swap1\n      tag_38\n      jump\t// in\n    tag_48:\n      pop\n        /* \"contracts/firstContract/firstSolidity.sol\":2521:2640  function addEmployeeInMap(uint32 _UniqueNum ,string memory _name) public{\r... */\n      pop\n      pop\n      jump\t// out\n        /* \"contracts/firstContract/firstSolidity.sol\":2414:2457  mapping(uint32 => string) public EmloyeeMap */\n    tag_25:\n      mstore(0x20, 0x0c)\n      dup1\n      0x00\n      mstore\n      keccak256(0x00, 0x40)\n      0x00\n      swap2\n      pop\n      swap1\n      pop\n      dup1\n      sload\n      tag_49\n      swap1\n      tag_42\n      jump\t// in\n    tag_49:\n      dup1\n      0x1f\n      add\n      0x20\n      dup1\n      swap2\n      div\n      mul\n      0x20\n      add\n      mload(0x40)\n      swap1\n      dup2\n      add\n      0x40\n      mstore\n      dup1\n      swap3\n      swap2\n      swap1\n      dup2\n      dup2\n      mstore\n      0x20\n      add\n      dup3\n      dup1\n      sload\n      tag_50\n      swap1\n      tag_42\n      jump\t// in\n    tag_50:\n      dup1\n      iszero\n      tag_51\n      jumpi\n      dup1\n      0x1f\n      lt\n      tag_52\n      jumpi\n      0x0100\n      dup1\n      dup4\n      sload\n      div\n      mul\n      dup4\n      mstore\n      swap2\n      0x20\n      add\n      swap2\n      jump(tag_51)\n    tag_52:\n      dup3\n      add\n      swap2\n      swap1\n      0x00\n      mstore\n      keccak256(0x00, 0x20)\n      swap1\n    tag_53:\n      dup2\n      sload\n      dup2\n      mstore\n      swap1\n      0x01\n      add\n      swap1\n      0x20\n      add\n      dup1\n      dup4\n      gt\n      tag_53\n      jumpi\n      dup3\n      swap1\n      sub\n      0x1f\n      and\n      dup3\n      add\n      swap2\n    tag_51:\n      pop\n      pop\n      pop\n      pop\n      pop\n      dup2\n      jump\t// out\n        /* \"contracts/firstContract/firstSolidity.sol\":1409:1490  function getID() public view returns (uint) {\r... */\n    tag_29:\n        /* \"contracts/firstContract/firstSolidity.sol\":1447:1451  uint */\n      0x00\n        /* \"contracts/firstContract/firstSolidity.sol\":1471:1482  positiveNum */\n      sload(0x03)\n        /* \"contracts/firstContract/firstSolidity.sol\":1464:1482  return positiveNum */\n      swap1\n      pop\n        /* \"contracts/firstContract/firstSolidity.sol\":1409:1490  function getID() public view returns (uint) {\r... */\n      swap1\n      jump\t// out\n        /* \"contracts/firstContract/firstSolidity.sol\":1185:1252  function setID(uint num) public{\r... */\n    tag_34:\n        /* \"contracts/firstContract/firstSolidity.sol\":1241:1244  num */\n      dup1\n        /* \"contracts/firstContract/firstSolidity.sol\":1227:1238  positiveNum */\n      0x03\n        /* \"contracts/firstContract/firstSolidity.sol\":1227:1244  positiveNum = num */\n      dup2\n      swap1\n      sstore\n      pop\n        /* \"contracts/firstContract/firstSolidity.sol\":1185:1252  function setID(uint num) public{\r... */\n      pop\n      jump\t// out\n    tag_38:\n      dup3\n      dup1\n      sload\n      tag_56\n      swap1\n      tag_42\n      jump\t// in\n    tag_56:\n      swap1\n      0x00\n      mstore\n      keccak256(0x00, 0x20)\n      swap1\n      0x1f\n      add\n      0x20\n      swap1\n      div\n      dup2\n      add\n      swap3\n      dup3\n      tag_58\n      jumpi\n      0x00\n      dup6\n      sstore\n      jump(tag_57)\n    tag_58:\n      dup3\n      0x1f\n      lt\n      tag_59\n      jumpi\n      dup1\n      mload\n      not(0xff)\n      and\n      dup4\n      dup1\n      add\n      or\n      dup6\n      sstore\n      jump(tag_57)\n    tag_59:\n      dup3\n      dup1\n      add\n      0x01\n      add\n      dup6\n      sstore\n      dup3\n      iszero\n      tag_57\n      jumpi\n      swap2\n      dup3\n      add\n    tag_60:\n      dup3\n      dup2\n      gt\n      iszero\n      tag_61\n      jumpi\n      dup3\n      mload\n      dup3\n      sstore\n      swap2\n      0x20\n      add\n      swap2\n      swap1\n      0x01\n      add\n      swap1\n      jump(tag_60)\n    tag_61:\n    tag_57:\n      pop\n      swap1\n      pop\n      tag_62\n      swap2\n      swap1\n      tag_63\n      jump\t// in\n    tag_62:\n      pop\n      swap1\n      jump\t// out\n    tag_63:\n    tag_64:\n      dup1\n      dup3\n      gt\n      iszero\n      tag_65\n      jumpi\n      0x00\n      dup2\n      0x00\n      swap1\n      sstore\n      pop\n      0x01\n      add\n      jump(tag_64)\n    tag_65:\n      pop\n      swap1\n      jump\t// out\n        /* \"#utility.yul\":7:419   */\n    tag_67:\n        /* \"#utility.yul\":85:90   */\n      0x00\n        /* \"#utility.yul\":110:176   */\n      tag_69\n        /* \"#utility.yul\":126:175   */\n      tag_70\n        /* \"#utility.yul\":168:174   */\n      dup5\n        /* \"#utility.yul\":126:175   */\n      tag_71\n      jump\t// in\n    tag_70:\n        /* \"#utility.yul\":110:176   */\n      tag_72\n      jump\t// in\n    tag_69:\n        /* \"#utility.yul\":101:176   */\n      swap1\n      pop\n        /* \"#utility.yul\":199:205   */\n      dup3\n        /* \"#utility.yul\":192:197   */\n      dup2\n        /* \"#utility.yul\":185:206   */\n      mstore\n        /* \"#utility.yul\":237:241   */\n      0x20\n        /* \"#utility.yul\":230:235   */\n      dup2\n        /* \"#utility.yul\":226:242   */\n      add\n        /* \"#utility.yul\":275:278   */\n      dup5\n        /* \"#utility.yul\":266:272   */\n      dup5\n        /* \"#utility.yul\":261:264   */\n      dup5\n        /* \"#utility.yul\":257:273   */\n      add\n        /* \"#utility.yul\":254:279   */\n      gt\n        /* \"#utility.yul\":251:363   */\n      iszero\n      tag_73\n      jumpi\n        /* \"#utility.yul\":282:361   */\n      tag_74\n      tag_75\n      jump\t// in\n    tag_74:\n        /* \"#utility.yul\":251:363   */\n    tag_73:\n        /* \"#utility.yul\":372:413   */\n      tag_76\n        /* \"#utility.yul\":406:412   */\n      dup5\n        /* \"#utility.yul\":401:404   */\n      dup3\n        /* \"#utility.yul\":396:399   */\n      dup6\n        /* \"#utility.yul\":372:413   */\n      tag_77\n      jump\t// in\n    tag_76:\n        /* \"#utility.yul\":91:419   */\n      pop\n        /* \"#utility.yul\":7:419   */\n      swap4\n      swap3\n      pop\n      pop\n      pop\n      jump\t// out\n        /* \"#utility.yul\":439:779   */\n    tag_78:\n        /* \"#utility.yul\":495:500   */\n      0x00\n        /* \"#utility.yul\":544:547   */\n      dup3\n        /* \"#utility.yul\":537:541   */\n      0x1f\n        /* \"#utility.yul\":529:535   */\n      dup4\n        /* \"#utility.yul\":525:542   */\n      add\n        /* \"#utility.yul\":521:548   */\n      slt\n        /* \"#utility.yul\":511:633   */\n      tag_80\n      jumpi\n        /* \"#utility.yul\":552:631   */\n      tag_81\n      tag_82\n      jump\t// in\n    tag_81:\n        /* \"#utility.yul\":511:633   */\n    tag_80:\n        /* \"#utility.yul\":669:675   */\n      dup2\n        /* \"#utility.yul\":656:676   */\n      calldataload\n        /* \"#utility.yul\":694:773   */\n      tag_83\n        /* \"#utility.yul\":769:772   */\n      dup5\n        /* \"#utility.yul\":761:767   */\n      dup3\n        /* \"#utility.yul\":754:758   */\n      0x20\n        /* \"#utility.yul\":746:752   */\n      dup7\n        /* \"#utility.yul\":742:759   */\n      add\n        /* \"#utility.yul\":694:773   */\n      tag_67\n      jump\t// in\n    tag_83:\n        /* \"#utility.yul\":685:773   */\n      swap2\n      pop\n        /* \"#utility.yul\":501:779   */\n      pop\n        /* \"#utility.yul\":439:779   */\n      swap3\n      swap2\n      pop\n      pop\n      jump\t// out\n        /* \"#utility.yul\":785:924   */\n    tag_84:\n        /* \"#utility.yul\":831:836   */\n      0x00\n        /* \"#utility.yul\":869:875   */\n      dup2\n        /* \"#utility.yul\":856:876   */\n      calldataload\n        /* \"#utility.yul\":847:876   */\n      swap1\n      pop\n        /* \"#utility.yul\":885:918   */\n      tag_86\n        /* \"#utility.yul\":912:917   */\n      dup2\n        /* \"#utility.yul\":885:918   */\n      tag_87\n      jump\t// in\n    tag_86:\n        /* \"#utility.yul\":785:924   */\n      swap3\n      swap2\n      pop\n      pop\n      jump\t// out\n        /* \"#utility.yul\":930:1067   */\n    tag_88:\n        /* \"#utility.yul\":975:980   */\n      0x00\n        /* \"#utility.yul\":1013:1019   */\n      dup2\n        /* \"#utility.yul\":1000:1020   */\n      calldataload\n        /* \"#utility.yul\":991:1020   */\n      swap1\n      pop\n        /* \"#utility.yul\":1029:1061   */\n      tag_90\n        /* \"#utility.yul\":1055:1060   */\n      dup2\n        /* \"#utility.yul\":1029:1061   */\n      tag_91\n      jump\t// in\n    tag_90:\n        /* \"#utility.yul\":930:1067   */\n      swap3\n      swap2\n      pop\n      pop\n      jump\t// out\n        /* \"#utility.yul\":1073:1402   */\n    tag_15:\n        /* \"#utility.yul\":1132:1138   */\n      0x00\n        /* \"#utility.yul\":1181:1183   */\n      0x20\n        /* \"#utility.yul\":1169:1178   */\n      dup3\n        /* \"#utility.yul\":1160:1167   */\n      dup5\n        /* \"#utility.yul\":1156:1179   */\n      sub\n        /* \"#utility.yul\":1152:1184   */\n      slt\n        /* \"#utility.yul\":1149:1268   */\n      iszero\n      tag_93\n      jumpi\n        /* \"#utility.yul\":1187:1266   */\n      tag_94\n      tag_95\n      jump\t// in\n    tag_94:\n        /* \"#utility.yul\":1149:1268   */\n    tag_93:\n        /* \"#utility.yul\":1307:1308   */\n      0x00\n        /* \"#utility.yul\":1332:1385   */\n      tag_96\n        /* \"#utility.yul\":1377:1384   */\n      dup5\n        /* \"#utility.yul\":1368:1374   */\n      dup3\n        /* \"#utility.yul\":1357:1366   */\n      dup6\n        /* \"#utility.yul\":1353:1375   */\n      add\n        /* \"#utility.yul\":1332:1385   */\n      tag_84\n      jump\t// in\n    tag_96:\n        /* \"#utility.yul\":1322:1385   */\n      swap2\n      pop\n        /* \"#utility.yul\":1278:1395   */\n      pop\n        /* \"#utility.yul\":1073:1402   */\n      swap3\n      swap2\n      pop\n      pop\n      jump\t// out\n        /* \"#utility.yul\":1408:1735   */\n    tag_24:\n        /* \"#utility.yul\":1466:1472   */\n      0x00\n        /* \"#utility.yul\":1515:1517   */\n      0x20\n        /* \"#utility.yul\":1503:1512   */\n      dup3\n        /* \"#utility.yul\":1494:1501   */\n      dup5\n        /* \"#utility.yul\":1490:1513   */\n      sub\n        /* \"#utility.yul\":1486:1518   */\n      slt\n        /* \"#utility.yul\":1483:1602   */\n      iszero\n      tag_98\n      jumpi\n        /* \"#utility.yul\":1521:1600   */\n      tag_99\n      tag_95\n      jump\t// in\n    tag_99:\n        /* \"#utility.yul\":1483:1602   */\n    tag_98:\n        /* \"#utility.yul\":1641:1642   */\n      0x00\n        /* \"#utility.yul\":1666:1718   */\n      tag_100\n        /* \"#utility.yul\":1710:1717   */\n      dup5\n        /* \"#utility.yul\":1701:1707   */\n      dup3\n        /* \"#utility.yul\":1690:1699   */\n      dup6\n        /* \"#utility.yul\":1686:1708   */\n      add\n        /* \"#utility.yul\":1666:1718   */\n      tag_88\n      jump\t// in\n    tag_100:\n        /* \"#utility.yul\":1656:1718   */\n      swap2\n      pop\n        /* \"#utility.yul\":1612:1728   */\n      pop\n        /* \"#utility.yul\":1408:1735   */\n      swap3\n      swap2\n      pop\n      pop\n      jump\t// out\n        /* \"#utility.yul\":1741:2393   */\n    tag_11:\n        /* \"#utility.yul\":1818:1824   */\n      0x00\n        /* \"#utility.yul\":1826:1832   */\n      dup1\n        /* \"#utility.yul\":1875:1877   */\n      0x40\n        /* \"#utility.yul\":1863:1872   */\n      dup4\n        /* \"#utility.yul\":1854:1861   */\n      dup6\n        /* \"#utility.yul\":1850:1873   */\n      sub\n        /* \"#utility.yul\":1846:1878   */\n      slt\n        /* \"#utility.yul\":1843:1962   */\n      iszero\n      tag_102\n      jumpi\n        /* \"#utility.yul\":1881:1960   */\n      tag_103\n      tag_95\n      jump\t// in\n    tag_103:\n        /* \"#utility.yul\":1843:1962   */\n    tag_102:\n        /* \"#utility.yul\":2001:2002   */\n      0x00\n        /* \"#utility.yul\":2026:2078   */\n      tag_104\n        /* \"#utility.yul\":2070:2077   */\n      dup6\n        /* \"#utility.yul\":2061:2067   */\n      dup3\n        /* \"#utility.yul\":2050:2059   */\n      dup7\n        /* \"#utility.yul\":2046:2068   */\n      add\n        /* \"#utility.yul\":2026:2078   */\n      tag_88\n      jump\t// in\n    tag_104:\n        /* \"#utility.yul\":2016:2078   */\n      swap3\n      pop\n        /* \"#utility.yul\":1972:2088   */\n      pop\n        /* \"#utility.yul\":2155:2157   */\n      0x20\n        /* \"#utility.yul\":2144:2153   */\n      dup4\n        /* \"#utility.yul\":2140:2158   */\n      add\n        /* \"#utility.yul\":2127:2159   */\n      calldataload\n        /* \"#utility.yul\":2186:2204   */\n      0xffffffffffffffff\n        /* \"#utility.yul\":2178:2184   */\n      dup2\n        /* \"#utility.yul\":2175:2205   */\n      gt\n        /* \"#utility.yul\":2172:2289   */\n      iszero\n      tag_105\n      jumpi\n        /* \"#utility.yul\":2208:2287   */\n      tag_106\n      tag_107\n      jump\t// in\n    tag_106:\n        /* \"#utility.yul\":2172:2289   */\n    tag_105:\n        /* \"#utility.yul\":2313:2376   */\n      tag_108\n        /* \"#utility.yul\":2368:2375   */\n      dup6\n        /* \"#utility.yul\":2359:2365   */\n      dup3\n        /* \"#utility.yul\":2348:2357   */\n      dup7\n        /* \"#utility.yul\":2344:2366   */\n      add\n        /* \"#utility.yul\":2313:2376   */\n      tag_78\n      jump\t// in\n    tag_108:\n        /* \"#utility.yul\":2303:2376   */\n      swap2\n      pop\n        /* \"#utility.yul\":2098:2386   */\n      pop\n        /* \"#utility.yul\":1741:2393   */\n      swap3\n      pop\n      swap3\n      swap1\n      pop\n      jump\t// out\n        /* \"#utility.yul\":2399:2763   */\n    tag_109:\n        /* \"#utility.yul\":2487:2490   */\n      0x00\n        /* \"#utility.yul\":2515:2554   */\n      tag_111\n        /* \"#utility.yul\":2548:2553   */\n      dup3\n        /* \"#utility.yul\":2515:2554   */\n      tag_112\n      jump\t// in\n    tag_111:\n        /* \"#utility.yul\":2570:2641   */\n      tag_113\n        /* \"#utility.yul\":2634:2640   */\n      dup2\n        /* \"#utility.yul\":2629:2632   */\n      dup6\n        /* \"#utility.yul\":2570:2641   */\n      tag_114\n      jump\t// in\n    tag_113:\n        /* \"#utility.yul\":2563:2641   */\n      swap4\n      pop\n        /* \"#utility.yul\":2650:2702   */\n      tag_115\n        /* \"#utility.yul\":2695:2701   */\n      dup2\n        /* \"#utility.yul\":2690:2693   */\n      dup6\n        /* \"#utility.yul\":2683:2687   */\n      0x20\n        /* \"#utility.yul\":2676:2681   */\n      dup7\n        /* \"#utility.yul\":2672:2688   */\n      add\n        /* \"#utility.yul\":2650:2702   */\n      tag_116\n      jump\t// in\n    tag_115:\n        /* \"#utility.yul\":2727:2756   */\n      tag_117\n        /* \"#utility.yul\":2749:2755   */\n      dup2\n        /* \"#utility.yul\":2727:2756   */\n      tag_118\n      jump\t// in\n    tag_117:\n        /* \"#utility.yul\":2722:2725   */\n      dup5\n        /* \"#utility.yul\":2718:2757   */\n      add\n        /* \"#utility.yul\":2711:2757   */\n      swap2\n      pop\n        /* \"#utility.yul\":2491:2763   */\n      pop\n        /* \"#utility.yul\":2399:2763   */\n      swap3\n      swap2\n      pop\n      pop\n      jump\t// out\n        /* \"#utility.yul\":2769:2887   */\n    tag_119:\n        /* \"#utility.yul\":2856:2880   */\n      tag_121\n        /* \"#utility.yul\":2874:2879   */\n      dup2\n        /* \"#utility.yul\":2856:2880   */\n      tag_122\n      jump\t// in\n    tag_121:\n        /* \"#utility.yul\":2851:2854   */\n      dup3\n        /* \"#utility.yul\":2844:2881   */\n      mstore\n        /* \"#utility.yul\":2769:2887   */\n      pop\n      pop\n      jump\t// out\n        /* \"#utility.yul\":2893:3008   */\n    tag_123:\n        /* \"#utility.yul\":2978:3001   */\n      tag_125\n        /* \"#utility.yul\":2995:3000   */\n      dup2\n        /* \"#utility.yul\":2978:3001   */\n      tag_126\n      jump\t// in\n    tag_125:\n        /* \"#utility.yul\":2973:2976   */\n      dup3\n        /* \"#utility.yul\":2966:3002   */\n      mstore\n        /* \"#utility.yul\":2893:3008   */\n      pop\n      pop\n      jump\t// out\n        /* \"#utility.yul\":3014:3327   */\n    tag_27:\n        /* \"#utility.yul\":3127:3131   */\n      0x00\n        /* \"#utility.yul\":3165:3167   */\n      0x20\n        /* \"#utility.yul\":3154:3163   */\n      dup3\n        /* \"#utility.yul\":3150:3168   */\n      add\n        /* \"#utility.yul\":3142:3168   */\n      swap1\n      pop\n        /* \"#utility.yul\":3214:3223   */\n      dup2\n        /* \"#utility.yul\":3208:3212   */\n      dup2\n        /* \"#utility.yul\":3204:3224   */\n      sub\n        /* \"#utility.yul\":3200:3201   */\n      0x00\n        /* \"#utility.yul\":3189:3198   */\n      dup4\n        /* \"#utility.yul\":3185:3202   */\n      add\n        /* \"#utility.yul\":3178:3225   */\n      mstore\n        /* \"#utility.yul\":3242:3320   */\n      tag_128\n        /* \"#utility.yul\":3315:3319   */\n      dup2\n        /* \"#utility.yul\":3306:3312   */\n      dup5\n        /* \"#utility.yul\":3242:3320   */\n      tag_109\n      jump\t// in\n    tag_128:\n        /* \"#utility.yul\":3234:3320   */\n      swap1\n      pop\n        /* \"#utility.yul\":3014:3327   */\n      swap3\n      swap2\n      pop\n      pop\n      jump\t// out\n        /* \"#utility.yul\":3333:3555   */\n    tag_31:\n        /* \"#utility.yul\":3426:3430   */\n      0x00\n        /* \"#utility.yul\":3464:3466   */\n      0x20\n        /* \"#utility.yul\":3453:3462   */\n      dup3\n        /* \"#utility.yul\":3449:3467   */\n      add\n        /* \"#utility.yul\":3441:3467   */\n      swap1\n      pop\n        /* \"#utility.yul\":3477:3548   */\n      tag_130\n        /* \"#utility.yul\":3545:3546   */\n      0x00\n        /* \"#utility.yul\":3534:3543   */\n      dup4\n        /* \"#utility.yul\":3530:3547   */\n      add\n        /* \"#utility.yul\":3521:3527   */\n      dup5\n        /* \"#utility.yul\":3477:3548   */\n      tag_119\n      jump\t// in\n    tag_130:\n        /* \"#utility.yul\":3333:3555   */\n      swap3\n      swap2\n      pop\n      pop\n      jump\t// out\n        /* \"#utility.yul\":3561:3980   */\n    tag_18:\n        /* \"#utility.yul\":3700:3704   */\n      0x00\n        /* \"#utility.yul\":3738:3740   */\n      0x40\n        /* \"#utility.yul\":3727:3736   */\n      dup3\n        /* \"#utility.yul\":3723:3741   */\n      add\n        /* \"#utility.yul\":3715:3741   */\n      swap1\n      pop\n        /* \"#utility.yul\":3751:3820   */\n      tag_132\n        /* \"#utility.yul\":3817:3818   */\n      0x00\n        /* \"#utility.yul\":3806:3815   */\n      dup4\n        /* \"#utility.yul\":3802:3819   */\n      add\n        /* \"#utility.yul\":3793:3799   */\n      dup6\n        /* \"#utility.yul\":3751:3820   */\n      tag_123\n      jump\t// in\n    tag_132:\n        /* \"#utility.yul\":3867:3876   */\n      dup2\n        /* \"#utility.yul\":3861:3865   */\n      dup2\n        /* \"#utility.yul\":3857:3877   */\n      sub\n        /* \"#utility.yul\":3852:3854   */\n      0x20\n        /* \"#utility.yul\":3841:3850   */\n      dup4\n        /* \"#utility.yul\":3837:3855   */\n      add\n        /* \"#utility.yul\":3830:3878   */\n      mstore\n        /* \"#utility.yul\":3895:3973   */\n      tag_133\n        /* \"#utility.yul\":3968:3972   */\n      dup2\n        /* \"#utility.yul\":3959:3965   */\n      dup5\n        /* \"#utility.yul\":3895:3973   */\n      tag_109\n      jump\t// in\n    tag_133:\n        /* \"#utility.yul\":3887:3973   */\n      swap1\n      pop\n        /* \"#utility.yul\":3561:3980   */\n      swap4\n      swap3\n      pop\n      pop\n      pop\n      jump\t// out\n        /* \"#utility.yul\":3986:4115   */\n    tag_72:\n        /* \"#utility.yul\":4020:4026   */\n      0x00\n        /* \"#utility.yul\":4047:4067   */\n      tag_135\n      tag_136\n      jump\t// in\n    tag_135:\n        /* \"#utility.yul\":4037:4067   */\n      swap1\n      pop\n        /* \"#utility.yul\":4076:4109   */\n      tag_137\n        /* \"#utility.yul\":4104:4108   */\n      dup3\n        /* \"#utility.yul\":4096:4102   */\n      dup3\n        /* \"#utility.yul\":4076:4109   */\n      tag_138\n      jump\t// in\n    tag_137:\n        /* \"#utility.yul\":3986:4115   */\n      swap2\n      swap1\n      pop\n      jump\t// out\n        /* \"#utility.yul\":4121:4196   */\n    tag_136:\n        /* \"#utility.yul\":4154:4160   */\n      0x00\n        /* \"#utility.yul\":4187:4189   */\n      0x40\n        /* \"#utility.yul\":4181:4190   */\n      mload\n        /* \"#utility.yul\":4171:4190   */\n      swap1\n      pop\n        /* \"#utility.yul\":4121:4196   */\n      swap1\n      jump\t// out\n        /* \"#utility.yul\":4202:4510   */\n    tag_71:\n        /* \"#utility.yul\":4264:4268   */\n      0x00\n        /* \"#utility.yul\":4354:4372   */\n      0xffffffffffffffff\n        /* \"#utility.yul\":4346:4352   */\n      dup3\n        /* \"#utility.yul\":4343:4373   */\n      gt\n        /* \"#utility.yul\":4340:4396   */\n      iszero\n      tag_141\n      jumpi\n        /* \"#utility.yul\":4376:4394   */\n      tag_142\n      tag_143\n      jump\t// in\n    tag_142:\n        /* \"#utility.yul\":4340:4396   */\n    tag_141:\n        /* \"#utility.yul\":4414:4443   */\n      tag_144\n        /* \"#utility.yul\":4436:4442   */\n      dup3\n        /* \"#utility.yul\":4414:4443   */\n      tag_118\n      jump\t// in\n    tag_144:\n        /* \"#utility.yul\":4406:4443   */\n      swap1\n      pop\n        /* \"#utility.yul\":4498:4502   */\n      0x20\n        /* \"#utility.yul\":4492:4496   */\n      dup2\n        /* \"#utility.yul\":4488:4503   */\n      add\n        /* \"#utility.yul\":4480:4503   */\n      swap1\n      pop\n        /* \"#utility.yul\":4202:4510   */\n      swap2\n      swap1\n      pop\n      jump\t// out\n        /* \"#utility.yul\":4516:4615   */\n    tag_112:\n        /* \"#utility.yul\":4568:4574   */\n      0x00\n        /* \"#utility.yul\":4602:4607   */\n      dup2\n        /* \"#utility.yul\":4596:4608   */\n      mload\n        /* \"#utility.yul\":4586:4608   */\n      swap1\n      pop\n        /* \"#utility.yul\":4516:4615   */\n      swap2\n      swap1\n      pop\n      jump\t// out\n        /* \"#utility.yul\":4621:4790   */\n    tag_114:\n        /* \"#utility.yul\":4705:4716   */\n      0x00\n        /* \"#utility.yul\":4739:4745   */\n      dup3\n        /* \"#utility.yul\":4734:4737   */\n      dup3\n        /* \"#utility.yul\":4727:4746   */\n      mstore\n        /* \"#utility.yul\":4779:4783   */\n      0x20\n        /* \"#utility.yul\":4774:4777   */\n      dup3\n        /* \"#utility.yul\":4770:4784   */\n      add\n        /* \"#utility.yul\":4755:4784   */\n      swap1\n      pop\n        /* \"#utility.yul\":4621:4790   */\n      swap3\n      swap2\n      pop\n      pop\n      jump\t// out\n        /* \"#utility.yul\":4796:4873   */\n    tag_122:\n        /* \"#utility.yul\":4833:4840   */\n      0x00\n        /* \"#utility.yul\":4862:4867   */\n      dup2\n        /* \"#utility.yul\":4851:4867   */\n      swap1\n      pop\n        /* \"#utility.yul\":4796:4873   */\n      swap2\n      swap1\n      pop\n      jump\t// out\n        /* \"#utility.yul\":4879:4972   */\n    tag_126:\n        /* \"#utility.yul\":4915:4922   */\n      0x00\n        /* \"#utility.yul\":4955:4965   */\n      0xffffffff\n        /* \"#utility.yul\":4948:4953   */\n      dup3\n        /* \"#utility.yul\":4944:4966   */\n      and\n        /* \"#utility.yul\":4933:4966   */\n      swap1\n      pop\n        /* \"#utility.yul\":4879:4972   */\n      swap2\n      swap1\n      pop\n      jump\t// out\n        /* \"#utility.yul\":4978:5132   */\n    tag_77:\n        /* \"#utility.yul\":5062:5068   */\n      dup3\n        /* \"#utility.yul\":5057:5060   */\n      dup2\n        /* \"#utility.yul\":5052:5055   */\n      dup4\n        /* \"#utility.yul\":5039:5069   */\n      calldatacopy\n        /* \"#utility.yul\":5124:5125   */\n      0x00\n        /* \"#utility.yul\":5115:5121   */\n      dup4\n        /* \"#utility.yul\":5110:5113   */\n      dup4\n        /* \"#utility.yul\":5106:5122   */\n      add\n        /* \"#utility.yul\":5099:5126   */\n      mstore\n        /* \"#utility.yul\":4978:5132   */\n      pop\n      pop\n      pop\n      jump\t// out\n        /* \"#utility.yul\":5138:5445   */\n    tag_116:\n        /* \"#utility.yul\":5206:5207   */\n      0x00\n        /* \"#utility.yul\":5216:5329   */\n    tag_151:\n        /* \"#utility.yul\":5230:5236   */\n      dup4\n        /* \"#utility.yul\":5227:5228   */\n      dup2\n        /* \"#utility.yul\":5224:5237   */\n      lt\n        /* \"#utility.yul\":5216:5329   */\n      iszero\n      tag_153\n      jumpi\n        /* \"#utility.yul\":5315:5316   */\n      dup1\n        /* \"#utility.yul\":5310:5313   */\n      dup3\n        /* \"#utility.yul\":5306:5317   */\n      add\n        /* \"#utility.yul\":5300:5318   */\n      mload\n        /* \"#utility.yul\":5296:5297   */\n      dup2\n        /* \"#utility.yul\":5291:5294   */\n      dup5\n        /* \"#utility.yul\":5287:5298   */\n      add\n        /* \"#utility.yul\":5280:5319   */\n      mstore\n        /* \"#utility.yul\":5252:5254   */\n      0x20\n        /* \"#utility.yul\":5249:5250   */\n      dup2\n        /* \"#utility.yul\":5245:5255   */\n      add\n        /* \"#utility.yul\":5240:5255   */\n      swap1\n      pop\n        /* \"#utility.yul\":5216:5329   */\n      jump(tag_151)\n    tag_153:\n        /* \"#utility.yul\":5347:5353   */\n      dup4\n        /* \"#utility.yul\":5344:5345   */\n      dup2\n        /* \"#utility.yul\":5341:5354   */\n      gt\n        /* \"#utility.yul\":5338:5439   */\n      iszero\n      tag_154\n      jumpi\n        /* \"#utility.yul\":5427:5428   */\n      0x00\n        /* \"#utility.yul\":5418:5424   */\n      dup5\n        /* \"#utility.yul\":5413:5416   */\n      dup5\n        /* \"#utility.yul\":5409:5425   */\n      add\n        /* \"#utility.yul\":5402:5429   */\n      mstore\n        /* \"#utility.yul\":5338:5439   */\n    tag_154:\n        /* \"#utility.yul\":5187:5445   */\n      pop\n        /* \"#utility.yul\":5138:5445   */\n      pop\n      pop\n      pop\n      jump\t// out\n        /* \"#utility.yul\":5451:5771   */\n    tag_42:\n        /* \"#utility.yul\":5495:5501   */\n      0x00\n        /* \"#utility.yul\":5532:5533   */\n      0x02\n        /* \"#utility.yul\":5526:5530   */\n      dup3\n        /* \"#utility.yul\":5522:5534   */\n      div\n        /* \"#utility.yul\":5512:5534   */\n      swap1\n      pop\n        /* \"#utility.yul\":5579:5580   */\n      0x01\n        /* \"#utility.yul\":5573:5577   */\n      dup3\n        /* \"#utility.yul\":5569:5581   */\n      and\n        /* \"#utility.yul\":5600:5618   */\n      dup1\n        /* \"#utility.yul\":5590:5671   */\n      tag_156\n      jumpi\n        /* \"#utility.yul\":5656:5660   */\n      0x7f\n        /* \"#utility.yul\":5648:5654   */\n      dup3\n        /* \"#utility.yul\":5644:5661   */\n      and\n        /* \"#utility.yul\":5634:5661   */\n      swap2\n      pop\n        /* \"#utility.yul\":5590:5671   */\n    tag_156:\n        /* \"#utility.yul\":5718:5720   */\n      0x20\n        /* \"#utility.yul\":5710:5716   */\n      dup3\n        /* \"#utility.yul\":5707:5721   */\n      lt\n        /* \"#utility.yul\":5687:5705   */\n      dup2\n        /* \"#utility.yul\":5684:5722   */\n      eq\n        /* \"#utility.yul\":5681:5765   */\n      iszero\n      tag_157\n      jumpi\n        /* \"#utility.yul\":5737:5755   */\n      tag_158\n      tag_159\n      jump\t// in\n    tag_158:\n        /* \"#utility.yul\":5681:5765   */\n    tag_157:\n        /* \"#utility.yul\":5502:5771   */\n      pop\n        /* \"#utility.yul\":5451:5771   */\n      swap2\n      swap1\n      pop\n      jump\t// out\n        /* \"#utility.yul\":5777:6058   */\n    tag_138:\n        /* \"#utility.yul\":5860:5887   */\n      tag_161\n        /* \"#utility.yul\":5882:5886   */\n      dup3\n        /* \"#utility.yul\":5860:5887   */\n      tag_118\n      jump\t// in\n    tag_161:\n        /* \"#utility.yul\":5852:5858   */\n      dup2\n        /* \"#utility.yul\":5848:5888   */\n      add\n        /* \"#utility.yul\":5990:5996   */\n      dup2\n        /* \"#utility.yul\":5978:5988   */\n      dup2\n        /* \"#utility.yul\":5975:5997   */\n      lt\n        /* \"#utility.yul\":5954:5972   */\n      0xffffffffffffffff\n        /* \"#utility.yul\":5942:5952   */\n      dup3\n        /* \"#utility.yul\":5939:5973   */\n      gt\n        /* \"#utility.yul\":5936:5998   */\n      or\n        /* \"#utility.yul\":5933:6021   */\n      iszero\n      tag_162\n      jumpi\n        /* \"#utility.yul\":6001:6019   */\n      tag_163\n      tag_143\n      jump\t// in\n    tag_163:\n        /* \"#utility.yul\":5933:6021   */\n    tag_162:\n        /* \"#utility.yul\":6041:6051   */\n      dup1\n        /* \"#utility.yul\":6037:6039   */\n      0x40\n        /* \"#utility.yul\":6030:6052   */\n      mstore\n        /* \"#utility.yul\":5820:6058   */\n      pop\n        /* \"#utility.yul\":5777:6058   */\n      pop\n      pop\n      jump\t// out\n        /* \"#utility.yul\":6064:6244   */\n    tag_159:\n        /* \"#utility.yul\":6112:6189   */\n      0x4e487b7100000000000000000000000000000000000000000000000000000000\n        /* \"#utility.yul\":6109:6110   */\n      0x00\n        /* \"#utility.yul\":6102:6190   */\n      mstore\n        /* \"#utility.yul\":6209:6213   */\n      0x22\n        /* \"#utility.yul\":6206:6207   */\n      0x04\n        /* \"#utility.yul\":6199:6214   */\n      mstore\n        /* \"#utility.yul\":6233:6237   */\n      0x24\n        /* \"#utility.yul\":6230:6231   */\n      0x00\n        /* \"#utility.yul\":6223:6238   */\n      revert\n        /* \"#utility.yul\":6250:6430   */\n    tag_143:\n        /* \"#utility.yul\":6298:6375   */\n      0x4e487b7100000000000000000000000000000000000000000000000000000000\n        /* \"#utility.yul\":6295:6296   */\n      0x00\n        /* \"#utility.yul\":6288:6376   */\n      mstore\n        /* \"#utility.yul\":6395:6399   */\n      0x41\n        /* \"#utility.yul\":6392:6393   */\n      0x04\n        /* \"#utility.yul\":6385:6400   */\n      mstore\n        /* \"#utility.yul\":6419:6423   */\n      0x24\n        /* \"#utility.yul\":6416:6417   */\n      0x00\n        /* \"#utility.yul\":6409:6424   */\n      revert\n        /* \"#utility.yul\":6436:6553   */\n    tag_82:\n        /* \"#utility.yul\":6545:6546   */\n      0x00\n        /* \"#utility.yul\":6542:6543   */\n      dup1\n        /* \"#utility.yul\":6535:6547   */\n      revert\n        /* \"#utility.yul\":6559:6676   */\n    tag_75:\n        /* \"#utility.yul\":6668:6669   */\n      0x00\n        /* \"#utility.yul\":6665:6666   */\n      dup1\n        /* \"#utility.yul\":6658:6670   */\n      revert\n        /* \"#utility.yul\":6682:6799   */\n    tag_107:\n        /* \"#utility.yul\":6791:6792   */\n      0x00\n        /* \"#utility.yul\":6788:6789   */\n      dup1\n        /* \"#utility.yul\":6781:6793   */\n      revert\n        /* \"#utility.yul\":6805:6922   */\n    tag_95:\n        /* \"#utility.yul\":6914:6915   */\n      0x00\n        /* \"#utility.yul\":6911:6912   */\n      dup1\n        /* \"#utility.yul\":6904:6916   */\n      revert\n        /* \"#utility.yul\":6928:7030   */\n    tag_118:\n        /* \"#utility.yul\":6969:6975   */\n      0x00\n        /* \"#utility.yul\":7020:7022   */\n      0x1f\n        /* \"#utility.yul\":7016:7023   */\n      not\n        /* \"#utility.yul\":7011:7013   */\n      0x1f\n        /* \"#utility.yul\":7004:7009   */\n      dup4\n        /* \"#utility.yul\":7000:7014   */\n      add\n        /* \"#utility.yul\":6996:7024   */\n      and\n        /* \"#utility.yul\":6986:7024   */\n      swap1\n      pop\n        /* \"#utility.yul\":6928:7030   */\n      swap2\n      swap1\n      pop\n      jump\t// out\n        /* \"#utility.yul\":7036:7158   */\n    tag_87:\n        /* \"#utility.yul\":7109:7133   */\n      tag_172\n        /* \"#utility.yul\":7127:7132   */\n      dup2\n        /* \"#utility.yul\":7109:7133   */\n      tag_122\n      jump\t// in\n    tag_172:\n        /* \"#utility.yul\":7102:7107   */\n      dup2\n        /* \"#utility.yul\":7099:7134   */\n      eq\n        /* \"#utility.yul\":7089:7152   */\n      tag_173\n      jumpi\n        /* \"#utility.yul\":7148:7149   */\n      0x00\n        /* \"#utility.yul\":7145:7146   */\n      dup1\n        /* \"#utility.yul\":7138:7150   */\n      revert\n        /* \"#utility.yul\":7089:7152   */\n    tag_173:\n        /* \"#utility.yul\":7036:7158   */\n      pop\n      jump\t// out\n        /* \"#utility.yul\":7164:7284   */\n    tag_91:\n        /* \"#utility.yul\":7236:7259   */\n      tag_175\n        /* \"#utility.yul\":7253:7258   */\n      dup2\n        /* \"#utility.yul\":7236:7259   */\n      tag_126\n      jump\t// in\n    tag_175:\n        /* \"#utility.yul\":7229:7234   */\n      dup2\n        /* \"#utility.yul\":7226:7260   */\n      eq\n        /* \"#utility.yul\":7216:7278   */\n      tag_176\n      jumpi\n        /* \"#utility.yul\":7274:7275   */\n      0x00\n        /* \"#utility.yul\":7271:7272   */\n      dup1\n        /* \"#utility.yul\":7264:7276   */\n      revert\n        /* \"#utility.yul\":7216:7278   */\n    tag_176:\n        /* \"#utility.yul\":7164:7284   */\n      pop\n      jump\t// out\n\n    auxdata: 0xa2646970667358221220b430e828572952fdb9212506a20e67eda5aebd9adec2eabfaaca4029faf3356164736f6c63430008070033\n}\n",
				"bytecode": {
					"linkReferences": {},
					"object": "608060405260016000806101000a81548160ff0219169083151502179055507fffffffffffffffffffffffffffffffffffffffffffffffffffffffffffffff85600155607b60035573e4a976fdea6caa37638a4554f3779663535af314600460006101000a81548173ffffffffffffffffffffffffffffffffffffffff021916908373ffffffffffffffffffffffffffffffffffffffff1602179055507f737570706f7365206e616d65206f722066696c650000000000000000000000006005556040518060400160405280601081526020017f736f6c69646974792070726f6772616d000000000000000000000000000000008152506006908051906020019061010b929190610250565b506040518060400160405280600763ffffffff1681526020016040518060400160405280600681526020017f6465766573680000000000000000000000000000000000000000000000000000815250815250600760008201518160000160006101000a81548163ffffffff021916908363ffffffff16021790555060208201518160010190805190602001906101a2929190610250565b5050506040518060400160405280600b63ffffffff1681526020016040518060400160405280600581526020017f6161727469000000000000000000000000000000000000000000000000000000815250815250600960008201518160000160006101000a81548163ffffffff021916908363ffffffff160217905550602082015181600101908051906020019061023b929190610250565b50505034801561024a57600080fd5b50610354565b82805461025c906102f3565b90600052602060002090601f01602090048101928261027e57600085556102c5565b82601f1061029757805160ff19168380011785556102c5565b828001600101855582156102c5579182015b828111156102c45782518255916020019190600101906102a9565b5b5090506102d291906102d6565b5090565b5b808211156102ef5760008160009055506001016102d7565b5090565b6000600282049050600182168061030b57607f821691505b6020821081141561031f5761031e610325565b5b50919050565b7f4e487b7100000000000000000000000000000000000000000000000000000000600052602260045260246000fd5b610857806103636000396000f3fe608060405234801561001057600080fd5b50600436106100625760003560e01c806303797a0b146100675780630a81eeb91461008357806339765bff146100b457806359477571146100d0578063ab9dbd0714610100578063dc5d184f1461011e575b600080fd5b610081600480360381019061007c919061051f565b61013a565b005b61009d600480360381019061009891906104c5565b6101d0565b6040516100ab92919061060f565b60405180910390f35b6100ce60048036038101906100c9919061051f565b61029c565b005b6100ea60048036038101906100e591906104f2565b6102d4565b6040516100f791906105d2565b60405180910390f35b610108610374565b60405161011591906105f4565b60405180910390f35b610138600480360381019061013391906104c5565b61037e565b005b600060405180604001604052808463ffffffff168152602001838152509050600b81908060018154018082558091505060019003906000526020600020906002020160009091909190915060008201518160000160006101000a81548163ffffffff021916908363ffffffff16021790555060208201518160010190805190602001906101c8929190610388565b505050505050565b600b81815481106101e057600080fd5b90600052602060002090600202016000915090508060000160009054906101000a900463ffffffff16908060010180546102199061070d565b80601f01602080910402602001604051908101604052809291908181526020018280546102459061070d565b80156102925780601f1061026757610100808354040283529160200191610292565b820191906000526020600020905b81548152906001019060200180831161027557829003601f168201915b5050505050905082565b80600c60008463ffffffff1663ffffffff16815260200190815260200160002090805190602001906102cf929190610388565b505050565b600c60205280600052604060002060009150905080546102f39061070d565b80601f016020809104026020016040519081016040528092919081815260200182805461031f9061070d565b801561036c5780601f106103415761010080835404028352916020019161036c565b820191906000526020600020905b81548152906001019060200180831161034f57829003601f168201915b505050505081565b6000600354905090565b8060038190555050565b8280546103949061070d565b90600052602060002090601f0160209004810192826103b657600085556103fd565b82601f106103cf57805160ff19168380011785556103fd565b828001600101855582156103fd579182015b828111156103fc5782518255916020019190600101906103e1565b5b50905061040a919061040e565b5090565b5b8082111561042757600081600090555060010161040f565b5090565b600061043e61043984610664565b61063f565b90508281526020810184848401111561045a576104596107d3565b5b6104658482856106cb565b509392505050565b600082601f830112610482576104816107ce565b5b813561049284826020860161042b565b91505092915050565b6000813590506104aa816107f3565b92915050565b6000813590506104bf8161080a565b92915050565b6000602082840312156104db576104da6107dd565b5b60006104e98482850161049b565b91505092915050565b600060208284031215610508576105076107dd565b5b6000610516848285016104b0565b91505092915050565b60008060408385031215610536576105356107dd565b5b6000610544858286016104b0565b925050602083013567ffffffffffffffff811115610565576105646107d8565b5b6105718582860161046d565b9150509250929050565b600061058682610695565b61059081856106a0565b93506105a08185602086016106da565b6105a9816107e2565b840191505092915050565b6105bd816106b1565b82525050565b6105cc816106bb565b82525050565b600060208201905081810360008301526105ec818461057b565b905092915050565b600060208201905061060960008301846105b4565b92915050565b600060408201905061062460008301856105c3565b8181036020830152610636818461057b565b90509392505050565b600061064961065a565b9050610655828261073f565b919050565b6000604051905090565b600067ffffffffffffffff82111561067f5761067e61079f565b5b610688826107e2565b9050602081019050919050565b600081519050919050565b600082825260208201905092915050565b6000819050919050565b600063ffffffff82169050919050565b82818337600083830152505050565b60005b838110156106f85780820151818401526020810190506106dd565b83811115610707576000848401525b50505050565b6000600282049050600182168061072557607f821691505b6020821081141561073957610738610770565b5b50919050565b610748826107e2565b810181811067ffffffffffffffff821117156107675761076661079f565b5b80604052505050565b7f4e487b7100000000000000000000000000000000000000000000000000000000600052602260045260246000fd5b7f4e487b7100000000000000000000000000000000000000000000000000000000600052604160045260246000fd5b600080fd5b600080fd5b600080fd5b600080fd5b6000601f19601f8301169050919050565b6107fc816106b1565b811461080757600080fd5b50565b610813816106bb565b811461081e57600080fd5b5056fea2646970667358221220b430e828572952fdb9212506a20e67eda5aebd9adec2eabfaaca4029faf3356164736f6c63430008070033",
					"opcodes": "PUSH1 0x80 PUSH1 0x40 MSTORE PUSH1 0x1 PUSH1 0x0 DUP1 PUSH2 0x100 EXP DUP2 SLOAD DUP2 PUSH1 0xFF MUL NOT AND SWAP1 DUP4 ISZERO ISZERO MUL OR SWAP1 SSTORE POP PUSH32 0xFFFFFFFFFFFFFFFFFFFFFFFFFFFFFFFFFFFFFFFFFFFFFFFFFFFFFFFFFFFFFF85 PUSH1 0x1 SSTORE PUSH1 0x7B PUSH1 0x3 SSTORE PUSH20 0xE4A976FDEA6CAA37638A4554F3779663535AF314 PUSH1 0x4 PUSH1 0x0 PUSH2 0x100 EXP DUP2 SLOAD DUP2 PUSH20 0xFFFFFFFFFFFFFFFFFFFFFFFFFFFFFFFFFFFFFFFF MUL NOT AND SWAP1 DUP4 PUSH20 0xFFFFFFFFFFFFFFFFFFFFFFFFFFFFFFFFFFFFFFFF AND MUL OR SWAP1 SSTORE POP PUSH32 0x737570706F7365206E616D65206F722066696C65000000000000000000000000 PUSH1 0x5 SSTORE PUSH1 0x40 MLOAD DUP1 PUSH1 0x40 ADD PUSH1 0x40 MSTORE DUP1 PUSH1 0x10 DUP2 MSTORE PUSH1 0x20 ADD PUSH32 0x736F6C69646974792070726F6772616D00000000000000000000000000000000 DUP2 MSTORE POP PUSH1 0x6 SWAP1 DUP1 MLOAD SWAP1 PUSH1 0x20 ADD SWAP1 PUSH2 0x10B SWAP3 SWAP2 SWAP1 PUSH2 0x250 JUMP JUMPDEST POP PUSH1 0x40 MLOAD DUP1 PUSH1 0x40 ADD PUSH1 0x40 MSTORE DUP1 PUSH1 0x7 PUSH4 0xFFFFFFFF AND DUP2 MSTORE PUSH1 0x20 ADD PUSH1 0x40 MLOAD DUP1 PUSH1 0x40 ADD PUSH1 0x40 MSTORE DUP1 PUSH1 0x6 DUP2 MSTORE PUSH1 0x20 ADD PUSH32 0x6465766573680000000000000000000000000000000000000000000000000000 DUP2 MSTORE POP DUP2 MSTORE POP PUSH1 0x7 PUSH1 0x0 DUP3 ADD MLOAD DUP2 PUSH1 0x0 ADD PUSH1 0x0 PUSH2 0x100 EXP DUP2 SLOAD DUP2 PUSH4 0xFFFFFFFF MUL NOT AND SWAP1 DUP4 PUSH4 0xFFFFFFFF AND MUL OR SWAP1 SSTORE POP PUSH1 0x20 DUP3 ADD MLOAD DUP2 PUSH1 0x1 ADD SWAP1 DUP1 MLOAD SWAP1 PUSH1 0x20 ADD SWAP1 PUSH2 0x1A2 SWAP3 SWAP2 SWAP1 PUSH2 0x250 JUMP JUMPDEST POP POP POP PUSH1 0x40 MLOAD DUP1 PUSH1 0x40 ADD PUSH1 0x40 MSTORE DUP1 PUSH1 0xB PUSH4 0xFFFFFFFF AND DUP2 MSTORE PUSH1 0x20 ADD PUSH1 0x40 MLOAD DUP1 PUSH1 0x40 ADD PUSH1 0x40 MSTORE DUP1 PUSH1 0x5 DUP2 MSTORE PUSH1 0x20 ADD PUSH32 0x6161727469000000000000000000000000000000000000000000000000000000 DUP2 MSTORE POP DUP2 MSTORE POP PUSH1 0x9 PUSH1 0x0 DUP3 ADD MLOAD DUP2 PUSH1 0x0 ADD PUSH1 0x0 PUSH2 0x100 EXP DUP2 SLOAD DUP2 PUSH4 0xFFFFFFFF MUL NOT AND SWAP1 DUP4 PUSH4 0xFFFFFFFF AND MUL OR SWAP1 SSTORE POP PUSH1 0x20 DUP3 ADD MLOAD DUP2 PUSH1 0x1 ADD SWAP1 DUP1 MLOAD SWAP1 PUSH1 0x20 ADD SWAP1 PUSH2 0x23B SWAP3 SWAP2 SWAP1 PUSH2 0x250 JUMP JUMPDEST POP POP POP CALLVALUE DUP1 ISZERO PUSH2 0x24A JUMPI PUSH1 0x0 DUP1 REVERT JUMPDEST POP PUSH2 0x354 JUMP JUMPDEST DUP3 DUP1 SLOAD PUSH2 0x25C SWAP1 PUSH2 0x2F3 JUMP JUMPDEST SWAP1 PUSH1 0x0 MSTORE PUSH1 0x20 PUSH1 0x0 KECCAK256 SWAP1 PUSH1 0x1F ADD PUSH1 0x20 SWAP1 DIV DUP2 ADD SWAP3 DUP3 PUSH2 0x27E JUMPI PUSH1 0x0 DUP6 SSTORE PUSH2 0x2C5 JUMP JUMPDEST DUP3 PUSH1 0x1F LT PUSH2 0x297 JUMPI DUP1 MLOAD PUSH1 0xFF NOT AND DUP4 DUP1 ADD OR DUP6 SSTORE PUSH2 0x2C5 JUMP JUMPDEST DUP3 DUP1 ADD PUSH1 0x1 ADD DUP6 SSTORE DUP3 ISZERO PUSH2 0x2C5 JUMPI SWAP2 DUP3 ADD JUMPDEST DUP3 DUP2 GT ISZERO PUSH2 0x2C4 JUMPI DUP3 MLOAD DUP3 SSTORE SWAP2 PUSH1 0x20 ADD SWAP2 SWAP1 PUSH1 0x1 ADD SWAP1 PUSH2 0x2A9 JUMP JUMPDEST JUMPDEST POP SWAP1 POP PUSH2 0x2D2 SWAP2 SWAP1 PUSH2 0x2D6 JUMP JUMPDEST POP SWAP1 JUMP JUMPDEST JUMPDEST DUP1 DUP3 GT ISZERO PUSH2 0x2EF JUMPI PUSH1 0x0 DUP2 PUSH1 0x0 SWAP1 SSTORE POP PUSH1 0x1 ADD PUSH2 0x2D7 JUMP JUMPDEST POP SWAP1 JUMP JUMPDEST PUSH1 0x0 PUSH1 0x2 DUP3 DIV SWAP1 POP PUSH1 0x1 DUP3 AND DUP1 PUSH2 0x30B JUMPI PUSH1 0x7F DUP3 AND SWAP2 POP JUMPDEST PUSH1 0x20 DUP3 LT DUP2 EQ ISZERO PUSH2 0x31F JUMPI PUSH2 0x31E PUSH2 0x325 JUMP JUMPDEST JUMPDEST POP SWAP2 SWAP1 POP JUMP JUMPDEST PUSH32 0x4E487B7100000000000000000000000000000000000000000000000000000000 PUSH1 0x0 MSTORE PUSH1 0x22 PUSH1 0x4 MSTORE PUSH1 0x24 PUSH1 0x0 REVERT JUMPDEST PUSH2 0x857 DUP1 PUSH2 0x363 PUSH1 0x0 CODECOPY PUSH1 0x0 RETURN INVALID PUSH1 0x80 PUSH1 0x40 MSTORE CALLVALUE DUP1 ISZERO PUSH2 0x10 JUMPI PUSH1 0x0 DUP1 REVERT JUMPDEST POP PUSH1 0x4 CALLDATASIZE LT PUSH2 0x62 JUMPI PUSH1 0x0 CALLDATALOAD PUSH1 0xE0 SHR DUP1 PUSH4 0x3797A0B EQ PUSH2 0x67 JUMPI DUP1 PUSH4 0xA81EEB9 EQ PUSH2 0x83 JUMPI DUP1 PUSH4 0x39765BFF EQ PUSH2 0xB4 JUMPI DUP1 PUSH4 0x59477571 EQ PUSH2 0xD0 JUMPI DUP1 PUSH4 0xAB9DBD07 EQ PUSH2 0x100 JUMPI DUP1 PUSH4 0xDC5D184F EQ PUSH2 0x11E JUMPI JUMPDEST PUSH1 0x0 DUP1 REVERT JUMPDEST PUSH2 0x81 PUSH1 0x4 DUP1 CALLDATASIZE SUB DUP2 ADD SWAP1 PUSH2 0x7C SWAP2 SWAP1 PUSH2 0x51F JUMP JUMPDEST PUSH2 0x13A JUMP JUMPDEST STOP JUMPDEST PUSH2 0x9D PUSH1 0x4 DUP1 CALLDATASIZE SUB DUP2 ADD SWAP1 PUSH2 0x98 SWAP2 SWAP1 PUSH2 0x4C5 JUMP JUMPDEST PUSH2 0x1D0 JUMP JUMPDEST PUSH1 0x40 MLOAD PUSH2 0xAB SWAP3 SWAP2 SWAP1 PUSH2 0x60F JUMP JUMPDEST PUSH1 0x40 MLOAD DUP1 SWAP2 SUB SWAP1 RETURN JUMPDEST PUSH2 0xCE PUSH1 0x4 DUP1 CALLDATASIZE SUB DUP2 ADD SWAP1 PUSH2 0xC9 SWAP2 SWAP1 PUSH2 0x51F JUMP JUMPDEST PUSH2 0x29C JUMP JUMPDEST STOP JUMPDEST PUSH2 0xEA PUSH1 0x4 DUP1 CALLDATASIZE SUB DUP2 ADD SWAP1 PUSH2 0xE5 SWAP2 SWAP1 PUSH2 0x4F2 JUMP JUMPDEST PUSH2 0x2D4 JUMP JUMPDEST PUSH1 0x40 MLOAD PUSH2 0xF7 SWAP2 SWAP1 PUSH2 0x5D2 JUMP JUMPDEST PUSH1 0x40 MLOAD DUP1 SWAP2 SUB SWAP1 RETURN JUMPDEST PUSH2 0x108 PUSH2 0x374 JUMP JUMPDEST PUSH1 0x40 MLOAD PUSH2 0x115 SWAP2 SWAP1 PUSH2 0x5F4 JUMP JUMPDEST PUSH1 0x40 MLOAD DUP1 SWAP2 SUB SWAP1 RETURN JUMPDEST PUSH2 0x138 PUSH1 0x4 DUP1 CALLDATASIZE SUB DUP2 ADD SWAP1 PUSH2 0x133 SWAP2 SWAP1 PUSH2 0x4C5 JUMP JUMPDEST PUSH2 0x37E JUMP JUMPDEST STOP JUMPDEST PUSH1 0x0 PUSH1 0x40 MLOAD DUP1 PUSH1 0x40 ADD PUSH1 0x40 MSTORE DUP1 DUP5 PUSH4 0xFFFFFFFF AND DUP2 MSTORE PUSH1 0x20 ADD DUP4 DUP2 MSTORE POP SWAP1 POP PUSH1 0xB DUP2 SWAP1 DUP1 PUSH1 0x1 DUP2 SLOAD ADD DUP1 DUP3 SSTORE DUP1 SWAP2 POP POP PUSH1 0x1 SWAP1 SUB SWAP1 PUSH1 0x0 MSTORE PUSH1 0x20 PUSH1 0x0 KECCAK256 SWAP1 PUSH1 0x2 MUL ADD PUSH1 0x0 SWAP1 SWAP2 SWAP1 SWAP2 SWAP1 SWAP2 POP PUSH1 0x0 DUP3 ADD MLOAD DUP2 PUSH1 0x0 ADD PUSH1 0x0 PUSH2 0x100 EXP DUP2 SLOAD DUP2 PUSH4 0xFFFFFFFF MUL NOT AND SWAP1 DUP4 PUSH4 0xFFFFFFFF AND MUL OR SWAP1 SSTORE POP PUSH1 0x20 DUP3 ADD MLOAD DUP2 PUSH1 0x1 ADD SWAP1 DUP1 MLOAD SWAP1 PUSH1 0x20 ADD SWAP1 PUSH2 0x1C8 SWAP3 SWAP2 SWAP1 PUSH2 0x388 JUMP JUMPDEST POP POP POP POP POP POP JUMP JUMPDEST PUSH1 0xB DUP2 DUP2 SLOAD DUP2 LT PUSH2 0x1E0 JUMPI PUSH1 0x0 DUP1 REVERT JUMPDEST SWAP1 PUSH1 0x0 MSTORE PUSH1 0x20 PUSH1 0x0 KECCAK256 SWAP1 PUSH1 0x2 MUL ADD PUSH1 0x0 SWAP2 POP SWAP1 POP DUP1 PUSH1 0x0 ADD PUSH1 0x0 SWAP1 SLOAD SWAP1 PUSH2 0x100 EXP SWAP1 DIV PUSH4 0xFFFFFFFF AND SWAP1 DUP1 PUSH1 0x1 ADD DUP1 SLOAD PUSH2 0x219 SWAP1 PUSH2 0x70D JUMP JUMPDEST DUP1 PUSH1 0x1F ADD PUSH1 0x20 DUP1 SWAP2 DIV MUL PUSH1 0x20 ADD PUSH1 0x40 MLOAD SWAP1 DUP2 ADD PUSH1 0x40 MSTORE DUP1 SWAP3 SWAP2 SWAP1 DUP2 DUP2 MSTORE PUSH1 0x20 ADD DUP3 DUP1 SLOAD PUSH2 0x245 SWAP1 PUSH2 0x70D JUMP JUMPDEST DUP1 ISZERO PUSH2 0x292 JUMPI DUP1 PUSH1 0x1F LT PUSH2 0x267 JUMPI PUSH2 0x100 DUP1 DUP4 SLOAD DIV MUL DUP4 MSTORE SWAP2 PUSH1 0x20 ADD SWAP2 PUSH2 0x292 JUMP JUMPDEST DUP3 ADD SWAP2 SWAP1 PUSH1 0x0 MSTORE PUSH1 0x20 PUSH1 0x0 KECCAK256 SWAP1 JUMPDEST DUP2 SLOAD DUP2 MSTORE SWAP1 PUSH1 0x1 ADD SWAP1 PUSH1 0x20 ADD DUP1 DUP4 GT PUSH2 0x275 JUMPI DUP3 SWAP1 SUB PUSH1 0x1F AND DUP3 ADD SWAP2 JUMPDEST POP POP POP POP POP SWAP1 POP DUP3 JUMP JUMPDEST DUP1 PUSH1 0xC PUSH1 0x0 DUP5 PUSH4 0xFFFFFFFF AND PUSH4 0xFFFFFFFF AND DUP2 MSTORE PUSH1 0x20 ADD SWAP1 DUP2 MSTORE PUSH1 0x20 ADD PUSH1 0x0 KECCAK256 SWAP1 DUP1 MLOAD SWAP1 PUSH1 0x20 ADD SWAP1 PUSH2 0x2CF SWAP3 SWAP2 SWAP1 PUSH2 0x388 JUMP JUMPDEST POP POP POP JUMP JUMPDEST PUSH1 0xC PUSH1 0x20 MSTORE DUP1 PUSH1 0x0 MSTORE PUSH1 0x40 PUSH1 0x0 KECCAK256 PUSH1 0x0 SWAP2 POP SWAP1 POP DUP1 SLOAD PUSH2 0x2F3 SWAP1 PUSH2 0x70D JUMP JUMPDEST DUP1 PUSH1 0x1F ADD PUSH1 0x20 DUP1 SWAP2 DIV MUL PUSH1 0x20 ADD PUSH1 0x40 MLOAD SWAP1 DUP2 ADD PUSH1 0x40 MSTORE DUP1 SWAP3 SWAP2 SWAP1 DUP2 DUP2 MSTORE PUSH1 0x20 ADD DUP3 DUP1 SLOAD PUSH2 0x31F SWAP1 PUSH2 0x70D JUMP JUMPDEST DUP1 ISZERO PUSH2 0x36C JUMPI DUP1 PUSH1 0x1F LT PUSH2 0x341 JUMPI PUSH2 0x100 DUP1 DUP4 SLOAD DIV MUL DUP4 MSTORE SWAP2 PUSH1 0x20 ADD SWAP2 PUSH2 0x36C JUMP JUMPDEST DUP3 ADD SWAP2 SWAP1 PUSH1 0x0 MSTORE PUSH1 0x20 PUSH1 0x0 KECCAK256 SWAP1 JUMPDEST DUP2 SLOAD DUP2 MSTORE SWAP1 PUSH1 0x1 ADD SWAP1 PUSH1 0x20 ADD DUP1 DUP4 GT PUSH2 0x34F JUMPI DUP3 SWAP1 SUB PUSH1 0x1F AND DUP3 ADD SWAP2 JUMPDEST POP POP POP POP POP DUP2 JUMP JUMPDEST PUSH1 0x0 PUSH1 0x3 SLOAD SWAP1 POP SWAP1 JUMP JUMPDEST DUP1 PUSH1 0x3 DUP2 SWAP1 SSTORE POP POP JUMP JUMPDEST DUP3 DUP1 SLOAD PUSH2 0x394 SWAP1 PUSH2 0x70D JUMP JUMPDEST SWAP1 PUSH1 0x0 MSTORE PUSH1 0x20 PUSH1 0x0 KECCAK256 SWAP1 PUSH1 0x1F ADD PUSH1 0x20 SWAP1 DIV DUP2 ADD SWAP3 DUP3 PUSH2 0x3B6 JUMPI PUSH1 0x0 DUP6 SSTORE PUSH2 0x3FD JUMP JUMPDEST DUP3 PUSH1 0x1F LT PUSH2 0x3CF JUMPI DUP1 MLOAD PUSH1 0xFF NOT AND DUP4 DUP1 ADD OR DUP6 SSTORE PUSH2 0x3FD JUMP JUMPDEST DUP3 DUP1 ADD PUSH1 0x1 ADD DUP6 SSTORE DUP3 ISZERO PUSH2 0x3FD JUMPI SWAP2 DUP3 ADD JUMPDEST DUP3 DUP2 GT ISZERO PUSH2 0x3FC JUMPI DUP3 MLOAD DUP3 SSTORE SWAP2 PUSH1 0x20 ADD SWAP2 SWAP1 PUSH1 0x1 ADD SWAP1 PUSH2 0x3E1 JUMP JUMPDEST JUMPDEST POP SWAP1 POP PUSH2 0x40A SWAP2 SWAP1 PUSH2 0x40E JUMP JUMPDEST POP SWAP1 JUMP JUMPDEST JUMPDEST DUP1 DUP3 GT ISZERO PUSH2 0x427 JUMPI PUSH1 0x0 DUP2 PUSH1 0x0 SWAP1 SSTORE POP PUSH1 0x1 ADD PUSH2 0x40F JUMP JUMPDEST POP SWAP1 JUMP JUMPDEST PUSH1 0x0 PUSH2 0x43E PUSH2 0x439 DUP5 PUSH2 0x664 JUMP JUMPDEST PUSH2 0x63F JUMP JUMPDEST SWAP1 POP DUP3 DUP2 MSTORE PUSH1 0x20 DUP2 ADD DUP5 DUP5 DUP5 ADD GT ISZERO PUSH2 0x45A JUMPI PUSH2 0x459 PUSH2 0x7D3 JUMP JUMPDEST JUMPDEST PUSH2 0x465 DUP5 DUP3 DUP6 PUSH2 0x6CB JUMP JUMPDEST POP SWAP4 SWAP3 POP POP POP JUMP JUMPDEST PUSH1 0x0 DUP3 PUSH1 0x1F DUP4 ADD SLT PUSH2 0x482 JUMPI PUSH2 0x481 PUSH2 0x7CE JUMP JUMPDEST JUMPDEST DUP2 CALLDATALOAD PUSH2 0x492 DUP5 DUP3 PUSH1 0x20 DUP7 ADD PUSH2 0x42B JUMP JUMPDEST SWAP2 POP POP SWAP3 SWAP2 POP POP JUMP JUMPDEST PUSH1 0x0 DUP2 CALLDATALOAD SWAP1 POP PUSH2 0x4AA DUP2 PUSH2 0x7F3 JUMP JUMPDEST SWAP3 SWAP2 POP POP JUMP JUMPDEST PUSH1 0x0 DUP2 CALLDATALOAD SWAP1 POP PUSH2 0x4BF DUP2 PUSH2 0x80A JUMP JUMPDEST SWAP3 SWAP2 POP POP JUMP JUMPDEST PUSH1 0x0 PUSH1 0x20 DUP3 DUP5 SUB SLT ISZERO PUSH2 0x4DB JUMPI PUSH2 0x4DA PUSH2 0x7DD JUMP JUMPDEST JUMPDEST PUSH1 0x0 PUSH2 0x4E9 DUP5 DUP3 DUP6 ADD PUSH2 0x49B JUMP JUMPDEST SWAP2 POP POP SWAP3 SWAP2 POP POP JUMP JUMPDEST PUSH1 0x0 PUSH1 0x20 DUP3 DUP5 SUB SLT ISZERO PUSH2 0x508 JUMPI PUSH2 0x507 PUSH2 0x7DD JUMP JUMPDEST JUMPDEST PUSH1 0x0 PUSH2 0x516 DUP5 DUP3 DUP6 ADD PUSH2 0x4B0 JUMP JUMPDEST SWAP2 POP POP SWAP3 SWAP2 POP POP JUMP JUMPDEST PUSH1 0x0 DUP1 PUSH1 0x40 DUP4 DUP6 SUB SLT ISZERO PUSH2 0x536 JUMPI PUSH2 0x535 PUSH2 0x7DD JUMP JUMPDEST JUMPDEST PUSH1 0x0 PUSH2 0x544 DUP6 DUP3 DUP7 ADD PUSH2 0x4B0 JUMP JUMPDEST SWAP3 POP POP PUSH1 0x20 DUP4 ADD CALLDATALOAD PUSH8 0xFFFFFFFFFFFFFFFF DUP2 GT ISZERO PUSH2 0x565 JUMPI PUSH2 0x564 PUSH2 0x7D8 JUMP JUMPDEST JUMPDEST PUSH2 0x571 DUP6 DUP3 DUP7 ADD PUSH2 0x46D JUMP JUMPDEST SWAP2 POP POP SWAP3 POP SWAP3 SWAP1 POP JUMP JUMPDEST PUSH1 0x0 PUSH2 0x586 DUP3 PUSH2 0x695 JUMP JUMPDEST PUSH2 0x590 DUP2 DUP6 PUSH2 0x6A0 JUMP JUMPDEST SWAP4 POP PUSH2 0x5A0 DUP2 DUP6 PUSH1 0x20 DUP7 ADD PUSH2 0x6DA JUMP JUMPDEST PUSH2 0x5A9 DUP2 PUSH2 0x7E2 JUMP JUMPDEST DUP5 ADD SWAP2 POP POP SWAP3 SWAP2 POP POP JUMP JUMPDEST PUSH2 0x5BD DUP2 PUSH2 0x6B1 JUMP JUMPDEST DUP3 MSTORE POP POP JUMP JUMPDEST PUSH2 0x5CC DUP2 PUSH2 0x6BB JUMP JUMPDEST DUP3 MSTORE POP POP JUMP JUMPDEST PUSH1 0x0 PUSH1 0x20 DUP3 ADD SWAP1 POP DUP2 DUP2 SUB PUSH1 0x0 DUP4 ADD MSTORE PUSH2 0x5EC DUP2 DUP5 PUSH2 0x57B JUMP JUMPDEST SWAP1 POP SWAP3 SWAP2 POP POP JUMP JUMPDEST PUSH1 0x0 PUSH1 0x20 DUP3 ADD SWAP1 POP PUSH2 0x609 PUSH1 0x0 DUP4 ADD DUP5 PUSH2 0x5B4 JUMP JUMPDEST SWAP3 SWAP2 POP POP JUMP JUMPDEST PUSH1 0x0 PUSH1 0x40 DUP3 ADD SWAP1 POP PUSH2 0x624 PUSH1 0x0 DUP4 ADD DUP6 PUSH2 0x5C3 JUMP JUMPDEST DUP2 DUP2 SUB PUSH1 0x20 DUP4 ADD MSTORE PUSH2 0x636 DUP2 DUP5 PUSH2 0x57B JUMP JUMPDEST SWAP1 POP SWAP4 SWAP3 POP POP POP JUMP JUMPDEST PUSH1 0x0 PUSH2 0x649 PUSH2 0x65A JUMP JUMPDEST SWAP1 POP PUSH2 0x655 DUP3 DUP3 PUSH2 0x73F JUMP JUMPDEST SWAP2 SWAP1 POP JUMP JUMPDEST PUSH1 0x0 PUSH1 0x40 MLOAD SWAP1 POP SWAP1 JUMP JUMPDEST PUSH1 0x0 PUSH8 0xFFFFFFFFFFFFFFFF DUP3 GT ISZERO PUSH2 0x67F JUMPI PUSH2 0x67E PUSH2 0x79F JUMP JUMPDEST JUMPDEST PUSH2 0x688 DUP3 PUSH2 0x7E2 JUMP JUMPDEST SWAP1 POP PUSH1 0x20 DUP2 ADD SWAP1 POP SWAP2 SWAP1 POP JUMP JUMPDEST PUSH1 0x0 DUP2 MLOAD SWAP1 POP SWAP2 SWAP1 POP JUMP JUMPDEST PUSH1 0x0 DUP3 DUP3 MSTORE PUSH1 0x20 DUP3 ADD SWAP1 POP SWAP3 SWAP2 POP POP JUMP JUMPDEST PUSH1 0x0 DUP2 SWAP1 POP SWAP2 SWAP1 POP JUMP JUMPDEST PUSH1 0x0 PUSH4 0xFFFFFFFF DUP3 AND SWAP1 POP SWAP2 SWAP1 POP JUMP JUMPDEST DUP3 DUP2 DUP4 CALLDATACOPY PUSH1 0x0 DUP4 DUP4 ADD MSTORE POP POP POP JUMP JUMPDEST PUSH1 0x0 JUMPDEST DUP4 DUP2 LT ISZERO PUSH2 0x6F8 JUMPI DUP1 DUP3 ADD MLOAD DUP2 DUP5 ADD MSTORE PUSH1 0x20 DUP2 ADD SWAP1 POP PUSH2 0x6DD JUMP JUMPDEST DUP4 DUP2 GT ISZERO PUSH2 0x707 JUMPI PUSH1 0x0 DUP5 DUP5 ADD MSTORE JUMPDEST POP POP POP POP JUMP JUMPDEST PUSH1 0x0 PUSH1 0x2 DUP3 DIV SWAP1 POP PUSH1 0x1 DUP3 AND DUP1 PUSH2 0x725 JUMPI PUSH1 0x7F DUP3 AND SWAP2 POP JUMPDEST PUSH1 0x20 DUP3 LT DUP2 EQ ISZERO PUSH2 0x739 JUMPI PUSH2 0x738 PUSH2 0x770 JUMP JUMPDEST JUMPDEST POP SWAP2 SWAP1 POP JUMP JUMPDEST PUSH2 0x748 DUP3 PUSH2 0x7E2 JUMP JUMPDEST DUP2 ADD DUP2 DUP2 LT PUSH8 0xFFFFFFFFFFFFFFFF DUP3 GT OR ISZERO PUSH2 0x767 JUMPI PUSH2 0x766 PUSH2 0x79F JUMP JUMPDEST JUMPDEST DUP1 PUSH1 0x40 MSTORE POP POP POP JUMP JUMPDEST PUSH32 0x4E487B7100000000000000000000000000000000000000000000000000000000 PUSH1 0x0 MSTORE PUSH1 0x22 PUSH1 0x4 MSTORE PUSH1 0x24 PUSH1 0x0 REVERT JUMPDEST PUSH32 0x4E487B7100000000000000000000000000000000000000000000000000000000 PUSH1 0x0 MSTORE PUSH1 0x41 PUSH1 0x4 MSTORE PUSH1 0x24 PUSH1 0x0 REVERT JUMPDEST PUSH1 0x0 DUP1 REVERT JUMPDEST PUSH1 0x0 DUP1 REVERT JUMPDEST PUSH1 0x0 DUP1 REVERT JUMPDEST PUSH1 0x0 DUP1 REVERT JUMPDEST PUSH1 0x0 PUSH1 0x1F NOT PUSH1 0x1F DUP4 ADD AND SWAP1 POP SWAP2 SWAP1 POP JUMP JUMPDEST PUSH2 0x7FC DUP2 PUSH2 0x6B1 JUMP JUMPDEST DUP2 EQ PUSH2 0x807 JUMPI PUSH1 0x0 DUP1 REVERT JUMPDEST POP JUMP JUMPDEST PUSH2 0x813 DUP2 PUSH2 0x6BB JUMP JUMPDEST DUP2 EQ PUSH2 0x81E JUMPI PUSH1 0x0 DUP1 REVERT JUMPDEST POP JUMP INVALID LOG2 PUSH5 0x6970667358 0x22 SLT KECCAK256 0xB4 ADDRESS 0xE8 0x28 JUMPI 0x29 MSTORE REVERT 0xB9 0x21 0x25 MOD LOG2 0xE PUSH8 0xEDA5AEBD9ADEC2EA 0xBF 0xAA 0xCA BLOCKHASH 0x29 STATICCALL RETURN CALLDATALOAD PUSH2 0x6473 PUSH16 0x6C634300080700330000000000000000 "
				},
				"gasEstimates": {
					"creation": {
						"codeDepositCost": "427000",
						"executionCost": "infinite",
						"totalCost": "infinite"
					},
					"external": {
						"EmloyeeMap(uint32)": "infinite",
						"EmployeeArr(uint256)": "infinite",
						"addEmployee(uint32,string)": "infinite",
						"addEmployeeInMap(uint32,string)": "infinite",
						"getID()": "2503",
						"setID(uint256)": "22608"
					}
				},
				"methodIdentifiers": {
					"EmloyeeMap(uint32)": "59477571",
					"EmployeeArr(uint256)": "0a81eeb9",
					"addEmployee(uint32,string)": "03797a0b",
					"addEmployeeInMap(uint32,string)": "39765bff",
					"getID()": "ab9dbd07",
					"setID(uint256)": "dc5d184f"
				}
			},
			"storageLayout": {
				"storage": [
					{
						"astId": 4,
						"contract": "contracts/firstContract/firstSolidity.sol:FirstContract",
						"label": "BooleanVal",
						"offset": 0,
						"slot": "0",
						"type": "t_bool"
					},
					{
						"astId": 8,
						"contract": "contracts/firstContract/firstSolidity.sol:FirstContract",
						"label": "positiveOrNegtiveNum",
						"offset": 0,
						"slot": "1",
						"type": "t_int256"
					},
					{
						"astId": 10,
						"contract": "contracts/firstContract/firstSolidity.sol:FirstContract",
						"label": "EightBitNum",
						"offset": 0,
						"slot": "2",
						"type": "t_int8"
					},
					{
						"astId": 13,
						"contract": "contracts/firstContract/firstSolidity.sol:FirstContract",
						"label": "positiveNum",
						"offset": 0,
						"slot": "3",
						"type": "t_uint256"
					},
					{
						"astId": 16,
						"contract": "contracts/firstContract/firstSolidity.sol:FirstContract",
						"label": "myWalletAdd",
						"offset": 0,
						"slot": "4",
						"type": "t_address"
					},
					{
						"astId": 19,
						"contract": "contracts/firstContract/firstSolidity.sol:FirstContract",
						"label": "anyNumOfByteData",
						"offset": 0,
						"slot": "5",
						"type": "t_bytes32"
					},
					{
						"astId": 22,
						"contract": "contracts/firstContract/firstSolidity.sol:FirstContract",
						"label": "Name",
						"offset": 0,
						"slot": "6",
						"type": "t_string_storage"
					},
					{
						"astId": 52,
						"contract": "contracts/firstContract/firstSolidity.sol:FirstContract",
						"label": "employee1",
						"offset": 0,
						"slot": "7",
						"type": "t_struct(Employee)45_storage"
					},
					{
						"astId": 59,
						"contract": "contracts/firstContract/firstSolidity.sol:FirstContract",
						"label": "employee2",
						"offset": 0,
						"slot": "9",
						"type": "t_struct(Employee)45_storage"
					},
					{
						"astId": 63,
						"contract": "contracts/firstContract/firstSolidity.sol:FirstContract",
						"label": "EmployeeArr",
						"offset": 0,
						"slot": "11",
						"type": "t_array(t_struct(Employee)45_storage)dyn_storage"
					},
					{
						"astId": 89,
						"contract": "contracts/firstContract/firstSolidity.sol:FirstContract",
						"label": "EmloyeeMap",
						"offset": 0,
						"slot": "12",
						"type": "t_mapping(t_uint32,t_string_storage)"
					}
				],
				"types": {
					"t_address": {
						"encoding": "inplace",
						"label": "address",
						"numberOfBytes": "20"
					},
					"t_array(t_struct(Employee)45_storage)dyn_storage": {
						"base": "t_struct(Employee)45_storage",
						"encoding": "dynamic_array",
						"label": "struct FirstContract.Employee[]",
						"numberOfBytes": "32"
					},
					"t_bool": {
						"encoding": "inplace",
						"label": "bool",
						"numberOfBytes": "1"
					},
					"t_bytes32": {
						"encoding": "inplace",
						"label": "bytes32",
						"numberOfBytes": "32"
					},
					"t_int256": {
						"encoding": "inplace",
						"label": "int256",
						"numberOfBytes": "32"
					},
					"t_int8": {
						"encoding": "inplace",
						"label": "int8",
						"numberOfBytes": "1"
					},
					"t_mapping(t_uint32,t_string_storage)": {
						"encoding": "mapping",
						"key": "t_uint32",
						"label": "mapping(uint32 => string)",
						"numberOfBytes": "32",
						"value": "t_string_storage"
					},
					"t_string_storage": {
						"encoding": "bytes",
						"label": "string",
						"numberOfBytes": "32"
					},
					"t_struct(Employee)45_storage": {
						"encoding": "inplace",
						"label": "struct FirstContract.Employee",
						"members": [
							{
								"astId": 42,
								"contract": "contracts/firstContract/firstSolidity.sol:FirstContract",
								"label": "UniqueNum",
								"offset": 0,
								"slot": "0",
								"type": "t_uint32"
							},
							{
								"astId": 44,
								"contract": "contracts/firstContract/firstSolidity.sol:FirstContract",
								"label": "name",
								"offset": 0,
								"slot": "1",
								"type": "t_string_storage"
							}
						],
						"numberOfBytes": "64"
					},
					"t_uint256": {
						"encoding": "inplace",
						"label": "uint256",
						"numberOfBytes": "32"
					},
					"t_uint32": {
						"encoding": "inplace",
						"label": "uint32",
						"numberOfBytes": "4"
					}
				}
			},
			"userdoc": {
				"kind": "user",
				"methods": {},
				"version": 1
			}
		}
	}
}