{
	"contracts/composedContract/BasicDataStorage.sol": {
		"BasicDataStorage": {
			"abi": [
				{
					"inputs": [
						{
							"internalType": "string",
							"name": "_uniqueId",
							"type": "string"
						}
					],
					"name": "getStatus",
					"outputs": [
						{
							"internalType": "bool",
							"name": "",
							"type": "bool"
						}
					],
					"stateMutability": "view",
					"type": "function"
				},
				{
					"inputs": [
						{
							"internalType": "string",
							"name": "_uniqueId",
							"type": "string"
						},
						{
							"internalType": "bool",
							"name": "_status",
							"type": "bool"
						}
					],
					"name": "setStatus",
					"outputs": [],
					"stateMutability": "nonpayable",
					"type": "function"
				},
				{
					"inputs": [],
					"name": "unique_id",
					"outputs": [
						{
							"internalType": "string",
							"name": "",
							"type": "string"
						}
					],
					"stateMutability": "view",
					"type": "function"
				}
			],
			"devdoc": {
				"kind": "dev",
				"methods": {},
				"version": 1
			},
			"evm": {
				"assembly": "    /* \"contracts/composedContract/BasicDataStorage.sol\":86:453  contract BasicDataStorage{\r... */\n  mstore(0x40, 0x80)\n  callvalue\n  dup1\n  iszero\n  tag_1\n  jumpi\n  0x00\n  dup1\n  revert\ntag_1:\n  pop\n  dataSize(sub_0)\n  dup1\n  dataOffset(sub_0)\n  0x00\n  codecopy\n  0x00\n  return\nstop\n\nsub_0: assembly {\n        /* \"contracts/composedContract/BasicDataStorage.sol\":86:453  contract BasicDataStorage{\r... */\n      mstore(0x40, 0x80)\n      callvalue\n      dup1\n      iszero\n      tag_1\n      jumpi\n      0x00\n      dup1\n      revert\n    tag_1:\n      pop\n      jumpi(tag_2, lt(calldatasize, 0x04))\n      shr(0xe0, calldataload(0x00))\n      dup1\n      0x22b05ed2\n      eq\n      tag_3\n      jumpi\n      dup1\n      0xcba676d7\n      eq\n      tag_4\n      jumpi\n      dup1\n      0xd2e9dab8\n      eq\n      tag_5\n      jumpi\n    tag_2:\n      0x00\n      dup1\n      revert\n        /* \"contracts/composedContract/BasicDataStorage.sol\":212:327  function getStatus(string memory _uniqueId) public view returns (bool) {\r... */\n    tag_3:\n      tag_6\n      0x04\n      dup1\n      calldatasize\n      sub\n      dup2\n      add\n      swap1\n      tag_7\n      swap2\n      swap1\n      tag_8\n      jump\t// in\n    tag_7:\n      tag_9\n      jump\t// in\n    tag_6:\n      mload(0x40)\n      tag_10\n      swap2\n      swap1\n      tag_11\n      jump\t// in\n    tag_10:\n      mload(0x40)\n      dup1\n      swap2\n      sub\n      swap1\n      return\n        /* \"contracts/composedContract/BasicDataStorage.sol\":336:450  function setStatus(string memory _uniqueId , bool _status) public {\r... */\n    tag_4:\n      tag_12\n      0x04\n      dup1\n      calldatasize\n      sub\n      dup2\n      add\n      swap1\n      tag_13\n      swap2\n      swap1\n      tag_14\n      jump\t// in\n    tag_13:\n      tag_15\n      jump\t// in\n    tag_12:\n      stop\n        /* \"contracts/composedContract/BasicDataStorage.sol\":120:143  string public unique_id */\n    tag_5:\n      tag_16\n      tag_17\n      jump\t// in\n    tag_16:\n      mload(0x40)\n      tag_18\n      swap2\n      swap1\n      tag_19\n      jump\t// in\n    tag_18:\n      mload(0x40)\n      dup1\n      swap2\n      sub\n      swap1\n      return\n        /* \"contracts/composedContract/BasicDataStorage.sol\":212:327  function getStatus(string memory _uniqueId) public view returns (bool) {\r... */\n    tag_9:\n        /* \"contracts/composedContract/BasicDataStorage.sol\":277:281  bool */\n      0x00\n        /* \"contracts/composedContract/BasicDataStorage.sol\":301:308  DataMap */\n      0x02\n        /* \"contracts/composedContract/BasicDataStorage.sol\":309:318  _uniqueId */\n      dup3\n        /* \"contracts/composedContract/BasicDataStorage.sol\":301:319  DataMap[_uniqueId] */\n      mload(0x40)\n      tag_21\n      swap2\n      swap1\n      tag_22\n      jump\t// in\n    tag_21:\n      swap1\n      dup2\n      mstore\n      0x20\n      add\n      mload(0x40)\n      dup1\n      swap2\n      sub\n      swap1\n      keccak256\n      0x00\n      swap1\n      sload\n      swap1\n      0x0100\n      exp\n      swap1\n      div\n      0xff\n      and\n        /* \"contracts/composedContract/BasicDataStorage.sol\":294:319  return DataMap[_uniqueId] */\n      swap1\n      pop\n        /* \"contracts/composedContract/BasicDataStorage.sol\":212:327  function getStatus(string memory _uniqueId) public view returns (bool) {\r... */\n      swap2\n      swap1\n      pop\n      jump\t// out\n        /* \"contracts/composedContract/BasicDataStorage.sol\":336:450  function setStatus(string memory _uniqueId , bool _status) public {\r... */\n    tag_15:\n        /* \"contracts/composedContract/BasicDataStorage.sol\":433:440  _status */\n      dup1\n        /* \"contracts/composedContract/BasicDataStorage.sol\":414:421  DataMap */\n      0x02\n        /* \"contracts/composedContract/BasicDataStorage.sol\":422:431  _uniqueId */\n      dup4\n        /* \"contracts/composedContract/BasicDataStorage.sol\":414:432  DataMap[_uniqueId] */\n      mload(0x40)\n      tag_24\n      swap2\n      swap1\n      tag_22\n      jump\t// in\n    tag_24:\n      swap1\n      dup2\n      mstore\n      0x20\n      add\n      mload(0x40)\n      dup1\n      swap2\n      sub\n      swap1\n      keccak256\n      0x00\n        /* \"contracts/composedContract/BasicDataStorage.sol\":414:440  DataMap[_uniqueId]=_status */\n      0x0100\n      exp\n      dup2\n      sload\n      dup2\n      0xff\n      mul\n      not\n      and\n      swap1\n      dup4\n      iszero\n      iszero\n      mul\n      or\n      swap1\n      sstore\n      pop\n        /* \"contracts/composedContract/BasicDataStorage.sol\":336:450  function setStatus(string memory _uniqueId , bool _status) public {\r... */\n      pop\n      pop\n      jump\t// out\n        /* \"contracts/composedContract/BasicDataStorage.sol\":120:143  string public unique_id */\n    tag_17:\n      0x00\n      dup1\n      sload\n      tag_25\n      swap1\n      tag_26\n      jump\t// in\n    tag_25:\n      dup1\n      0x1f\n      add\n      0x20\n      dup1\n      swap2\n      div\n      mul\n      0x20\n      add\n      mload(0x40)\n      swap1\n      dup2\n      add\n      0x40\n      mstore\n      dup1\n      swap3\n      swap2\n      swap1\n      dup2\n      dup2\n      mstore\n      0x20\n      add\n      dup3\n      dup1\n      sload\n      tag_27\n      swap1\n      tag_26\n      jump\t// in\n    tag_27:\n      dup1\n      iszero\n      tag_28\n      jumpi\n      dup1\n      0x1f\n      lt\n      tag_29\n      jumpi\n      0x0100\n      dup1\n      dup4\n      sload\n      div\n      mul\n      dup4\n      mstore\n      swap2\n      0x20\n      add\n      swap2\n      jump(tag_28)\n    tag_29:\n      dup3\n      add\n      swap2\n      swap1\n      0x00\n      mstore\n      keccak256(0x00, 0x20)\n      swap1\n    tag_30:\n      dup2\n      sload\n      dup2\n      mstore\n      swap1\n      0x01\n      add\n      swap1\n      0x20\n      add\n      dup1\n      dup4\n      gt\n      tag_30\n      jumpi\n      dup3\n      swap1\n      sub\n      0x1f\n      and\n      dup3\n      add\n      swap2\n    tag_28:\n      pop\n      pop\n      pop\n      pop\n      pop\n      dup2\n      jump\t// out\n        /* \"#utility.yul\":7:419   */\n    tag_32:\n        /* \"#utility.yul\":85:90   */\n      0x00\n        /* \"#utility.yul\":110:176   */\n      tag_34\n        /* \"#utility.yul\":126:175   */\n      tag_35\n        /* \"#utility.yul\":168:174   */\n      dup5\n        /* \"#utility.yul\":126:175   */\n      tag_36\n      jump\t// in\n    tag_35:\n        /* \"#utility.yul\":110:176   */\n      tag_37\n      jump\t// in\n    tag_34:\n        /* \"#utility.yul\":101:176   */\n      swap1\n      pop\n        /* \"#utility.yul\":199:205   */\n      dup3\n        /* \"#utility.yul\":192:197   */\n      dup2\n        /* \"#utility.yul\":185:206   */\n      mstore\n        /* \"#utility.yul\":237:241   */\n      0x20\n        /* \"#utility.yul\":230:235   */\n      dup2\n        /* \"#utility.yul\":226:242   */\n      add\n        /* \"#utility.yul\":275:278   */\n      dup5\n        /* \"#utility.yul\":266:272   */\n      dup5\n        /* \"#utility.yul\":261:264   */\n      dup5\n        /* \"#utility.yul\":257:273   */\n      add\n        /* \"#utility.yul\":254:279   */\n      gt\n        /* \"#utility.yul\":251:363   */\n      iszero\n      tag_38\n      jumpi\n        /* \"#utility.yul\":282:361   */\n      tag_39\n      tag_40\n      jump\t// in\n    tag_39:\n        /* \"#utility.yul\":251:363   */\n    tag_38:\n        /* \"#utility.yul\":372:413   */\n      tag_41\n        /* \"#utility.yul\":406:412   */\n      dup5\n        /* \"#utility.yul\":401:404   */\n      dup3\n        /* \"#utility.yul\":396:399   */\n      dup6\n        /* \"#utility.yul\":372:413   */\n      tag_42\n      jump\t// in\n    tag_41:\n        /* \"#utility.yul\":91:419   */\n      pop\n        /* \"#utility.yul\":7:419   */\n      swap4\n      swap3\n      pop\n      pop\n      pop\n      jump\t// out\n        /* \"#utility.yul\":425:558   */\n    tag_43:\n        /* \"#utility.yul\":468:473   */\n      0x00\n        /* \"#utility.yul\":506:512   */\n      dup2\n        /* \"#utility.yul\":493:513   */\n      calldataload\n        /* \"#utility.yul\":484:513   */\n      swap1\n      pop\n        /* \"#utility.yul\":522:552   */\n      tag_45\n        /* \"#utility.yul\":546:551   */\n      dup2\n        /* \"#utility.yul\":522:552   */\n      tag_46\n      jump\t// in\n    tag_45:\n        /* \"#utility.yul\":425:558   */\n      swap3\n      swap2\n      pop\n      pop\n      jump\t// out\n        /* \"#utility.yul\":578:918   */\n    tag_47:\n        /* \"#utility.yul\":634:639   */\n      0x00\n        /* \"#utility.yul\":683:686   */\n      dup3\n        /* \"#utility.yul\":676:680   */\n      0x1f\n        /* \"#utility.yul\":668:674   */\n      dup4\n        /* \"#utility.yul\":664:681   */\n      add\n        /* \"#utility.yul\":660:687   */\n      slt\n        /* \"#utility.yul\":650:772   */\n      tag_49\n      jumpi\n        /* \"#utility.yul\":691:770   */\n      tag_50\n      tag_51\n      jump\t// in\n    tag_50:\n        /* \"#utility.yul\":650:772   */\n    tag_49:\n        /* \"#utility.yul\":808:814   */\n      dup2\n        /* \"#utility.yul\":795:815   */\n      calldataload\n        /* \"#utility.yul\":833:912   */\n      tag_52\n        /* \"#utility.yul\":908:911   */\n      dup5\n        /* \"#utility.yul\":900:906   */\n      dup3\n        /* \"#utility.yul\":893:897   */\n      0x20\n        /* \"#utility.yul\":885:891   */\n      dup7\n        /* \"#utility.yul\":881:898   */\n      add\n        /* \"#utility.yul\":833:912   */\n      tag_32\n      jump\t// in\n    tag_52:\n        /* \"#utility.yul\":824:912   */\n      swap2\n      pop\n        /* \"#utility.yul\":640:918   */\n      pop\n        /* \"#utility.yul\":578:918   */\n      swap3\n      swap2\n      pop\n      pop\n      jump\t// out\n        /* \"#utility.yul\":924:1433   */\n    tag_8:\n        /* \"#utility.yul\":993:999   */\n      0x00\n        /* \"#utility.yul\":1042:1044   */\n      0x20\n        /* \"#utility.yul\":1030:1039   */\n      dup3\n        /* \"#utility.yul\":1021:1028   */\n      dup5\n        /* \"#utility.yul\":1017:1040   */\n      sub\n        /* \"#utility.yul\":1013:1045   */\n      slt\n        /* \"#utility.yul\":1010:1129   */\n      iszero\n      tag_54\n      jumpi\n        /* \"#utility.yul\":1048:1127   */\n      tag_55\n      tag_56\n      jump\t// in\n    tag_55:\n        /* \"#utility.yul\":1010:1129   */\n    tag_54:\n        /* \"#utility.yul\":1196:1197   */\n      0x00\n        /* \"#utility.yul\":1185:1194   */\n      dup3\n        /* \"#utility.yul\":1181:1198   */\n      add\n        /* \"#utility.yul\":1168:1199   */\n      calldataload\n        /* \"#utility.yul\":1226:1244   */\n      0xffffffffffffffff\n        /* \"#utility.yul\":1218:1224   */\n      dup2\n        /* \"#utility.yul\":1215:1245   */\n      gt\n        /* \"#utility.yul\":1212:1329   */\n      iszero\n      tag_57\n      jumpi\n        /* \"#utility.yul\":1248:1327   */\n      tag_58\n      tag_59\n      jump\t// in\n    tag_58:\n        /* \"#utility.yul\":1212:1329   */\n    tag_57:\n        /* \"#utility.yul\":1353:1416   */\n      tag_60\n        /* \"#utility.yul\":1408:1415   */\n      dup5\n        /* \"#utility.yul\":1399:1405   */\n      dup3\n        /* \"#utility.yul\":1388:1397   */\n      dup6\n        /* \"#utility.yul\":1384:1406   */\n      add\n        /* \"#utility.yul\":1353:1416   */\n      tag_47\n      jump\t// in\n    tag_60:\n        /* \"#utility.yul\":1343:1416   */\n      swap2\n      pop\n        /* \"#utility.yul\":1139:1426   */\n      pop\n        /* \"#utility.yul\":924:1433   */\n      swap3\n      swap2\n      pop\n      pop\n      jump\t// out\n        /* \"#utility.yul\":1439:2087   */\n    tag_14:\n        /* \"#utility.yul\":1514:1520   */\n      0x00\n        /* \"#utility.yul\":1522:1528   */\n      dup1\n        /* \"#utility.yul\":1571:1573   */\n      0x40\n        /* \"#utility.yul\":1559:1568   */\n      dup4\n        /* \"#utility.yul\":1550:1557   */\n      dup6\n        /* \"#utility.yul\":1546:1569   */\n      sub\n        /* \"#utility.yul\":1542:1574   */\n      slt\n        /* \"#utility.yul\":1539:1658   */\n      iszero\n      tag_62\n      jumpi\n        /* \"#utility.yul\":1577:1656   */\n      tag_63\n      tag_56\n      jump\t// in\n    tag_63:\n        /* \"#utility.yul\":1539:1658   */\n    tag_62:\n        /* \"#utility.yul\":1725:1726   */\n      0x00\n        /* \"#utility.yul\":1714:1723   */\n      dup4\n        /* \"#utility.yul\":1710:1727   */\n      add\n        /* \"#utility.yul\":1697:1728   */\n      calldataload\n        /* \"#utility.yul\":1755:1773   */\n      0xffffffffffffffff\n        /* \"#utility.yul\":1747:1753   */\n      dup2\n        /* \"#utility.yul\":1744:1774   */\n      gt\n        /* \"#utility.yul\":1741:1858   */\n      iszero\n      tag_64\n      jumpi\n        /* \"#utility.yul\":1777:1856   */\n      tag_65\n      tag_59\n      jump\t// in\n    tag_65:\n        /* \"#utility.yul\":1741:1858   */\n    tag_64:\n        /* \"#utility.yul\":1882:1945   */\n      tag_66\n        /* \"#utility.yul\":1937:1944   */\n      dup6\n        /* \"#utility.yul\":1928:1934   */\n      dup3\n        /* \"#utility.yul\":1917:1926   */\n      dup7\n        /* \"#utility.yul\":1913:1935   */\n      add\n        /* \"#utility.yul\":1882:1945   */\n      tag_47\n      jump\t// in\n    tag_66:\n        /* \"#utility.yul\":1872:1945   */\n      swap3\n      pop\n        /* \"#utility.yul\":1668:1955   */\n      pop\n        /* \"#utility.yul\":1994:1996   */\n      0x20\n        /* \"#utility.yul\":2020:2070   */\n      tag_67\n        /* \"#utility.yul\":2062:2069   */\n      dup6\n        /* \"#utility.yul\":2053:2059   */\n      dup3\n        /* \"#utility.yul\":2042:2051   */\n      dup7\n        /* \"#utility.yul\":2038:2060   */\n      add\n        /* \"#utility.yul\":2020:2070   */\n      tag_43\n      jump\t// in\n    tag_67:\n        /* \"#utility.yul\":2010:2070   */\n      swap2\n      pop\n        /* \"#utility.yul\":1965:2080   */\n      pop\n        /* \"#utility.yul\":1439:2087   */\n      swap3\n      pop\n      swap3\n      swap1\n      pop\n      jump\t// out\n        /* \"#utility.yul\":2093:2202   */\n    tag_68:\n        /* \"#utility.yul\":2174:2195   */\n      tag_70\n        /* \"#utility.yul\":2189:2194   */\n      dup2\n        /* \"#utility.yul\":2174:2195   */\n      tag_71\n      jump\t// in\n    tag_70:\n        /* \"#utility.yul\":2169:2172   */\n      dup3\n        /* \"#utility.yul\":2162:2196   */\n      mstore\n        /* \"#utility.yul\":2093:2202   */\n      pop\n      pop\n      jump\t// out\n        /* \"#utility.yul\":2208:2572   */\n    tag_72:\n        /* \"#utility.yul\":2296:2299   */\n      0x00\n        /* \"#utility.yul\":2324:2363   */\n      tag_74\n        /* \"#utility.yul\":2357:2362   */\n      dup3\n        /* \"#utility.yul\":2324:2363   */\n      tag_75\n      jump\t// in\n    tag_74:\n        /* \"#utility.yul\":2379:2450   */\n      tag_76\n        /* \"#utility.yul\":2443:2449   */\n      dup2\n        /* \"#utility.yul\":2438:2441   */\n      dup6\n        /* \"#utility.yul\":2379:2450   */\n      tag_77\n      jump\t// in\n    tag_76:\n        /* \"#utility.yul\":2372:2450   */\n      swap4\n      pop\n        /* \"#utility.yul\":2459:2511   */\n      tag_78\n        /* \"#utility.yul\":2504:2510   */\n      dup2\n        /* \"#utility.yul\":2499:2502   */\n      dup6\n        /* \"#utility.yul\":2492:2496   */\n      0x20\n        /* \"#utility.yul\":2485:2490   */\n      dup7\n        /* \"#utility.yul\":2481:2497   */\n      add\n        /* \"#utility.yul\":2459:2511   */\n      tag_79\n      jump\t// in\n    tag_78:\n        /* \"#utility.yul\":2536:2565   */\n      tag_80\n        /* \"#utility.yul\":2558:2564   */\n      dup2\n        /* \"#utility.yul\":2536:2565   */\n      tag_81\n      jump\t// in\n    tag_80:\n        /* \"#utility.yul\":2531:2534   */\n      dup5\n        /* \"#utility.yul\":2527:2566   */\n      add\n        /* \"#utility.yul\":2520:2566   */\n      swap2\n      pop\n        /* \"#utility.yul\":2300:2572   */\n      pop\n        /* \"#utility.yul\":2208:2572   */\n      swap3\n      swap2\n      pop\n      pop\n      jump\t// out\n        /* \"#utility.yul\":2578:2955   */\n    tag_82:\n        /* \"#utility.yul\":2684:2687   */\n      0x00\n        /* \"#utility.yul\":2712:2751   */\n      tag_84\n        /* \"#utility.yul\":2745:2750   */\n      dup3\n        /* \"#utility.yul\":2712:2751   */\n      tag_75\n      jump\t// in\n    tag_84:\n        /* \"#utility.yul\":2767:2856   */\n      tag_85\n        /* \"#utility.yul\":2849:2855   */\n      dup2\n        /* \"#utility.yul\":2844:2847   */\n      dup6\n        /* \"#utility.yul\":2767:2856   */\n      tag_86\n      jump\t// in\n    tag_85:\n        /* \"#utility.yul\":2760:2856   */\n      swap4\n      pop\n        /* \"#utility.yul\":2865:2917   */\n      tag_87\n        /* \"#utility.yul\":2910:2916   */\n      dup2\n        /* \"#utility.yul\":2905:2908   */\n      dup6\n        /* \"#utility.yul\":2898:2902   */\n      0x20\n        /* \"#utility.yul\":2891:2896   */\n      dup7\n        /* \"#utility.yul\":2887:2903   */\n      add\n        /* \"#utility.yul\":2865:2917   */\n      tag_79\n      jump\t// in\n    tag_87:\n        /* \"#utility.yul\":2942:2948   */\n      dup1\n        /* \"#utility.yul\":2937:2940   */\n      dup5\n        /* \"#utility.yul\":2933:2949   */\n      add\n        /* \"#utility.yul\":2926:2949   */\n      swap2\n      pop\n        /* \"#utility.yul\":2688:2955   */\n      pop\n        /* \"#utility.yul\":2578:2955   */\n      swap3\n      swap2\n      pop\n      pop\n      jump\t// out\n        /* \"#utility.yul\":2961:3236   */\n    tag_22:\n        /* \"#utility.yul\":3093:3096   */\n      0x00\n        /* \"#utility.yul\":3115:3210   */\n      tag_89\n        /* \"#utility.yul\":3206:3209   */\n      dup3\n        /* \"#utility.yul\":3197:3203   */\n      dup5\n        /* \"#utility.yul\":3115:3210   */\n      tag_82\n      jump\t// in\n    tag_89:\n        /* \"#utility.yul\":3108:3210   */\n      swap2\n      pop\n        /* \"#utility.yul\":3227:3230   */\n      dup2\n        /* \"#utility.yul\":3220:3230   */\n      swap1\n      pop\n        /* \"#utility.yul\":2961:3236   */\n      swap3\n      swap2\n      pop\n      pop\n      jump\t// out\n        /* \"#utility.yul\":3242:3452   */\n    tag_11:\n        /* \"#utility.yul\":3329:3333   */\n      0x00\n        /* \"#utility.yul\":3367:3369   */\n      0x20\n        /* \"#utility.yul\":3356:3365   */\n      dup3\n        /* \"#utility.yul\":3352:3370   */\n      add\n        /* \"#utility.yul\":3344:3370   */\n      swap1\n      pop\n        /* \"#utility.yul\":3380:3445   */\n      tag_91\n        /* \"#utility.yul\":3442:3443   */\n      0x00\n        /* \"#utility.yul\":3431:3440   */\n      dup4\n        /* \"#utility.yul\":3427:3444   */\n      add\n        /* \"#utility.yul\":3418:3424   */\n      dup5\n        /* \"#utility.yul\":3380:3445   */\n      tag_68\n      jump\t// in\n    tag_91:\n        /* \"#utility.yul\":3242:3452   */\n      swap3\n      swap2\n      pop\n      pop\n      jump\t// out\n        /* \"#utility.yul\":3458:3771   */\n    tag_19:\n        /* \"#utility.yul\":3571:3575   */\n      0x00\n        /* \"#utility.yul\":3609:3611   */\n      0x20\n        /* \"#utility.yul\":3598:3607   */\n      dup3\n        /* \"#utility.yul\":3594:3612   */\n      add\n        /* \"#utility.yul\":3586:3612   */\n      swap1\n      pop\n        /* \"#utility.yul\":3658:3667   */\n      dup2\n        /* \"#utility.yul\":3652:3656   */\n      dup2\n        /* \"#utility.yul\":3648:3668   */\n      sub\n        /* \"#utility.yul\":3644:3645   */\n      0x00\n        /* \"#utility.yul\":3633:3642   */\n      dup4\n        /* \"#utility.yul\":3629:3646   */\n      add\n        /* \"#utility.yul\":3622:3669   */\n      mstore\n        /* \"#utility.yul\":3686:3764   */\n      tag_93\n        /* \"#utility.yul\":3759:3763   */\n      dup2\n        /* \"#utility.yul\":3750:3756   */\n      dup5\n        /* \"#utility.yul\":3686:3764   */\n      tag_72\n      jump\t// in\n    tag_93:\n        /* \"#utility.yul\":3678:3764   */\n      swap1\n      pop\n        /* \"#utility.yul\":3458:3771   */\n      swap3\n      swap2\n      pop\n      pop\n      jump\t// out\n        /* \"#utility.yul\":3777:3906   */\n    tag_37:\n        /* \"#utility.yul\":3811:3817   */\n      0x00\n        /* \"#utility.yul\":3838:3858   */\n      tag_95\n      tag_96\n      jump\t// in\n    tag_95:\n        /* \"#utility.yul\":3828:3858   */\n      swap1\n      pop\n        /* \"#utility.yul\":3867:3900   */\n      tag_97\n        /* \"#utility.yul\":3895:3899   */\n      dup3\n        /* \"#utility.yul\":3887:3893   */\n      dup3\n        /* \"#utility.yul\":3867:3900   */\n      tag_98\n      jump\t// in\n    tag_97:\n        /* \"#utility.yul\":3777:3906   */\n      swap2\n      swap1\n      pop\n      jump\t// out\n        /* \"#utility.yul\":3912:3987   */\n    tag_96:\n        /* \"#utility.yul\":3945:3951   */\n      0x00\n        /* \"#utility.yul\":3978:3980   */\n      0x40\n        /* \"#utility.yul\":3972:3981   */\n      mload\n        /* \"#utility.yul\":3962:3981   */\n      swap1\n      pop\n        /* \"#utility.yul\":3912:3987   */\n      swap1\n      jump\t// out\n        /* \"#utility.yul\":3993:4301   */\n    tag_36:\n        /* \"#utility.yul\":4055:4059   */\n      0x00\n        /* \"#utility.yul\":4145:4163   */\n      0xffffffffffffffff\n        /* \"#utility.yul\":4137:4143   */\n      dup3\n        /* \"#utility.yul\":4134:4164   */\n      gt\n        /* \"#utility.yul\":4131:4187   */\n      iszero\n      tag_101\n      jumpi\n        /* \"#utility.yul\":4167:4185   */\n      tag_102\n      tag_103\n      jump\t// in\n    tag_102:\n        /* \"#utility.yul\":4131:4187   */\n    tag_101:\n        /* \"#utility.yul\":4205:4234   */\n      tag_104\n        /* \"#utility.yul\":4227:4233   */\n      dup3\n        /* \"#utility.yul\":4205:4234   */\n      tag_81\n      jump\t// in\n    tag_104:\n        /* \"#utility.yul\":4197:4234   */\n      swap1\n      pop\n        /* \"#utility.yul\":4289:4293   */\n      0x20\n        /* \"#utility.yul\":4283:4287   */\n      dup2\n        /* \"#utility.yul\":4279:4294   */\n      add\n        /* \"#utility.yul\":4271:4294   */\n      swap1\n      pop\n        /* \"#utility.yul\":3993:4301   */\n      swap2\n      swap1\n      pop\n      jump\t// out\n        /* \"#utility.yul\":4307:4406   */\n    tag_75:\n        /* \"#utility.yul\":4359:4365   */\n      0x00\n        /* \"#utility.yul\":4393:4398   */\n      dup2\n        /* \"#utility.yul\":4387:4399   */\n      mload\n        /* \"#utility.yul\":4377:4399   */\n      swap1\n      pop\n        /* \"#utility.yul\":4307:4406   */\n      swap2\n      swap1\n      pop\n      jump\t// out\n        /* \"#utility.yul\":4412:4581   */\n    tag_77:\n        /* \"#utility.yul\":4496:4507   */\n      0x00\n        /* \"#utility.yul\":4530:4536   */\n      dup3\n        /* \"#utility.yul\":4525:4528   */\n      dup3\n        /* \"#utility.yul\":4518:4537   */\n      mstore\n        /* \"#utility.yul\":4570:4574   */\n      0x20\n        /* \"#utility.yul\":4565:4568   */\n      dup3\n        /* \"#utility.yul\":4561:4575   */\n      add\n        /* \"#utility.yul\":4546:4575   */\n      swap1\n      pop\n        /* \"#utility.yul\":4412:4581   */\n      swap3\n      swap2\n      pop\n      pop\n      jump\t// out\n        /* \"#utility.yul\":4587:4735   */\n    tag_86:\n        /* \"#utility.yul\":4689:4700   */\n      0x00\n        /* \"#utility.yul\":4726:4729   */\n      dup2\n        /* \"#utility.yul\":4711:4729   */\n      swap1\n      pop\n        /* \"#utility.yul\":4587:4735   */\n      swap3\n      swap2\n      pop\n      pop\n      jump\t// out\n        /* \"#utility.yul\":4741:4831   */\n    tag_71:\n        /* \"#utility.yul\":4775:4782   */\n      0x00\n        /* \"#utility.yul\":4818:4823   */\n      dup2\n        /* \"#utility.yul\":4811:4824   */\n      iszero\n        /* \"#utility.yul\":4804:4825   */\n      iszero\n        /* \"#utility.yul\":4793:4825   */\n      swap1\n      pop\n        /* \"#utility.yul\":4741:4831   */\n      swap2\n      swap1\n      pop\n      jump\t// out\n        /* \"#utility.yul\":4837:4991   */\n    tag_42:\n        /* \"#utility.yul\":4921:4927   */\n      dup3\n        /* \"#utility.yul\":4916:4919   */\n      dup2\n        /* \"#utility.yul\":4911:4914   */\n      dup4\n        /* \"#utility.yul\":4898:4928   */\n      calldatacopy\n        /* \"#utility.yul\":4983:4984   */\n      0x00\n        /* \"#utility.yul\":4974:4980   */\n      dup4\n        /* \"#utility.yul\":4969:4972   */\n      dup4\n        /* \"#utility.yul\":4965:4981   */\n      add\n        /* \"#utility.yul\":4958:4985   */\n      mstore\n        /* \"#utility.yul\":4837:4991   */\n      pop\n      pop\n      pop\n      jump\t// out\n        /* \"#utility.yul\":4997:5304   */\n    tag_79:\n        /* \"#utility.yul\":5065:5066   */\n      0x00\n        /* \"#utility.yul\":5075:5188   */\n    tag_111:\n        /* \"#utility.yul\":5089:5095   */\n      dup4\n        /* \"#utility.yul\":5086:5087   */\n      dup2\n        /* \"#utility.yul\":5083:5096   */\n      lt\n        /* \"#utility.yul\":5075:5188   */\n      iszero\n      tag_113\n      jumpi\n        /* \"#utility.yul\":5174:5175   */\n      dup1\n        /* \"#utility.yul\":5169:5172   */\n      dup3\n        /* \"#utility.yul\":5165:5176   */\n      add\n        /* \"#utility.yul\":5159:5177   */\n      mload\n        /* \"#utility.yul\":5155:5156   */\n      dup2\n        /* \"#utility.yul\":5150:5153   */\n      dup5\n        /* \"#utility.yul\":5146:5157   */\n      add\n        /* \"#utility.yul\":5139:5178   */\n      mstore\n        /* \"#utility.yul\":5111:5113   */\n      0x20\n        /* \"#utility.yul\":5108:5109   */\n      dup2\n        /* \"#utility.yul\":5104:5114   */\n      add\n        /* \"#utility.yul\":5099:5114   */\n      swap1\n      pop\n        /* \"#utility.yul\":5075:5188   */\n      jump(tag_111)\n    tag_113:\n        /* \"#utility.yul\":5206:5212   */\n      dup4\n        /* \"#utility.yul\":5203:5204   */\n      dup2\n        /* \"#utility.yul\":5200:5213   */\n      gt\n        /* \"#utility.yul\":5197:5298   */\n      iszero\n      tag_114\n      jumpi\n        /* \"#utility.yul\":5286:5287   */\n      0x00\n        /* \"#utility.yul\":5277:5283   */\n      dup5\n        /* \"#utility.yul\":5272:5275   */\n      dup5\n        /* \"#utility.yul\":5268:5284   */\n      add\n        /* \"#utility.yul\":5261:5288   */\n      mstore\n        /* \"#utility.yul\":5197:5298   */\n    tag_114:\n        /* \"#utility.yul\":5046:5304   */\n      pop\n        /* \"#utility.yul\":4997:5304   */\n      pop\n      pop\n      pop\n      jump\t// out\n        /* \"#utility.yul\":5310:5630   */\n    tag_26:\n        /* \"#utility.yul\":5354:5360   */\n      0x00\n        /* \"#utility.yul\":5391:5392   */\n      0x02\n        /* \"#utility.yul\":5385:5389   */\n      dup3\n        /* \"#utility.yul\":5381:5393   */\n      div\n        /* \"#utility.yul\":5371:5393   */\n      swap1\n      pop\n        /* \"#utility.yul\":5438:5439   */\n      0x01\n        /* \"#utility.yul\":5432:5436   */\n      dup3\n        /* \"#utility.yul\":5428:5440   */\n      and\n        /* \"#utility.yul\":5459:5477   */\n      dup1\n        /* \"#utility.yul\":5449:5530   */\n      tag_116\n      jumpi\n        /* \"#utility.yul\":5515:5519   */\n      0x7f\n        /* \"#utility.yul\":5507:5513   */\n      dup3\n        /* \"#utility.yul\":5503:5520   */\n      and\n        /* \"#utility.yul\":5493:5520   */\n      swap2\n      pop\n        /* \"#utility.yul\":5449:5530   */\n    tag_116:\n        /* \"#utility.yul\":5577:5579   */\n      0x20\n        /* \"#utility.yul\":5569:5575   */\n      dup3\n        /* \"#utility.yul\":5566:5580   */\n      lt\n        /* \"#utility.yul\":5546:5564   */\n      dup2\n        /* \"#utility.yul\":5543:5581   */\n      eq\n        /* \"#utility.yul\":5540:5624   */\n      iszero\n      tag_117\n      jumpi\n        /* \"#utility.yul\":5596:5614   */\n      tag_118\n      tag_119\n      jump\t// in\n    tag_118:\n        /* \"#utility.yul\":5540:5624   */\n    tag_117:\n        /* \"#utility.yul\":5361:5630   */\n      pop\n        /* \"#utility.yul\":5310:5630   */\n      swap2\n      swap1\n      pop\n      jump\t// out\n        /* \"#utility.yul\":5636:5917   */\n    tag_98:\n        /* \"#utility.yul\":5719:5746   */\n      tag_121\n        /* \"#utility.yul\":5741:5745   */\n      dup3\n        /* \"#utility.yul\":5719:5746   */\n      tag_81\n      jump\t// in\n    tag_121:\n        /* \"#utility.yul\":5711:5717   */\n      dup2\n        /* \"#utility.yul\":5707:5747   */\n      add\n        /* \"#utility.yul\":5849:5855   */\n      dup2\n        /* \"#utility.yul\":5837:5847   */\n      dup2\n        /* \"#utility.yul\":5834:5856   */\n      lt\n        /* \"#utility.yul\":5813:5831   */\n      0xffffffffffffffff\n        /* \"#utility.yul\":5801:5811   */\n      dup3\n        /* \"#utility.yul\":5798:5832   */\n      gt\n        /* \"#utility.yul\":5795:5857   */\n      or\n        /* \"#utility.yul\":5792:5880   */\n      iszero\n      tag_122\n      jumpi\n        /* \"#utility.yul\":5860:5878   */\n      tag_123\n      tag_103\n      jump\t// in\n    tag_123:\n        /* \"#utility.yul\":5792:5880   */\n    tag_122:\n        /* \"#utility.yul\":5900:5910   */\n      dup1\n        /* \"#utility.yul\":5896:5898   */\n      0x40\n        /* \"#utility.yul\":5889:5911   */\n      mstore\n        /* \"#utility.yul\":5679:5917   */\n      pop\n        /* \"#utility.yul\":5636:5917   */\n      pop\n      pop\n      jump\t// out\n        /* \"#utility.yul\":5923:6103   */\n    tag_119:\n        /* \"#utility.yul\":5971:6048   */\n      0x4e487b7100000000000000000000000000000000000000000000000000000000\n        /* \"#utility.yul\":5968:5969   */\n      0x00\n        /* \"#utility.yul\":5961:6049   */\n      mstore\n        /* \"#utility.yul\":6068:6072   */\n      0x22\n        /* \"#utility.yul\":6065:6066   */\n      0x04\n        /* \"#utility.yul\":6058:6073   */\n      mstore\n        /* \"#utility.yul\":6092:6096   */\n      0x24\n        /* \"#utility.yul\":6089:6090   */\n      0x00\n        /* \"#utility.yul\":6082:6097   */\n      revert\n        /* \"#utility.yul\":6109:6289   */\n    tag_103:\n        /* \"#utility.yul\":6157:6234   */\n      0x4e487b7100000000000000000000000000000000000000000000000000000000\n        /* \"#utility.yul\":6154:6155   */\n      0x00\n        /* \"#utility.yul\":6147:6235   */\n      mstore\n        /* \"#utility.yul\":6254:6258   */\n      0x41\n        /* \"#utility.yul\":6251:6252   */\n      0x04\n        /* \"#utility.yul\":6244:6259   */\n      mstore\n        /* \"#utility.yul\":6278:6282   */\n      0x24\n        /* \"#utility.yul\":6275:6276   */\n      0x00\n        /* \"#utility.yul\":6268:6283   */\n      revert\n        /* \"#utility.yul\":6295:6412   */\n    tag_51:\n        /* \"#utility.yul\":6404:6405   */\n      0x00\n        /* \"#utility.yul\":6401:6402   */\n      dup1\n        /* \"#utility.yul\":6394:6406   */\n      revert\n        /* \"#utility.yul\":6418:6535   */\n    tag_40:\n        /* \"#utility.yul\":6527:6528   */\n      0x00\n        /* \"#utility.yul\":6524:6525   */\n      dup1\n        /* \"#utility.yul\":6517:6529   */\n      revert\n        /* \"#utility.yul\":6541:6658   */\n    tag_59:\n        /* \"#utility.yul\":6650:6651   */\n      0x00\n        /* \"#utility.yul\":6647:6648   */\n      dup1\n        /* \"#utility.yul\":6640:6652   */\n      revert\n        /* \"#utility.yul\":6664:6781   */\n    tag_56:\n        /* \"#utility.yul\":6773:6774   */\n      0x00\n        /* \"#utility.yul\":6770:6771   */\n      dup1\n        /* \"#utility.yul\":6763:6775   */\n      revert\n        /* \"#utility.yul\":6787:6889   */\n    tag_81:\n        /* \"#utility.yul\":6828:6834   */\n      0x00\n        /* \"#utility.yul\":6879:6881   */\n      0x1f\n        /* \"#utility.yul\":6875:6882   */\n      not\n        /* \"#utility.yul\":6870:6872   */\n      0x1f\n        /* \"#utility.yul\":6863:6868   */\n      dup4\n        /* \"#utility.yul\":6859:6873   */\n      add\n        /* \"#utility.yul\":6855:6883   */\n      and\n        /* \"#utility.yul\":6845:6883   */\n      swap1\n      pop\n        /* \"#utility.yul\":6787:6889   */\n      swap2\n      swap1\n      pop\n      jump\t// out\n        /* \"#utility.yul\":6895:7011   */\n    tag_46:\n        /* \"#utility.yul\":6965:6986   */\n      tag_132\n        /* \"#utility.yul\":6980:6985   */\n      dup2\n        /* \"#utility.yul\":6965:6986   */\n      tag_71\n      jump\t// in\n    tag_132:\n        /* \"#utility.yul\":6958:6963   */\n      dup2\n        /* \"#utility.yul\":6955:6987   */\n      eq\n        /* \"#utility.yul\":6945:7005   */\n      tag_133\n      jumpi\n        /* \"#utility.yul\":7001:7002   */\n      0x00\n        /* \"#utility.yul\":6998:6999   */\n      dup1\n        /* \"#utility.yul\":6991:7003   */\n      revert\n        /* \"#utility.yul\":6945:7005   */\n    tag_133:\n        /* \"#utility.yul\":6895:7011   */\n      pop\n      jump\t// out\n\n    auxdata: 0xa264697066735822122046ca5168195692255b47226484afc32bc7be317727fd00ea74800567ce2996c264736f6c63430008070033\n}\n",
				"bytecode": {
					"linkReferences": {},
					"object": "608060405234801561001057600080fd5b506105a2806100206000396000f3fe608060405234801561001057600080fd5b50600436106100415760003560e01c806322b05ed214610046578063cba676d714610076578063d2e9dab814610092575b600080fd5b610060600480360381019061005b9190610232565b6100b0565b60405161006d9190610367565b60405180910390f35b610090600480360381019061008b919061027b565b6100e5565b005b61009a61011f565b6040516100a79190610382565b60405180910390f35b60006002826040516100c29190610350565b908152602001604051809103902060009054906101000a900460ff169050919050565b806002836040516100f69190610350565b908152602001604051809103902060006101000a81548160ff0219169083151502179055505050565b6000805461012c9061046f565b80601f01602080910402602001604051908101604052809291908181526020018280546101589061046f565b80156101a55780601f1061017a576101008083540402835291602001916101a5565b820191906000526020600020905b81548152906001019060200180831161018857829003601f168201915b505050505081565b60006101c06101bb846103c9565b6103a4565b9050828152602081018484840111156101dc576101db610535565b5b6101e784828561042d565b509392505050565b6000813590506101fe81610555565b92915050565b600082601f83011261021957610218610530565b5b81356102298482602086016101ad565b91505092915050565b6000602082840312156102485761024761053f565b5b600082013567ffffffffffffffff8111156102665761026561053a565b5b61027284828501610204565b91505092915050565b600080604083850312156102925761029161053f565b5b600083013567ffffffffffffffff8111156102b0576102af61053a565b5b6102bc85828601610204565b92505060206102cd858286016101ef565b9150509250929050565b6102e081610421565b82525050565b60006102f1826103fa565b6102fb8185610405565b935061030b81856020860161043c565b61031481610544565b840191505092915050565b600061032a826103fa565b6103348185610416565b935061034481856020860161043c565b80840191505092915050565b600061035c828461031f565b915081905092915050565b600060208201905061037c60008301846102d7565b92915050565b6000602082019050818103600083015261039c81846102e6565b905092915050565b60006103ae6103bf565b90506103ba82826104a1565b919050565b6000604051905090565b600067ffffffffffffffff8211156103e4576103e3610501565b5b6103ed82610544565b9050602081019050919050565b600081519050919050565b600082825260208201905092915050565b600081905092915050565b60008115159050919050565b82818337600083830152505050565b60005b8381101561045a57808201518184015260208101905061043f565b83811115610469576000848401525b50505050565b6000600282049050600182168061048757607f821691505b6020821081141561049b5761049a6104d2565b5b50919050565b6104aa82610544565b810181811067ffffffffffffffff821117156104c9576104c8610501565b5b80604052505050565b7f4e487b7100000000000000000000000000000000000000000000000000000000600052602260045260246000fd5b7f4e487b7100000000000000000000000000000000000000000000000000000000600052604160045260246000fd5b600080fd5b600080fd5b600080fd5b600080fd5b6000601f19601f8301169050919050565b61055e81610421565b811461056957600080fd5b5056fea264697066735822122046ca5168195692255b47226484afc32bc7be317727fd00ea74800567ce2996c264736f6c63430008070033",
					"opcodes": "PUSH1 0x80 PUSH1 0x40 MSTORE CALLVALUE DUP1 ISZERO PUSH2 0x10 JUMPI PUSH1 0x0 DUP1 REVERT JUMPDEST POP PUSH2 0x5A2 DUP1 PUSH2 0x20 PUSH1 0x0 CODECOPY PUSH1 0x0 RETURN INVALID PUSH1 0x80 PUSH1 0x40 MSTORE CALLVALUE DUP1 ISZERO PUSH2 0x10 JUMPI PUSH1 0x0 DUP1 REVERT JUMPDEST POP PUSH1 0x4 CALLDATASIZE LT PUSH2 0x41 JUMPI PUSH1 0x0 CALLDATALOAD PUSH1 0xE0 SHR DUP1 PUSH4 0x22B05ED2 EQ PUSH2 0x46 JUMPI DUP1 PUSH4 0xCBA676D7 EQ PUSH2 0x76 JUMPI DUP1 PUSH4 0xD2E9DAB8 EQ PUSH2 0x92 JUMPI JUMPDEST PUSH1 0x0 DUP1 REVERT JUMPDEST PUSH2 0x60 PUSH1 0x4 DUP1 CALLDATASIZE SUB DUP2 ADD SWAP1 PUSH2 0x5B SWAP2 SWAP1 PUSH2 0x232 JUMP JUMPDEST PUSH2 0xB0 JUMP JUMPDEST PUSH1 0x40 MLOAD PUSH2 0x6D SWAP2 SWAP1 PUSH2 0x367 JUMP JUMPDEST PUSH1 0x40 MLOAD DUP1 SWAP2 SUB SWAP1 RETURN JUMPDEST PUSH2 0x90 PUSH1 0x4 DUP1 CALLDATASIZE SUB DUP2 ADD SWAP1 PUSH2 0x8B SWAP2 SWAP1 PUSH2 0x27B JUMP JUMPDEST PUSH2 0xE5 JUMP JUMPDEST STOP JUMPDEST PUSH2 0x9A PUSH2 0x11F JUMP JUMPDEST PUSH1 0x40 MLOAD PUSH2 0xA7 SWAP2 SWAP1 PUSH2 0x382 JUMP JUMPDEST PUSH1 0x40 MLOAD DUP1 SWAP2 SUB SWAP1 RETURN JUMPDEST PUSH1 0x0 PUSH1 0x2 DUP3 PUSH1 0x40 MLOAD PUSH2 0xC2 SWAP2 SWAP1 PUSH2 0x350 JUMP JUMPDEST SWAP1 DUP2 MSTORE PUSH1 0x20 ADD PUSH1 0x40 MLOAD DUP1 SWAP2 SUB SWAP1 KECCAK256 PUSH1 0x0 SWAP1 SLOAD SWAP1 PUSH2 0x100 EXP SWAP1 DIV PUSH1 0xFF AND SWAP1 POP SWAP2 SWAP1 POP JUMP JUMPDEST DUP1 PUSH1 0x2 DUP4 PUSH1 0x40 MLOAD PUSH2 0xF6 SWAP2 SWAP1 PUSH2 0x350 JUMP JUMPDEST SWAP1 DUP2 MSTORE PUSH1 0x20 ADD PUSH1 0x40 MLOAD DUP1 SWAP2 SUB SWAP1 KECCAK256 PUSH1 0x0 PUSH2 0x100 EXP DUP2 SLOAD DUP2 PUSH1 0xFF MUL NOT AND SWAP1 DUP4 ISZERO ISZERO MUL OR SWAP1 SSTORE POP POP POP JUMP JUMPDEST PUSH1 0x0 DUP1 SLOAD PUSH2 0x12C SWAP1 PUSH2 0x46F JUMP JUMPDEST DUP1 PUSH1 0x1F ADD PUSH1 0x20 DUP1 SWAP2 DIV MUL PUSH1 0x20 ADD PUSH1 0x40 MLOAD SWAP1 DUP2 ADD PUSH1 0x40 MSTORE DUP1 SWAP3 SWAP2 SWAP1 DUP2 DUP2 MSTORE PUSH1 0x20 ADD DUP3 DUP1 SLOAD PUSH2 0x158 SWAP1 PUSH2 0x46F JUMP JUMPDEST DUP1 ISZERO PUSH2 0x1A5 JUMPI DUP1 PUSH1 0x1F LT PUSH2 0x17A JUMPI PUSH2 0x100 DUP1 DUP4 SLOAD DIV MUL DUP4 MSTORE SWAP2 PUSH1 0x20 ADD SWAP2 PUSH2 0x1A5 JUMP JUMPDEST DUP3 ADD SWAP2 SWAP1 PUSH1 0x0 MSTORE PUSH1 0x20 PUSH1 0x0 KECCAK256 SWAP1 JUMPDEST DUP2 SLOAD DUP2 MSTORE SWAP1 PUSH1 0x1 ADD SWAP1 PUSH1 0x20 ADD DUP1 DUP4 GT PUSH2 0x188 JUMPI DUP3 SWAP1 SUB PUSH1 0x1F AND DUP3 ADD SWAP2 JUMPDEST POP POP POP POP POP DUP2 JUMP JUMPDEST PUSH1 0x0 PUSH2 0x1C0 PUSH2 0x1BB DUP5 PUSH2 0x3C9 JUMP JUMPDEST PUSH2 0x3A4 JUMP JUMPDEST SWAP1 POP DUP3 DUP2 MSTORE PUSH1 0x20 DUP2 ADD DUP5 DUP5 DUP5 ADD GT ISZERO PUSH2 0x1DC JUMPI PUSH2 0x1DB PUSH2 0x535 JUMP JUMPDEST JUMPDEST PUSH2 0x1E7 DUP5 DUP3 DUP6 PUSH2 0x42D JUMP JUMPDEST POP SWAP4 SWAP3 POP POP POP JUMP JUMPDEST PUSH1 0x0 DUP2 CALLDATALOAD SWAP1 POP PUSH2 0x1FE DUP2 PUSH2 0x555 JUMP JUMPDEST SWAP3 SWAP2 POP POP JUMP JUMPDEST PUSH1 0x0 DUP3 PUSH1 0x1F DUP4 ADD SLT PUSH2 0x219 JUMPI PUSH2 0x218 PUSH2 0x530 JUMP JUMPDEST JUMPDEST DUP2 CALLDATALOAD PUSH2 0x229 DUP5 DUP3 PUSH1 0x20 DUP7 ADD PUSH2 0x1AD JUMP JUMPDEST SWAP2 POP POP SWAP3 SWAP2 POP POP JUMP JUMPDEST PUSH1 0x0 PUSH1 0x20 DUP3 DUP5 SUB SLT ISZERO PUSH2 0x248 JUMPI PUSH2 0x247 PUSH2 0x53F JUMP JUMPDEST JUMPDEST PUSH1 0x0 DUP3 ADD CALLDATALOAD PUSH8 0xFFFFFFFFFFFFFFFF DUP2 GT ISZERO PUSH2 0x266 JUMPI PUSH2 0x265 PUSH2 0x53A JUMP JUMPDEST JUMPDEST PUSH2 0x272 DUP5 DUP3 DUP6 ADD PUSH2 0x204 JUMP JUMPDEST SWAP2 POP POP SWAP3 SWAP2 POP POP JUMP JUMPDEST PUSH1 0x0 DUP1 PUSH1 0x40 DUP4 DUP6 SUB SLT ISZERO PUSH2 0x292 JUMPI PUSH2 0x291 PUSH2 0x53F JUMP JUMPDEST JUMPDEST PUSH1 0x0 DUP4 ADD CALLDATALOAD PUSH8 0xFFFFFFFFFFFFFFFF DUP2 GT ISZERO PUSH2 0x2B0 JUMPI PUSH2 0x2AF PUSH2 0x53A JUMP JUMPDEST JUMPDEST PUSH2 0x2BC DUP6 DUP3 DUP7 ADD PUSH2 0x204 JUMP JUMPDEST SWAP3 POP POP PUSH1 0x20 PUSH2 0x2CD DUP6 DUP3 DUP7 ADD PUSH2 0x1EF JUMP JUMPDEST SWAP2 POP POP SWAP3 POP SWAP3 SWAP1 POP JUMP JUMPDEST PUSH2 0x2E0 DUP2 PUSH2 0x421 JUMP JUMPDEST DUP3 MSTORE POP POP JUMP JUMPDEST PUSH1 0x0 PUSH2 0x2F1 DUP3 PUSH2 0x3FA JUMP JUMPDEST PUSH2 0x2FB DUP2 DUP6 PUSH2 0x405 JUMP JUMPDEST SWAP4 POP PUSH2 0x30B DUP2 DUP6 PUSH1 0x20 DUP7 ADD PUSH2 0x43C JUMP JUMPDEST PUSH2 0x314 DUP2 PUSH2 0x544 JUMP JUMPDEST DUP5 ADD SWAP2 POP POP SWAP3 SWAP2 POP POP JUMP JUMPDEST PUSH1 0x0 PUSH2 0x32A DUP3 PUSH2 0x3FA JUMP JUMPDEST PUSH2 0x334 DUP2 DUP6 PUSH2 0x416 JUMP JUMPDEST SWAP4 POP PUSH2 0x344 DUP2 DUP6 PUSH1 0x20 DUP7 ADD PUSH2 0x43C JUMP JUMPDEST DUP1 DUP5 ADD SWAP2 POP POP SWAP3 SWAP2 POP POP JUMP JUMPDEST PUSH1 0x0 PUSH2 0x35C DUP3 DUP5 PUSH2 0x31F JUMP JUMPDEST SWAP2 POP DUP2 SWAP1 POP SWAP3 SWAP2 POP POP JUMP JUMPDEST PUSH1 0x0 PUSH1 0x20 DUP3 ADD SWAP1 POP PUSH2 0x37C PUSH1 0x0 DUP4 ADD DUP5 PUSH2 0x2D7 JUMP JUMPDEST SWAP3 SWAP2 POP POP JUMP JUMPDEST PUSH1 0x0 PUSH1 0x20 DUP3 ADD SWAP1 POP DUP2 DUP2 SUB PUSH1 0x0 DUP4 ADD MSTORE PUSH2 0x39C DUP2 DUP5 PUSH2 0x2E6 JUMP JUMPDEST SWAP1 POP SWAP3 SWAP2 POP POP JUMP JUMPDEST PUSH1 0x0 PUSH2 0x3AE PUSH2 0x3BF JUMP JUMPDEST SWAP1 POP PUSH2 0x3BA DUP3 DUP3 PUSH2 0x4A1 JUMP JUMPDEST SWAP2 SWAP1 POP JUMP JUMPDEST PUSH1 0x0 PUSH1 0x40 MLOAD SWAP1 POP SWAP1 JUMP JUMPDEST PUSH1 0x0 PUSH8 0xFFFFFFFFFFFFFFFF DUP3 GT ISZERO PUSH2 0x3E4 JUMPI PUSH2 0x3E3 PUSH2 0x501 JUMP JUMPDEST JUMPDEST PUSH2 0x3ED DUP3 PUSH2 0x544 JUMP JUMPDEST SWAP1 POP PUSH1 0x20 DUP2 ADD SWAP1 POP SWAP2 SWAP1 POP JUMP JUMPDEST PUSH1 0x0 DUP2 MLOAD SWAP1 POP SWAP2 SWAP1 POP JUMP JUMPDEST PUSH1 0x0 DUP3 DUP3 MSTORE PUSH1 0x20 DUP3 ADD SWAP1 POP SWAP3 SWAP2 POP POP JUMP JUMPDEST PUSH1 0x0 DUP2 SWAP1 POP SWAP3 SWAP2 POP POP JUMP JUMPDEST PUSH1 0x0 DUP2 ISZERO ISZERO SWAP1 POP SWAP2 SWAP1 POP JUMP JUMPDEST DUP3 DUP2 DUP4 CALLDATACOPY PUSH1 0x0 DUP4 DUP4 ADD MSTORE POP POP POP JUMP JUMPDEST PUSH1 0x0 JUMPDEST DUP4 DUP2 LT ISZERO PUSH2 0x45A JUMPI DUP1 DUP3 ADD MLOAD DUP2 DUP5 ADD MSTORE PUSH1 0x20 DUP2 ADD SWAP1 POP PUSH2 0x43F JUMP JUMPDEST DUP4 DUP2 GT ISZERO PUSH2 0x469 JUMPI PUSH1 0x0 DUP5 DUP5 ADD MSTORE JUMPDEST POP POP POP POP JUMP JUMPDEST PUSH1 0x0 PUSH1 0x2 DUP3 DIV SWAP1 POP PUSH1 0x1 DUP3 AND DUP1 PUSH2 0x487 JUMPI PUSH1 0x7F DUP3 AND SWAP2 POP JUMPDEST PUSH1 0x20 DUP3 LT DUP2 EQ ISZERO PUSH2 0x49B JUMPI PUSH2 0x49A PUSH2 0x4D2 JUMP JUMPDEST JUMPDEST POP SWAP2 SWAP1 POP JUMP JUMPDEST PUSH2 0x4AA DUP3 PUSH2 0x544 JUMP JUMPDEST DUP2 ADD DUP2 DUP2 LT PUSH8 0xFFFFFFFFFFFFFFFF DUP3 GT OR ISZERO PUSH2 0x4C9 JUMPI PUSH2 0x4C8 PUSH2 0x501 JUMP JUMPDEST JUMPDEST DUP1 PUSH1 0x40 MSTORE POP POP POP JUMP JUMPDEST PUSH32 0x4E487B7100000000000000000000000000000000000000000000000000000000 PUSH1 0x0 MSTORE PUSH1 0x22 PUSH1 0x4 MSTORE PUSH1 0x24 PUSH1 0x0 REVERT JUMPDEST PUSH32 0x4E487B7100000000000000000000000000000000000000000000000000000000 PUSH1 0x0 MSTORE PUSH1 0x41 PUSH1 0x4 MSTORE PUSH1 0x24 PUSH1 0x0 REVERT JUMPDEST PUSH1 0x0 DUP1 REVERT JUMPDEST PUSH1 0x0 DUP1 REVERT JUMPDEST PUSH1 0x0 DUP1 REVERT JUMPDEST PUSH1 0x0 DUP1 REVERT JUMPDEST PUSH1 0x0 PUSH1 0x1F NOT PUSH1 0x1F DUP4 ADD AND SWAP1 POP SWAP2 SWAP1 POP JUMP JUMPDEST PUSH2 0x55E DUP2 PUSH2 0x421 JUMP JUMPDEST DUP2 EQ PUSH2 0x569 JUMPI PUSH1 0x0 DUP1 REVERT JUMPDEST POP JUMP INVALID LOG2 PUSH5 0x6970667358 0x22 SLT KECCAK256 CHAINID 0xCA MLOAD PUSH9 0x195692255B47226484 0xAF 0xC3 0x2B 0xC7 0xBE BALANCE PUSH24 0x27FD00EA74800567CE2996C264736F6C6343000807003300 "
				},
				"gasEstimates": {
					"creation": {
						"codeDepositCost": "288400",
						"executionCost": "331",
						"totalCost": "288731"
					},
					"external": {
						"getStatus(string)": "infinite",
						"setStatus(string,bool)": "infinite",
						"unique_id()": "infinite"
					}
				},
				"methodIdentifiers": {
					"getStatus(string)": "22b05ed2",
					"setStatus(string,bool)": "cba676d7",
					"unique_id()": "d2e9dab8"
				}
			},
			"storageLayout": {
				"storage": [
					{
						"astId": 3,
						"contract": "contracts/composedContract/BasicDataStorage.sol:BasicDataStorage",
						"label": "unique_id",
						"offset": 0,
						"slot": "0",
						"type": "t_string_storage"
					},
					{
						"astId": 5,
						"contract": "contracts/composedContract/BasicDataStorage.sol:BasicDataStorage",
						"label": "status",
						"offset": 0,
						"slot": "1",
						"type": "t_bool"
					},
					{
						"astId": 9,
						"contract": "contracts/composedContract/BasicDataStorage.sol:BasicDataStorage",
						"label": "DataMap",
						"offset": 0,
						"slot": "2",
						"type": "t_mapping(t_string_memory_ptr,t_bool)"
					}
				],
				"types": {
					"t_bool": {
						"encoding": "inplace",
						"label": "bool",
						"numberOfBytes": "1"
					},
					"t_mapping(t_string_memory_ptr,t_bool)": {
						"encoding": "mapping",
						"key": "t_string_memory_ptr",
						"label": "mapping(string => bool)",
						"numberOfBytes": "32",
						"value": "t_bool"
					},
					"t_string_memory_ptr": {
						"encoding": "bytes",
						"label": "string",
						"numberOfBytes": "32"
					},
					"t_string_storage": {
						"encoding": "bytes",
						"label": "string",
						"numberOfBytes": "32"
					}
				}
			},
			"userdoc": {
				"kind": "user",
				"methods": {},
				"version": 1
			}
		}
	}
}