{
	"contracts/composedContract/BasicDataStorage.sol": {
		"BasicDataStorage": {
			"abi": [
				{
					"inputs": [
						{
							"internalType": "uint32",
							"name": "_uniqueId",
							"type": "uint32"
						}
					],
					"name": "getStatus",
					"outputs": [
						{
							"internalType": "bool",
							"name": "",
							"type": "bool"
						}
					],
					"stateMutability": "view",
					"type": "function"
				},
				{
					"inputs": [
						{
							"internalType": "uint32",
							"name": "_uniqueId",
							"type": "uint32"
						},
						{
							"internalType": "bool",
							"name": "_status",
							"type": "bool"
						}
					],
					"name": "setStatus",
					"outputs": [],
					"stateMutability": "nonpayable",
					"type": "function"
				},
				{
					"inputs": [],
					"name": "unique_id",
					"outputs": [
						{
							"internalType": "uint32",
							"name": "",
							"type": "uint32"
						}
					],
					"stateMutability": "view",
					"type": "function"
				}
			],
			"devdoc": {
				"kind": "dev",
				"methods": {},
				"version": 1
			},
			"evm": {
				"assembly": "    /* \"contracts/composedContract/BasicDataStorage.sol\":86:439  contract BasicDataStorage{\r... */\n  mstore(0x40, 0x80)\n  callvalue\n  dup1\n  iszero\n  tag_1\n  jumpi\n  0x00\n  dup1\n  revert\ntag_1:\n  pop\n  dataSize(sub_0)\n  dup1\n  dataOffset(sub_0)\n  0x00\n  codecopy\n  0x00\n  return\nstop\n\nsub_0: assembly {\n        /* \"contracts/composedContract/BasicDataStorage.sol\":86:439  contract BasicDataStorage{\r... */\n      mstore(0x40, 0x80)\n      callvalue\n      dup1\n      iszero\n      tag_1\n      jumpi\n      0x00\n      dup1\n      revert\n    tag_1:\n      pop\n      jumpi(tag_2, lt(calldatasize, 0x04))\n      shr(0xe0, calldataload(0x00))\n      dup1\n      0x3ba282fa\n      eq\n      tag_3\n      jumpi\n      dup1\n      0xd2e9dab8\n      eq\n      tag_4\n      jumpi\n      dup1\n      0xe92ef323\n      eq\n      tag_5\n      jumpi\n    tag_2:\n      0x00\n      dup1\n      revert\n        /* \"contracts/composedContract/BasicDataStorage.sol\":212:320  function getStatus(uint32 _uniqueId) public view returns (bool) {\r... */\n    tag_3:\n      tag_6\n      0x04\n      dup1\n      calldatasize\n      sub\n      dup2\n      add\n      swap1\n      tag_7\n      swap2\n      swap1\n      tag_8\n      jump\t// in\n    tag_7:\n      tag_9\n      jump\t// in\n    tag_6:\n      mload(0x40)\n      tag_10\n      swap2\n      swap1\n      tag_11\n      jump\t// in\n    tag_10:\n      mload(0x40)\n      dup1\n      swap2\n      sub\n      swap1\n      return\n        /* \"contracts/composedContract/BasicDataStorage.sol\":120:143  uint32 public unique_id */\n    tag_4:\n      tag_12\n      tag_13\n      jump\t// in\n    tag_12:\n      mload(0x40)\n      tag_14\n      swap2\n      swap1\n      tag_15\n      jump\t// in\n    tag_14:\n      mload(0x40)\n      dup1\n      swap2\n      sub\n      swap1\n      return\n        /* \"contracts/composedContract/BasicDataStorage.sol\":329:436  function setStatus(uint32 _uniqueId , bool _status) public {\r... */\n    tag_5:\n      tag_16\n      0x04\n      dup1\n      calldatasize\n      sub\n      dup2\n      add\n      swap1\n      tag_17\n      swap2\n      swap1\n      tag_18\n      jump\t// in\n    tag_17:\n      tag_19\n      jump\t// in\n    tag_16:\n      stop\n        /* \"contracts/composedContract/BasicDataStorage.sol\":212:320  function getStatus(uint32 _uniqueId) public view returns (bool) {\r... */\n    tag_9:\n        /* \"contracts/composedContract/BasicDataStorage.sol\":270:274  bool */\n      0x00\n        /* \"contracts/composedContract/BasicDataStorage.sol\":294:301  DataMap */\n      0x01\n        /* \"contracts/composedContract/BasicDataStorage.sol\":294:312  DataMap[_uniqueId] */\n      0x00\n        /* \"contracts/composedContract/BasicDataStorage.sol\":302:311  _uniqueId */\n      dup4\n        /* \"contracts/composedContract/BasicDataStorage.sol\":294:312  DataMap[_uniqueId] */\n      0xffffffff\n      and\n      0xffffffff\n      and\n      dup2\n      mstore\n      0x20\n      add\n      swap1\n      dup2\n      mstore\n      0x20\n      add\n      0x00\n      keccak256\n      0x00\n      swap1\n      sload\n      swap1\n      0x0100\n      exp\n      swap1\n      div\n      0xff\n      and\n        /* \"contracts/composedContract/BasicDataStorage.sol\":287:312  return DataMap[_uniqueId] */\n      swap1\n      pop\n        /* \"contracts/composedContract/BasicDataStorage.sol\":212:320  function getStatus(uint32 _uniqueId) public view returns (bool) {\r... */\n      swap2\n      swap1\n      pop\n      jump\t// out\n        /* \"contracts/composedContract/BasicDataStorage.sol\":120:143  uint32 public unique_id */\n    tag_13:\n      0x00\n      dup1\n      sload\n      swap1\n      0x0100\n      exp\n      swap1\n      div\n      0xffffffff\n      and\n      dup2\n      jump\t// out\n        /* \"contracts/composedContract/BasicDataStorage.sol\":329:436  function setStatus(uint32 _uniqueId , bool _status) public {\r... */\n    tag_19:\n        /* \"contracts/composedContract/BasicDataStorage.sol\":419:426  _status */\n      dup1\n        /* \"contracts/composedContract/BasicDataStorage.sol\":400:407  DataMap */\n      0x01\n        /* \"contracts/composedContract/BasicDataStorage.sol\":400:418  DataMap[_uniqueId] */\n      0x00\n        /* \"contracts/composedContract/BasicDataStorage.sol\":408:417  _uniqueId */\n      dup5\n        /* \"contracts/composedContract/BasicDataStorage.sol\":400:418  DataMap[_uniqueId] */\n      0xffffffff\n      and\n      0xffffffff\n      and\n      dup2\n      mstore\n      0x20\n      add\n      swap1\n      dup2\n      mstore\n      0x20\n      add\n      0x00\n      keccak256\n      0x00\n        /* \"contracts/composedContract/BasicDataStorage.sol\":400:426  DataMap[_uniqueId]=_status */\n      0x0100\n      exp\n      dup2\n      sload\n      dup2\n      0xff\n      mul\n      not\n      and\n      swap1\n      dup4\n      iszero\n      iszero\n      mul\n      or\n      swap1\n      sstore\n      pop\n        /* \"contracts/composedContract/BasicDataStorage.sol\":329:436  function setStatus(uint32 _uniqueId , bool _status) public {\r... */\n      pop\n      pop\n      jump\t// out\n        /* \"#utility.yul\":7:140   */\n    tag_23:\n        /* \"#utility.yul\":50:55   */\n      0x00\n        /* \"#utility.yul\":88:94   */\n      dup2\n        /* \"#utility.yul\":75:95   */\n      calldataload\n        /* \"#utility.yul\":66:95   */\n      swap1\n      pop\n        /* \"#utility.yul\":104:134   */\n      tag_25\n        /* \"#utility.yul\":128:133   */\n      dup2\n        /* \"#utility.yul\":104:134   */\n      tag_26\n      jump\t// in\n    tag_25:\n        /* \"#utility.yul\":7:140   */\n      swap3\n      swap2\n      pop\n      pop\n      jump\t// out\n        /* \"#utility.yul\":146:283   */\n    tag_27:\n        /* \"#utility.yul\":191:196   */\n      0x00\n        /* \"#utility.yul\":229:235   */\n      dup2\n        /* \"#utility.yul\":216:236   */\n      calldataload\n        /* \"#utility.yul\":207:236   */\n      swap1\n      pop\n        /* \"#utility.yul\":245:277   */\n      tag_29\n        /* \"#utility.yul\":271:276   */\n      dup2\n        /* \"#utility.yul\":245:277   */\n      tag_30\n      jump\t// in\n    tag_29:\n        /* \"#utility.yul\":146:283   */\n      swap3\n      swap2\n      pop\n      pop\n      jump\t// out\n        /* \"#utility.yul\":289:616   */\n    tag_8:\n        /* \"#utility.yul\":347:353   */\n      0x00\n        /* \"#utility.yul\":396:398   */\n      0x20\n        /* \"#utility.yul\":384:393   */\n      dup3\n        /* \"#utility.yul\":375:382   */\n      dup5\n        /* \"#utility.yul\":371:394   */\n      sub\n        /* \"#utility.yul\":367:399   */\n      slt\n        /* \"#utility.yul\":364:483   */\n      iszero\n      tag_32\n      jumpi\n        /* \"#utility.yul\":402:481   */\n      tag_33\n      tag_34\n      jump\t// in\n    tag_33:\n        /* \"#utility.yul\":364:483   */\n    tag_32:\n        /* \"#utility.yul\":522:523   */\n      0x00\n        /* \"#utility.yul\":547:599   */\n      tag_35\n        /* \"#utility.yul\":591:598   */\n      dup5\n        /* \"#utility.yul\":582:588   */\n      dup3\n        /* \"#utility.yul\":571:580   */\n      dup6\n        /* \"#utility.yul\":567:589   */\n      add\n        /* \"#utility.yul\":547:599   */\n      tag_27\n      jump\t// in\n    tag_35:\n        /* \"#utility.yul\":537:599   */\n      swap2\n      pop\n        /* \"#utility.yul\":493:609   */\n      pop\n        /* \"#utility.yul\":289:616   */\n      swap3\n      swap2\n      pop\n      pop\n      jump\t// out\n        /* \"#utility.yul\":622:1088   */\n    tag_18:\n        /* \"#utility.yul\":686:692   */\n      0x00\n        /* \"#utility.yul\":694:700   */\n      dup1\n        /* \"#utility.yul\":743:745   */\n      0x40\n        /* \"#utility.yul\":731:740   */\n      dup4\n        /* \"#utility.yul\":722:729   */\n      dup6\n        /* \"#utility.yul\":718:741   */\n      sub\n        /* \"#utility.yul\":714:746   */\n      slt\n        /* \"#utility.yul\":711:830   */\n      iszero\n      tag_37\n      jumpi\n        /* \"#utility.yul\":749:828   */\n      tag_38\n      tag_34\n      jump\t// in\n    tag_38:\n        /* \"#utility.yul\":711:830   */\n    tag_37:\n        /* \"#utility.yul\":869:870   */\n      0x00\n        /* \"#utility.yul\":894:946   */\n      tag_39\n        /* \"#utility.yul\":938:945   */\n      dup6\n        /* \"#utility.yul\":929:935   */\n      dup3\n        /* \"#utility.yul\":918:927   */\n      dup7\n        /* \"#utility.yul\":914:936   */\n      add\n        /* \"#utility.yul\":894:946   */\n      tag_27\n      jump\t// in\n    tag_39:\n        /* \"#utility.yul\":884:946   */\n      swap3\n      pop\n        /* \"#utility.yul\":840:956   */\n      pop\n        /* \"#utility.yul\":995:997   */\n      0x20\n        /* \"#utility.yul\":1021:1071   */\n      tag_40\n        /* \"#utility.yul\":1063:1070   */\n      dup6\n        /* \"#utility.yul\":1054:1060   */\n      dup3\n        /* \"#utility.yul\":1043:1052   */\n      dup7\n        /* \"#utility.yul\":1039:1061   */\n      add\n        /* \"#utility.yul\":1021:1071   */\n      tag_23\n      jump\t// in\n    tag_40:\n        /* \"#utility.yul\":1011:1071   */\n      swap2\n      pop\n        /* \"#utility.yul\":966:1081   */\n      pop\n        /* \"#utility.yul\":622:1088   */\n      swap3\n      pop\n      swap3\n      swap1\n      pop\n      jump\t// out\n        /* \"#utility.yul\":1094:1203   */\n    tag_41:\n        /* \"#utility.yul\":1175:1196   */\n      tag_43\n        /* \"#utility.yul\":1190:1195   */\n      dup2\n        /* \"#utility.yul\":1175:1196   */\n      tag_44\n      jump\t// in\n    tag_43:\n        /* \"#utility.yul\":1170:1173   */\n      dup3\n        /* \"#utility.yul\":1163:1197   */\n      mstore\n        /* \"#utility.yul\":1094:1203   */\n      pop\n      pop\n      jump\t// out\n        /* \"#utility.yul\":1209:1324   */\n    tag_45:\n        /* \"#utility.yul\":1294:1317   */\n      tag_47\n        /* \"#utility.yul\":1311:1316   */\n      dup2\n        /* \"#utility.yul\":1294:1317   */\n      tag_48\n      jump\t// in\n    tag_47:\n        /* \"#utility.yul\":1289:1292   */\n      dup3\n        /* \"#utility.yul\":1282:1318   */\n      mstore\n        /* \"#utility.yul\":1209:1324   */\n      pop\n      pop\n      jump\t// out\n        /* \"#utility.yul\":1330:1540   */\n    tag_11:\n        /* \"#utility.yul\":1417:1421   */\n      0x00\n        /* \"#utility.yul\":1455:1457   */\n      0x20\n        /* \"#utility.yul\":1444:1453   */\n      dup3\n        /* \"#utility.yul\":1440:1458   */\n      add\n        /* \"#utility.yul\":1432:1458   */\n      swap1\n      pop\n        /* \"#utility.yul\":1468:1533   */\n      tag_50\n        /* \"#utility.yul\":1530:1531   */\n      0x00\n        /* \"#utility.yul\":1519:1528   */\n      dup4\n        /* \"#utility.yul\":1515:1532   */\n      add\n        /* \"#utility.yul\":1506:1512   */\n      dup5\n        /* \"#utility.yul\":1468:1533   */\n      tag_41\n      jump\t// in\n    tag_50:\n        /* \"#utility.yul\":1330:1540   */\n      swap3\n      swap2\n      pop\n      pop\n      jump\t// out\n        /* \"#utility.yul\":1546:1764   */\n    tag_15:\n        /* \"#utility.yul\":1637:1641   */\n      0x00\n        /* \"#utility.yul\":1675:1677   */\n      0x20\n        /* \"#utility.yul\":1664:1673   */\n      dup3\n        /* \"#utility.yul\":1660:1678   */\n      add\n        /* \"#utility.yul\":1652:1678   */\n      swap1\n      pop\n        /* \"#utility.yul\":1688:1757   */\n      tag_52\n        /* \"#utility.yul\":1754:1755   */\n      0x00\n        /* \"#utility.yul\":1743:1752   */\n      dup4\n        /* \"#utility.yul\":1739:1756   */\n      add\n        /* \"#utility.yul\":1730:1736   */\n      dup5\n        /* \"#utility.yul\":1688:1757   */\n      tag_45\n      jump\t// in\n    tag_52:\n        /* \"#utility.yul\":1546:1764   */\n      swap3\n      swap2\n      pop\n      pop\n      jump\t// out\n        /* \"#utility.yul\":1851:1941   */\n    tag_44:\n        /* \"#utility.yul\":1885:1892   */\n      0x00\n        /* \"#utility.yul\":1928:1933   */\n      dup2\n        /* \"#utility.yul\":1921:1934   */\n      iszero\n        /* \"#utility.yul\":1914:1935   */\n      iszero\n        /* \"#utility.yul\":1903:1935   */\n      swap1\n      pop\n        /* \"#utility.yul\":1851:1941   */\n      swap2\n      swap1\n      pop\n      jump\t// out\n        /* \"#utility.yul\":1947:2040   */\n    tag_48:\n        /* \"#utility.yul\":1983:1990   */\n      0x00\n        /* \"#utility.yul\":2023:2033   */\n      0xffffffff\n        /* \"#utility.yul\":2016:2021   */\n      dup3\n        /* \"#utility.yul\":2012:2034   */\n      and\n        /* \"#utility.yul\":2001:2034   */\n      swap1\n      pop\n        /* \"#utility.yul\":1947:2040   */\n      swap2\n      swap1\n      pop\n      jump\t// out\n        /* \"#utility.yul\":2169:2286   */\n    tag_34:\n        /* \"#utility.yul\":2278:2279   */\n      0x00\n        /* \"#utility.yul\":2275:2276   */\n      dup1\n        /* \"#utility.yul\":2268:2280   */\n      revert\n        /* \"#utility.yul\":2292:2408   */\n    tag_26:\n        /* \"#utility.yul\":2362:2383   */\n      tag_61\n        /* \"#utility.yul\":2377:2382   */\n      dup2\n        /* \"#utility.yul\":2362:2383   */\n      tag_44\n      jump\t// in\n    tag_61:\n        /* \"#utility.yul\":2355:2360   */\n      dup2\n        /* \"#utility.yul\":2352:2384   */\n      eq\n        /* \"#utility.yul\":2342:2402   */\n      tag_62\n      jumpi\n        /* \"#utility.yul\":2398:2399   */\n      0x00\n        /* \"#utility.yul\":2395:2396   */\n      dup1\n        /* \"#utility.yul\":2388:2400   */\n      revert\n        /* \"#utility.yul\":2342:2402   */\n    tag_62:\n        /* \"#utility.yul\":2292:2408   */\n      pop\n      jump\t// out\n        /* \"#utility.yul\":2414:2534   */\n    tag_30:\n        /* \"#utility.yul\":2486:2509   */\n      tag_64\n        /* \"#utility.yul\":2503:2508   */\n      dup2\n        /* \"#utility.yul\":2486:2509   */\n      tag_48\n      jump\t// in\n    tag_64:\n        /* \"#utility.yul\":2479:2484   */\n      dup2\n        /* \"#utility.yul\":2476:2510   */\n      eq\n        /* \"#utility.yul\":2466:2528   */\n      tag_65\n      jumpi\n        /* \"#utility.yul\":2524:2525   */\n      0x00\n        /* \"#utility.yul\":2521:2522   */\n      dup1\n        /* \"#utility.yul\":2514:2526   */\n      revert\n        /* \"#utility.yul\":2466:2528   */\n    tag_65:\n        /* \"#utility.yul\":2414:2534   */\n      pop\n      jump\t// out\n\n    auxdata: 0xa2646970667358221220567502b86a0f3d1d1a285982253a72a0be553fdfc304112fc76c1e4c6b846b4a64736f6c63430008070033\n}\n",
				"bytecode": {
					"linkReferences": {},
					"object": "608060405234801561001057600080fd5b506102a5806100206000396000f3fe608060405234801561001057600080fd5b50600436106100415760003560e01c80633ba282fa14610046578063d2e9dab814610076578063e92ef32314610094575b600080fd5b610060600480360381019061005b919061015f565b6100b0565b60405161006d91906101ea565b60405180910390f35b61007e6100e6565b60405161008b9190610205565b60405180910390f35b6100ae60048036038101906100a9919061018c565b6100fa565b005b6000600160008363ffffffff1663ffffffff16815260200190815260200160002060009054906101000a900460ff169050919050565b60008054906101000a900463ffffffff1681565b80600160008463ffffffff1663ffffffff16815260200190815260200160002060006101000a81548160ff0219169083151502179055505050565b60008135905061014481610241565b92915050565b60008135905061015981610258565b92915050565b6000602082840312156101755761017461023c565b5b60006101838482850161014a565b91505092915050565b600080604083850312156101a3576101a261023c565b5b60006101b18582860161014a565b92505060206101c285828601610135565b9150509250929050565b6101d581610220565b82525050565b6101e48161022c565b82525050565b60006020820190506101ff60008301846101cc565b92915050565b600060208201905061021a60008301846101db565b92915050565b60008115159050919050565b600063ffffffff82169050919050565b600080fd5b61024a81610220565b811461025557600080fd5b50565b6102618161022c565b811461026c57600080fd5b5056fea2646970667358221220567502b86a0f3d1d1a285982253a72a0be553fdfc304112fc76c1e4c6b846b4a64736f6c63430008070033",
					"opcodes": "PUSH1 0x80 PUSH1 0x40 MSTORE CALLVALUE DUP1 ISZERO PUSH2 0x10 JUMPI PUSH1 0x0 DUP1 REVERT JUMPDEST POP PUSH2 0x2A5 DUP1 PUSH2 0x20 PUSH1 0x0 CODECOPY PUSH1 0x0 RETURN INVALID PUSH1 0x80 PUSH1 0x40 MSTORE CALLVALUE DUP1 ISZERO PUSH2 0x10 JUMPI PUSH1 0x0 DUP1 REVERT JUMPDEST POP PUSH1 0x4 CALLDATASIZE LT PUSH2 0x41 JUMPI PUSH1 0x0 CALLDATALOAD PUSH1 0xE0 SHR DUP1 PUSH4 0x3BA282FA EQ PUSH2 0x46 JUMPI DUP1 PUSH4 0xD2E9DAB8 EQ PUSH2 0x76 JUMPI DUP1 PUSH4 0xE92EF323 EQ PUSH2 0x94 JUMPI JUMPDEST PUSH1 0x0 DUP1 REVERT JUMPDEST PUSH2 0x60 PUSH1 0x4 DUP1 CALLDATASIZE SUB DUP2 ADD SWAP1 PUSH2 0x5B SWAP2 SWAP1 PUSH2 0x15F JUMP JUMPDEST PUSH2 0xB0 JUMP JUMPDEST PUSH1 0x40 MLOAD PUSH2 0x6D SWAP2 SWAP1 PUSH2 0x1EA JUMP JUMPDEST PUSH1 0x40 MLOAD DUP1 SWAP2 SUB SWAP1 RETURN JUMPDEST PUSH2 0x7E PUSH2 0xE6 JUMP JUMPDEST PUSH1 0x40 MLOAD PUSH2 0x8B SWAP2 SWAP1 PUSH2 0x205 JUMP JUMPDEST PUSH1 0x40 MLOAD DUP1 SWAP2 SUB SWAP1 RETURN JUMPDEST PUSH2 0xAE PUSH1 0x4 DUP1 CALLDATASIZE SUB DUP2 ADD SWAP1 PUSH2 0xA9 SWAP2 SWAP1 PUSH2 0x18C JUMP JUMPDEST PUSH2 0xFA JUMP JUMPDEST STOP JUMPDEST PUSH1 0x0 PUSH1 0x1 PUSH1 0x0 DUP4 PUSH4 0xFFFFFFFF AND PUSH4 0xFFFFFFFF AND DUP2 MSTORE PUSH1 0x20 ADD SWAP1 DUP2 MSTORE PUSH1 0x20 ADD PUSH1 0x0 KECCAK256 PUSH1 0x0 SWAP1 SLOAD SWAP1 PUSH2 0x100 EXP SWAP1 DIV PUSH1 0xFF AND SWAP1 POP SWAP2 SWAP1 POP JUMP JUMPDEST PUSH1 0x0 DUP1 SLOAD SWAP1 PUSH2 0x100 EXP SWAP1 DIV PUSH4 0xFFFFFFFF AND DUP2 JUMP JUMPDEST DUP1 PUSH1 0x1 PUSH1 0x0 DUP5 PUSH4 0xFFFFFFFF AND PUSH4 0xFFFFFFFF AND DUP2 MSTORE PUSH1 0x20 ADD SWAP1 DUP2 MSTORE PUSH1 0x20 ADD PUSH1 0x0 KECCAK256 PUSH1 0x0 PUSH2 0x100 EXP DUP2 SLOAD DUP2 PUSH1 0xFF MUL NOT AND SWAP1 DUP4 ISZERO ISZERO MUL OR SWAP1 SSTORE POP POP POP JUMP JUMPDEST PUSH1 0x0 DUP2 CALLDATALOAD SWAP1 POP PUSH2 0x144 DUP2 PUSH2 0x241 JUMP JUMPDEST SWAP3 SWAP2 POP POP JUMP JUMPDEST PUSH1 0x0 DUP2 CALLDATALOAD SWAP1 POP PUSH2 0x159 DUP2 PUSH2 0x258 JUMP JUMPDEST SWAP3 SWAP2 POP POP JUMP JUMPDEST PUSH1 0x0 PUSH1 0x20 DUP3 DUP5 SUB SLT ISZERO PUSH2 0x175 JUMPI PUSH2 0x174 PUSH2 0x23C JUMP JUMPDEST JUMPDEST PUSH1 0x0 PUSH2 0x183 DUP5 DUP3 DUP6 ADD PUSH2 0x14A JUMP JUMPDEST SWAP2 POP POP SWAP3 SWAP2 POP POP JUMP JUMPDEST PUSH1 0x0 DUP1 PUSH1 0x40 DUP4 DUP6 SUB SLT ISZERO PUSH2 0x1A3 JUMPI PUSH2 0x1A2 PUSH2 0x23C JUMP JUMPDEST JUMPDEST PUSH1 0x0 PUSH2 0x1B1 DUP6 DUP3 DUP7 ADD PUSH2 0x14A JUMP JUMPDEST SWAP3 POP POP PUSH1 0x20 PUSH2 0x1C2 DUP6 DUP3 DUP7 ADD PUSH2 0x135 JUMP JUMPDEST SWAP2 POP POP SWAP3 POP SWAP3 SWAP1 POP JUMP JUMPDEST PUSH2 0x1D5 DUP2 PUSH2 0x220 JUMP JUMPDEST DUP3 MSTORE POP POP JUMP JUMPDEST PUSH2 0x1E4 DUP2 PUSH2 0x22C JUMP JUMPDEST DUP3 MSTORE POP POP JUMP JUMPDEST PUSH1 0x0 PUSH1 0x20 DUP3 ADD SWAP1 POP PUSH2 0x1FF PUSH1 0x0 DUP4 ADD DUP5 PUSH2 0x1CC JUMP JUMPDEST SWAP3 SWAP2 POP POP JUMP JUMPDEST PUSH1 0x0 PUSH1 0x20 DUP3 ADD SWAP1 POP PUSH2 0x21A PUSH1 0x0 DUP4 ADD DUP5 PUSH2 0x1DB JUMP JUMPDEST SWAP3 SWAP2 POP POP JUMP JUMPDEST PUSH1 0x0 DUP2 ISZERO ISZERO SWAP1 POP SWAP2 SWAP1 POP JUMP JUMPDEST PUSH1 0x0 PUSH4 0xFFFFFFFF DUP3 AND SWAP1 POP SWAP2 SWAP1 POP JUMP JUMPDEST PUSH1 0x0 DUP1 REVERT JUMPDEST PUSH2 0x24A DUP2 PUSH2 0x220 JUMP JUMPDEST DUP2 EQ PUSH2 0x255 JUMPI PUSH1 0x0 DUP1 REVERT JUMPDEST POP JUMP JUMPDEST PUSH2 0x261 DUP2 PUSH2 0x22C JUMP JUMPDEST DUP2 EQ PUSH2 0x26C JUMPI PUSH1 0x0 DUP1 REVERT JUMPDEST POP JUMP INVALID LOG2 PUSH5 0x6970667358 0x22 SLT KECCAK256 JUMP PUSH22 0x2B86A0F3D1D1A285982253A72A0BE553FDFC304112F 0xC7 PUSH13 0x1E4C6B846B4A64736F6C634300 ADDMOD SMOD STOP CALLER "
				},
				"gasEstimates": {
					"creation": {
						"codeDepositCost": "135400",
						"executionCost": "183",
						"totalCost": "135583"
					},
					"external": {
						"getStatus(uint32)": "2818",
						"setStatus(uint32,bool)": "24970",
						"unique_id()": "2468"
					}
				},
				"methodIdentifiers": {
					"getStatus(uint32)": "3ba282fa",
					"setStatus(uint32,bool)": "e92ef323",
					"unique_id()": "d2e9dab8"
				}
			},
			"storageLayout": {
				"storage": [
					{
						"astId": 3,
						"contract": "contracts/composedContract/BasicDataStorage.sol:BasicDataStorage",
						"label": "unique_id",
						"offset": 0,
						"slot": "0",
						"type": "t_uint32"
					},
					{
						"astId": 5,
						"contract": "contracts/composedContract/BasicDataStorage.sol:BasicDataStorage",
						"label": "status",
						"offset": 4,
						"slot": "0",
						"type": "t_bool"
					},
					{
						"astId": 9,
						"contract": "contracts/composedContract/BasicDataStorage.sol:BasicDataStorage",
						"label": "DataMap",
						"offset": 0,
						"slot": "1",
						"type": "t_mapping(t_uint32,t_bool)"
					}
				],
				"types": {
					"t_bool": {
						"encoding": "inplace",
						"label": "bool",
						"numberOfBytes": "1"
					},
					"t_mapping(t_uint32,t_bool)": {
						"encoding": "mapping",
						"key": "t_uint32",
						"label": "mapping(uint32 => bool)",
						"numberOfBytes": "32",
						"value": "t_bool"
					},
					"t_uint32": {
						"encoding": "inplace",
						"label": "uint32",
						"numberOfBytes": "4"
					}
				}
			},
			"userdoc": {
				"kind": "user",
				"methods": {},
				"version": 1
			}
		}
	}
}