{
	"contracts/composedContract/DataStrorageHub.sol": {
		"DataStorageHub": {
			"abi": [
				{
					"inputs": [
						{
							"internalType": "string",
							"name": "",
							"type": "string"
						}
					],
					"name": "DataStorageMap",
					"outputs": [
						{
							"internalType": "contract DataStorageContract",
							"name": "",
							"type": "address"
						}
					],
					"stateMutability": "view",
					"type": "function"
				},
				{
					"inputs": [
						{
							"internalType": "string",
							"name": "_name",
							"type": "string"
						}
					],
					"name": "createNewContract",
					"outputs": [],
					"stateMutability": "nonpayable",
					"type": "function"
				}
			],
			"devdoc": {
				"kind": "dev",
				"methods": {},
				"version": 1
			},
			"evm": {
				"assembly": "    /* \"contracts/composedContract/DataStrorageHub.sol\":125:416  contract DataStorageHub {\r... */\n  mstore(0x40, 0x80)\n  callvalue\n  dup1\n  iszero\n  tag_1\n  jumpi\n  0x00\n  dup1\n  revert\ntag_1:\n  pop\n  dataSize(sub_0)\n  dup1\n  dataOffset(sub_0)\n  0x00\n  codecopy\n  0x00\n  return\nstop\n\nsub_0: assembly {\n        /* \"contracts/composedContract/DataStrorageHub.sol\":125:416  contract DataStorageHub {\r... */\n      mstore(0x40, 0x80)\n      callvalue\n      dup1\n      iszero\n      tag_1\n      jumpi\n      0x00\n      dup1\n      revert\n    tag_1:\n      pop\n      jumpi(tag_2, lt(calldatasize, 0x04))\n      shr(0xe0, calldataload(0x00))\n      dup1\n      0x779d7b6d\n      eq\n      tag_3\n      jumpi\n      dup1\n      0x8a55bfab\n      eq\n      tag_4\n      jumpi\n    tag_2:\n      0x00\n      dup1\n      revert\n        /* \"contracts/composedContract/DataStrorageHub.sol\":227:411  function createNewContract( string memory _name) public {\r... */\n    tag_3:\n      tag_5\n      0x04\n      dup1\n      calldatasize\n      sub\n      dup2\n      add\n      swap1\n      tag_6\n      swap2\n      swap1\n      tag_7\n      jump\t// in\n    tag_6:\n      tag_8\n      jump\t// in\n    tag_5:\n      stop\n        /* \"contracts/composedContract/DataStrorageHub.sol\":158:219  mapping (string => DataStorageContract) public DataStorageMap */\n    tag_4:\n      tag_9\n      0x04\n      dup1\n      calldatasize\n      sub\n      dup2\n      add\n      swap1\n      tag_10\n      swap2\n      swap1\n      tag_7\n      jump\t// in\n    tag_10:\n      tag_11\n      jump\t// in\n    tag_9:\n      mload(0x40)\n      tag_12\n      swap2\n      swap1\n      tag_13\n      jump\t// in\n    tag_12:\n      mload(0x40)\n      dup1\n      swap2\n      sub\n      swap1\n      return\n        /* \"contracts/composedContract/DataStrorageHub.sol\":227:411  function createNewContract( string memory _name) public {\r... */\n    tag_8:\n        /* \"contracts/composedContract/DataStrorageHub.sol\":295:342  DataStorageContract DataStorageContractInstance */\n      0x00\n        /* \"contracts/composedContract/DataStrorageHub.sol\":375:402  DataStorageContractInstance */\n      dup1\n        /* \"contracts/composedContract/DataStrorageHub.sol\":352:366  DataStorageMap */\n      0x00\n        /* \"contracts/composedContract/DataStrorageHub.sol\":367:372  _name */\n      dup4\n        /* \"contracts/composedContract/DataStrorageHub.sol\":352:373  DataStorageMap[_name] */\n      mload(0x40)\n      tag_15\n      swap2\n      swap1\n      tag_16\n      jump\t// in\n    tag_15:\n      swap1\n      dup2\n      mstore\n      0x20\n      add\n      mload(0x40)\n      dup1\n      swap2\n      sub\n      swap1\n      keccak256\n      0x00\n        /* \"contracts/composedContract/DataStrorageHub.sol\":352:402  DataStorageMap[_name]= DataStorageContractInstance */\n      0x0100\n      exp\n      dup2\n      sload\n      dup2\n      0xffffffffffffffffffffffffffffffffffffffff\n      mul\n      not\n      and\n      swap1\n      dup4\n      0xffffffffffffffffffffffffffffffffffffffff\n      and\n      mul\n      or\n      swap1\n      sstore\n      pop\n        /* \"contracts/composedContract/DataStrorageHub.sol\":283:411  {\r... */\n      pop\n        /* \"contracts/composedContract/DataStrorageHub.sol\":227:411  function createNewContract( string memory _name) public {\r... */\n      pop\n      jump\t// out\n        /* \"contracts/composedContract/DataStrorageHub.sol\":158:219  mapping (string => DataStorageContract) public DataStorageMap */\n    tag_11:\n      0x00\n      dup2\n      dup1\n      mload\n      0x20\n      dup2\n      add\n      dup3\n      add\n      dup1\n      mload\n      dup5\n      dup3\n      mstore\n      0x20\n      dup4\n      add\n      0x20\n      dup6\n      add\n      keccak256\n      dup2\n      dup4\n      mstore\n      dup1\n      swap6\n      pop\n      pop\n      pop\n      pop\n      pop\n      pop\n      0x00\n      swap2\n      pop\n      sload\n      swap1\n      0x0100\n      exp\n      swap1\n      div\n      0xffffffffffffffffffffffffffffffffffffffff\n      and\n      dup2\n      jump\t// out\n        /* \"#utility.yul\":7:419   */\n    tag_18:\n        /* \"#utility.yul\":85:90   */\n      0x00\n        /* \"#utility.yul\":110:176   */\n      tag_20\n        /* \"#utility.yul\":126:175   */\n      tag_21\n        /* \"#utility.yul\":168:174   */\n      dup5\n        /* \"#utility.yul\":126:175   */\n      tag_22\n      jump\t// in\n    tag_21:\n        /* \"#utility.yul\":110:176   */\n      tag_23\n      jump\t// in\n    tag_20:\n        /* \"#utility.yul\":101:176   */\n      swap1\n      pop\n        /* \"#utility.yul\":199:205   */\n      dup3\n        /* \"#utility.yul\":192:197   */\n      dup2\n        /* \"#utility.yul\":185:206   */\n      mstore\n        /* \"#utility.yul\":237:241   */\n      0x20\n        /* \"#utility.yul\":230:235   */\n      dup2\n        /* \"#utility.yul\":226:242   */\n      add\n        /* \"#utility.yul\":275:278   */\n      dup5\n        /* \"#utility.yul\":266:272   */\n      dup5\n        /* \"#utility.yul\":261:264   */\n      dup5\n        /* \"#utility.yul\":257:273   */\n      add\n        /* \"#utility.yul\":254:279   */\n      gt\n        /* \"#utility.yul\":251:363   */\n      iszero\n      tag_24\n      jumpi\n        /* \"#utility.yul\":282:361   */\n      tag_25\n      tag_26\n      jump\t// in\n    tag_25:\n        /* \"#utility.yul\":251:363   */\n    tag_24:\n        /* \"#utility.yul\":372:413   */\n      tag_27\n        /* \"#utility.yul\":406:412   */\n      dup5\n        /* \"#utility.yul\":401:404   */\n      dup3\n        /* \"#utility.yul\":396:399   */\n      dup6\n        /* \"#utility.yul\":372:413   */\n      tag_28\n      jump\t// in\n    tag_27:\n        /* \"#utility.yul\":91:419   */\n      pop\n        /* \"#utility.yul\":7:419   */\n      swap4\n      swap3\n      pop\n      pop\n      pop\n      jump\t// out\n        /* \"#utility.yul\":439:779   */\n    tag_29:\n        /* \"#utility.yul\":495:500   */\n      0x00\n        /* \"#utility.yul\":544:547   */\n      dup3\n        /* \"#utility.yul\":537:541   */\n      0x1f\n        /* \"#utility.yul\":529:535   */\n      dup4\n        /* \"#utility.yul\":525:542   */\n      add\n        /* \"#utility.yul\":521:548   */\n      slt\n        /* \"#utility.yul\":511:633   */\n      tag_31\n      jumpi\n        /* \"#utility.yul\":552:631   */\n      tag_32\n      tag_33\n      jump\t// in\n    tag_32:\n        /* \"#utility.yul\":511:633   */\n    tag_31:\n        /* \"#utility.yul\":669:675   */\n      dup2\n        /* \"#utility.yul\":656:676   */\n      calldataload\n        /* \"#utility.yul\":694:773   */\n      tag_34\n        /* \"#utility.yul\":769:772   */\n      dup5\n        /* \"#utility.yul\":761:767   */\n      dup3\n        /* \"#utility.yul\":754:758   */\n      0x20\n        /* \"#utility.yul\":746:752   */\n      dup7\n        /* \"#utility.yul\":742:759   */\n      add\n        /* \"#utility.yul\":694:773   */\n      tag_18\n      jump\t// in\n    tag_34:\n        /* \"#utility.yul\":685:773   */\n      swap2\n      pop\n        /* \"#utility.yul\":501:779   */\n      pop\n        /* \"#utility.yul\":439:779   */\n      swap3\n      swap2\n      pop\n      pop\n      jump\t// out\n        /* \"#utility.yul\":785:1294   */\n    tag_7:\n        /* \"#utility.yul\":854:860   */\n      0x00\n        /* \"#utility.yul\":903:905   */\n      0x20\n        /* \"#utility.yul\":891:900   */\n      dup3\n        /* \"#utility.yul\":882:889   */\n      dup5\n        /* \"#utility.yul\":878:901   */\n      sub\n        /* \"#utility.yul\":874:906   */\n      slt\n        /* \"#utility.yul\":871:990   */\n      iszero\n      tag_36\n      jumpi\n        /* \"#utility.yul\":909:988   */\n      tag_37\n      tag_38\n      jump\t// in\n    tag_37:\n        /* \"#utility.yul\":871:990   */\n    tag_36:\n        /* \"#utility.yul\":1057:1058   */\n      0x00\n        /* \"#utility.yul\":1046:1055   */\n      dup3\n        /* \"#utility.yul\":1042:1059   */\n      add\n        /* \"#utility.yul\":1029:1060   */\n      calldataload\n        /* \"#utility.yul\":1087:1105   */\n      0xffffffffffffffff\n        /* \"#utility.yul\":1079:1085   */\n      dup2\n        /* \"#utility.yul\":1076:1106   */\n      gt\n        /* \"#utility.yul\":1073:1190   */\n      iszero\n      tag_39\n      jumpi\n        /* \"#utility.yul\":1109:1188   */\n      tag_40\n      tag_41\n      jump\t// in\n    tag_40:\n        /* \"#utility.yul\":1073:1190   */\n    tag_39:\n        /* \"#utility.yul\":1214:1277   */\n      tag_42\n        /* \"#utility.yul\":1269:1276   */\n      dup5\n        /* \"#utility.yul\":1260:1266   */\n      dup3\n        /* \"#utility.yul\":1249:1258   */\n      dup6\n        /* \"#utility.yul\":1245:1267   */\n      add\n        /* \"#utility.yul\":1214:1277   */\n      tag_29\n      jump\t// in\n    tag_42:\n        /* \"#utility.yul\":1204:1277   */\n      swap2\n      pop\n        /* \"#utility.yul\":1000:1287   */\n      pop\n        /* \"#utility.yul\":785:1294   */\n      swap3\n      swap2\n      pop\n      pop\n      jump\t// out\n        /* \"#utility.yul\":1300:1483   */\n    tag_43:\n        /* \"#utility.yul\":1413:1476   */\n      tag_45\n        /* \"#utility.yul\":1470:1475   */\n      dup2\n        /* \"#utility.yul\":1413:1476   */\n      tag_46\n      jump\t// in\n    tag_45:\n        /* \"#utility.yul\":1408:1411   */\n      dup3\n        /* \"#utility.yul\":1401:1477   */\n      mstore\n        /* \"#utility.yul\":1300:1483   */\n      pop\n      pop\n      jump\t// out\n        /* \"#utility.yul\":1489:1866   */\n    tag_47:\n        /* \"#utility.yul\":1595:1598   */\n      0x00\n        /* \"#utility.yul\":1623:1662   */\n      tag_49\n        /* \"#utility.yul\":1656:1661   */\n      dup3\n        /* \"#utility.yul\":1623:1662   */\n      tag_50\n      jump\t// in\n    tag_49:\n        /* \"#utility.yul\":1678:1767   */\n      tag_51\n        /* \"#utility.yul\":1760:1766   */\n      dup2\n        /* \"#utility.yul\":1755:1758   */\n      dup6\n        /* \"#utility.yul\":1678:1767   */\n      tag_52\n      jump\t// in\n    tag_51:\n        /* \"#utility.yul\":1671:1767   */\n      swap4\n      pop\n        /* \"#utility.yul\":1776:1828   */\n      tag_53\n        /* \"#utility.yul\":1821:1827   */\n      dup2\n        /* \"#utility.yul\":1816:1819   */\n      dup6\n        /* \"#utility.yul\":1809:1813   */\n      0x20\n        /* \"#utility.yul\":1802:1807   */\n      dup7\n        /* \"#utility.yul\":1798:1814   */\n      add\n        /* \"#utility.yul\":1776:1828   */\n      tag_54\n      jump\t// in\n    tag_53:\n        /* \"#utility.yul\":1853:1859   */\n      dup1\n        /* \"#utility.yul\":1848:1851   */\n      dup5\n        /* \"#utility.yul\":1844:1860   */\n      add\n        /* \"#utility.yul\":1837:1860   */\n      swap2\n      pop\n        /* \"#utility.yul\":1599:1866   */\n      pop\n        /* \"#utility.yul\":1489:1866   */\n      swap3\n      swap2\n      pop\n      pop\n      jump\t// out\n        /* \"#utility.yul\":1872:2147   */\n    tag_16:\n        /* \"#utility.yul\":2004:2007   */\n      0x00\n        /* \"#utility.yul\":2026:2121   */\n      tag_56\n        /* \"#utility.yul\":2117:2120   */\n      dup3\n        /* \"#utility.yul\":2108:2114   */\n      dup5\n        /* \"#utility.yul\":2026:2121   */\n      tag_47\n      jump\t// in\n    tag_56:\n        /* \"#utility.yul\":2019:2121   */\n      swap2\n      pop\n        /* \"#utility.yul\":2138:2141   */\n      dup2\n        /* \"#utility.yul\":2131:2141   */\n      swap1\n      pop\n        /* \"#utility.yul\":1872:2147   */\n      swap3\n      swap2\n      pop\n      pop\n      jump\t// out\n        /* \"#utility.yul\":2153:2427   */\n    tag_13:\n        /* \"#utility.yul\":2272:2276   */\n      0x00\n        /* \"#utility.yul\":2310:2312   */\n      0x20\n        /* \"#utility.yul\":2299:2308   */\n      dup3\n        /* \"#utility.yul\":2295:2313   */\n      add\n        /* \"#utility.yul\":2287:2313   */\n      swap1\n      pop\n        /* \"#utility.yul\":2323:2420   */\n      tag_58\n        /* \"#utility.yul\":2417:2418   */\n      0x00\n        /* \"#utility.yul\":2406:2415   */\n      dup4\n        /* \"#utility.yul\":2402:2419   */\n      add\n        /* \"#utility.yul\":2393:2399   */\n      dup5\n        /* \"#utility.yul\":2323:2420   */\n      tag_43\n      jump\t// in\n    tag_58:\n        /* \"#utility.yul\":2153:2427   */\n      swap3\n      swap2\n      pop\n      pop\n      jump\t// out\n        /* \"#utility.yul\":2433:2562   */\n    tag_23:\n        /* \"#utility.yul\":2467:2473   */\n      0x00\n        /* \"#utility.yul\":2494:2514   */\n      tag_60\n      tag_61\n      jump\t// in\n    tag_60:\n        /* \"#utility.yul\":2484:2514   */\n      swap1\n      pop\n        /* \"#utility.yul\":2523:2556   */\n      tag_62\n        /* \"#utility.yul\":2551:2555   */\n      dup3\n        /* \"#utility.yul\":2543:2549   */\n      dup3\n        /* \"#utility.yul\":2523:2556   */\n      tag_63\n      jump\t// in\n    tag_62:\n        /* \"#utility.yul\":2433:2562   */\n      swap2\n      swap1\n      pop\n      jump\t// out\n        /* \"#utility.yul\":2568:2643   */\n    tag_61:\n        /* \"#utility.yul\":2601:2607   */\n      0x00\n        /* \"#utility.yul\":2634:2636   */\n      0x40\n        /* \"#utility.yul\":2628:2637   */\n      mload\n        /* \"#utility.yul\":2618:2637   */\n      swap1\n      pop\n        /* \"#utility.yul\":2568:2643   */\n      swap1\n      jump\t// out\n        /* \"#utility.yul\":2649:2957   */\n    tag_22:\n        /* \"#utility.yul\":2711:2715   */\n      0x00\n        /* \"#utility.yul\":2801:2819   */\n      0xffffffffffffffff\n        /* \"#utility.yul\":2793:2799   */\n      dup3\n        /* \"#utility.yul\":2790:2820   */\n      gt\n        /* \"#utility.yul\":2787:2843   */\n      iszero\n      tag_66\n      jumpi\n        /* \"#utility.yul\":2823:2841   */\n      tag_67\n      tag_68\n      jump\t// in\n    tag_67:\n        /* \"#utility.yul\":2787:2843   */\n    tag_66:\n        /* \"#utility.yul\":2861:2890   */\n      tag_69\n        /* \"#utility.yul\":2883:2889   */\n      dup3\n        /* \"#utility.yul\":2861:2890   */\n      tag_70\n      jump\t// in\n    tag_69:\n        /* \"#utility.yul\":2853:2890   */\n      swap1\n      pop\n        /* \"#utility.yul\":2945:2949   */\n      0x20\n        /* \"#utility.yul\":2939:2943   */\n      dup2\n        /* \"#utility.yul\":2935:2950   */\n      add\n        /* \"#utility.yul\":2927:2950   */\n      swap1\n      pop\n        /* \"#utility.yul\":2649:2957   */\n      swap2\n      swap1\n      pop\n      jump\t// out\n        /* \"#utility.yul\":2963:3062   */\n    tag_50:\n        /* \"#utility.yul\":3015:3021   */\n      0x00\n        /* \"#utility.yul\":3049:3054   */\n      dup2\n        /* \"#utility.yul\":3043:3055   */\n      mload\n        /* \"#utility.yul\":3033:3055   */\n      swap1\n      pop\n        /* \"#utility.yul\":2963:3062   */\n      swap2\n      swap1\n      pop\n      jump\t// out\n        /* \"#utility.yul\":3068:3216   */\n    tag_52:\n        /* \"#utility.yul\":3170:3181   */\n      0x00\n        /* \"#utility.yul\":3207:3210   */\n      dup2\n        /* \"#utility.yul\":3192:3210   */\n      swap1\n      pop\n        /* \"#utility.yul\":3068:3216   */\n      swap3\n      swap2\n      pop\n      pop\n      jump\t// out\n        /* \"#utility.yul\":3222:3348   */\n    tag_73:\n        /* \"#utility.yul\":3259:3266   */\n      0x00\n        /* \"#utility.yul\":3299:3341   */\n      0xffffffffffffffffffffffffffffffffffffffff\n        /* \"#utility.yul\":3292:3297   */\n      dup3\n        /* \"#utility.yul\":3288:3342   */\n      and\n        /* \"#utility.yul\":3277:3342   */\n      swap1\n      pop\n        /* \"#utility.yul\":3222:3348   */\n      swap2\n      swap1\n      pop\n      jump\t// out\n        /* \"#utility.yul\":3354:3506   */\n    tag_46:\n        /* \"#utility.yul\":3430:3439   */\n      0x00\n        /* \"#utility.yul\":3463:3500   */\n      tag_76\n        /* \"#utility.yul\":3494:3499   */\n      dup3\n        /* \"#utility.yul\":3463:3500   */\n      tag_77\n      jump\t// in\n    tag_76:\n        /* \"#utility.yul\":3450:3500   */\n      swap1\n      pop\n        /* \"#utility.yul\":3354:3506   */\n      swap2\n      swap1\n      pop\n      jump\t// out\n        /* \"#utility.yul\":3512:3638   */\n    tag_77:\n        /* \"#utility.yul\":3562:3571   */\n      0x00\n        /* \"#utility.yul\":3595:3632   */\n      tag_79\n        /* \"#utility.yul\":3626:3631   */\n      dup3\n        /* \"#utility.yul\":3595:3632   */\n      tag_80\n      jump\t// in\n    tag_79:\n        /* \"#utility.yul\":3582:3632   */\n      swap1\n      pop\n        /* \"#utility.yul\":3512:3638   */\n      swap2\n      swap1\n      pop\n      jump\t// out\n        /* \"#utility.yul\":3644:3757   */\n    tag_80:\n        /* \"#utility.yul\":3694:3703   */\n      0x00\n        /* \"#utility.yul\":3727:3751   */\n      tag_82\n        /* \"#utility.yul\":3745:3750   */\n      dup3\n        /* \"#utility.yul\":3727:3751   */\n      tag_73\n      jump\t// in\n    tag_82:\n        /* \"#utility.yul\":3714:3751   */\n      swap1\n      pop\n        /* \"#utility.yul\":3644:3757   */\n      swap2\n      swap1\n      pop\n      jump\t// out\n        /* \"#utility.yul\":3763:3917   */\n    tag_28:\n        /* \"#utility.yul\":3847:3853   */\n      dup3\n        /* \"#utility.yul\":3842:3845   */\n      dup2\n        /* \"#utility.yul\":3837:3840   */\n      dup4\n        /* \"#utility.yul\":3824:3854   */\n      calldatacopy\n        /* \"#utility.yul\":3909:3910   */\n      0x00\n        /* \"#utility.yul\":3900:3906   */\n      dup4\n        /* \"#utility.yul\":3895:3898   */\n      dup4\n        /* \"#utility.yul\":3891:3907   */\n      add\n        /* \"#utility.yul\":3884:3911   */\n      mstore\n        /* \"#utility.yul\":3763:3917   */\n      pop\n      pop\n      pop\n      jump\t// out\n        /* \"#utility.yul\":3923:4230   */\n    tag_54:\n        /* \"#utility.yul\":3991:3992   */\n      0x00\n        /* \"#utility.yul\":4001:4114   */\n    tag_85:\n        /* \"#utility.yul\":4015:4021   */\n      dup4\n        /* \"#utility.yul\":4012:4013   */\n      dup2\n        /* \"#utility.yul\":4009:4022   */\n      lt\n        /* \"#utility.yul\":4001:4114   */\n      iszero\n      tag_87\n      jumpi\n        /* \"#utility.yul\":4100:4101   */\n      dup1\n        /* \"#utility.yul\":4095:4098   */\n      dup3\n        /* \"#utility.yul\":4091:4102   */\n      add\n        /* \"#utility.yul\":4085:4103   */\n      mload\n        /* \"#utility.yul\":4081:4082   */\n      dup2\n        /* \"#utility.yul\":4076:4079   */\n      dup5\n        /* \"#utility.yul\":4072:4083   */\n      add\n        /* \"#utility.yul\":4065:4104   */\n      mstore\n        /* \"#utility.yul\":4037:4039   */\n      0x20\n        /* \"#utility.yul\":4034:4035   */\n      dup2\n        /* \"#utility.yul\":4030:4040   */\n      add\n        /* \"#utility.yul\":4025:4040   */\n      swap1\n      pop\n        /* \"#utility.yul\":4001:4114   */\n      jump(tag_85)\n    tag_87:\n        /* \"#utility.yul\":4132:4138   */\n      dup4\n        /* \"#utility.yul\":4129:4130   */\n      dup2\n        /* \"#utility.yul\":4126:4139   */\n      gt\n        /* \"#utility.yul\":4123:4224   */\n      iszero\n      tag_88\n      jumpi\n        /* \"#utility.yul\":4212:4213   */\n      0x00\n        /* \"#utility.yul\":4203:4209   */\n      dup5\n        /* \"#utility.yul\":4198:4201   */\n      dup5\n        /* \"#utility.yul\":4194:4210   */\n      add\n        /* \"#utility.yul\":4187:4214   */\n      mstore\n        /* \"#utility.yul\":4123:4224   */\n    tag_88:\n        /* \"#utility.yul\":3972:4230   */\n      pop\n        /* \"#utility.yul\":3923:4230   */\n      pop\n      pop\n      pop\n      jump\t// out\n        /* \"#utility.yul\":4236:4517   */\n    tag_63:\n        /* \"#utility.yul\":4319:4346   */\n      tag_90\n        /* \"#utility.yul\":4341:4345   */\n      dup3\n        /* \"#utility.yul\":4319:4346   */\n      tag_70\n      jump\t// in\n    tag_90:\n        /* \"#utility.yul\":4311:4317   */\n      dup2\n        /* \"#utility.yul\":4307:4347   */\n      add\n        /* \"#utility.yul\":4449:4455   */\n      dup2\n        /* \"#utility.yul\":4437:4447   */\n      dup2\n        /* \"#utility.yul\":4434:4456   */\n      lt\n        /* \"#utility.yul\":4413:4431   */\n      0xffffffffffffffff\n        /* \"#utility.yul\":4401:4411   */\n      dup3\n        /* \"#utility.yul\":4398:4432   */\n      gt\n        /* \"#utility.yul\":4395:4457   */\n      or\n        /* \"#utility.yul\":4392:4480   */\n      iszero\n      tag_91\n      jumpi\n        /* \"#utility.yul\":4460:4478   */\n      tag_92\n      tag_68\n      jump\t// in\n    tag_92:\n        /* \"#utility.yul\":4392:4480   */\n    tag_91:\n        /* \"#utility.yul\":4500:4510   */\n      dup1\n        /* \"#utility.yul\":4496:4498   */\n      0x40\n        /* \"#utility.yul\":4489:4511   */\n      mstore\n        /* \"#utility.yul\":4279:4517   */\n      pop\n        /* \"#utility.yul\":4236:4517   */\n      pop\n      pop\n      jump\t// out\n        /* \"#utility.yul\":4523:4703   */\n    tag_68:\n        /* \"#utility.yul\":4571:4648   */\n      0x4e487b7100000000000000000000000000000000000000000000000000000000\n        /* \"#utility.yul\":4568:4569   */\n      0x00\n        /* \"#utility.yul\":4561:4649   */\n      mstore\n        /* \"#utility.yul\":4668:4672   */\n      0x41\n        /* \"#utility.yul\":4665:4666   */\n      0x04\n        /* \"#utility.yul\":4658:4673   */\n      mstore\n        /* \"#utility.yul\":4692:4696   */\n      0x24\n        /* \"#utility.yul\":4689:4690   */\n      0x00\n        /* \"#utility.yul\":4682:4697   */\n      revert\n        /* \"#utility.yul\":4709:4826   */\n    tag_33:\n        /* \"#utility.yul\":4818:4819   */\n      0x00\n        /* \"#utility.yul\":4815:4816   */\n      dup1\n        /* \"#utility.yul\":4808:4820   */\n      revert\n        /* \"#utility.yul\":4832:4949   */\n    tag_26:\n        /* \"#utility.yul\":4941:4942   */\n      0x00\n        /* \"#utility.yul\":4938:4939   */\n      dup1\n        /* \"#utility.yul\":4931:4943   */\n      revert\n        /* \"#utility.yul\":4955:5072   */\n    tag_41:\n        /* \"#utility.yul\":5064:5065   */\n      0x00\n        /* \"#utility.yul\":5061:5062   */\n      dup1\n        /* \"#utility.yul\":5054:5066   */\n      revert\n        /* \"#utility.yul\":5078:5195   */\n    tag_38:\n        /* \"#utility.yul\":5187:5188   */\n      0x00\n        /* \"#utility.yul\":5184:5185   */\n      dup1\n        /* \"#utility.yul\":5177:5189   */\n      revert\n        /* \"#utility.yul\":5201:5303   */\n    tag_70:\n        /* \"#utility.yul\":5242:5248   */\n      0x00\n        /* \"#utility.yul\":5293:5295   */\n      0x1f\n        /* \"#utility.yul\":5289:5296   */\n      not\n        /* \"#utility.yul\":5284:5286   */\n      0x1f\n        /* \"#utility.yul\":5277:5282   */\n      dup4\n        /* \"#utility.yul\":5273:5287   */\n      add\n        /* \"#utility.yul\":5269:5297   */\n      and\n        /* \"#utility.yul\":5259:5297   */\n      swap1\n      pop\n        /* \"#utility.yul\":5201:5303   */\n      swap2\n      swap1\n      pop\n      jump\t// out\n\n    auxdata: 0xa264697066735822122043664dae9e41b4a2c8dbd7ab72e506ce537a59eac5ea74fdb1c9a7ed2995fade64736f6c63430008070033\n}\n",
				"bytecode": {
					"linkReferences": {},
					"object": "608060405234801561001057600080fd5b5061041d806100206000396000f3fe608060405234801561001057600080fd5b50600436106100365760003560e01c8063779d7b6d1461003b5780638a55bfab14610057575b600080fd5b610055600480360381019061005091906101a3565b610087565b005b610071600480360381019061006c91906101a3565b6100ea565b60405161007e9190610243565b60405180910390f35b60008060008360405161009a919061022c565b908152602001604051809103902060006101000a81548173ffffffffffffffffffffffffffffffffffffffff021916908373ffffffffffffffffffffffffffffffffffffffff1602179055505050565b6000818051602081018201805184825260208301602085012081835280955050505050506000915054906101000a900473ffffffffffffffffffffffffffffffffffffffff1681565b600061014661014184610283565b61025e565b905082815260208101848484011115610162576101616103c7565b5b61016d848285610320565b509392505050565b600082601f83011261018a576101896103c2565b5b813561019a848260208601610133565b91505092915050565b6000602082840312156101b9576101b86103d1565b5b600082013567ffffffffffffffff8111156101d7576101d66103cc565b5b6101e384828501610175565b91505092915050565b6101f5816102ea565b82525050565b6000610206826102b4565b61021081856102bf565b935061022081856020860161032f565b80840191505092915050565b600061023882846101fb565b915081905092915050565b600060208201905061025860008301846101ec565b92915050565b6000610268610279565b90506102748282610362565b919050565b6000604051905090565b600067ffffffffffffffff82111561029e5761029d610393565b5b6102a7826103d6565b9050602081019050919050565b600081519050919050565b600081905092915050565b600073ffffffffffffffffffffffffffffffffffffffff82169050919050565b60006102f5826102fc565b9050919050565b60006103078261030e565b9050919050565b6000610319826102ca565b9050919050565b82818337600083830152505050565b60005b8381101561034d578082015181840152602081019050610332565b8381111561035c576000848401525b50505050565b61036b826103d6565b810181811067ffffffffffffffff8211171561038a57610389610393565b5b80604052505050565b7f4e487b7100000000000000000000000000000000000000000000000000000000600052604160045260246000fd5b600080fd5b600080fd5b600080fd5b600080fd5b6000601f19601f830116905091905056fea264697066735822122043664dae9e41b4a2c8dbd7ab72e506ce537a59eac5ea74fdb1c9a7ed2995fade64736f6c63430008070033",
					"opcodes": "PUSH1 0x80 PUSH1 0x40 MSTORE CALLVALUE DUP1 ISZERO PUSH2 0x10 JUMPI PUSH1 0x0 DUP1 REVERT JUMPDEST POP PUSH2 0x41D DUP1 PUSH2 0x20 PUSH1 0x0 CODECOPY PUSH1 0x0 RETURN INVALID PUSH1 0x80 PUSH1 0x40 MSTORE CALLVALUE DUP1 ISZERO PUSH2 0x10 JUMPI PUSH1 0x0 DUP1 REVERT JUMPDEST POP PUSH1 0x4 CALLDATASIZE LT PUSH2 0x36 JUMPI PUSH1 0x0 CALLDATALOAD PUSH1 0xE0 SHR DUP1 PUSH4 0x779D7B6D EQ PUSH2 0x3B JUMPI DUP1 PUSH4 0x8A55BFAB EQ PUSH2 0x57 JUMPI JUMPDEST PUSH1 0x0 DUP1 REVERT JUMPDEST PUSH2 0x55 PUSH1 0x4 DUP1 CALLDATASIZE SUB DUP2 ADD SWAP1 PUSH2 0x50 SWAP2 SWAP1 PUSH2 0x1A3 JUMP JUMPDEST PUSH2 0x87 JUMP JUMPDEST STOP JUMPDEST PUSH2 0x71 PUSH1 0x4 DUP1 CALLDATASIZE SUB DUP2 ADD SWAP1 PUSH2 0x6C SWAP2 SWAP1 PUSH2 0x1A3 JUMP JUMPDEST PUSH2 0xEA JUMP JUMPDEST PUSH1 0x40 MLOAD PUSH2 0x7E SWAP2 SWAP1 PUSH2 0x243 JUMP JUMPDEST PUSH1 0x40 MLOAD DUP1 SWAP2 SUB SWAP1 RETURN JUMPDEST PUSH1 0x0 DUP1 PUSH1 0x0 DUP4 PUSH1 0x40 MLOAD PUSH2 0x9A SWAP2 SWAP1 PUSH2 0x22C JUMP JUMPDEST SWAP1 DUP2 MSTORE PUSH1 0x20 ADD PUSH1 0x40 MLOAD DUP1 SWAP2 SUB SWAP1 KECCAK256 PUSH1 0x0 PUSH2 0x100 EXP DUP2 SLOAD DUP2 PUSH20 0xFFFFFFFFFFFFFFFFFFFFFFFFFFFFFFFFFFFFFFFF MUL NOT AND SWAP1 DUP4 PUSH20 0xFFFFFFFFFFFFFFFFFFFFFFFFFFFFFFFFFFFFFFFF AND MUL OR SWAP1 SSTORE POP POP POP JUMP JUMPDEST PUSH1 0x0 DUP2 DUP1 MLOAD PUSH1 0x20 DUP2 ADD DUP3 ADD DUP1 MLOAD DUP5 DUP3 MSTORE PUSH1 0x20 DUP4 ADD PUSH1 0x20 DUP6 ADD KECCAK256 DUP2 DUP4 MSTORE DUP1 SWAP6 POP POP POP POP POP POP PUSH1 0x0 SWAP2 POP SLOAD SWAP1 PUSH2 0x100 EXP SWAP1 DIV PUSH20 0xFFFFFFFFFFFFFFFFFFFFFFFFFFFFFFFFFFFFFFFF AND DUP2 JUMP JUMPDEST PUSH1 0x0 PUSH2 0x146 PUSH2 0x141 DUP5 PUSH2 0x283 JUMP JUMPDEST PUSH2 0x25E JUMP JUMPDEST SWAP1 POP DUP3 DUP2 MSTORE PUSH1 0x20 DUP2 ADD DUP5 DUP5 DUP5 ADD GT ISZERO PUSH2 0x162 JUMPI PUSH2 0x161 PUSH2 0x3C7 JUMP JUMPDEST JUMPDEST PUSH2 0x16D DUP5 DUP3 DUP6 PUSH2 0x320 JUMP JUMPDEST POP SWAP4 SWAP3 POP POP POP JUMP JUMPDEST PUSH1 0x0 DUP3 PUSH1 0x1F DUP4 ADD SLT PUSH2 0x18A JUMPI PUSH2 0x189 PUSH2 0x3C2 JUMP JUMPDEST JUMPDEST DUP2 CALLDATALOAD PUSH2 0x19A DUP5 DUP3 PUSH1 0x20 DUP7 ADD PUSH2 0x133 JUMP JUMPDEST SWAP2 POP POP SWAP3 SWAP2 POP POP JUMP JUMPDEST PUSH1 0x0 PUSH1 0x20 DUP3 DUP5 SUB SLT ISZERO PUSH2 0x1B9 JUMPI PUSH2 0x1B8 PUSH2 0x3D1 JUMP JUMPDEST JUMPDEST PUSH1 0x0 DUP3 ADD CALLDATALOAD PUSH8 0xFFFFFFFFFFFFFFFF DUP2 GT ISZERO PUSH2 0x1D7 JUMPI PUSH2 0x1D6 PUSH2 0x3CC JUMP JUMPDEST JUMPDEST PUSH2 0x1E3 DUP5 DUP3 DUP6 ADD PUSH2 0x175 JUMP JUMPDEST SWAP2 POP POP SWAP3 SWAP2 POP POP JUMP JUMPDEST PUSH2 0x1F5 DUP2 PUSH2 0x2EA JUMP JUMPDEST DUP3 MSTORE POP POP JUMP JUMPDEST PUSH1 0x0 PUSH2 0x206 DUP3 PUSH2 0x2B4 JUMP JUMPDEST PUSH2 0x210 DUP2 DUP6 PUSH2 0x2BF JUMP JUMPDEST SWAP4 POP PUSH2 0x220 DUP2 DUP6 PUSH1 0x20 DUP7 ADD PUSH2 0x32F JUMP JUMPDEST DUP1 DUP5 ADD SWAP2 POP POP SWAP3 SWAP2 POP POP JUMP JUMPDEST PUSH1 0x0 PUSH2 0x238 DUP3 DUP5 PUSH2 0x1FB JUMP JUMPDEST SWAP2 POP DUP2 SWAP1 POP SWAP3 SWAP2 POP POP JUMP JUMPDEST PUSH1 0x0 PUSH1 0x20 DUP3 ADD SWAP1 POP PUSH2 0x258 PUSH1 0x0 DUP4 ADD DUP5 PUSH2 0x1EC JUMP JUMPDEST SWAP3 SWAP2 POP POP JUMP JUMPDEST PUSH1 0x0 PUSH2 0x268 PUSH2 0x279 JUMP JUMPDEST SWAP1 POP PUSH2 0x274 DUP3 DUP3 PUSH2 0x362 JUMP JUMPDEST SWAP2 SWAP1 POP JUMP JUMPDEST PUSH1 0x0 PUSH1 0x40 MLOAD SWAP1 POP SWAP1 JUMP JUMPDEST PUSH1 0x0 PUSH8 0xFFFFFFFFFFFFFFFF DUP3 GT ISZERO PUSH2 0x29E JUMPI PUSH2 0x29D PUSH2 0x393 JUMP JUMPDEST JUMPDEST PUSH2 0x2A7 DUP3 PUSH2 0x3D6 JUMP JUMPDEST SWAP1 POP PUSH1 0x20 DUP2 ADD SWAP1 POP SWAP2 SWAP1 POP JUMP JUMPDEST PUSH1 0x0 DUP2 MLOAD SWAP1 POP SWAP2 SWAP1 POP JUMP JUMPDEST PUSH1 0x0 DUP2 SWAP1 POP SWAP3 SWAP2 POP POP JUMP JUMPDEST PUSH1 0x0 PUSH20 0xFFFFFFFFFFFFFFFFFFFFFFFFFFFFFFFFFFFFFFFF DUP3 AND SWAP1 POP SWAP2 SWAP1 POP JUMP JUMPDEST PUSH1 0x0 PUSH2 0x2F5 DUP3 PUSH2 0x2FC JUMP JUMPDEST SWAP1 POP SWAP2 SWAP1 POP JUMP JUMPDEST PUSH1 0x0 PUSH2 0x307 DUP3 PUSH2 0x30E JUMP JUMPDEST SWAP1 POP SWAP2 SWAP1 POP JUMP JUMPDEST PUSH1 0x0 PUSH2 0x319 DUP3 PUSH2 0x2CA JUMP JUMPDEST SWAP1 POP SWAP2 SWAP1 POP JUMP JUMPDEST DUP3 DUP2 DUP4 CALLDATACOPY PUSH1 0x0 DUP4 DUP4 ADD MSTORE POP POP POP JUMP JUMPDEST PUSH1 0x0 JUMPDEST DUP4 DUP2 LT ISZERO PUSH2 0x34D JUMPI DUP1 DUP3 ADD MLOAD DUP2 DUP5 ADD MSTORE PUSH1 0x20 DUP2 ADD SWAP1 POP PUSH2 0x332 JUMP JUMPDEST DUP4 DUP2 GT ISZERO PUSH2 0x35C JUMPI PUSH1 0x0 DUP5 DUP5 ADD MSTORE JUMPDEST POP POP POP POP JUMP JUMPDEST PUSH2 0x36B DUP3 PUSH2 0x3D6 JUMP JUMPDEST DUP2 ADD DUP2 DUP2 LT PUSH8 0xFFFFFFFFFFFFFFFF DUP3 GT OR ISZERO PUSH2 0x38A JUMPI PUSH2 0x389 PUSH2 0x393 JUMP JUMPDEST JUMPDEST DUP1 PUSH1 0x40 MSTORE POP POP POP JUMP JUMPDEST PUSH32 0x4E487B7100000000000000000000000000000000000000000000000000000000 PUSH1 0x0 MSTORE PUSH1 0x41 PUSH1 0x4 MSTORE PUSH1 0x24 PUSH1 0x0 REVERT JUMPDEST PUSH1 0x0 DUP1 REVERT JUMPDEST PUSH1 0x0 DUP1 REVERT JUMPDEST PUSH1 0x0 DUP1 REVERT JUMPDEST PUSH1 0x0 DUP1 REVERT JUMPDEST PUSH1 0x0 PUSH1 0x1F NOT PUSH1 0x1F DUP4 ADD AND SWAP1 POP SWAP2 SWAP1 POP JUMP INVALID LOG2 PUSH5 0x6970667358 0x22 SLT KECCAK256 NUMBER PUSH7 0x4DAE9E41B4A2C8 0xDB 0xD7 0xAB PUSH19 0xE506CE537A59EAC5EA74FDB1C9A7ED2995FADE PUSH5 0x736F6C6343 STOP ADDMOD SMOD STOP CALLER "
				},
				"gasEstimates": {
					"creation": {
						"codeDepositCost": "210600",
						"executionCost": "251",
						"totalCost": "210851"
					},
					"external": {
						"DataStorageMap(string)": "infinite",
						"createNewContract(string)": "infinite"
					}
				},
				"methodIdentifiers": {
					"DataStorageMap(string)": "8a55bfab",
					"createNewContract(string)": "779d7b6d"
				}
			},
			"storageLayout": {
				"storage": [
					{
						"astId": 44,
						"contract": "contracts/composedContract/DataStrorageHub.sol:DataStorageHub",
						"label": "DataStorageMap",
						"offset": 0,
						"slot": "0",
						"type": "t_mapping(t_string_memory_ptr,t_contract(DataStorageContract)36)"
					}
				],
				"types": {
					"t_contract(DataStorageContract)36": {
						"encoding": "inplace",
						"label": "contract DataStorageContract",
						"numberOfBytes": "20"
					},
					"t_mapping(t_string_memory_ptr,t_contract(DataStorageContract)36)": {
						"encoding": "mapping",
						"key": "t_string_memory_ptr",
						"label": "mapping(string => contract DataStorageContract)",
						"numberOfBytes": "32",
						"value": "t_contract(DataStorageContract)36"
					},
					"t_string_memory_ptr": {
						"encoding": "bytes",
						"label": "string",
						"numberOfBytes": "32"
					}
				}
			},
			"userdoc": {
				"kind": "user",
				"methods": {},
				"version": 1
			}
		}
	}
}