{
	"data": {
		"bytecode": {
			"linkReferences": {},
			"object": "608060405234801561001057600080fd5b5061041e806100206000396000f3fe608060405234801561001057600080fd5b50600436106100365760003560e01c806322b05ed21461003b578063cba676d71461006b575b600080fd5b6100556004803603810190610050919061017b565b610087565b6040516100629190610277565b60405180910390f35b610085600480360381019061008091906101c4565b6100bc565b005b60006002826040516100999190610260565b908152602001604051809103902060009054906101000a900460ff169050919050565b806002836040516100cd9190610260565b908152602001604051809103902060006101000a81548160ff0219169083151502179055505050565b6000610109610104846102b7565b610292565b905082815260208101848484011115610125576101246103b1565b5b61013084828561030a565b509392505050565b600081359050610147816103d1565b92915050565b600082601f830112610162576101616103ac565b5b81356101728482602086016100f6565b91505092915050565b600060208284031215610191576101906103bb565b5b600082013567ffffffffffffffff8111156101af576101ae6103b6565b5b6101bb8482850161014d565b91505092915050565b600080604083850312156101db576101da6103bb565b5b600083013567ffffffffffffffff8111156101f9576101f86103b6565b5b6102058582860161014d565b925050602061021685828601610138565b9150509250929050565b610229816102fe565b82525050565b600061023a826102e8565b61024481856102f3565b9350610254818560208601610319565b80840191505092915050565b600061026c828461022f565b915081905092915050565b600060208201905061028c6000830184610220565b92915050565b600061029c6102ad565b90506102a8828261034c565b919050565b6000604051905090565b600067ffffffffffffffff8211156102d2576102d161037d565b5b6102db826103c0565b9050602081019050919050565b600081519050919050565b600081905092915050565b60008115159050919050565b82818337600083830152505050565b60005b8381101561033757808201518184015260208101905061031c565b83811115610346576000848401525b50505050565b610355826103c0565b810181811067ffffffffffffffff821117156103745761037361037d565b5b80604052505050565b7f4e487b7100000000000000000000000000000000000000000000000000000000600052604160045260246000fd5b600080fd5b600080fd5b600080fd5b600080fd5b6000601f19601f8301169050919050565b6103da816102fe565b81146103e557600080fd5b5056fea2646970667358221220433598986e17e1d8bf6f7a99ea64caf812cbc36aaefe8ba0c2af8073e5315a1664736f6c63430008070033",
			"opcodes": "PUSH1 0x80 PUSH1 0x40 MSTORE CALLVALUE DUP1 ISZERO PUSH2 0x10 JUMPI PUSH1 0x0 DUP1 REVERT JUMPDEST POP PUSH2 0x41E DUP1 PUSH2 0x20 PUSH1 0x0 CODECOPY PUSH1 0x0 RETURN INVALID PUSH1 0x80 PUSH1 0x40 MSTORE CALLVALUE DUP1 ISZERO PUSH2 0x10 JUMPI PUSH1 0x0 DUP1 REVERT JUMPDEST POP PUSH1 0x4 CALLDATASIZE LT PUSH2 0x36 JUMPI PUSH1 0x0 CALLDATALOAD PUSH1 0xE0 SHR DUP1 PUSH4 0x22B05ED2 EQ PUSH2 0x3B JUMPI DUP1 PUSH4 0xCBA676D7 EQ PUSH2 0x6B JUMPI JUMPDEST PUSH1 0x0 DUP1 REVERT JUMPDEST PUSH2 0x55 PUSH1 0x4 DUP1 CALLDATASIZE SUB DUP2 ADD SWAP1 PUSH2 0x50 SWAP2 SWAP1 PUSH2 0x17B JUMP JUMPDEST PUSH2 0x87 JUMP JUMPDEST PUSH1 0x40 MLOAD PUSH2 0x62 SWAP2 SWAP1 PUSH2 0x277 JUMP JUMPDEST PUSH1 0x40 MLOAD DUP1 SWAP2 SUB SWAP1 RETURN JUMPDEST PUSH2 0x85 PUSH1 0x4 DUP1 CALLDATASIZE SUB DUP2 ADD SWAP1 PUSH2 0x80 SWAP2 SWAP1 PUSH2 0x1C4 JUMP JUMPDEST PUSH2 0xBC JUMP JUMPDEST STOP JUMPDEST PUSH1 0x0 PUSH1 0x2 DUP3 PUSH1 0x40 MLOAD PUSH2 0x99 SWAP2 SWAP1 PUSH2 0x260 JUMP JUMPDEST SWAP1 DUP2 MSTORE PUSH1 0x20 ADD PUSH1 0x40 MLOAD DUP1 SWAP2 SUB SWAP1 KECCAK256 PUSH1 0x0 SWAP1 SLOAD SWAP1 PUSH2 0x100 EXP SWAP1 DIV PUSH1 0xFF AND SWAP1 POP SWAP2 SWAP1 POP JUMP JUMPDEST DUP1 PUSH1 0x2 DUP4 PUSH1 0x40 MLOAD PUSH2 0xCD SWAP2 SWAP1 PUSH2 0x260 JUMP JUMPDEST SWAP1 DUP2 MSTORE PUSH1 0x20 ADD PUSH1 0x40 MLOAD DUP1 SWAP2 SUB SWAP1 KECCAK256 PUSH1 0x0 PUSH2 0x100 EXP DUP2 SLOAD DUP2 PUSH1 0xFF MUL NOT AND SWAP1 DUP4 ISZERO ISZERO MUL OR SWAP1 SSTORE POP POP POP JUMP JUMPDEST PUSH1 0x0 PUSH2 0x109 PUSH2 0x104 DUP5 PUSH2 0x2B7 JUMP JUMPDEST PUSH2 0x292 JUMP JUMPDEST SWAP1 POP DUP3 DUP2 MSTORE PUSH1 0x20 DUP2 ADD DUP5 DUP5 DUP5 ADD GT ISZERO PUSH2 0x125 JUMPI PUSH2 0x124 PUSH2 0x3B1 JUMP JUMPDEST JUMPDEST PUSH2 0x130 DUP5 DUP3 DUP6 PUSH2 0x30A JUMP JUMPDEST POP SWAP4 SWAP3 POP POP POP JUMP JUMPDEST PUSH1 0x0 DUP2 CALLDATALOAD SWAP1 POP PUSH2 0x147 DUP2 PUSH2 0x3D1 JUMP JUMPDEST SWAP3 SWAP2 POP POP JUMP JUMPDEST PUSH1 0x0 DUP3 PUSH1 0x1F DUP4 ADD SLT PUSH2 0x162 JUMPI PUSH2 0x161 PUSH2 0x3AC JUMP JUMPDEST JUMPDEST DUP2 CALLDATALOAD PUSH2 0x172 DUP5 DUP3 PUSH1 0x20 DUP7 ADD PUSH2 0xF6 JUMP JUMPDEST SWAP2 POP POP SWAP3 SWAP2 POP POP JUMP JUMPDEST PUSH1 0x0 PUSH1 0x20 DUP3 DUP5 SUB SLT ISZERO PUSH2 0x191 JUMPI PUSH2 0x190 PUSH2 0x3BB JUMP JUMPDEST JUMPDEST PUSH1 0x0 DUP3 ADD CALLDATALOAD PUSH8 0xFFFFFFFFFFFFFFFF DUP2 GT ISZERO PUSH2 0x1AF JUMPI PUSH2 0x1AE PUSH2 0x3B6 JUMP JUMPDEST JUMPDEST PUSH2 0x1BB DUP5 DUP3 DUP6 ADD PUSH2 0x14D JUMP JUMPDEST SWAP2 POP POP SWAP3 SWAP2 POP POP JUMP JUMPDEST PUSH1 0x0 DUP1 PUSH1 0x40 DUP4 DUP6 SUB SLT ISZERO PUSH2 0x1DB JUMPI PUSH2 0x1DA PUSH2 0x3BB JUMP JUMPDEST JUMPDEST PUSH1 0x0 DUP4 ADD CALLDATALOAD PUSH8 0xFFFFFFFFFFFFFFFF DUP2 GT ISZERO PUSH2 0x1F9 JUMPI PUSH2 0x1F8 PUSH2 0x3B6 JUMP JUMPDEST JUMPDEST PUSH2 0x205 DUP6 DUP3 DUP7 ADD PUSH2 0x14D JUMP JUMPDEST SWAP3 POP POP PUSH1 0x20 PUSH2 0x216 DUP6 DUP3 DUP7 ADD PUSH2 0x138 JUMP JUMPDEST SWAP2 POP POP SWAP3 POP SWAP3 SWAP1 POP JUMP JUMPDEST PUSH2 0x229 DUP2 PUSH2 0x2FE JUMP JUMPDEST DUP3 MSTORE POP POP JUMP JUMPDEST PUSH1 0x0 PUSH2 0x23A DUP3 PUSH2 0x2E8 JUMP JUMPDEST PUSH2 0x244 DUP2 DUP6 PUSH2 0x2F3 JUMP JUMPDEST SWAP4 POP PUSH2 0x254 DUP2 DUP6 PUSH1 0x20 DUP7 ADD PUSH2 0x319 JUMP JUMPDEST DUP1 DUP5 ADD SWAP2 POP POP SWAP3 SWAP2 POP POP JUMP JUMPDEST PUSH1 0x0 PUSH2 0x26C DUP3 DUP5 PUSH2 0x22F JUMP JUMPDEST SWAP2 POP DUP2 SWAP1 POP SWAP3 SWAP2 POP POP JUMP JUMPDEST PUSH1 0x0 PUSH1 0x20 DUP3 ADD SWAP1 POP PUSH2 0x28C PUSH1 0x0 DUP4 ADD DUP5 PUSH2 0x220 JUMP JUMPDEST SWAP3 SWAP2 POP POP JUMP JUMPDEST PUSH1 0x0 PUSH2 0x29C PUSH2 0x2AD JUMP JUMPDEST SWAP1 POP PUSH2 0x2A8 DUP3 DUP3 PUSH2 0x34C JUMP JUMPDEST SWAP2 SWAP1 POP JUMP JUMPDEST PUSH1 0x0 PUSH1 0x40 MLOAD SWAP1 POP SWAP1 JUMP JUMPDEST PUSH1 0x0 PUSH8 0xFFFFFFFFFFFFFFFF DUP3 GT ISZERO PUSH2 0x2D2 JUMPI PUSH2 0x2D1 PUSH2 0x37D JUMP JUMPDEST JUMPDEST PUSH2 0x2DB DUP3 PUSH2 0x3C0 JUMP JUMPDEST SWAP1 POP PUSH1 0x20 DUP2 ADD SWAP1 POP SWAP2 SWAP1 POP JUMP JUMPDEST PUSH1 0x0 DUP2 MLOAD SWAP1 POP SWAP2 SWAP1 POP JUMP JUMPDEST PUSH1 0x0 DUP2 SWAP1 POP SWAP3 SWAP2 POP POP JUMP JUMPDEST PUSH1 0x0 DUP2 ISZERO ISZERO SWAP1 POP SWAP2 SWAP1 POP JUMP JUMPDEST DUP3 DUP2 DUP4 CALLDATACOPY PUSH1 0x0 DUP4 DUP4 ADD MSTORE POP POP POP JUMP JUMPDEST PUSH1 0x0 JUMPDEST DUP4 DUP2 LT ISZERO PUSH2 0x337 JUMPI DUP1 DUP3 ADD MLOAD DUP2 DUP5 ADD MSTORE PUSH1 0x20 DUP2 ADD SWAP1 POP PUSH2 0x31C JUMP JUMPDEST DUP4 DUP2 GT ISZERO PUSH2 0x346 JUMPI PUSH1 0x0 DUP5 DUP5 ADD MSTORE JUMPDEST POP POP POP POP JUMP JUMPDEST PUSH2 0x355 DUP3 PUSH2 0x3C0 JUMP JUMPDEST DUP2 ADD DUP2 DUP2 LT PUSH8 0xFFFFFFFFFFFFFFFF DUP3 GT OR ISZERO PUSH2 0x374 JUMPI PUSH2 0x373 PUSH2 0x37D JUMP JUMPDEST JUMPDEST DUP1 PUSH1 0x40 MSTORE POP POP POP JUMP JUMPDEST PUSH32 0x4E487B7100000000000000000000000000000000000000000000000000000000 PUSH1 0x0 MSTORE PUSH1 0x41 PUSH1 0x4 MSTORE PUSH1 0x24 PUSH1 0x0 REVERT JUMPDEST PUSH1 0x0 DUP1 REVERT JUMPDEST PUSH1 0x0 DUP1 REVERT JUMPDEST PUSH1 0x0 DUP1 REVERT JUMPDEST PUSH1 0x0 DUP1 REVERT JUMPDEST PUSH1 0x0 PUSH1 0x1F NOT PUSH1 0x1F DUP4 ADD AND SWAP1 POP SWAP2 SWAP1 POP JUMP JUMPDEST PUSH2 0x3DA DUP2 PUSH2 0x2FE JUMP JUMPDEST DUP2 EQ PUSH2 0x3E5 JUMPI PUSH1 0x0 DUP1 REVERT JUMPDEST POP JUMP INVALID LOG2 PUSH5 0x6970667358 0x22 SLT KECCAK256 NUMBER CALLDATALOAD SWAP9 SWAP9 PUSH15 0x17E1D8BF6F7A99EA64CAF812CBC36A 0xAE INVALID DUP12 LOG0 0xC2 0xAF DUP1 PUSH20 0xE5315A1664736F6C634300080700330000000000 "
		},
		"gasEstimates": {
			"creation": {
				"codeDepositCost": "210800",
				"executionCost": "251",
				"totalCost": "211051"
			},
			"external": {
				"getStatus(string)": "infinite",
				"setStatus(string,bool)": "infinite"
			}
		},
		"methodIdentifiers": {
			"getStatus(string)": "22b05ed2",
			"setStatus(string,bool)": "cba676d7"
		}
	},
	"abi": [
		{
			"inputs": [
				{
					"internalType": "string",
					"name": "_uniqueId",
					"type": "string"
				}
			],
			"name": "getStatus",
			"outputs": [
				{
					"internalType": "bool",
					"name": "",
					"type": "bool"
				}
			],
			"stateMutability": "view",
			"type": "function"
		},
		{
			"inputs": [
				{
					"internalType": "string",
					"name": "_uniqueId",
					"type": "string"
				},
				{
					"internalType": "bool",
					"name": "_status",
					"type": "bool"
				}
			],
			"name": "setStatus",
			"outputs": [],
			"stateMutability": "nonpayable",
			"type": "function"
		}
	]
}