{
	"data": {
		"bytecode": {
			"linkReferences": {},
			"object": "608060405234801561001057600080fd5b50610893806100206000396000f3fe608060405234801561001057600080fd5b50600436106100365760003560e01c8063779d7b6d1461003b5780638a55bfab14610057575b600080fd5b610055600480360381019061005091906101db565b610087565b005b610071600480360381019061006c91906101db565b610115565b60405161007e919061027b565b60405180910390f35b60006040516100959061015e565b604051809103906000f0801580156100b1573d6000803e3d6000fd5b509050806000836040516100c59190610264565b908152602001604051809103902060006101000a81548173ffffffffffffffffffffffffffffffffffffffff021916908373ffffffffffffffffffffffffffffffffffffffff1602179055505050565b6000818051602081018201805184825260208301602085012081835280955050505050506000915054906101000a900473ffffffffffffffffffffffffffffffffffffffff1681565b61043e8061042083390190565b600061017e610179846102bb565b610296565b90508281526020810184848401111561019a576101996103ff565b5b6101a5848285610358565b509392505050565b600082601f8301126101c2576101c16103fa565b5b81356101d284826020860161016b565b91505092915050565b6000602082840312156101f1576101f0610409565b5b600082013567ffffffffffffffff81111561020f5761020e610404565b5b61021b848285016101ad565b91505092915050565b61022d81610322565b82525050565b600061023e826102ec565b61024881856102f7565b9350610258818560208601610367565b80840191505092915050565b60006102708284610233565b915081905092915050565b60006020820190506102906000830184610224565b92915050565b60006102a06102b1565b90506102ac828261039a565b919050565b6000604051905090565b600067ffffffffffffffff8211156102d6576102d56103cb565b5b6102df8261040e565b9050602081019050919050565b600081519050919050565b600081905092915050565b600073ffffffffffffffffffffffffffffffffffffffff82169050919050565b600061032d82610334565b9050919050565b600061033f82610346565b9050919050565b600061035182610302565b9050919050565b82818337600083830152505050565b60005b8381101561038557808201518184015260208101905061036a565b83811115610394576000848401525b50505050565b6103a38261040e565b810181811067ffffffffffffffff821117156103c2576103c16103cb565b5b80604052505050565b7f4e487b7100000000000000000000000000000000000000000000000000000000600052604160045260246000fd5b600080fd5b600080fd5b600080fd5b600080fd5b6000601f19601f830116905091905056fe608060405234801561001057600080fd5b5061041e806100206000396000f3fe608060405234801561001057600080fd5b50600436106100365760003560e01c806322b05ed21461003b578063cba676d71461006b575b600080fd5b6100556004803603810190610050919061017b565b610087565b6040516100629190610277565b60405180910390f35b610085600480360381019061008091906101c4565b6100bc565b005b60006002826040516100999190610260565b908152602001604051809103902060009054906101000a900460ff169050919050565b806002836040516100cd9190610260565b908152602001604051809103902060006101000a81548160ff0219169083151502179055505050565b6000610109610104846102b7565b610292565b905082815260208101848484011115610125576101246103b1565b5b61013084828561030a565b509392505050565b600081359050610147816103d1565b92915050565b600082601f830112610162576101616103ac565b5b81356101728482602086016100f6565b91505092915050565b600060208284031215610191576101906103bb565b5b600082013567ffffffffffffffff8111156101af576101ae6103b6565b5b6101bb8482850161014d565b91505092915050565b600080604083850312156101db576101da6103bb565b5b600083013567ffffffffffffffff8111156101f9576101f86103b6565b5b6102058582860161014d565b925050602061021685828601610138565b9150509250929050565b610229816102fe565b82525050565b600061023a826102e8565b61024481856102f3565b9350610254818560208601610319565b80840191505092915050565b600061026c828461022f565b915081905092915050565b600060208201905061028c6000830184610220565b92915050565b600061029c6102ad565b90506102a8828261034c565b919050565b6000604051905090565b600067ffffffffffffffff8211156102d2576102d161037d565b5b6102db826103c0565b9050602081019050919050565b600081519050919050565b600081905092915050565b60008115159050919050565b82818337600083830152505050565b60005b8381101561033757808201518184015260208101905061031c565b83811115610346576000848401525b50505050565b610355826103c0565b810181811067ffffffffffffffff821117156103745761037361037d565b5b80604052505050565b7f4e487b7100000000000000000000000000000000000000000000000000000000600052604160045260246000fd5b600080fd5b600080fd5b600080fd5b600080fd5b6000601f19601f8301169050919050565b6103da816102fe565b81146103e557600080fd5b5056fea2646970667358221220cc512babeaf688fe4ec59b89bd92916d5af944335322ce32b7677893176c7a9664736f6c63430008070033a264697066735822122068d5fc2e841c81b716c44df81c4ace5d45e651d3bd7cf3d8c1107ef276640c1364736f6c63430008070033",
			"opcodes": "PUSH1 0x80 PUSH1 0x40 MSTORE CALLVALUE DUP1 ISZERO PUSH2 0x10 JUMPI PUSH1 0x0 DUP1 REVERT JUMPDEST POP PUSH2 0x893 DUP1 PUSH2 0x20 PUSH1 0x0 CODECOPY PUSH1 0x0 RETURN INVALID PUSH1 0x80 PUSH1 0x40 MSTORE CALLVALUE DUP1 ISZERO PUSH2 0x10 JUMPI PUSH1 0x0 DUP1 REVERT JUMPDEST POP PUSH1 0x4 CALLDATASIZE LT PUSH2 0x36 JUMPI PUSH1 0x0 CALLDATALOAD PUSH1 0xE0 SHR DUP1 PUSH4 0x779D7B6D EQ PUSH2 0x3B JUMPI DUP1 PUSH4 0x8A55BFAB EQ PUSH2 0x57 JUMPI JUMPDEST PUSH1 0x0 DUP1 REVERT JUMPDEST PUSH2 0x55 PUSH1 0x4 DUP1 CALLDATASIZE SUB DUP2 ADD SWAP1 PUSH2 0x50 SWAP2 SWAP1 PUSH2 0x1DB JUMP JUMPDEST PUSH2 0x87 JUMP JUMPDEST STOP JUMPDEST PUSH2 0x71 PUSH1 0x4 DUP1 CALLDATASIZE SUB DUP2 ADD SWAP1 PUSH2 0x6C SWAP2 SWAP1 PUSH2 0x1DB JUMP JUMPDEST PUSH2 0x115 JUMP JUMPDEST PUSH1 0x40 MLOAD PUSH2 0x7E SWAP2 SWAP1 PUSH2 0x27B JUMP JUMPDEST PUSH1 0x40 MLOAD DUP1 SWAP2 SUB SWAP1 RETURN JUMPDEST PUSH1 0x0 PUSH1 0x40 MLOAD PUSH2 0x95 SWAP1 PUSH2 0x15E JUMP JUMPDEST PUSH1 0x40 MLOAD DUP1 SWAP2 SUB SWAP1 PUSH1 0x0 CREATE DUP1 ISZERO DUP1 ISZERO PUSH2 0xB1 JUMPI RETURNDATASIZE PUSH1 0x0 DUP1 RETURNDATACOPY RETURNDATASIZE PUSH1 0x0 REVERT JUMPDEST POP SWAP1 POP DUP1 PUSH1 0x0 DUP4 PUSH1 0x40 MLOAD PUSH2 0xC5 SWAP2 SWAP1 PUSH2 0x264 JUMP JUMPDEST SWAP1 DUP2 MSTORE PUSH1 0x20 ADD PUSH1 0x40 MLOAD DUP1 SWAP2 SUB SWAP1 KECCAK256 PUSH1 0x0 PUSH2 0x100 EXP DUP2 SLOAD DUP2 PUSH20 0xFFFFFFFFFFFFFFFFFFFFFFFFFFFFFFFFFFFFFFFF MUL NOT AND SWAP1 DUP4 PUSH20 0xFFFFFFFFFFFFFFFFFFFFFFFFFFFFFFFFFFFFFFFF AND MUL OR SWAP1 SSTORE POP POP POP JUMP JUMPDEST PUSH1 0x0 DUP2 DUP1 MLOAD PUSH1 0x20 DUP2 ADD DUP3 ADD DUP1 MLOAD DUP5 DUP3 MSTORE PUSH1 0x20 DUP4 ADD PUSH1 0x20 DUP6 ADD KECCAK256 DUP2 DUP4 MSTORE DUP1 SWAP6 POP POP POP POP POP POP PUSH1 0x0 SWAP2 POP SLOAD SWAP1 PUSH2 0x100 EXP SWAP1 DIV PUSH20 0xFFFFFFFFFFFFFFFFFFFFFFFFFFFFFFFFFFFFFFFF AND DUP2 JUMP JUMPDEST PUSH2 0x43E DUP1 PUSH2 0x420 DUP4 CODECOPY ADD SWAP1 JUMP JUMPDEST PUSH1 0x0 PUSH2 0x17E PUSH2 0x179 DUP5 PUSH2 0x2BB JUMP JUMPDEST PUSH2 0x296 JUMP JUMPDEST SWAP1 POP DUP3 DUP2 MSTORE PUSH1 0x20 DUP2 ADD DUP5 DUP5 DUP5 ADD GT ISZERO PUSH2 0x19A JUMPI PUSH2 0x199 PUSH2 0x3FF JUMP JUMPDEST JUMPDEST PUSH2 0x1A5 DUP5 DUP3 DUP6 PUSH2 0x358 JUMP JUMPDEST POP SWAP4 SWAP3 POP POP POP JUMP JUMPDEST PUSH1 0x0 DUP3 PUSH1 0x1F DUP4 ADD SLT PUSH2 0x1C2 JUMPI PUSH2 0x1C1 PUSH2 0x3FA JUMP JUMPDEST JUMPDEST DUP2 CALLDATALOAD PUSH2 0x1D2 DUP5 DUP3 PUSH1 0x20 DUP7 ADD PUSH2 0x16B JUMP JUMPDEST SWAP2 POP POP SWAP3 SWAP2 POP POP JUMP JUMPDEST PUSH1 0x0 PUSH1 0x20 DUP3 DUP5 SUB SLT ISZERO PUSH2 0x1F1 JUMPI PUSH2 0x1F0 PUSH2 0x409 JUMP JUMPDEST JUMPDEST PUSH1 0x0 DUP3 ADD CALLDATALOAD PUSH8 0xFFFFFFFFFFFFFFFF DUP2 GT ISZERO PUSH2 0x20F JUMPI PUSH2 0x20E PUSH2 0x404 JUMP JUMPDEST JUMPDEST PUSH2 0x21B DUP5 DUP3 DUP6 ADD PUSH2 0x1AD JUMP JUMPDEST SWAP2 POP POP SWAP3 SWAP2 POP POP JUMP JUMPDEST PUSH2 0x22D DUP2 PUSH2 0x322 JUMP JUMPDEST DUP3 MSTORE POP POP JUMP JUMPDEST PUSH1 0x0 PUSH2 0x23E DUP3 PUSH2 0x2EC JUMP JUMPDEST PUSH2 0x248 DUP2 DUP6 PUSH2 0x2F7 JUMP JUMPDEST SWAP4 POP PUSH2 0x258 DUP2 DUP6 PUSH1 0x20 DUP7 ADD PUSH2 0x367 JUMP JUMPDEST DUP1 DUP5 ADD SWAP2 POP POP SWAP3 SWAP2 POP POP JUMP JUMPDEST PUSH1 0x0 PUSH2 0x270 DUP3 DUP5 PUSH2 0x233 JUMP JUMPDEST SWAP2 POP DUP2 SWAP1 POP SWAP3 SWAP2 POP POP JUMP JUMPDEST PUSH1 0x0 PUSH1 0x20 DUP3 ADD SWAP1 POP PUSH2 0x290 PUSH1 0x0 DUP4 ADD DUP5 PUSH2 0x224 JUMP JUMPDEST SWAP3 SWAP2 POP POP JUMP JUMPDEST PUSH1 0x0 PUSH2 0x2A0 PUSH2 0x2B1 JUMP JUMPDEST SWAP1 POP PUSH2 0x2AC DUP3 DUP3 PUSH2 0x39A JUMP JUMPDEST SWAP2 SWAP1 POP JUMP JUMPDEST PUSH1 0x0 PUSH1 0x40 MLOAD SWAP1 POP SWAP1 JUMP JUMPDEST PUSH1 0x0 PUSH8 0xFFFFFFFFFFFFFFFF DUP3 GT ISZERO PUSH2 0x2D6 JUMPI PUSH2 0x2D5 PUSH2 0x3CB JUMP JUMPDEST JUMPDEST PUSH2 0x2DF DUP3 PUSH2 0x40E JUMP JUMPDEST SWAP1 POP PUSH1 0x20 DUP2 ADD SWAP1 POP SWAP2 SWAP1 POP JUMP JUMPDEST PUSH1 0x0 DUP2 MLOAD SWAP1 POP SWAP2 SWAP1 POP JUMP JUMPDEST PUSH1 0x0 DUP2 SWAP1 POP SWAP3 SWAP2 POP POP JUMP JUMPDEST PUSH1 0x0 PUSH20 0xFFFFFFFFFFFFFFFFFFFFFFFFFFFFFFFFFFFFFFFF DUP3 AND SWAP1 POP SWAP2 SWAP1 POP JUMP JUMPDEST PUSH1 0x0 PUSH2 0x32D DUP3 PUSH2 0x334 JUMP JUMPDEST SWAP1 POP SWAP2 SWAP1 POP JUMP JUMPDEST PUSH1 0x0 PUSH2 0x33F DUP3 PUSH2 0x346 JUMP JUMPDEST SWAP1 POP SWAP2 SWAP1 POP JUMP JUMPDEST PUSH1 0x0 PUSH2 0x351 DUP3 PUSH2 0x302 JUMP JUMPDEST SWAP1 POP SWAP2 SWAP1 POP JUMP JUMPDEST DUP3 DUP2 DUP4 CALLDATACOPY PUSH1 0x0 DUP4 DUP4 ADD MSTORE POP POP POP JUMP JUMPDEST PUSH1 0x0 JUMPDEST DUP4 DUP2 LT ISZERO PUSH2 0x385 JUMPI DUP1 DUP3 ADD MLOAD DUP2 DUP5 ADD MSTORE PUSH1 0x20 DUP2 ADD SWAP1 POP PUSH2 0x36A JUMP JUMPDEST DUP4 DUP2 GT ISZERO PUSH2 0x394 JUMPI PUSH1 0x0 DUP5 DUP5 ADD MSTORE JUMPDEST POP POP POP POP JUMP JUMPDEST PUSH2 0x3A3 DUP3 PUSH2 0x40E JUMP JUMPDEST DUP2 ADD DUP2 DUP2 LT PUSH8 0xFFFFFFFFFFFFFFFF DUP3 GT OR ISZERO PUSH2 0x3C2 JUMPI PUSH2 0x3C1 PUSH2 0x3CB JUMP JUMPDEST JUMPDEST DUP1 PUSH1 0x40 MSTORE POP POP POP JUMP JUMPDEST PUSH32 0x4E487B7100000000000000000000000000000000000000000000000000000000 PUSH1 0x0 MSTORE PUSH1 0x41 PUSH1 0x4 MSTORE PUSH1 0x24 PUSH1 0x0 REVERT JUMPDEST PUSH1 0x0 DUP1 REVERT JUMPDEST PUSH1 0x0 DUP1 REVERT JUMPDEST PUSH1 0x0 DUP1 REVERT JUMPDEST PUSH1 0x0 DUP1 REVERT JUMPDEST PUSH1 0x0 PUSH1 0x1F NOT PUSH1 0x1F DUP4 ADD AND SWAP1 POP SWAP2 SWAP1 POP JUMP INVALID PUSH1 0x80 PUSH1 0x40 MSTORE CALLVALUE DUP1 ISZERO PUSH2 0x10 JUMPI PUSH1 0x0 DUP1 REVERT JUMPDEST POP PUSH2 0x41E DUP1 PUSH2 0x20 PUSH1 0x0 CODECOPY PUSH1 0x0 RETURN INVALID PUSH1 0x80 PUSH1 0x40 MSTORE CALLVALUE DUP1 ISZERO PUSH2 0x10 JUMPI PUSH1 0x0 DUP1 REVERT JUMPDEST POP PUSH1 0x4 CALLDATASIZE LT PUSH2 0x36 JUMPI PUSH1 0x0 CALLDATALOAD PUSH1 0xE0 SHR DUP1 PUSH4 0x22B05ED2 EQ PUSH2 0x3B JUMPI DUP1 PUSH4 0xCBA676D7 EQ PUSH2 0x6B JUMPI JUMPDEST PUSH1 0x0 DUP1 REVERT JUMPDEST PUSH2 0x55 PUSH1 0x4 DUP1 CALLDATASIZE SUB DUP2 ADD SWAP1 PUSH2 0x50 SWAP2 SWAP1 PUSH2 0x17B JUMP JUMPDEST PUSH2 0x87 JUMP JUMPDEST PUSH1 0x40 MLOAD PUSH2 0x62 SWAP2 SWAP1 PUSH2 0x277 JUMP JUMPDEST PUSH1 0x40 MLOAD DUP1 SWAP2 SUB SWAP1 RETURN JUMPDEST PUSH2 0x85 PUSH1 0x4 DUP1 CALLDATASIZE SUB DUP2 ADD SWAP1 PUSH2 0x80 SWAP2 SWAP1 PUSH2 0x1C4 JUMP JUMPDEST PUSH2 0xBC JUMP JUMPDEST STOP JUMPDEST PUSH1 0x0 PUSH1 0x2 DUP3 PUSH1 0x40 MLOAD PUSH2 0x99 SWAP2 SWAP1 PUSH2 0x260 JUMP JUMPDEST SWAP1 DUP2 MSTORE PUSH1 0x20 ADD PUSH1 0x40 MLOAD DUP1 SWAP2 SUB SWAP1 KECCAK256 PUSH1 0x0 SWAP1 SLOAD SWAP1 PUSH2 0x100 EXP SWAP1 DIV PUSH1 0xFF AND SWAP1 POP SWAP2 SWAP1 POP JUMP JUMPDEST DUP1 PUSH1 0x2 DUP4 PUSH1 0x40 MLOAD PUSH2 0xCD SWAP2 SWAP1 PUSH2 0x260 JUMP JUMPDEST SWAP1 DUP2 MSTORE PUSH1 0x20 ADD PUSH1 0x40 MLOAD DUP1 SWAP2 SUB SWAP1 KECCAK256 PUSH1 0x0 PUSH2 0x100 EXP DUP2 SLOAD DUP2 PUSH1 0xFF MUL NOT AND SWAP1 DUP4 ISZERO ISZERO MUL OR SWAP1 SSTORE POP POP POP JUMP JUMPDEST PUSH1 0x0 PUSH2 0x109 PUSH2 0x104 DUP5 PUSH2 0x2B7 JUMP JUMPDEST PUSH2 0x292 JUMP JUMPDEST SWAP1 POP DUP3 DUP2 MSTORE PUSH1 0x20 DUP2 ADD DUP5 DUP5 DUP5 ADD GT ISZERO PUSH2 0x125 JUMPI PUSH2 0x124 PUSH2 0x3B1 JUMP JUMPDEST JUMPDEST PUSH2 0x130 DUP5 DUP3 DUP6 PUSH2 0x30A JUMP JUMPDEST POP SWAP4 SWAP3 POP POP POP JUMP JUMPDEST PUSH1 0x0 DUP2 CALLDATALOAD SWAP1 POP PUSH2 0x147 DUP2 PUSH2 0x3D1 JUMP JUMPDEST SWAP3 SWAP2 POP POP JUMP JUMPDEST PUSH1 0x0 DUP3 PUSH1 0x1F DUP4 ADD SLT PUSH2 0x162 JUMPI PUSH2 0x161 PUSH2 0x3AC JUMP JUMPDEST JUMPDEST DUP2 CALLDATALOAD PUSH2 0x172 DUP5 DUP3 PUSH1 0x20 DUP7 ADD PUSH2 0xF6 JUMP JUMPDEST SWAP2 POP POP SWAP3 SWAP2 POP POP JUMP JUMPDEST PUSH1 0x0 PUSH1 0x20 DUP3 DUP5 SUB SLT ISZERO PUSH2 0x191 JUMPI PUSH2 0x190 PUSH2 0x3BB JUMP JUMPDEST JUMPDEST PUSH1 0x0 DUP3 ADD CALLDATALOAD PUSH8 0xFFFFFFFFFFFFFFFF DUP2 GT ISZERO PUSH2 0x1AF JUMPI PUSH2 0x1AE PUSH2 0x3B6 JUMP JUMPDEST JUMPDEST PUSH2 0x1BB DUP5 DUP3 DUP6 ADD PUSH2 0x14D JUMP JUMPDEST SWAP2 POP POP SWAP3 SWAP2 POP POP JUMP JUMPDEST PUSH1 0x0 DUP1 PUSH1 0x40 DUP4 DUP6 SUB SLT ISZERO PUSH2 0x1DB JUMPI PUSH2 0x1DA PUSH2 0x3BB JUMP JUMPDEST JUMPDEST PUSH1 0x0 DUP4 ADD CALLDATALOAD PUSH8 0xFFFFFFFFFFFFFFFF DUP2 GT ISZERO PUSH2 0x1F9 JUMPI PUSH2 0x1F8 PUSH2 0x3B6 JUMP JUMPDEST JUMPDEST PUSH2 0x205 DUP6 DUP3 DUP7 ADD PUSH2 0x14D JUMP JUMPDEST SWAP3 POP POP PUSH1 0x20 PUSH2 0x216 DUP6 DUP3 DUP7 ADD PUSH2 0x138 JUMP JUMPDEST SWAP2 POP POP SWAP3 POP SWAP3 SWAP1 POP JUMP JUMPDEST PUSH2 0x229 DUP2 PUSH2 0x2FE JUMP JUMPDEST DUP3 MSTORE POP POP JUMP JUMPDEST PUSH1 0x0 PUSH2 0x23A DUP3 PUSH2 0x2E8 JUMP JUMPDEST PUSH2 0x244 DUP2 DUP6 PUSH2 0x2F3 JUMP JUMPDEST SWAP4 POP PUSH2 0x254 DUP2 DUP6 PUSH1 0x20 DUP7 ADD PUSH2 0x319 JUMP JUMPDEST DUP1 DUP5 ADD SWAP2 POP POP SWAP3 SWAP2 POP POP JUMP JUMPDEST PUSH1 0x0 PUSH2 0x26C DUP3 DUP5 PUSH2 0x22F JUMP JUMPDEST SWAP2 POP DUP2 SWAP1 POP SWAP3 SWAP2 POP POP JUMP JUMPDEST PUSH1 0x0 PUSH1 0x20 DUP3 ADD SWAP1 POP PUSH2 0x28C PUSH1 0x0 DUP4 ADD DUP5 PUSH2 0x220 JUMP JUMPDEST SWAP3 SWAP2 POP POP JUMP JUMPDEST PUSH1 0x0 PUSH2 0x29C PUSH2 0x2AD JUMP JUMPDEST SWAP1 POP PUSH2 0x2A8 DUP3 DUP3 PUSH2 0x34C JUMP JUMPDEST SWAP2 SWAP1 POP JUMP JUMPDEST PUSH1 0x0 PUSH1 0x40 MLOAD SWAP1 POP SWAP1 JUMP JUMPDEST PUSH1 0x0 PUSH8 0xFFFFFFFFFFFFFFFF DUP3 GT ISZERO PUSH2 0x2D2 JUMPI PUSH2 0x2D1 PUSH2 0x37D JUMP JUMPDEST JUMPDEST PUSH2 0x2DB DUP3 PUSH2 0x3C0 JUMP JUMPDEST SWAP1 POP PUSH1 0x20 DUP2 ADD SWAP1 POP SWAP2 SWAP1 POP JUMP JUMPDEST PUSH1 0x0 DUP2 MLOAD SWAP1 POP SWAP2 SWAP1 POP JUMP JUMPDEST PUSH1 0x0 DUP2 SWAP1 POP SWAP3 SWAP2 POP POP JUMP JUMPDEST PUSH1 0x0 DUP2 ISZERO ISZERO SWAP1 POP SWAP2 SWAP1 POP JUMP JUMPDEST DUP3 DUP2 DUP4 CALLDATACOPY PUSH1 0x0 DUP4 DUP4 ADD MSTORE POP POP POP JUMP JUMPDEST PUSH1 0x0 JUMPDEST DUP4 DUP2 LT ISZERO PUSH2 0x337 JUMPI DUP1 DUP3 ADD MLOAD DUP2 DUP5 ADD MSTORE PUSH1 0x20 DUP2 ADD SWAP1 POP PUSH2 0x31C JUMP JUMPDEST DUP4 DUP2 GT ISZERO PUSH2 0x346 JUMPI PUSH1 0x0 DUP5 DUP5 ADD MSTORE JUMPDEST POP POP POP POP JUMP JUMPDEST PUSH2 0x355 DUP3 PUSH2 0x3C0 JUMP JUMPDEST DUP2 ADD DUP2 DUP2 LT PUSH8 0xFFFFFFFFFFFFFFFF DUP3 GT OR ISZERO PUSH2 0x374 JUMPI PUSH2 0x373 PUSH2 0x37D JUMP JUMPDEST JUMPDEST DUP1 PUSH1 0x40 MSTORE POP POP POP JUMP JUMPDEST PUSH32 0x4E487B7100000000000000000000000000000000000000000000000000000000 PUSH1 0x0 MSTORE PUSH1 0x41 PUSH1 0x4 MSTORE PUSH1 0x24 PUSH1 0x0 REVERT JUMPDEST PUSH1 0x0 DUP1 REVERT JUMPDEST PUSH1 0x0 DUP1 REVERT JUMPDEST PUSH1 0x0 DUP1 REVERT JUMPDEST PUSH1 0x0 DUP1 REVERT JUMPDEST PUSH1 0x0 PUSH1 0x1F NOT PUSH1 0x1F DUP4 ADD AND SWAP1 POP SWAP2 SWAP1 POP JUMP JUMPDEST PUSH2 0x3DA DUP2 PUSH2 0x2FE JUMP JUMPDEST DUP2 EQ PUSH2 0x3E5 JUMPI PUSH1 0x0 DUP1 REVERT JUMPDEST POP JUMP INVALID LOG2 PUSH5 0x6970667358 0x22 SLT KECCAK256 0xCC MLOAD 0x2B 0xAB 0xEA 0xF6 DUP9 INVALID 0x4E 0xC5 SWAP12 DUP10 0xBD SWAP3 SWAP2 PUSH14 0x5AF944335322CE32B7677893176C PUSH27 0x9664736F6C63430008070033A264697066735822122068D5FC2E84 SHR DUP2 0xB7 AND 0xC4 0x4D 0xF8 SHR 0x4A 0xCE 0x5D GASLIMIT 0xE6 MLOAD 0xD3 0xBD PUSH29 0xF3D8C1107EF276640C1364736F6C634300080700330000000000000000 "
		},
		"gasEstimates": {
			"creation": {
				"codeDepositCost": "439000",
				"executionCost": "474",
				"totalCost": "439474"
			},
			"external": {
				"DataStorageMap(string)": "infinite",
				"createNewContract(string)": "infinite"
			}
		},
		"methodIdentifiers": {
			"DataStorageMap(string)": "8a55bfab",
			"createNewContract(string)": "779d7b6d"
		}
	},
	"abi": [
		{
			"inputs": [
				{
					"internalType": "string",
					"name": "",
					"type": "string"
				}
			],
			"name": "DataStorageMap",
			"outputs": [
				{
					"internalType": "contract DataStorageContract",
					"name": "",
					"type": "address"
				}
			],
			"stateMutability": "view",
			"type": "function"
		},
		{
			"inputs": [
				{
					"internalType": "string",
					"name": "_name",
					"type": "string"
				}
			],
			"name": "createNewContract",
			"outputs": [],
			"stateMutability": "nonpayable",
			"type": "function"
		}
	]
}