{
	"contracts/firstSolidity.sol": {
		"FirstContract": {
			"abi": [
				{
					"inputs": [
						{
							"internalType": "uint256",
							"name": "",
							"type": "uint256"
						}
					],
					"name": "EmployeeArr",
					"outputs": [
						{
							"internalType": "uint32",
							"name": "UniqueNum",
							"type": "uint32"
						},
						{
							"internalType": "string",
							"name": "name",
							"type": "string"
						}
					],
					"stateMutability": "view",
					"type": "function"
				},
				{
					"inputs": [],
					"name": "Name",
					"outputs": [
						{
							"internalType": "string",
							"name": "",
							"type": "string"
						}
					],
					"stateMutability": "view",
					"type": "function"
				},
				{
					"inputs": [
						{
							"internalType": "uint32",
							"name": "_UniqueNum",
							"type": "uint32"
						},
						{
							"internalType": "string",
							"name": "_name",
							"type": "string"
						}
					],
					"name": "addEmployee",
					"outputs": [],
					"stateMutability": "nonpayable",
					"type": "function"
				},
				{
					"inputs": [],
					"name": "employee1",
					"outputs": [
						{
							"internalType": "uint32",
							"name": "UniqueNum",
							"type": "uint32"
						},
						{
							"internalType": "string",
							"name": "name",
							"type": "string"
						}
					],
					"stateMutability": "view",
					"type": "function"
				},
				{
					"inputs": [],
					"name": "employee2",
					"outputs": [
						{
							"internalType": "uint32",
							"name": "UniqueNum",
							"type": "uint32"
						},
						{
							"internalType": "string",
							"name": "name",
							"type": "string"
						}
					],
					"stateMutability": "view",
					"type": "function"
				},
				{
					"inputs": [],
					"name": "get",
					"outputs": [
						{
							"internalType": "uint256",
							"name": "",
							"type": "uint256"
						}
					],
					"stateMutability": "view",
					"type": "function"
				},
				{
					"inputs": [],
					"name": "myWalletAdd",
					"outputs": [
						{
							"internalType": "address",
							"name": "",
							"type": "address"
						}
					],
					"stateMutability": "view",
					"type": "function"
				},
				{
					"inputs": [
						{
							"internalType": "uint256",
							"name": "num",
							"type": "uint256"
						}
					],
					"name": "set",
					"outputs": [],
					"stateMutability": "nonpayable",
					"type": "function"
				}
			],
			"devdoc": {
				"kind": "dev",
				"methods": {},
				"version": 1
			},
			"evm": {
				"assembly": "    /* \"contracts/firstSolidity.sol\":86:2264  contract FirstContract {\r... */\n  mstore(0x40, 0x80)\n    /* \"contracts/firstSolidity.sol\":276:280  true */\n  0x01\n    /* \"contracts/firstSolidity.sol\":258:280  bool BooleanVal = true */\n  0x00\n  dup1\n  0x0100\n  exp\n  dup2\n  sload\n  dup2\n  0xff\n  mul\n  not\n  and\n  swap1\n  dup4\n  iszero\n  iszero\n  mul\n  or\n  swap1\n  sstore\n  pop\n    /* \"contracts/firstSolidity.sol\":316:320  -123 */\n  0xffffffffffffffffffffffffffffffffffffffffffffffffffffffffffffff85\n    /* \"contracts/firstSolidity.sol\":289:320  int positiveOrNegtiveNum = -123 */\n  0x01\n  sstore\n    /* \"contracts/firstSolidity.sol\":394:397  123 */\n  0x7b\n    /* \"contracts/firstSolidity.sol\":375:397  uint positiveNum = 123 */\n  0x03\n  sstore\n    /* \"contracts/firstSolidity.sol\":754:796  0xE4A976FdEa6CAA37638a4554F3779663535af314 */\n  0xe4a976fdea6caa37638a4554f3779663535af314\n    /* \"contracts/firstSolidity.sol\":725:796  address public myWalletAdd = 0xE4A976FdEa6CAA37638a4554F3779663535af314 */\n  0x04\n  exp(0x0100, 0x00)\n  dup2\n  sload\n  dup2\n  0xffffffffffffffffffffffffffffffffffffffff\n  mul\n  not\n  and\n  swap1\n  dup4\n  0xffffffffffffffffffffffffffffffffffffffff\n  and\n  mul\n  or\n  swap1\n  sstore\n  pop\n    /* \"contracts/firstSolidity.sol\":803:852  bytes32 anyNumOfByteData = \"suppose name or file\" */\n  sstore(0x05, 0x737570706f7365206e616d65206f722066696c65000000000000000000000000)\n    /* \"contracts/firstSolidity.sol\":1040:1078  string public Name= \"solidity program\" */\n  mload(0x40)\n  dup1\n  0x40\n  add\n  0x40\n  mstore\n  dup1\n  0x10\n  dup2\n  mstore\n  0x20\n  add\n  0x736f6c69646974792070726f6772616d00000000000000000000000000000000\n  dup2\n  mstore\n  pop\n  0x06\n  swap1\n  dup1\n  mload\n  swap1\n  0x20\n  add\n  swap1\n  tag_1\n  swap3\n  swap2\n  swap1\n  tag_2\n  jump\t// in\ntag_1:\n  pop\n    /* \"contracts/firstSolidity.sol\":1712:1749  Employee({UniqueNum:7,name:\"devesh\"}) */\n  mload(0x40)\n  dup1\n  0x40\n  add\n  0x40\n  mstore\n  dup1\n    /* \"contracts/firstSolidity.sol\":1732:1733  7 */\n  0x07\n    /* \"contracts/firstSolidity.sol\":1712:1749  Employee({UniqueNum:7,name:\"devesh\"}) */\n  0xffffffff\n  and\n  dup2\n  mstore\n  0x20\n  add\n  mload(0x40)\n  dup1\n  0x40\n  add\n  0x40\n  mstore\n  dup1\n  0x06\n  dup2\n  mstore\n  0x20\n  add\n  0x6465766573680000000000000000000000000000000000000000000000000000\n  dup2\n  mstore\n  pop\n  dup2\n  mstore\n  pop\n    /* \"contracts/firstSolidity.sol\":1684:1749  Employee public employee1 = Employee({UniqueNum:7,name:\"devesh\"}) */\n  0x07\n  0x00\n  dup3\n  add\n  mload\n  dup2\n  0x00\n  add\n  exp(0x0100, 0x00)\n  dup2\n  sload\n  dup2\n  0xffffffff\n  mul\n  not\n  and\n  swap1\n  dup4\n  0xffffffff\n  and\n  mul\n  or\n  swap1\n  sstore\n  pop\n  0x20\n  dup3\n  add\n  mload\n  dup2\n  0x01\n  add\n  swap1\n  dup1\n  mload\n  swap1\n  0x20\n  add\n  swap1\n  tag_3\n  swap3\n  swap2\n  swap1\n  tag_2\n  jump\t// in\ntag_3:\n  pop\n  pop\n  pop\n    /* \"contracts/firstSolidity.sol\":1784:1821  Employee({UniqueNum:11,name:\"aarti\"}) */\n  mload(0x40)\n  dup1\n  0x40\n  add\n  0x40\n  mstore\n  dup1\n    /* \"contracts/firstSolidity.sol\":1804:1806  11 */\n  0x0b\n    /* \"contracts/firstSolidity.sol\":1784:1821  Employee({UniqueNum:11,name:\"aarti\"}) */\n  0xffffffff\n  and\n  dup2\n  mstore\n  0x20\n  add\n  mload(0x40)\n  dup1\n  0x40\n  add\n  0x40\n  mstore\n  dup1\n  0x05\n  dup2\n  mstore\n  0x20\n  add\n  0x6161727469000000000000000000000000000000000000000000000000000000\n  dup2\n  mstore\n  pop\n  dup2\n  mstore\n  pop\n    /* \"contracts/firstSolidity.sol\":1756:1821  Employee public employee2 = Employee({UniqueNum:11,name:\"aarti\"}) */\n  0x09\n  0x00\n  dup3\n  add\n  mload\n  dup2\n  0x00\n  add\n  exp(0x0100, 0x00)\n  dup2\n  sload\n  dup2\n  0xffffffff\n  mul\n  not\n  and\n  swap1\n  dup4\n  0xffffffff\n  and\n  mul\n  or\n  swap1\n  sstore\n  pop\n  0x20\n  dup3\n  add\n  mload\n  dup2\n  0x01\n  add\n  swap1\n  dup1\n  mload\n  swap1\n  0x20\n  add\n  swap1\n  tag_4\n  swap3\n  swap2\n  swap1\n  tag_2\n  jump\t// in\ntag_4:\n  pop\n  pop\n  pop\n    /* \"contracts/firstSolidity.sol\":86:2264  contract FirstContract {\r... */\n  callvalue\n  dup1\n  iszero\n  tag_5\n  jumpi\n  0x00\n  dup1\n  revert\ntag_5:\n  pop\n  jump(tag_6)\ntag_2:\n  dup3\n  dup1\n  sload\n  tag_7\n  swap1\n  tag_8\n  jump\t// in\ntag_7:\n  swap1\n  0x00\n  mstore\n  keccak256(0x00, 0x20)\n  swap1\n  0x1f\n  add\n  0x20\n  swap1\n  div\n  dup2\n  add\n  swap3\n  dup3\n  tag_10\n  jumpi\n  0x00\n  dup6\n  sstore\n  jump(tag_9)\ntag_10:\n  dup3\n  0x1f\n  lt\n  tag_11\n  jumpi\n  dup1\n  mload\n  not(0xff)\n  and\n  dup4\n  dup1\n  add\n  or\n  dup6\n  sstore\n  jump(tag_9)\ntag_11:\n  dup3\n  dup1\n  add\n  0x01\n  add\n  dup6\n  sstore\n  dup3\n  iszero\n  tag_9\n  jumpi\n  swap2\n  dup3\n  add\ntag_12:\n  dup3\n  dup2\n  gt\n  iszero\n  tag_13\n  jumpi\n  dup3\n  mload\n  dup3\n  sstore\n  swap2\n  0x20\n  add\n  swap2\n  swap1\n  0x01\n  add\n  swap1\n  jump(tag_12)\ntag_13:\ntag_9:\n  pop\n  swap1\n  pop\n  tag_14\n  swap2\n  swap1\n  tag_15\n  jump\t// in\ntag_14:\n  pop\n  swap1\n  jump\t// out\ntag_15:\ntag_16:\n  dup1\n  dup3\n  gt\n  iszero\n  tag_17\n  jumpi\n  0x00\n  dup2\n  0x00\n  swap1\n  sstore\n  pop\n  0x01\n  add\n  jump(tag_16)\ntag_17:\n  pop\n  swap1\n  jump\t// out\n    /* \"#utility.yul\":7:327   */\ntag_8:\n    /* \"#utility.yul\":51:57   */\n  0x00\n    /* \"#utility.yul\":88:89   */\n  0x02\n    /* \"#utility.yul\":82:86   */\n  dup3\n    /* \"#utility.yul\":78:90   */\n  div\n    /* \"#utility.yul\":68:90   */\n  swap1\n  pop\n    /* \"#utility.yul\":135:136   */\n  0x01\n    /* \"#utility.yul\":129:133   */\n  dup3\n    /* \"#utility.yul\":125:137   */\n  and\n    /* \"#utility.yul\":156:174   */\n  dup1\n    /* \"#utility.yul\":146:227   */\n  tag_20\n  jumpi\n    /* \"#utility.yul\":212:216   */\n  0x7f\n    /* \"#utility.yul\":204:210   */\n  dup3\n    /* \"#utility.yul\":200:217   */\n  and\n    /* \"#utility.yul\":190:217   */\n  swap2\n  pop\n    /* \"#utility.yul\":146:227   */\ntag_20:\n    /* \"#utility.yul\":274:276   */\n  0x20\n    /* \"#utility.yul\":266:272   */\n  dup3\n    /* \"#utility.yul\":263:277   */\n  lt\n    /* \"#utility.yul\":243:261   */\n  dup2\n    /* \"#utility.yul\":240:278   */\n  eq\n    /* \"#utility.yul\":237:321   */\n  iszero\n  tag_21\n  jumpi\n    /* \"#utility.yul\":293:311   */\n  tag_22\n  tag_23\n  jump\t// in\ntag_22:\n    /* \"#utility.yul\":237:321   */\ntag_21:\n    /* \"#utility.yul\":58:327   */\n  pop\n    /* \"#utility.yul\":7:327   */\n  swap2\n  swap1\n  pop\n  jump\t// out\n    /* \"#utility.yul\":333:513   */\ntag_23:\n    /* \"#utility.yul\":381:458   */\n  0x4e487b7100000000000000000000000000000000000000000000000000000000\n    /* \"#utility.yul\":378:379   */\n  0x00\n    /* \"#utility.yul\":371:459   */\n  mstore\n    /* \"#utility.yul\":478:482   */\n  0x22\n    /* \"#utility.yul\":475:476   */\n  0x04\n    /* \"#utility.yul\":468:483   */\n  mstore\n    /* \"#utility.yul\":502:506   */\n  0x24\n    /* \"#utility.yul\":499:500   */\n  0x00\n    /* \"#utility.yul\":492:507   */\n  revert\n    /* \"contracts/firstSolidity.sol\":86:2264  contract FirstContract {\r... */\ntag_6:\n  dataSize(sub_0)\n  dup1\n  dataOffset(sub_0)\n  0x00\n  codecopy\n  0x00\n  return\nstop\n\nsub_0: assembly {\n        /* \"contracts/firstSolidity.sol\":86:2264  contract FirstContract {\r... */\n      mstore(0x40, 0x80)\n      callvalue\n      dup1\n      iszero\n      tag_1\n      jumpi\n      0x00\n      dup1\n      revert\n    tag_1:\n      pop\n      jumpi(tag_2, lt(calldatasize, 0x04))\n      shr(0xe0, calldataload(0x00))\n      dup1\n      0x6d4ce63c\n      gt\n      tag_11\n      jumpi\n      dup1\n      0x6d4ce63c\n      eq\n      tag_7\n      jumpi\n      dup1\n      0x8052474d\n      eq\n      tag_8\n      jumpi\n      dup1\n      0xb75113b1\n      eq\n      tag_9\n      jumpi\n      dup1\n      0xca5a7ce0\n      eq\n      tag_10\n      jumpi\n      jump(tag_2)\n    tag_11:\n      dup1\n      0x03797a0b\n      eq\n      tag_3\n      jumpi\n      dup1\n      0x0a81eeb9\n      eq\n      tag_4\n      jumpi\n      dup1\n      0x4d96a003\n      eq\n      tag_5\n      jumpi\n      dup1\n      0x60fe47b1\n      eq\n      tag_6\n      jumpi\n    tag_2:\n      0x00\n      dup1\n      revert\n        /* \"contracts/firstSolidity.sol\":2060:2259  function addEmployee(uint32 _UniqueNum ,string memory _name) public{\r... */\n    tag_3:\n      tag_12\n      0x04\n      dup1\n      calldatasize\n      sub\n      dup2\n      add\n      swap1\n      tag_13\n      swap2\n      swap1\n      tag_14\n      jump\t// in\n    tag_13:\n      tag_15\n      jump\t// in\n    tag_12:\n      stop\n        /* \"contracts/firstSolidity.sol\":1965:1994  Employee[] public EmployeeArr */\n    tag_4:\n      tag_16\n      0x04\n      dup1\n      calldatasize\n      sub\n      dup2\n      add\n      swap1\n      tag_17\n      swap2\n      swap1\n      tag_18\n      jump\t// in\n    tag_17:\n      tag_19\n      jump\t// in\n    tag_16:\n      mload(0x40)\n      tag_20\n      swap3\n      swap2\n      swap1\n      tag_21\n      jump\t// in\n    tag_20:\n      mload(0x40)\n      dup1\n      swap2\n      sub\n      swap1\n      return\n        /* \"contracts/firstSolidity.sol\":725:796  address public myWalletAdd = 0xE4A976FdEa6CAA37638a4554F3779663535af314 */\n    tag_5:\n      tag_22\n      tag_23\n      jump\t// in\n    tag_22:\n      mload(0x40)\n      tag_24\n      swap2\n      swap1\n      tag_25\n      jump\t// in\n    tag_24:\n      mload(0x40)\n      dup1\n      swap2\n      sub\n      swap1\n      return\n        /* \"contracts/firstSolidity.sol\":1198:1263  function set(uint num) public{\r... */\n    tag_6:\n      tag_26\n      0x04\n      dup1\n      calldatasize\n      sub\n      dup2\n      add\n      swap1\n      tag_27\n      swap2\n      swap1\n      tag_18\n      jump\t// in\n    tag_27:\n      tag_28\n      jump\t// in\n    tag_26:\n      stop\n        /* \"contracts/firstSolidity.sol\":1420:1499  function get() public view returns (uint) {\r... */\n    tag_7:\n      tag_29\n      tag_30\n      jump\t// in\n    tag_29:\n      mload(0x40)\n      tag_31\n      swap2\n      swap1\n      tag_32\n      jump\t// in\n    tag_31:\n      mload(0x40)\n      dup1\n      swap2\n      sub\n      swap1\n      return\n        /* \"contracts/firstSolidity.sol\":1040:1078  string public Name= \"solidity program\" */\n    tag_8:\n      tag_33\n      tag_34\n      jump\t// in\n    tag_33:\n      mload(0x40)\n      tag_35\n      swap2\n      swap1\n      tag_36\n      jump\t// in\n    tag_35:\n      mload(0x40)\n      dup1\n      swap2\n      sub\n      swap1\n      return\n        /* \"contracts/firstSolidity.sol\":1684:1749  Employee public employee1 = Employee({UniqueNum:7,name:\"devesh\"}) */\n    tag_9:\n      tag_37\n      tag_38\n      jump\t// in\n    tag_37:\n      mload(0x40)\n      tag_39\n      swap3\n      swap2\n      swap1\n      tag_21\n      jump\t// in\n    tag_39:\n      mload(0x40)\n      dup1\n      swap2\n      sub\n      swap1\n      return\n        /* \"contracts/firstSolidity.sol\":1756:1821  Employee public employee2 = Employee({UniqueNum:11,name:\"aarti\"}) */\n    tag_10:\n      tag_40\n      tag_41\n      jump\t// in\n    tag_40:\n      mload(0x40)\n      tag_42\n      swap3\n      swap2\n      swap1\n      tag_21\n      jump\t// in\n    tag_42:\n      mload(0x40)\n      dup1\n      swap2\n      sub\n      swap1\n      return\n        /* \"contracts/firstSolidity.sol\":2060:2259  function addEmployee(uint32 _UniqueNum ,string memory _name) public{\r... */\n    tag_15:\n        /* \"contracts/firstSolidity.sol\":2138:2165  Employee memory newEmployee */\n      0x00\n        /* \"contracts/firstSolidity.sol\":2168:2211  Employee({UniqueNum:_UniqueNum,name:_name}) */\n      mload(0x40)\n      dup1\n      0x40\n      add\n      0x40\n      mstore\n      dup1\n        /* \"contracts/firstSolidity.sol\":2188:2198  _UniqueNum */\n      dup5\n        /* \"contracts/firstSolidity.sol\":2168:2211  Employee({UniqueNum:_UniqueNum,name:_name}) */\n      0xffffffff\n      and\n      dup2\n      mstore\n      0x20\n      add\n        /* \"contracts/firstSolidity.sol\":2204:2209  _name */\n      dup4\n        /* \"contracts/firstSolidity.sol\":2168:2211  Employee({UniqueNum:_UniqueNum,name:_name}) */\n      dup2\n      mstore\n      pop\n        /* \"contracts/firstSolidity.sol\":2138:2211  Employee memory newEmployee = Employee({UniqueNum:_UniqueNum,name:_name}) */\n      swap1\n      pop\n        /* \"contracts/firstSolidity.sol\":2222:2233  EmployeeArr */\n      0x0b\n        /* \"contracts/firstSolidity.sol\":2239:2250  newEmployee */\n      dup2\n        /* \"contracts/firstSolidity.sol\":2222:2251  EmployeeArr.push(newEmployee) */\n      swap1\n      dup1\n      0x01\n      dup2\n      sload\n      add\n      dup1\n      dup3\n      sstore\n      dup1\n      swap2\n      pop\n      pop\n      0x01\n      swap1\n      sub\n      swap1\n      0x00\n      mstore\n      keccak256(0x00, 0x20)\n      swap1\n      0x02\n      mul\n      add\n      0x00\n      swap1\n      swap2\n      swap1\n      swap2\n      swap1\n      swap2\n      pop\n      0x00\n      dup3\n      add\n      mload\n      dup2\n      0x00\n      add\n      exp(0x0100, 0x00)\n      dup2\n      sload\n      dup2\n      0xffffffff\n      mul\n      not\n      and\n      swap1\n      dup4\n      0xffffffff\n      and\n      mul\n      or\n      swap1\n      sstore\n      pop\n      0x20\n      dup3\n      add\n      mload\n      dup2\n      0x01\n      add\n      swap1\n      dup1\n      mload\n      swap1\n      0x20\n      add\n      swap1\n      tag_45\n      swap3\n      swap2\n      swap1\n      tag_46\n      jump\t// in\n    tag_45:\n      pop\n      pop\n      pop\n        /* \"contracts/firstSolidity.sol\":2127:2259  {\r... */\n      pop\n        /* \"contracts/firstSolidity.sol\":2060:2259  function addEmployee(uint32 _UniqueNum ,string memory _name) public{\r... */\n      pop\n      pop\n      jump\t// out\n        /* \"contracts/firstSolidity.sol\":1965:1994  Employee[] public EmployeeArr */\n    tag_19:\n      0x0b\n      dup2\n      dup2\n      sload\n      dup2\n      lt\n      tag_47\n      jumpi\n      0x00\n      dup1\n      revert\n    tag_47:\n      swap1\n      0x00\n      mstore\n      keccak256(0x00, 0x20)\n      swap1\n      0x02\n      mul\n      add\n      0x00\n      swap2\n      pop\n      swap1\n      pop\n      dup1\n      0x00\n      add\n      0x00\n      swap1\n      sload\n      swap1\n      0x0100\n      exp\n      swap1\n      div\n      0xffffffff\n      and\n      swap1\n      dup1\n      0x01\n      add\n      dup1\n      sload\n      tag_49\n      swap1\n      tag_50\n      jump\t// in\n    tag_49:\n      dup1\n      0x1f\n      add\n      0x20\n      dup1\n      swap2\n      div\n      mul\n      0x20\n      add\n      mload(0x40)\n      swap1\n      dup2\n      add\n      0x40\n      mstore\n      dup1\n      swap3\n      swap2\n      swap1\n      dup2\n      dup2\n      mstore\n      0x20\n      add\n      dup3\n      dup1\n      sload\n      tag_51\n      swap1\n      tag_50\n      jump\t// in\n    tag_51:\n      dup1\n      iszero\n      tag_52\n      jumpi\n      dup1\n      0x1f\n      lt\n      tag_53\n      jumpi\n      0x0100\n      dup1\n      dup4\n      sload\n      div\n      mul\n      dup4\n      mstore\n      swap2\n      0x20\n      add\n      swap2\n      jump(tag_52)\n    tag_53:\n      dup3\n      add\n      swap2\n      swap1\n      0x00\n      mstore\n      keccak256(0x00, 0x20)\n      swap1\n    tag_54:\n      dup2\n      sload\n      dup2\n      mstore\n      swap1\n      0x01\n      add\n      swap1\n      0x20\n      add\n      dup1\n      dup4\n      gt\n      tag_54\n      jumpi\n      dup3\n      swap1\n      sub\n      0x1f\n      and\n      dup3\n      add\n      swap2\n    tag_52:\n      pop\n      pop\n      pop\n      pop\n      pop\n      swap1\n      pop\n      dup3\n      jump\t// out\n        /* \"contracts/firstSolidity.sol\":725:796  address public myWalletAdd = 0xE4A976FdEa6CAA37638a4554F3779663535af314 */\n    tag_23:\n      0x04\n      0x00\n      swap1\n      sload\n      swap1\n      0x0100\n      exp\n      swap1\n      div\n      0xffffffffffffffffffffffffffffffffffffffff\n      and\n      dup2\n      jump\t// out\n        /* \"contracts/firstSolidity.sol\":1198:1263  function set(uint num) public{\r... */\n    tag_28:\n        /* \"contracts/firstSolidity.sol\":1252:1255  num */\n      dup1\n        /* \"contracts/firstSolidity.sol\":1238:1249  positiveNum */\n      0x03\n        /* \"contracts/firstSolidity.sol\":1238:1255  positiveNum = num */\n      dup2\n      swap1\n      sstore\n      pop\n        /* \"contracts/firstSolidity.sol\":1198:1263  function set(uint num) public{\r... */\n      pop\n      jump\t// out\n        /* \"contracts/firstSolidity.sol\":1420:1499  function get() public view returns (uint) {\r... */\n    tag_30:\n        /* \"contracts/firstSolidity.sol\":1456:1460  uint */\n      0x00\n        /* \"contracts/firstSolidity.sol\":1480:1491  positiveNum */\n      sload(0x03)\n        /* \"contracts/firstSolidity.sol\":1473:1491  return positiveNum */\n      swap1\n      pop\n        /* \"contracts/firstSolidity.sol\":1420:1499  function get() public view returns (uint) {\r... */\n      swap1\n      jump\t// out\n        /* \"contracts/firstSolidity.sol\":1040:1078  string public Name= \"solidity program\" */\n    tag_34:\n      0x06\n      dup1\n      sload\n      tag_57\n      swap1\n      tag_50\n      jump\t// in\n    tag_57:\n      dup1\n      0x1f\n      add\n      0x20\n      dup1\n      swap2\n      div\n      mul\n      0x20\n      add\n      mload(0x40)\n      swap1\n      dup2\n      add\n      0x40\n      mstore\n      dup1\n      swap3\n      swap2\n      swap1\n      dup2\n      dup2\n      mstore\n      0x20\n      add\n      dup3\n      dup1\n      sload\n      tag_58\n      swap1\n      tag_50\n      jump\t// in\n    tag_58:\n      dup1\n      iszero\n      tag_59\n      jumpi\n      dup1\n      0x1f\n      lt\n      tag_60\n      jumpi\n      0x0100\n      dup1\n      dup4\n      sload\n      div\n      mul\n      dup4\n      mstore\n      swap2\n      0x20\n      add\n      swap2\n      jump(tag_59)\n    tag_60:\n      dup3\n      add\n      swap2\n      swap1\n      0x00\n      mstore\n      keccak256(0x00, 0x20)\n      swap1\n    tag_61:\n      dup2\n      sload\n      dup2\n      mstore\n      swap1\n      0x01\n      add\n      swap1\n      0x20\n      add\n      dup1\n      dup4\n      gt\n      tag_61\n      jumpi\n      dup3\n      swap1\n      sub\n      0x1f\n      and\n      dup3\n      add\n      swap2\n    tag_59:\n      pop\n      pop\n      pop\n      pop\n      pop\n      dup2\n      jump\t// out\n        /* \"contracts/firstSolidity.sol\":1684:1749  Employee public employee1 = Employee({UniqueNum:7,name:\"devesh\"}) */\n    tag_38:\n      0x07\n      dup1\n      0x00\n      add\n      0x00\n      swap1\n      sload\n      swap1\n      0x0100\n      exp\n      swap1\n      div\n      0xffffffff\n      and\n      swap1\n      dup1\n      0x01\n      add\n      dup1\n      sload\n      tag_62\n      swap1\n      tag_50\n      jump\t// in\n    tag_62:\n      dup1\n      0x1f\n      add\n      0x20\n      dup1\n      swap2\n      div\n      mul\n      0x20\n      add\n      mload(0x40)\n      swap1\n      dup2\n      add\n      0x40\n      mstore\n      dup1\n      swap3\n      swap2\n      swap1\n      dup2\n      dup2\n      mstore\n      0x20\n      add\n      dup3\n      dup1\n      sload\n      tag_63\n      swap1\n      tag_50\n      jump\t// in\n    tag_63:\n      dup1\n      iszero\n      tag_64\n      jumpi\n      dup1\n      0x1f\n      lt\n      tag_65\n      jumpi\n      0x0100\n      dup1\n      dup4\n      sload\n      div\n      mul\n      dup4\n      mstore\n      swap2\n      0x20\n      add\n      swap2\n      jump(tag_64)\n    tag_65:\n      dup3\n      add\n      swap2\n      swap1\n      0x00\n      mstore\n      keccak256(0x00, 0x20)\n      swap1\n    tag_66:\n      dup2\n      sload\n      dup2\n      mstore\n      swap1\n      0x01\n      add\n      swap1\n      0x20\n      add\n      dup1\n      dup4\n      gt\n      tag_66\n      jumpi\n      dup3\n      swap1\n      sub\n      0x1f\n      and\n      dup3\n      add\n      swap2\n    tag_64:\n      pop\n      pop\n      pop\n      pop\n      pop\n      swap1\n      pop\n      dup3\n      jump\t// out\n        /* \"contracts/firstSolidity.sol\":1756:1821  Employee public employee2 = Employee({UniqueNum:11,name:\"aarti\"}) */\n    tag_41:\n      0x09\n      dup1\n      0x00\n      add\n      0x00\n      swap1\n      sload\n      swap1\n      0x0100\n      exp\n      swap1\n      div\n      0xffffffff\n      and\n      swap1\n      dup1\n      0x01\n      add\n      dup1\n      sload\n      tag_67\n      swap1\n      tag_50\n      jump\t// in\n    tag_67:\n      dup1\n      0x1f\n      add\n      0x20\n      dup1\n      swap2\n      div\n      mul\n      0x20\n      add\n      mload(0x40)\n      swap1\n      dup2\n      add\n      0x40\n      mstore\n      dup1\n      swap3\n      swap2\n      swap1\n      dup2\n      dup2\n      mstore\n      0x20\n      add\n      dup3\n      dup1\n      sload\n      tag_68\n      swap1\n      tag_50\n      jump\t// in\n    tag_68:\n      dup1\n      iszero\n      tag_69\n      jumpi\n      dup1\n      0x1f\n      lt\n      tag_70\n      jumpi\n      0x0100\n      dup1\n      dup4\n      sload\n      div\n      mul\n      dup4\n      mstore\n      swap2\n      0x20\n      add\n      swap2\n      jump(tag_69)\n    tag_70:\n      dup3\n      add\n      swap2\n      swap1\n      0x00\n      mstore\n      keccak256(0x00, 0x20)\n      swap1\n    tag_71:\n      dup2\n      sload\n      dup2\n      mstore\n      swap1\n      0x01\n      add\n      swap1\n      0x20\n      add\n      dup1\n      dup4\n      gt\n      tag_71\n      jumpi\n      dup3\n      swap1\n      sub\n      0x1f\n      and\n      dup3\n      add\n      swap2\n    tag_69:\n      pop\n      pop\n      pop\n      pop\n      pop\n      swap1\n      pop\n      dup3\n      jump\t// out\n    tag_46:\n      dup3\n      dup1\n      sload\n      tag_72\n      swap1\n      tag_50\n      jump\t// in\n    tag_72:\n      swap1\n      0x00\n      mstore\n      keccak256(0x00, 0x20)\n      swap1\n      0x1f\n      add\n      0x20\n      swap1\n      div\n      dup2\n      add\n      swap3\n      dup3\n      tag_74\n      jumpi\n      0x00\n      dup6\n      sstore\n      jump(tag_73)\n    tag_74:\n      dup3\n      0x1f\n      lt\n      tag_75\n      jumpi\n      dup1\n      mload\n      not(0xff)\n      and\n      dup4\n      dup1\n      add\n      or\n      dup6\n      sstore\n      jump(tag_73)\n    tag_75:\n      dup3\n      dup1\n      add\n      0x01\n      add\n      dup6\n      sstore\n      dup3\n      iszero\n      tag_73\n      jumpi\n      swap2\n      dup3\n      add\n    tag_76:\n      dup3\n      dup2\n      gt\n      iszero\n      tag_77\n      jumpi\n      dup3\n      mload\n      dup3\n      sstore\n      swap2\n      0x20\n      add\n      swap2\n      swap1\n      0x01\n      add\n      swap1\n      jump(tag_76)\n    tag_77:\n    tag_73:\n      pop\n      swap1\n      pop\n      tag_78\n      swap2\n      swap1\n      tag_79\n      jump\t// in\n    tag_78:\n      pop\n      swap1\n      jump\t// out\n    tag_79:\n    tag_80:\n      dup1\n      dup3\n      gt\n      iszero\n      tag_81\n      jumpi\n      0x00\n      dup2\n      0x00\n      swap1\n      sstore\n      pop\n      0x01\n      add\n      jump(tag_80)\n    tag_81:\n      pop\n      swap1\n      jump\t// out\n        /* \"#utility.yul\":7:419   */\n    tag_83:\n        /* \"#utility.yul\":85:90   */\n      0x00\n        /* \"#utility.yul\":110:176   */\n      tag_85\n        /* \"#utility.yul\":126:175   */\n      tag_86\n        /* \"#utility.yul\":168:174   */\n      dup5\n        /* \"#utility.yul\":126:175   */\n      tag_87\n      jump\t// in\n    tag_86:\n        /* \"#utility.yul\":110:176   */\n      tag_88\n      jump\t// in\n    tag_85:\n        /* \"#utility.yul\":101:176   */\n      swap1\n      pop\n        /* \"#utility.yul\":199:205   */\n      dup3\n        /* \"#utility.yul\":192:197   */\n      dup2\n        /* \"#utility.yul\":185:206   */\n      mstore\n        /* \"#utility.yul\":237:241   */\n      0x20\n        /* \"#utility.yul\":230:235   */\n      dup2\n        /* \"#utility.yul\":226:242   */\n      add\n        /* \"#utility.yul\":275:278   */\n      dup5\n        /* \"#utility.yul\":266:272   */\n      dup5\n        /* \"#utility.yul\":261:264   */\n      dup5\n        /* \"#utility.yul\":257:273   */\n      add\n        /* \"#utility.yul\":254:279   */\n      gt\n        /* \"#utility.yul\":251:363   */\n      iszero\n      tag_89\n      jumpi\n        /* \"#utility.yul\":282:361   */\n      tag_90\n      tag_91\n      jump\t// in\n    tag_90:\n        /* \"#utility.yul\":251:363   */\n    tag_89:\n        /* \"#utility.yul\":372:413   */\n      tag_92\n        /* \"#utility.yul\":406:412   */\n      dup5\n        /* \"#utility.yul\":401:404   */\n      dup3\n        /* \"#utility.yul\":396:399   */\n      dup6\n        /* \"#utility.yul\":372:413   */\n      tag_93\n      jump\t// in\n    tag_92:\n        /* \"#utility.yul\":91:419   */\n      pop\n        /* \"#utility.yul\":7:419   */\n      swap4\n      swap3\n      pop\n      pop\n      pop\n      jump\t// out\n        /* \"#utility.yul\":439:779   */\n    tag_94:\n        /* \"#utility.yul\":495:500   */\n      0x00\n        /* \"#utility.yul\":544:547   */\n      dup3\n        /* \"#utility.yul\":537:541   */\n      0x1f\n        /* \"#utility.yul\":529:535   */\n      dup4\n        /* \"#utility.yul\":525:542   */\n      add\n        /* \"#utility.yul\":521:548   */\n      slt\n        /* \"#utility.yul\":511:633   */\n      tag_96\n      jumpi\n        /* \"#utility.yul\":552:631   */\n      tag_97\n      tag_98\n      jump\t// in\n    tag_97:\n        /* \"#utility.yul\":511:633   */\n    tag_96:\n        /* \"#utility.yul\":669:675   */\n      dup2\n        /* \"#utility.yul\":656:676   */\n      calldataload\n        /* \"#utility.yul\":694:773   */\n      tag_99\n        /* \"#utility.yul\":769:772   */\n      dup5\n        /* \"#utility.yul\":761:767   */\n      dup3\n        /* \"#utility.yul\":754:758   */\n      0x20\n        /* \"#utility.yul\":746:752   */\n      dup7\n        /* \"#utility.yul\":742:759   */\n      add\n        /* \"#utility.yul\":694:773   */\n      tag_83\n      jump\t// in\n    tag_99:\n        /* \"#utility.yul\":685:773   */\n      swap2\n      pop\n        /* \"#utility.yul\":501:779   */\n      pop\n        /* \"#utility.yul\":439:779   */\n      swap3\n      swap2\n      pop\n      pop\n      jump\t// out\n        /* \"#utility.yul\":785:924   */\n    tag_100:\n        /* \"#utility.yul\":831:836   */\n      0x00\n        /* \"#utility.yul\":869:875   */\n      dup2\n        /* \"#utility.yul\":856:876   */\n      calldataload\n        /* \"#utility.yul\":847:876   */\n      swap1\n      pop\n        /* \"#utility.yul\":885:918   */\n      tag_102\n        /* \"#utility.yul\":912:917   */\n      dup2\n        /* \"#utility.yul\":885:918   */\n      tag_103\n      jump\t// in\n    tag_102:\n        /* \"#utility.yul\":785:924   */\n      swap3\n      swap2\n      pop\n      pop\n      jump\t// out\n        /* \"#utility.yul\":930:1067   */\n    tag_104:\n        /* \"#utility.yul\":975:980   */\n      0x00\n        /* \"#utility.yul\":1013:1019   */\n      dup2\n        /* \"#utility.yul\":1000:1020   */\n      calldataload\n        /* \"#utility.yul\":991:1020   */\n      swap1\n      pop\n        /* \"#utility.yul\":1029:1061   */\n      tag_106\n        /* \"#utility.yul\":1055:1060   */\n      dup2\n        /* \"#utility.yul\":1029:1061   */\n      tag_107\n      jump\t// in\n    tag_106:\n        /* \"#utility.yul\":930:1067   */\n      swap3\n      swap2\n      pop\n      pop\n      jump\t// out\n        /* \"#utility.yul\":1073:1402   */\n    tag_18:\n        /* \"#utility.yul\":1132:1138   */\n      0x00\n        /* \"#utility.yul\":1181:1183   */\n      0x20\n        /* \"#utility.yul\":1169:1178   */\n      dup3\n        /* \"#utility.yul\":1160:1167   */\n      dup5\n        /* \"#utility.yul\":1156:1179   */\n      sub\n        /* \"#utility.yul\":1152:1184   */\n      slt\n        /* \"#utility.yul\":1149:1268   */\n      iszero\n      tag_109\n      jumpi\n        /* \"#utility.yul\":1187:1266   */\n      tag_110\n      tag_111\n      jump\t// in\n    tag_110:\n        /* \"#utility.yul\":1149:1268   */\n    tag_109:\n        /* \"#utility.yul\":1307:1308   */\n      0x00\n        /* \"#utility.yul\":1332:1385   */\n      tag_112\n        /* \"#utility.yul\":1377:1384   */\n      dup5\n        /* \"#utility.yul\":1368:1374   */\n      dup3\n        /* \"#utility.yul\":1357:1366   */\n      dup6\n        /* \"#utility.yul\":1353:1375   */\n      add\n        /* \"#utility.yul\":1332:1385   */\n      tag_100\n      jump\t// in\n    tag_112:\n        /* \"#utility.yul\":1322:1385   */\n      swap2\n      pop\n        /* \"#utility.yul\":1278:1395   */\n      pop\n        /* \"#utility.yul\":1073:1402   */\n      swap3\n      swap2\n      pop\n      pop\n      jump\t// out\n        /* \"#utility.yul\":1408:2060   */\n    tag_14:\n        /* \"#utility.yul\":1485:1491   */\n      0x00\n        /* \"#utility.yul\":1493:1499   */\n      dup1\n        /* \"#utility.yul\":1542:1544   */\n      0x40\n        /* \"#utility.yul\":1530:1539   */\n      dup4\n        /* \"#utility.yul\":1521:1528   */\n      dup6\n        /* \"#utility.yul\":1517:1540   */\n      sub\n        /* \"#utility.yul\":1513:1545   */\n      slt\n        /* \"#utility.yul\":1510:1629   */\n      iszero\n      tag_114\n      jumpi\n        /* \"#utility.yul\":1548:1627   */\n      tag_115\n      tag_111\n      jump\t// in\n    tag_115:\n        /* \"#utility.yul\":1510:1629   */\n    tag_114:\n        /* \"#utility.yul\":1668:1669   */\n      0x00\n        /* \"#utility.yul\":1693:1745   */\n      tag_116\n        /* \"#utility.yul\":1737:1744   */\n      dup6\n        /* \"#utility.yul\":1728:1734   */\n      dup3\n        /* \"#utility.yul\":1717:1726   */\n      dup7\n        /* \"#utility.yul\":1713:1735   */\n      add\n        /* \"#utility.yul\":1693:1745   */\n      tag_104\n      jump\t// in\n    tag_116:\n        /* \"#utility.yul\":1683:1745   */\n      swap3\n      pop\n        /* \"#utility.yul\":1639:1755   */\n      pop\n        /* \"#utility.yul\":1822:1824   */\n      0x20\n        /* \"#utility.yul\":1811:1820   */\n      dup4\n        /* \"#utility.yul\":1807:1825   */\n      add\n        /* \"#utility.yul\":1794:1826   */\n      calldataload\n        /* \"#utility.yul\":1853:1871   */\n      0xffffffffffffffff\n        /* \"#utility.yul\":1845:1851   */\n      dup2\n        /* \"#utility.yul\":1842:1872   */\n      gt\n        /* \"#utility.yul\":1839:1956   */\n      iszero\n      tag_117\n      jumpi\n        /* \"#utility.yul\":1875:1954   */\n      tag_118\n      tag_119\n      jump\t// in\n    tag_118:\n        /* \"#utility.yul\":1839:1956   */\n    tag_117:\n        /* \"#utility.yul\":1980:2043   */\n      tag_120\n        /* \"#utility.yul\":2035:2042   */\n      dup6\n        /* \"#utility.yul\":2026:2032   */\n      dup3\n        /* \"#utility.yul\":2015:2024   */\n      dup7\n        /* \"#utility.yul\":2011:2033   */\n      add\n        /* \"#utility.yul\":1980:2043   */\n      tag_94\n      jump\t// in\n    tag_120:\n        /* \"#utility.yul\":1970:2043   */\n      swap2\n      pop\n        /* \"#utility.yul\":1765:2053   */\n      pop\n        /* \"#utility.yul\":1408:2060   */\n      swap3\n      pop\n      swap3\n      swap1\n      pop\n      jump\t// out\n        /* \"#utility.yul\":2066:2184   */\n    tag_121:\n        /* \"#utility.yul\":2153:2177   */\n      tag_123\n        /* \"#utility.yul\":2171:2176   */\n      dup2\n        /* \"#utility.yul\":2153:2177   */\n      tag_124\n      jump\t// in\n    tag_123:\n        /* \"#utility.yul\":2148:2151   */\n      dup3\n        /* \"#utility.yul\":2141:2178   */\n      mstore\n        /* \"#utility.yul\":2066:2184   */\n      pop\n      pop\n      jump\t// out\n        /* \"#utility.yul\":2190:2554   */\n    tag_125:\n        /* \"#utility.yul\":2278:2281   */\n      0x00\n        /* \"#utility.yul\":2306:2345   */\n      tag_127\n        /* \"#utility.yul\":2339:2344   */\n      dup3\n        /* \"#utility.yul\":2306:2345   */\n      tag_128\n      jump\t// in\n    tag_127:\n        /* \"#utility.yul\":2361:2432   */\n      tag_129\n        /* \"#utility.yul\":2425:2431   */\n      dup2\n        /* \"#utility.yul\":2420:2423   */\n      dup6\n        /* \"#utility.yul\":2361:2432   */\n      tag_130\n      jump\t// in\n    tag_129:\n        /* \"#utility.yul\":2354:2432   */\n      swap4\n      pop\n        /* \"#utility.yul\":2441:2493   */\n      tag_131\n        /* \"#utility.yul\":2486:2492   */\n      dup2\n        /* \"#utility.yul\":2481:2484   */\n      dup6\n        /* \"#utility.yul\":2474:2478   */\n      0x20\n        /* \"#utility.yul\":2467:2472   */\n      dup7\n        /* \"#utility.yul\":2463:2479   */\n      add\n        /* \"#utility.yul\":2441:2493   */\n      tag_132\n      jump\t// in\n    tag_131:\n        /* \"#utility.yul\":2518:2547   */\n      tag_133\n        /* \"#utility.yul\":2540:2546   */\n      dup2\n        /* \"#utility.yul\":2518:2547   */\n      tag_134\n      jump\t// in\n    tag_133:\n        /* \"#utility.yul\":2513:2516   */\n      dup5\n        /* \"#utility.yul\":2509:2548   */\n      add\n        /* \"#utility.yul\":2502:2548   */\n      swap2\n      pop\n        /* \"#utility.yul\":2282:2554   */\n      pop\n        /* \"#utility.yul\":2190:2554   */\n      swap3\n      swap2\n      pop\n      pop\n      jump\t// out\n        /* \"#utility.yul\":2560:2678   */\n    tag_135:\n        /* \"#utility.yul\":2647:2671   */\n      tag_137\n        /* \"#utility.yul\":2665:2670   */\n      dup2\n        /* \"#utility.yul\":2647:2671   */\n      tag_138\n      jump\t// in\n    tag_137:\n        /* \"#utility.yul\":2642:2645   */\n      dup3\n        /* \"#utility.yul\":2635:2672   */\n      mstore\n        /* \"#utility.yul\":2560:2678   */\n      pop\n      pop\n      jump\t// out\n        /* \"#utility.yul\":2684:2799   */\n    tag_139:\n        /* \"#utility.yul\":2769:2792   */\n      tag_141\n        /* \"#utility.yul\":2786:2791   */\n      dup2\n        /* \"#utility.yul\":2769:2792   */\n      tag_142\n      jump\t// in\n    tag_141:\n        /* \"#utility.yul\":2764:2767   */\n      dup3\n        /* \"#utility.yul\":2757:2793   */\n      mstore\n        /* \"#utility.yul\":2684:2799   */\n      pop\n      pop\n      jump\t// out\n        /* \"#utility.yul\":2805:3027   */\n    tag_25:\n        /* \"#utility.yul\":2898:2902   */\n      0x00\n        /* \"#utility.yul\":2936:2938   */\n      0x20\n        /* \"#utility.yul\":2925:2934   */\n      dup3\n        /* \"#utility.yul\":2921:2939   */\n      add\n        /* \"#utility.yul\":2913:2939   */\n      swap1\n      pop\n        /* \"#utility.yul\":2949:3020   */\n      tag_144\n        /* \"#utility.yul\":3017:3018   */\n      0x00\n        /* \"#utility.yul\":3006:3015   */\n      dup4\n        /* \"#utility.yul\":3002:3019   */\n      add\n        /* \"#utility.yul\":2993:2999   */\n      dup5\n        /* \"#utility.yul\":2949:3020   */\n      tag_121\n      jump\t// in\n    tag_144:\n        /* \"#utility.yul\":2805:3027   */\n      swap3\n      swap2\n      pop\n      pop\n      jump\t// out\n        /* \"#utility.yul\":3033:3346   */\n    tag_36:\n        /* \"#utility.yul\":3146:3150   */\n      0x00\n        /* \"#utility.yul\":3184:3186   */\n      0x20\n        /* \"#utility.yul\":3173:3182   */\n      dup3\n        /* \"#utility.yul\":3169:3187   */\n      add\n        /* \"#utility.yul\":3161:3187   */\n      swap1\n      pop\n        /* \"#utility.yul\":3233:3242   */\n      dup2\n        /* \"#utility.yul\":3227:3231   */\n      dup2\n        /* \"#utility.yul\":3223:3243   */\n      sub\n        /* \"#utility.yul\":3219:3220   */\n      0x00\n        /* \"#utility.yul\":3208:3217   */\n      dup4\n        /* \"#utility.yul\":3204:3221   */\n      add\n        /* \"#utility.yul\":3197:3244   */\n      mstore\n        /* \"#utility.yul\":3261:3339   */\n      tag_146\n        /* \"#utility.yul\":3334:3338   */\n      dup2\n        /* \"#utility.yul\":3325:3331   */\n      dup5\n        /* \"#utility.yul\":3261:3339   */\n      tag_125\n      jump\t// in\n    tag_146:\n        /* \"#utility.yul\":3253:3339   */\n      swap1\n      pop\n        /* \"#utility.yul\":3033:3346   */\n      swap3\n      swap2\n      pop\n      pop\n      jump\t// out\n        /* \"#utility.yul\":3352:3574   */\n    tag_32:\n        /* \"#utility.yul\":3445:3449   */\n      0x00\n        /* \"#utility.yul\":3483:3485   */\n      0x20\n        /* \"#utility.yul\":3472:3481   */\n      dup3\n        /* \"#utility.yul\":3468:3486   */\n      add\n        /* \"#utility.yul\":3460:3486   */\n      swap1\n      pop\n        /* \"#utility.yul\":3496:3567   */\n      tag_148\n        /* \"#utility.yul\":3564:3565   */\n      0x00\n        /* \"#utility.yul\":3553:3562   */\n      dup4\n        /* \"#utility.yul\":3549:3566   */\n      add\n        /* \"#utility.yul\":3540:3546   */\n      dup5\n        /* \"#utility.yul\":3496:3567   */\n      tag_135\n      jump\t// in\n    tag_148:\n        /* \"#utility.yul\":3352:3574   */\n      swap3\n      swap2\n      pop\n      pop\n      jump\t// out\n        /* \"#utility.yul\":3580:3999   */\n    tag_21:\n        /* \"#utility.yul\":3719:3723   */\n      0x00\n        /* \"#utility.yul\":3757:3759   */\n      0x40\n        /* \"#utility.yul\":3746:3755   */\n      dup3\n        /* \"#utility.yul\":3742:3760   */\n      add\n        /* \"#utility.yul\":3734:3760   */\n      swap1\n      pop\n        /* \"#utility.yul\":3770:3839   */\n      tag_150\n        /* \"#utility.yul\":3836:3837   */\n      0x00\n        /* \"#utility.yul\":3825:3834   */\n      dup4\n        /* \"#utility.yul\":3821:3838   */\n      add\n        /* \"#utility.yul\":3812:3818   */\n      dup6\n        /* \"#utility.yul\":3770:3839   */\n      tag_139\n      jump\t// in\n    tag_150:\n        /* \"#utility.yul\":3886:3895   */\n      dup2\n        /* \"#utility.yul\":3880:3884   */\n      dup2\n        /* \"#utility.yul\":3876:3896   */\n      sub\n        /* \"#utility.yul\":3871:3873   */\n      0x20\n        /* \"#utility.yul\":3860:3869   */\n      dup4\n        /* \"#utility.yul\":3856:3874   */\n      add\n        /* \"#utility.yul\":3849:3897   */\n      mstore\n        /* \"#utility.yul\":3914:3992   */\n      tag_151\n        /* \"#utility.yul\":3987:3991   */\n      dup2\n        /* \"#utility.yul\":3978:3984   */\n      dup5\n        /* \"#utility.yul\":3914:3992   */\n      tag_125\n      jump\t// in\n    tag_151:\n        /* \"#utility.yul\":3906:3992   */\n      swap1\n      pop\n        /* \"#utility.yul\":3580:3999   */\n      swap4\n      swap3\n      pop\n      pop\n      pop\n      jump\t// out\n        /* \"#utility.yul\":4005:4134   */\n    tag_88:\n        /* \"#utility.yul\":4039:4045   */\n      0x00\n        /* \"#utility.yul\":4066:4086   */\n      tag_153\n      tag_154\n      jump\t// in\n    tag_153:\n        /* \"#utility.yul\":4056:4086   */\n      swap1\n      pop\n        /* \"#utility.yul\":4095:4128   */\n      tag_155\n        /* \"#utility.yul\":4123:4127   */\n      dup3\n        /* \"#utility.yul\":4115:4121   */\n      dup3\n        /* \"#utility.yul\":4095:4128   */\n      tag_156\n      jump\t// in\n    tag_155:\n        /* \"#utility.yul\":4005:4134   */\n      swap2\n      swap1\n      pop\n      jump\t// out\n        /* \"#utility.yul\":4140:4215   */\n    tag_154:\n        /* \"#utility.yul\":4173:4179   */\n      0x00\n        /* \"#utility.yul\":4206:4208   */\n      0x40\n        /* \"#utility.yul\":4200:4209   */\n      mload\n        /* \"#utility.yul\":4190:4209   */\n      swap1\n      pop\n        /* \"#utility.yul\":4140:4215   */\n      swap1\n      jump\t// out\n        /* \"#utility.yul\":4221:4529   */\n    tag_87:\n        /* \"#utility.yul\":4283:4287   */\n      0x00\n        /* \"#utility.yul\":4373:4391   */\n      0xffffffffffffffff\n        /* \"#utility.yul\":4365:4371   */\n      dup3\n        /* \"#utility.yul\":4362:4392   */\n      gt\n        /* \"#utility.yul\":4359:4415   */\n      iszero\n      tag_159\n      jumpi\n        /* \"#utility.yul\":4395:4413   */\n      tag_160\n      tag_161\n      jump\t// in\n    tag_160:\n        /* \"#utility.yul\":4359:4415   */\n    tag_159:\n        /* \"#utility.yul\":4433:4462   */\n      tag_162\n        /* \"#utility.yul\":4455:4461   */\n      dup3\n        /* \"#utility.yul\":4433:4462   */\n      tag_134\n      jump\t// in\n    tag_162:\n        /* \"#utility.yul\":4425:4462   */\n      swap1\n      pop\n        /* \"#utility.yul\":4517:4521   */\n      0x20\n        /* \"#utility.yul\":4511:4515   */\n      dup2\n        /* \"#utility.yul\":4507:4522   */\n      add\n        /* \"#utility.yul\":4499:4522   */\n      swap1\n      pop\n        /* \"#utility.yul\":4221:4529   */\n      swap2\n      swap1\n      pop\n      jump\t// out\n        /* \"#utility.yul\":4535:4634   */\n    tag_128:\n        /* \"#utility.yul\":4587:4593   */\n      0x00\n        /* \"#utility.yul\":4621:4626   */\n      dup2\n        /* \"#utility.yul\":4615:4627   */\n      mload\n        /* \"#utility.yul\":4605:4627   */\n      swap1\n      pop\n        /* \"#utility.yul\":4535:4634   */\n      swap2\n      swap1\n      pop\n      jump\t// out\n        /* \"#utility.yul\":4640:4809   */\n    tag_130:\n        /* \"#utility.yul\":4724:4735   */\n      0x00\n        /* \"#utility.yul\":4758:4764   */\n      dup3\n        /* \"#utility.yul\":4753:4756   */\n      dup3\n        /* \"#utility.yul\":4746:4765   */\n      mstore\n        /* \"#utility.yul\":4798:4802   */\n      0x20\n        /* \"#utility.yul\":4793:4796   */\n      dup3\n        /* \"#utility.yul\":4789:4803   */\n      add\n        /* \"#utility.yul\":4774:4803   */\n      swap1\n      pop\n        /* \"#utility.yul\":4640:4809   */\n      swap3\n      swap2\n      pop\n      pop\n      jump\t// out\n        /* \"#utility.yul\":4815:4911   */\n    tag_124:\n        /* \"#utility.yul\":4852:4859   */\n      0x00\n        /* \"#utility.yul\":4881:4905   */\n      tag_166\n        /* \"#utility.yul\":4899:4904   */\n      dup3\n        /* \"#utility.yul\":4881:4905   */\n      tag_167\n      jump\t// in\n    tag_166:\n        /* \"#utility.yul\":4870:4905   */\n      swap1\n      pop\n        /* \"#utility.yul\":4815:4911   */\n      swap2\n      swap1\n      pop\n      jump\t// out\n        /* \"#utility.yul\":4917:5043   */\n    tag_167:\n        /* \"#utility.yul\":4954:4961   */\n      0x00\n        /* \"#utility.yul\":4994:5036   */\n      0xffffffffffffffffffffffffffffffffffffffff\n        /* \"#utility.yul\":4987:4992   */\n      dup3\n        /* \"#utility.yul\":4983:5037   */\n      and\n        /* \"#utility.yul\":4972:5037   */\n      swap1\n      pop\n        /* \"#utility.yul\":4917:5043   */\n      swap2\n      swap1\n      pop\n      jump\t// out\n        /* \"#utility.yul\":5049:5126   */\n    tag_138:\n        /* \"#utility.yul\":5086:5093   */\n      0x00\n        /* \"#utility.yul\":5115:5120   */\n      dup2\n        /* \"#utility.yul\":5104:5120   */\n      swap1\n      pop\n        /* \"#utility.yul\":5049:5126   */\n      swap2\n      swap1\n      pop\n      jump\t// out\n        /* \"#utility.yul\":5132:5225   */\n    tag_142:\n        /* \"#utility.yul\":5168:5175   */\n      0x00\n        /* \"#utility.yul\":5208:5218   */\n      0xffffffff\n        /* \"#utility.yul\":5201:5206   */\n      dup3\n        /* \"#utility.yul\":5197:5219   */\n      and\n        /* \"#utility.yul\":5186:5219   */\n      swap1\n      pop\n        /* \"#utility.yul\":5132:5225   */\n      swap2\n      swap1\n      pop\n      jump\t// out\n        /* \"#utility.yul\":5231:5385   */\n    tag_93:\n        /* \"#utility.yul\":5315:5321   */\n      dup3\n        /* \"#utility.yul\":5310:5313   */\n      dup2\n        /* \"#utility.yul\":5305:5308   */\n      dup4\n        /* \"#utility.yul\":5292:5322   */\n      calldatacopy\n        /* \"#utility.yul\":5377:5378   */\n      0x00\n        /* \"#utility.yul\":5368:5374   */\n      dup4\n        /* \"#utility.yul\":5363:5366   */\n      dup4\n        /* \"#utility.yul\":5359:5375   */\n      add\n        /* \"#utility.yul\":5352:5379   */\n      mstore\n        /* \"#utility.yul\":5231:5385   */\n      pop\n      pop\n      pop\n      jump\t// out\n        /* \"#utility.yul\":5391:5698   */\n    tag_132:\n        /* \"#utility.yul\":5459:5460   */\n      0x00\n        /* \"#utility.yul\":5469:5582   */\n    tag_173:\n        /* \"#utility.yul\":5483:5489   */\n      dup4\n        /* \"#utility.yul\":5480:5481   */\n      dup2\n        /* \"#utility.yul\":5477:5490   */\n      lt\n        /* \"#utility.yul\":5469:5582   */\n      iszero\n      tag_175\n      jumpi\n        /* \"#utility.yul\":5568:5569   */\n      dup1\n        /* \"#utility.yul\":5563:5566   */\n      dup3\n        /* \"#utility.yul\":5559:5570   */\n      add\n        /* \"#utility.yul\":5553:5571   */\n      mload\n        /* \"#utility.yul\":5549:5550   */\n      dup2\n        /* \"#utility.yul\":5544:5547   */\n      dup5\n        /* \"#utility.yul\":5540:5551   */\n      add\n        /* \"#utility.yul\":5533:5572   */\n      mstore\n        /* \"#utility.yul\":5505:5507   */\n      0x20\n        /* \"#utility.yul\":5502:5503   */\n      dup2\n        /* \"#utility.yul\":5498:5508   */\n      add\n        /* \"#utility.yul\":5493:5508   */\n      swap1\n      pop\n        /* \"#utility.yul\":5469:5582   */\n      jump(tag_173)\n    tag_175:\n        /* \"#utility.yul\":5600:5606   */\n      dup4\n        /* \"#utility.yul\":5597:5598   */\n      dup2\n        /* \"#utility.yul\":5594:5607   */\n      gt\n        /* \"#utility.yul\":5591:5692   */\n      iszero\n      tag_176\n      jumpi\n        /* \"#utility.yul\":5680:5681   */\n      0x00\n        /* \"#utility.yul\":5671:5677   */\n      dup5\n        /* \"#utility.yul\":5666:5669   */\n      dup5\n        /* \"#utility.yul\":5662:5678   */\n      add\n        /* \"#utility.yul\":5655:5682   */\n      mstore\n        /* \"#utility.yul\":5591:5692   */\n    tag_176:\n        /* \"#utility.yul\":5440:5698   */\n      pop\n        /* \"#utility.yul\":5391:5698   */\n      pop\n      pop\n      pop\n      jump\t// out\n        /* \"#utility.yul\":5704:6024   */\n    tag_50:\n        /* \"#utility.yul\":5748:5754   */\n      0x00\n        /* \"#utility.yul\":5785:5786   */\n      0x02\n        /* \"#utility.yul\":5779:5783   */\n      dup3\n        /* \"#utility.yul\":5775:5787   */\n      div\n        /* \"#utility.yul\":5765:5787   */\n      swap1\n      pop\n        /* \"#utility.yul\":5832:5833   */\n      0x01\n        /* \"#utility.yul\":5826:5830   */\n      dup3\n        /* \"#utility.yul\":5822:5834   */\n      and\n        /* \"#utility.yul\":5853:5871   */\n      dup1\n        /* \"#utility.yul\":5843:5924   */\n      tag_178\n      jumpi\n        /* \"#utility.yul\":5909:5913   */\n      0x7f\n        /* \"#utility.yul\":5901:5907   */\n      dup3\n        /* \"#utility.yul\":5897:5914   */\n      and\n        /* \"#utility.yul\":5887:5914   */\n      swap2\n      pop\n        /* \"#utility.yul\":5843:5924   */\n    tag_178:\n        /* \"#utility.yul\":5971:5973   */\n      0x20\n        /* \"#utility.yul\":5963:5969   */\n      dup3\n        /* \"#utility.yul\":5960:5974   */\n      lt\n        /* \"#utility.yul\":5940:5958   */\n      dup2\n        /* \"#utility.yul\":5937:5975   */\n      eq\n        /* \"#utility.yul\":5934:6018   */\n      iszero\n      tag_179\n      jumpi\n        /* \"#utility.yul\":5990:6008   */\n      tag_180\n      tag_181\n      jump\t// in\n    tag_180:\n        /* \"#utility.yul\":5934:6018   */\n    tag_179:\n        /* \"#utility.yul\":5755:6024   */\n      pop\n        /* \"#utility.yul\":5704:6024   */\n      swap2\n      swap1\n      pop\n      jump\t// out\n        /* \"#utility.yul\":6030:6311   */\n    tag_156:\n        /* \"#utility.yul\":6113:6140   */\n      tag_183\n        /* \"#utility.yul\":6135:6139   */\n      dup3\n        /* \"#utility.yul\":6113:6140   */\n      tag_134\n      jump\t// in\n    tag_183:\n        /* \"#utility.yul\":6105:6111   */\n      dup2\n        /* \"#utility.yul\":6101:6141   */\n      add\n        /* \"#utility.yul\":6243:6249   */\n      dup2\n        /* \"#utility.yul\":6231:6241   */\n      dup2\n        /* \"#utility.yul\":6228:6250   */\n      lt\n        /* \"#utility.yul\":6207:6225   */\n      0xffffffffffffffff\n        /* \"#utility.yul\":6195:6205   */\n      dup3\n        /* \"#utility.yul\":6192:6226   */\n      gt\n        /* \"#utility.yul\":6189:6251   */\n      or\n        /* \"#utility.yul\":6186:6274   */\n      iszero\n      tag_184\n      jumpi\n        /* \"#utility.yul\":6254:6272   */\n      tag_185\n      tag_161\n      jump\t// in\n    tag_185:\n        /* \"#utility.yul\":6186:6274   */\n    tag_184:\n        /* \"#utility.yul\":6294:6304   */\n      dup1\n        /* \"#utility.yul\":6290:6292   */\n      0x40\n        /* \"#utility.yul\":6283:6305   */\n      mstore\n        /* \"#utility.yul\":6073:6311   */\n      pop\n        /* \"#utility.yul\":6030:6311   */\n      pop\n      pop\n      jump\t// out\n        /* \"#utility.yul\":6317:6497   */\n    tag_181:\n        /* \"#utility.yul\":6365:6442   */\n      0x4e487b7100000000000000000000000000000000000000000000000000000000\n        /* \"#utility.yul\":6362:6363   */\n      0x00\n        /* \"#utility.yul\":6355:6443   */\n      mstore\n        /* \"#utility.yul\":6462:6466   */\n      0x22\n        /* \"#utility.yul\":6459:6460   */\n      0x04\n        /* \"#utility.yul\":6452:6467   */\n      mstore\n        /* \"#utility.yul\":6486:6490   */\n      0x24\n        /* \"#utility.yul\":6483:6484   */\n      0x00\n        /* \"#utility.yul\":6476:6491   */\n      revert\n        /* \"#utility.yul\":6503:6683   */\n    tag_161:\n        /* \"#utility.yul\":6551:6628   */\n      0x4e487b7100000000000000000000000000000000000000000000000000000000\n        /* \"#utility.yul\":6548:6549   */\n      0x00\n        /* \"#utility.yul\":6541:6629   */\n      mstore\n        /* \"#utility.yul\":6648:6652   */\n      0x41\n        /* \"#utility.yul\":6645:6646   */\n      0x04\n        /* \"#utility.yul\":6638:6653   */\n      mstore\n        /* \"#utility.yul\":6672:6676   */\n      0x24\n        /* \"#utility.yul\":6669:6670   */\n      0x00\n        /* \"#utility.yul\":6662:6677   */\n      revert\n        /* \"#utility.yul\":6689:6806   */\n    tag_98:\n        /* \"#utility.yul\":6798:6799   */\n      0x00\n        /* \"#utility.yul\":6795:6796   */\n      dup1\n        /* \"#utility.yul\":6788:6800   */\n      revert\n        /* \"#utility.yul\":6812:6929   */\n    tag_91:\n        /* \"#utility.yul\":6921:6922   */\n      0x00\n        /* \"#utility.yul\":6918:6919   */\n      dup1\n        /* \"#utility.yul\":6911:6923   */\n      revert\n        /* \"#utility.yul\":6935:7052   */\n    tag_119:\n        /* \"#utility.yul\":7044:7045   */\n      0x00\n        /* \"#utility.yul\":7041:7042   */\n      dup1\n        /* \"#utility.yul\":7034:7046   */\n      revert\n        /* \"#utility.yul\":7058:7175   */\n    tag_111:\n        /* \"#utility.yul\":7167:7168   */\n      0x00\n        /* \"#utility.yul\":7164:7165   */\n      dup1\n        /* \"#utility.yul\":7157:7169   */\n      revert\n        /* \"#utility.yul\":7181:7283   */\n    tag_134:\n        /* \"#utility.yul\":7222:7228   */\n      0x00\n        /* \"#utility.yul\":7273:7275   */\n      0x1f\n        /* \"#utility.yul\":7269:7276   */\n      not\n        /* \"#utility.yul\":7264:7266   */\n      0x1f\n        /* \"#utility.yul\":7257:7262   */\n      dup4\n        /* \"#utility.yul\":7253:7267   */\n      add\n        /* \"#utility.yul\":7249:7277   */\n      and\n        /* \"#utility.yul\":7239:7277   */\n      swap1\n      pop\n        /* \"#utility.yul\":7181:7283   */\n      swap2\n      swap1\n      pop\n      jump\t// out\n        /* \"#utility.yul\":7289:7411   */\n    tag_103:\n        /* \"#utility.yul\":7362:7386   */\n      tag_194\n        /* \"#utility.yul\":7380:7385   */\n      dup2\n        /* \"#utility.yul\":7362:7386   */\n      tag_138\n      jump\t// in\n    tag_194:\n        /* \"#utility.yul\":7355:7360   */\n      dup2\n        /* \"#utility.yul\":7352:7387   */\n      eq\n        /* \"#utility.yul\":7342:7405   */\n      tag_195\n      jumpi\n        /* \"#utility.yul\":7401:7402   */\n      0x00\n        /* \"#utility.yul\":7398:7399   */\n      dup1\n        /* \"#utility.yul\":7391:7403   */\n      revert\n        /* \"#utility.yul\":7342:7405   */\n    tag_195:\n        /* \"#utility.yul\":7289:7411   */\n      pop\n      jump\t// out\n        /* \"#utility.yul\":7417:7537   */\n    tag_107:\n        /* \"#utility.yul\":7489:7512   */\n      tag_197\n        /* \"#utility.yul\":7506:7511   */\n      dup2\n        /* \"#utility.yul\":7489:7512   */\n      tag_142\n      jump\t// in\n    tag_197:\n        /* \"#utility.yul\":7482:7487   */\n      dup2\n        /* \"#utility.yul\":7479:7513   */\n      eq\n        /* \"#utility.yul\":7469:7531   */\n      tag_198\n      jumpi\n        /* \"#utility.yul\":7527:7528   */\n      0x00\n        /* \"#utility.yul\":7524:7525   */\n      dup1\n        /* \"#utility.yul\":7517:7529   */\n      revert\n        /* \"#utility.yul\":7469:7531   */\n    tag_198:\n        /* \"#utility.yul\":7417:7537   */\n      pop\n      jump\t// out\n\n    auxdata: 0xa26469706673582212202df51ab62a217e01558892a432911edb396e25e329f20e203bd448d58de41ca864736f6c63430008070033\n}\n",
				"bytecode": {
					"linkReferences": {},
					"object": "608060405260016000806101000a81548160ff0219169083151502179055507fffffffffffffffffffffffffffffffffffffffffffffffffffffffffffffff85600155607b60035573e4a976fdea6caa37638a4554f3779663535af314600460006101000a81548173ffffffffffffffffffffffffffffffffffffffff021916908373ffffffffffffffffffffffffffffffffffffffff1602179055507f737570706f7365206e616d65206f722066696c650000000000000000000000006005556040518060400160405280601081526020017f736f6c69646974792070726f6772616d00000000000000000000000000000000815250600690805190602001906200010d92919062000258565b506040518060400160405280600763ffffffff1681526020016040518060400160405280600681526020017f6465766573680000000000000000000000000000000000000000000000000000815250815250600760008201518160000160006101000a81548163ffffffff021916908363ffffffff1602179055506020820151816001019080519060200190620001a692919062000258565b5050506040518060400160405280600b63ffffffff1681526020016040518060400160405280600581526020017f6161727469000000000000000000000000000000000000000000000000000000815250815250600960008201518160000160006101000a81548163ffffffff021916908363ffffffff16021790555060208201518160010190805190602001906200024192919062000258565b5050503480156200025157600080fd5b506200036d565b828054620002669062000308565b90600052602060002090601f0160209004810192826200028a5760008555620002d6565b82601f10620002a557805160ff1916838001178555620002d6565b82800160010185558215620002d6579182015b82811115620002d5578251825591602001919060010190620002b8565b5b509050620002e59190620002e9565b5090565b5b8082111562000304576000816000905550600101620002ea565b5090565b600060028204905060018216806200032157607f821691505b602082108114156200033857620003376200033e565b5b50919050565b7f4e487b7100000000000000000000000000000000000000000000000000000000600052602260045260246000fd5b610a0a806200037d6000396000f3fe608060405234801561001057600080fd5b50600436106100885760003560e01c80636d4ce63c1161005b5780636d4ce63c146101145780638052474d14610132578063b75113b114610150578063ca5a7ce01461016f57610088565b806303797a0b1461008d5780630a81eeb9146100a95780634d96a003146100da57806360fe47b1146100f8575b600080fd5b6100a760048036038101906100a29190610676565b61018e565b005b6100c360048036038101906100be9190610649565b610224565b6040516100d1929190610790565b60405180910390f35b6100e26102f0565b6040516100ef9190610738565b60405180910390f35b610112600480360381019061010d9190610649565b610316565b005b61011c610320565b6040516101299190610775565b60405180910390f35b61013a61032a565b6040516101479190610753565b60405180910390f35b6101586103b8565b604051610166929190610790565b60405180910390f35b610177610462565b604051610185929190610790565b60405180910390f35b600060405180604001604052808463ffffffff168152602001838152509050600b81908060018154018082558091505060019003906000526020600020906002020160009091909190915060008201518160000160006101000a81548163ffffffff021916908363ffffffff160217905550602082015181600101908051906020019061021c92919061050c565b505050505050565b600b818154811061023457600080fd5b90600052602060002090600202016000915090508060000160009054906101000a900463ffffffff169080600101805461026d906108c0565b80601f0160208091040260200160405190810160405280929190818152602001828054610299906108c0565b80156102e65780601f106102bb576101008083540402835291602001916102e6565b820191906000526020600020905b8154815290600101906020018083116102c957829003601f168201915b5050505050905082565b600460009054906101000a900473ffffffffffffffffffffffffffffffffffffffff1681565b8060038190555050565b6000600354905090565b60068054610337906108c0565b80601f0160208091040260200160405190810160405280929190818152602001828054610363906108c0565b80156103b05780601f10610385576101008083540402835291602001916103b0565b820191906000526020600020905b81548152906001019060200180831161039357829003601f168201915b505050505081565b60078060000160009054906101000a900463ffffffff16908060010180546103df906108c0565b80601f016020809104026020016040519081016040528092919081815260200182805461040b906108c0565b80156104585780601f1061042d57610100808354040283529160200191610458565b820191906000526020600020905b81548152906001019060200180831161043b57829003601f168201915b5050505050905082565b60098060000160009054906101000a900463ffffffff1690806001018054610489906108c0565b80601f01602080910402602001604051908101604052809291908181526020018280546104b5906108c0565b80156105025780601f106104d757610100808354040283529160200191610502565b820191906000526020600020905b8154815290600101906020018083116104e557829003601f168201915b5050505050905082565b828054610518906108c0565b90600052602060002090601f01602090048101928261053a5760008555610581565b82601f1061055357805160ff1916838001178555610581565b82800160010185558215610581579182015b82811115610580578251825591602001919060010190610565565b5b50905061058e9190610592565b5090565b5b808211156105ab576000816000905550600101610593565b5090565b60006105c26105bd846107e5565b6107c0565b9050828152602081018484840111156105de576105dd610986565b5b6105e984828561087e565b509392505050565b600082601f83011261060657610605610981565b5b81356106168482602086016105af565b91505092915050565b60008135905061062e816109a6565b92915050565b600081359050610643816109bd565b92915050565b60006020828403121561065f5761065e610990565b5b600061066d8482850161061f565b91505092915050565b6000806040838503121561068d5761068c610990565b5b600061069b85828601610634565b925050602083013567ffffffffffffffff8111156106bc576106bb61098b565b5b6106c8858286016105f1565b9150509250929050565b6106db81610832565b82525050565b60006106ec82610816565b6106f68185610821565b935061070681856020860161088d565b61070f81610995565b840191505092915050565b61072381610864565b82525050565b6107328161086e565b82525050565b600060208201905061074d60008301846106d2565b92915050565b6000602082019050818103600083015261076d81846106e1565b905092915050565b600060208201905061078a600083018461071a565b92915050565b60006040820190506107a56000830185610729565b81810360208301526107b781846106e1565b90509392505050565b60006107ca6107db565b90506107d682826108f2565b919050565b6000604051905090565b600067ffffffffffffffff821115610800576107ff610952565b5b61080982610995565b9050602081019050919050565b600081519050919050565b600082825260208201905092915050565b600061083d82610844565b9050919050565b600073ffffffffffffffffffffffffffffffffffffffff82169050919050565b6000819050919050565b600063ffffffff82169050919050565b82818337600083830152505050565b60005b838110156108ab578082015181840152602081019050610890565b838111156108ba576000848401525b50505050565b600060028204905060018216806108d857607f821691505b602082108114156108ec576108eb610923565b5b50919050565b6108fb82610995565b810181811067ffffffffffffffff8211171561091a57610919610952565b5b80604052505050565b7f4e487b7100000000000000000000000000000000000000000000000000000000600052602260045260246000fd5b7f4e487b7100000000000000000000000000000000000000000000000000000000600052604160045260246000fd5b600080fd5b600080fd5b600080fd5b600080fd5b6000601f19601f8301169050919050565b6109af81610864565b81146109ba57600080fd5b50565b6109c68161086e565b81146109d157600080fd5b5056fea26469706673582212202df51ab62a217e01558892a432911edb396e25e329f20e203bd448d58de41ca864736f6c63430008070033",
					"opcodes": "PUSH1 0x80 PUSH1 0x40 MSTORE PUSH1 0x1 PUSH1 0x0 DUP1 PUSH2 0x100 EXP DUP2 SLOAD DUP2 PUSH1 0xFF MUL NOT AND SWAP1 DUP4 ISZERO ISZERO MUL OR SWAP1 SSTORE POP PUSH32 0xFFFFFFFFFFFFFFFFFFFFFFFFFFFFFFFFFFFFFFFFFFFFFFFFFFFFFFFFFFFFFF85 PUSH1 0x1 SSTORE PUSH1 0x7B PUSH1 0x3 SSTORE PUSH20 0xE4A976FDEA6CAA37638A4554F3779663535AF314 PUSH1 0x4 PUSH1 0x0 PUSH2 0x100 EXP DUP2 SLOAD DUP2 PUSH20 0xFFFFFFFFFFFFFFFFFFFFFFFFFFFFFFFFFFFFFFFF MUL NOT AND SWAP1 DUP4 PUSH20 0xFFFFFFFFFFFFFFFFFFFFFFFFFFFFFFFFFFFFFFFF AND MUL OR SWAP1 SSTORE POP PUSH32 0x737570706F7365206E616D65206F722066696C65000000000000000000000000 PUSH1 0x5 SSTORE PUSH1 0x40 MLOAD DUP1 PUSH1 0x40 ADD PUSH1 0x40 MSTORE DUP1 PUSH1 0x10 DUP2 MSTORE PUSH1 0x20 ADD PUSH32 0x736F6C69646974792070726F6772616D00000000000000000000000000000000 DUP2 MSTORE POP PUSH1 0x6 SWAP1 DUP1 MLOAD SWAP1 PUSH1 0x20 ADD SWAP1 PUSH3 0x10D SWAP3 SWAP2 SWAP1 PUSH3 0x258 JUMP JUMPDEST POP PUSH1 0x40 MLOAD DUP1 PUSH1 0x40 ADD PUSH1 0x40 MSTORE DUP1 PUSH1 0x7 PUSH4 0xFFFFFFFF AND DUP2 MSTORE PUSH1 0x20 ADD PUSH1 0x40 MLOAD DUP1 PUSH1 0x40 ADD PUSH1 0x40 MSTORE DUP1 PUSH1 0x6 DUP2 MSTORE PUSH1 0x20 ADD PUSH32 0x6465766573680000000000000000000000000000000000000000000000000000 DUP2 MSTORE POP DUP2 MSTORE POP PUSH1 0x7 PUSH1 0x0 DUP3 ADD MLOAD DUP2 PUSH1 0x0 ADD PUSH1 0x0 PUSH2 0x100 EXP DUP2 SLOAD DUP2 PUSH4 0xFFFFFFFF MUL NOT AND SWAP1 DUP4 PUSH4 0xFFFFFFFF AND MUL OR SWAP1 SSTORE POP PUSH1 0x20 DUP3 ADD MLOAD DUP2 PUSH1 0x1 ADD SWAP1 DUP1 MLOAD SWAP1 PUSH1 0x20 ADD SWAP1 PUSH3 0x1A6 SWAP3 SWAP2 SWAP1 PUSH3 0x258 JUMP JUMPDEST POP POP POP PUSH1 0x40 MLOAD DUP1 PUSH1 0x40 ADD PUSH1 0x40 MSTORE DUP1 PUSH1 0xB PUSH4 0xFFFFFFFF AND DUP2 MSTORE PUSH1 0x20 ADD PUSH1 0x40 MLOAD DUP1 PUSH1 0x40 ADD PUSH1 0x40 MSTORE DUP1 PUSH1 0x5 DUP2 MSTORE PUSH1 0x20 ADD PUSH32 0x6161727469000000000000000000000000000000000000000000000000000000 DUP2 MSTORE POP DUP2 MSTORE POP PUSH1 0x9 PUSH1 0x0 DUP3 ADD MLOAD DUP2 PUSH1 0x0 ADD PUSH1 0x0 PUSH2 0x100 EXP DUP2 SLOAD DUP2 PUSH4 0xFFFFFFFF MUL NOT AND SWAP1 DUP4 PUSH4 0xFFFFFFFF AND MUL OR SWAP1 SSTORE POP PUSH1 0x20 DUP3 ADD MLOAD DUP2 PUSH1 0x1 ADD SWAP1 DUP1 MLOAD SWAP1 PUSH1 0x20 ADD SWAP1 PUSH3 0x241 SWAP3 SWAP2 SWAP1 PUSH3 0x258 JUMP JUMPDEST POP POP POP CALLVALUE DUP1 ISZERO PUSH3 0x251 JUMPI PUSH1 0x0 DUP1 REVERT JUMPDEST POP PUSH3 0x36D JUMP JUMPDEST DUP3 DUP1 SLOAD PUSH3 0x266 SWAP1 PUSH3 0x308 JUMP JUMPDEST SWAP1 PUSH1 0x0 MSTORE PUSH1 0x20 PUSH1 0x0 KECCAK256 SWAP1 PUSH1 0x1F ADD PUSH1 0x20 SWAP1 DIV DUP2 ADD SWAP3 DUP3 PUSH3 0x28A JUMPI PUSH1 0x0 DUP6 SSTORE PUSH3 0x2D6 JUMP JUMPDEST DUP3 PUSH1 0x1F LT PUSH3 0x2A5 JUMPI DUP1 MLOAD PUSH1 0xFF NOT AND DUP4 DUP1 ADD OR DUP6 SSTORE PUSH3 0x2D6 JUMP JUMPDEST DUP3 DUP1 ADD PUSH1 0x1 ADD DUP6 SSTORE DUP3 ISZERO PUSH3 0x2D6 JUMPI SWAP2 DUP3 ADD JUMPDEST DUP3 DUP2 GT ISZERO PUSH3 0x2D5 JUMPI DUP3 MLOAD DUP3 SSTORE SWAP2 PUSH1 0x20 ADD SWAP2 SWAP1 PUSH1 0x1 ADD SWAP1 PUSH3 0x2B8 JUMP JUMPDEST JUMPDEST POP SWAP1 POP PUSH3 0x2E5 SWAP2 SWAP1 PUSH3 0x2E9 JUMP JUMPDEST POP SWAP1 JUMP JUMPDEST JUMPDEST DUP1 DUP3 GT ISZERO PUSH3 0x304 JUMPI PUSH1 0x0 DUP2 PUSH1 0x0 SWAP1 SSTORE POP PUSH1 0x1 ADD PUSH3 0x2EA JUMP JUMPDEST POP SWAP1 JUMP JUMPDEST PUSH1 0x0 PUSH1 0x2 DUP3 DIV SWAP1 POP PUSH1 0x1 DUP3 AND DUP1 PUSH3 0x321 JUMPI PUSH1 0x7F DUP3 AND SWAP2 POP JUMPDEST PUSH1 0x20 DUP3 LT DUP2 EQ ISZERO PUSH3 0x338 JUMPI PUSH3 0x337 PUSH3 0x33E JUMP JUMPDEST JUMPDEST POP SWAP2 SWAP1 POP JUMP JUMPDEST PUSH32 0x4E487B7100000000000000000000000000000000000000000000000000000000 PUSH1 0x0 MSTORE PUSH1 0x22 PUSH1 0x4 MSTORE PUSH1 0x24 PUSH1 0x0 REVERT JUMPDEST PUSH2 0xA0A DUP1 PUSH3 0x37D PUSH1 0x0 CODECOPY PUSH1 0x0 RETURN INVALID PUSH1 0x80 PUSH1 0x40 MSTORE CALLVALUE DUP1 ISZERO PUSH2 0x10 JUMPI PUSH1 0x0 DUP1 REVERT JUMPDEST POP PUSH1 0x4 CALLDATASIZE LT PUSH2 0x88 JUMPI PUSH1 0x0 CALLDATALOAD PUSH1 0xE0 SHR DUP1 PUSH4 0x6D4CE63C GT PUSH2 0x5B JUMPI DUP1 PUSH4 0x6D4CE63C EQ PUSH2 0x114 JUMPI DUP1 PUSH4 0x8052474D EQ PUSH2 0x132 JUMPI DUP1 PUSH4 0xB75113B1 EQ PUSH2 0x150 JUMPI DUP1 PUSH4 0xCA5A7CE0 EQ PUSH2 0x16F JUMPI PUSH2 0x88 JUMP JUMPDEST DUP1 PUSH4 0x3797A0B EQ PUSH2 0x8D JUMPI DUP1 PUSH4 0xA81EEB9 EQ PUSH2 0xA9 JUMPI DUP1 PUSH4 0x4D96A003 EQ PUSH2 0xDA JUMPI DUP1 PUSH4 0x60FE47B1 EQ PUSH2 0xF8 JUMPI JUMPDEST PUSH1 0x0 DUP1 REVERT JUMPDEST PUSH2 0xA7 PUSH1 0x4 DUP1 CALLDATASIZE SUB DUP2 ADD SWAP1 PUSH2 0xA2 SWAP2 SWAP1 PUSH2 0x676 JUMP JUMPDEST PUSH2 0x18E JUMP JUMPDEST STOP JUMPDEST PUSH2 0xC3 PUSH1 0x4 DUP1 CALLDATASIZE SUB DUP2 ADD SWAP1 PUSH2 0xBE SWAP2 SWAP1 PUSH2 0x649 JUMP JUMPDEST PUSH2 0x224 JUMP JUMPDEST PUSH1 0x40 MLOAD PUSH2 0xD1 SWAP3 SWAP2 SWAP1 PUSH2 0x790 JUMP JUMPDEST PUSH1 0x40 MLOAD DUP1 SWAP2 SUB SWAP1 RETURN JUMPDEST PUSH2 0xE2 PUSH2 0x2F0 JUMP JUMPDEST PUSH1 0x40 MLOAD PUSH2 0xEF SWAP2 SWAP1 PUSH2 0x738 JUMP JUMPDEST PUSH1 0x40 MLOAD DUP1 SWAP2 SUB SWAP1 RETURN JUMPDEST PUSH2 0x112 PUSH1 0x4 DUP1 CALLDATASIZE SUB DUP2 ADD SWAP1 PUSH2 0x10D SWAP2 SWAP1 PUSH2 0x649 JUMP JUMPDEST PUSH2 0x316 JUMP JUMPDEST STOP JUMPDEST PUSH2 0x11C PUSH2 0x320 JUMP JUMPDEST PUSH1 0x40 MLOAD PUSH2 0x129 SWAP2 SWAP1 PUSH2 0x775 JUMP JUMPDEST PUSH1 0x40 MLOAD DUP1 SWAP2 SUB SWAP1 RETURN JUMPDEST PUSH2 0x13A PUSH2 0x32A JUMP JUMPDEST PUSH1 0x40 MLOAD PUSH2 0x147 SWAP2 SWAP1 PUSH2 0x753 JUMP JUMPDEST PUSH1 0x40 MLOAD DUP1 SWAP2 SUB SWAP1 RETURN JUMPDEST PUSH2 0x158 PUSH2 0x3B8 JUMP JUMPDEST PUSH1 0x40 MLOAD PUSH2 0x166 SWAP3 SWAP2 SWAP1 PUSH2 0x790 JUMP JUMPDEST PUSH1 0x40 MLOAD DUP1 SWAP2 SUB SWAP1 RETURN JUMPDEST PUSH2 0x177 PUSH2 0x462 JUMP JUMPDEST PUSH1 0x40 MLOAD PUSH2 0x185 SWAP3 SWAP2 SWAP1 PUSH2 0x790 JUMP JUMPDEST PUSH1 0x40 MLOAD DUP1 SWAP2 SUB SWAP1 RETURN JUMPDEST PUSH1 0x0 PUSH1 0x40 MLOAD DUP1 PUSH1 0x40 ADD PUSH1 0x40 MSTORE DUP1 DUP5 PUSH4 0xFFFFFFFF AND DUP2 MSTORE PUSH1 0x20 ADD DUP4 DUP2 MSTORE POP SWAP1 POP PUSH1 0xB DUP2 SWAP1 DUP1 PUSH1 0x1 DUP2 SLOAD ADD DUP1 DUP3 SSTORE DUP1 SWAP2 POP POP PUSH1 0x1 SWAP1 SUB SWAP1 PUSH1 0x0 MSTORE PUSH1 0x20 PUSH1 0x0 KECCAK256 SWAP1 PUSH1 0x2 MUL ADD PUSH1 0x0 SWAP1 SWAP2 SWAP1 SWAP2 SWAP1 SWAP2 POP PUSH1 0x0 DUP3 ADD MLOAD DUP2 PUSH1 0x0 ADD PUSH1 0x0 PUSH2 0x100 EXP DUP2 SLOAD DUP2 PUSH4 0xFFFFFFFF MUL NOT AND SWAP1 DUP4 PUSH4 0xFFFFFFFF AND MUL OR SWAP1 SSTORE POP PUSH1 0x20 DUP3 ADD MLOAD DUP2 PUSH1 0x1 ADD SWAP1 DUP1 MLOAD SWAP1 PUSH1 0x20 ADD SWAP1 PUSH2 0x21C SWAP3 SWAP2 SWAP1 PUSH2 0x50C JUMP JUMPDEST POP POP POP POP POP POP JUMP JUMPDEST PUSH1 0xB DUP2 DUP2 SLOAD DUP2 LT PUSH2 0x234 JUMPI PUSH1 0x0 DUP1 REVERT JUMPDEST SWAP1 PUSH1 0x0 MSTORE PUSH1 0x20 PUSH1 0x0 KECCAK256 SWAP1 PUSH1 0x2 MUL ADD PUSH1 0x0 SWAP2 POP SWAP1 POP DUP1 PUSH1 0x0 ADD PUSH1 0x0 SWAP1 SLOAD SWAP1 PUSH2 0x100 EXP SWAP1 DIV PUSH4 0xFFFFFFFF AND SWAP1 DUP1 PUSH1 0x1 ADD DUP1 SLOAD PUSH2 0x26D SWAP1 PUSH2 0x8C0 JUMP JUMPDEST DUP1 PUSH1 0x1F ADD PUSH1 0x20 DUP1 SWAP2 DIV MUL PUSH1 0x20 ADD PUSH1 0x40 MLOAD SWAP1 DUP2 ADD PUSH1 0x40 MSTORE DUP1 SWAP3 SWAP2 SWAP1 DUP2 DUP2 MSTORE PUSH1 0x20 ADD DUP3 DUP1 SLOAD PUSH2 0x299 SWAP1 PUSH2 0x8C0 JUMP JUMPDEST DUP1 ISZERO PUSH2 0x2E6 JUMPI DUP1 PUSH1 0x1F LT PUSH2 0x2BB JUMPI PUSH2 0x100 DUP1 DUP4 SLOAD DIV MUL DUP4 MSTORE SWAP2 PUSH1 0x20 ADD SWAP2 PUSH2 0x2E6 JUMP JUMPDEST DUP3 ADD SWAP2 SWAP1 PUSH1 0x0 MSTORE PUSH1 0x20 PUSH1 0x0 KECCAK256 SWAP1 JUMPDEST DUP2 SLOAD DUP2 MSTORE SWAP1 PUSH1 0x1 ADD SWAP1 PUSH1 0x20 ADD DUP1 DUP4 GT PUSH2 0x2C9 JUMPI DUP3 SWAP1 SUB PUSH1 0x1F AND DUP3 ADD SWAP2 JUMPDEST POP POP POP POP POP SWAP1 POP DUP3 JUMP JUMPDEST PUSH1 0x4 PUSH1 0x0 SWAP1 SLOAD SWAP1 PUSH2 0x100 EXP SWAP1 DIV PUSH20 0xFFFFFFFFFFFFFFFFFFFFFFFFFFFFFFFFFFFFFFFF AND DUP2 JUMP JUMPDEST DUP1 PUSH1 0x3 DUP2 SWAP1 SSTORE POP POP JUMP JUMPDEST PUSH1 0x0 PUSH1 0x3 SLOAD SWAP1 POP SWAP1 JUMP JUMPDEST PUSH1 0x6 DUP1 SLOAD PUSH2 0x337 SWAP1 PUSH2 0x8C0 JUMP JUMPDEST DUP1 PUSH1 0x1F ADD PUSH1 0x20 DUP1 SWAP2 DIV MUL PUSH1 0x20 ADD PUSH1 0x40 MLOAD SWAP1 DUP2 ADD PUSH1 0x40 MSTORE DUP1 SWAP3 SWAP2 SWAP1 DUP2 DUP2 MSTORE PUSH1 0x20 ADD DUP3 DUP1 SLOAD PUSH2 0x363 SWAP1 PUSH2 0x8C0 JUMP JUMPDEST DUP1 ISZERO PUSH2 0x3B0 JUMPI DUP1 PUSH1 0x1F LT PUSH2 0x385 JUMPI PUSH2 0x100 DUP1 DUP4 SLOAD DIV MUL DUP4 MSTORE SWAP2 PUSH1 0x20 ADD SWAP2 PUSH2 0x3B0 JUMP JUMPDEST DUP3 ADD SWAP2 SWAP1 PUSH1 0x0 MSTORE PUSH1 0x20 PUSH1 0x0 KECCAK256 SWAP1 JUMPDEST DUP2 SLOAD DUP2 MSTORE SWAP1 PUSH1 0x1 ADD SWAP1 PUSH1 0x20 ADD DUP1 DUP4 GT PUSH2 0x393 JUMPI DUP3 SWAP1 SUB PUSH1 0x1F AND DUP3 ADD SWAP2 JUMPDEST POP POP POP POP POP DUP2 JUMP JUMPDEST PUSH1 0x7 DUP1 PUSH1 0x0 ADD PUSH1 0x0 SWAP1 SLOAD SWAP1 PUSH2 0x100 EXP SWAP1 DIV PUSH4 0xFFFFFFFF AND SWAP1 DUP1 PUSH1 0x1 ADD DUP1 SLOAD PUSH2 0x3DF SWAP1 PUSH2 0x8C0 JUMP JUMPDEST DUP1 PUSH1 0x1F ADD PUSH1 0x20 DUP1 SWAP2 DIV MUL PUSH1 0x20 ADD PUSH1 0x40 MLOAD SWAP1 DUP2 ADD PUSH1 0x40 MSTORE DUP1 SWAP3 SWAP2 SWAP1 DUP2 DUP2 MSTORE PUSH1 0x20 ADD DUP3 DUP1 SLOAD PUSH2 0x40B SWAP1 PUSH2 0x8C0 JUMP JUMPDEST DUP1 ISZERO PUSH2 0x458 JUMPI DUP1 PUSH1 0x1F LT PUSH2 0x42D JUMPI PUSH2 0x100 DUP1 DUP4 SLOAD DIV MUL DUP4 MSTORE SWAP2 PUSH1 0x20 ADD SWAP2 PUSH2 0x458 JUMP JUMPDEST DUP3 ADD SWAP2 SWAP1 PUSH1 0x0 MSTORE PUSH1 0x20 PUSH1 0x0 KECCAK256 SWAP1 JUMPDEST DUP2 SLOAD DUP2 MSTORE SWAP1 PUSH1 0x1 ADD SWAP1 PUSH1 0x20 ADD DUP1 DUP4 GT PUSH2 0x43B JUMPI DUP3 SWAP1 SUB PUSH1 0x1F AND DUP3 ADD SWAP2 JUMPDEST POP POP POP POP POP SWAP1 POP DUP3 JUMP JUMPDEST PUSH1 0x9 DUP1 PUSH1 0x0 ADD PUSH1 0x0 SWAP1 SLOAD SWAP1 PUSH2 0x100 EXP SWAP1 DIV PUSH4 0xFFFFFFFF AND SWAP1 DUP1 PUSH1 0x1 ADD DUP1 SLOAD PUSH2 0x489 SWAP1 PUSH2 0x8C0 JUMP JUMPDEST DUP1 PUSH1 0x1F ADD PUSH1 0x20 DUP1 SWAP2 DIV MUL PUSH1 0x20 ADD PUSH1 0x40 MLOAD SWAP1 DUP2 ADD PUSH1 0x40 MSTORE DUP1 SWAP3 SWAP2 SWAP1 DUP2 DUP2 MSTORE PUSH1 0x20 ADD DUP3 DUP1 SLOAD PUSH2 0x4B5 SWAP1 PUSH2 0x8C0 JUMP JUMPDEST DUP1 ISZERO PUSH2 0x502 JUMPI DUP1 PUSH1 0x1F LT PUSH2 0x4D7 JUMPI PUSH2 0x100 DUP1 DUP4 SLOAD DIV MUL DUP4 MSTORE SWAP2 PUSH1 0x20 ADD SWAP2 PUSH2 0x502 JUMP JUMPDEST DUP3 ADD SWAP2 SWAP1 PUSH1 0x0 MSTORE PUSH1 0x20 PUSH1 0x0 KECCAK256 SWAP1 JUMPDEST DUP2 SLOAD DUP2 MSTORE SWAP1 PUSH1 0x1 ADD SWAP1 PUSH1 0x20 ADD DUP1 DUP4 GT PUSH2 0x4E5 JUMPI DUP3 SWAP1 SUB PUSH1 0x1F AND DUP3 ADD SWAP2 JUMPDEST POP POP POP POP POP SWAP1 POP DUP3 JUMP JUMPDEST DUP3 DUP1 SLOAD PUSH2 0x518 SWAP1 PUSH2 0x8C0 JUMP JUMPDEST SWAP1 PUSH1 0x0 MSTORE PUSH1 0x20 PUSH1 0x0 KECCAK256 SWAP1 PUSH1 0x1F ADD PUSH1 0x20 SWAP1 DIV DUP2 ADD SWAP3 DUP3 PUSH2 0x53A JUMPI PUSH1 0x0 DUP6 SSTORE PUSH2 0x581 JUMP JUMPDEST DUP3 PUSH1 0x1F LT PUSH2 0x553 JUMPI DUP1 MLOAD PUSH1 0xFF NOT AND DUP4 DUP1 ADD OR DUP6 SSTORE PUSH2 0x581 JUMP JUMPDEST DUP3 DUP1 ADD PUSH1 0x1 ADD DUP6 SSTORE DUP3 ISZERO PUSH2 0x581 JUMPI SWAP2 DUP3 ADD JUMPDEST DUP3 DUP2 GT ISZERO PUSH2 0x580 JUMPI DUP3 MLOAD DUP3 SSTORE SWAP2 PUSH1 0x20 ADD SWAP2 SWAP1 PUSH1 0x1 ADD SWAP1 PUSH2 0x565 JUMP JUMPDEST JUMPDEST POP SWAP1 POP PUSH2 0x58E SWAP2 SWAP1 PUSH2 0x592 JUMP JUMPDEST POP SWAP1 JUMP JUMPDEST JUMPDEST DUP1 DUP3 GT ISZERO PUSH2 0x5AB JUMPI PUSH1 0x0 DUP2 PUSH1 0x0 SWAP1 SSTORE POP PUSH1 0x1 ADD PUSH2 0x593 JUMP JUMPDEST POP SWAP1 JUMP JUMPDEST PUSH1 0x0 PUSH2 0x5C2 PUSH2 0x5BD DUP5 PUSH2 0x7E5 JUMP JUMPDEST PUSH2 0x7C0 JUMP JUMPDEST SWAP1 POP DUP3 DUP2 MSTORE PUSH1 0x20 DUP2 ADD DUP5 DUP5 DUP5 ADD GT ISZERO PUSH2 0x5DE JUMPI PUSH2 0x5DD PUSH2 0x986 JUMP JUMPDEST JUMPDEST PUSH2 0x5E9 DUP5 DUP3 DUP6 PUSH2 0x87E JUMP JUMPDEST POP SWAP4 SWAP3 POP POP POP JUMP JUMPDEST PUSH1 0x0 DUP3 PUSH1 0x1F DUP4 ADD SLT PUSH2 0x606 JUMPI PUSH2 0x605 PUSH2 0x981 JUMP JUMPDEST JUMPDEST DUP2 CALLDATALOAD PUSH2 0x616 DUP5 DUP3 PUSH1 0x20 DUP7 ADD PUSH2 0x5AF JUMP JUMPDEST SWAP2 POP POP SWAP3 SWAP2 POP POP JUMP JUMPDEST PUSH1 0x0 DUP2 CALLDATALOAD SWAP1 POP PUSH2 0x62E DUP2 PUSH2 0x9A6 JUMP JUMPDEST SWAP3 SWAP2 POP POP JUMP JUMPDEST PUSH1 0x0 DUP2 CALLDATALOAD SWAP1 POP PUSH2 0x643 DUP2 PUSH2 0x9BD JUMP JUMPDEST SWAP3 SWAP2 POP POP JUMP JUMPDEST PUSH1 0x0 PUSH1 0x20 DUP3 DUP5 SUB SLT ISZERO PUSH2 0x65F JUMPI PUSH2 0x65E PUSH2 0x990 JUMP JUMPDEST JUMPDEST PUSH1 0x0 PUSH2 0x66D DUP5 DUP3 DUP6 ADD PUSH2 0x61F JUMP JUMPDEST SWAP2 POP POP SWAP3 SWAP2 POP POP JUMP JUMPDEST PUSH1 0x0 DUP1 PUSH1 0x40 DUP4 DUP6 SUB SLT ISZERO PUSH2 0x68D JUMPI PUSH2 0x68C PUSH2 0x990 JUMP JUMPDEST JUMPDEST PUSH1 0x0 PUSH2 0x69B DUP6 DUP3 DUP7 ADD PUSH2 0x634 JUMP JUMPDEST SWAP3 POP POP PUSH1 0x20 DUP4 ADD CALLDATALOAD PUSH8 0xFFFFFFFFFFFFFFFF DUP2 GT ISZERO PUSH2 0x6BC JUMPI PUSH2 0x6BB PUSH2 0x98B JUMP JUMPDEST JUMPDEST PUSH2 0x6C8 DUP6 DUP3 DUP7 ADD PUSH2 0x5F1 JUMP JUMPDEST SWAP2 POP POP SWAP3 POP SWAP3 SWAP1 POP JUMP JUMPDEST PUSH2 0x6DB DUP2 PUSH2 0x832 JUMP JUMPDEST DUP3 MSTORE POP POP JUMP JUMPDEST PUSH1 0x0 PUSH2 0x6EC DUP3 PUSH2 0x816 JUMP JUMPDEST PUSH2 0x6F6 DUP2 DUP6 PUSH2 0x821 JUMP JUMPDEST SWAP4 POP PUSH2 0x706 DUP2 DUP6 PUSH1 0x20 DUP7 ADD PUSH2 0x88D JUMP JUMPDEST PUSH2 0x70F DUP2 PUSH2 0x995 JUMP JUMPDEST DUP5 ADD SWAP2 POP POP SWAP3 SWAP2 POP POP JUMP JUMPDEST PUSH2 0x723 DUP2 PUSH2 0x864 JUMP JUMPDEST DUP3 MSTORE POP POP JUMP JUMPDEST PUSH2 0x732 DUP2 PUSH2 0x86E JUMP JUMPDEST DUP3 MSTORE POP POP JUMP JUMPDEST PUSH1 0x0 PUSH1 0x20 DUP3 ADD SWAP1 POP PUSH2 0x74D PUSH1 0x0 DUP4 ADD DUP5 PUSH2 0x6D2 JUMP JUMPDEST SWAP3 SWAP2 POP POP JUMP JUMPDEST PUSH1 0x0 PUSH1 0x20 DUP3 ADD SWAP1 POP DUP2 DUP2 SUB PUSH1 0x0 DUP4 ADD MSTORE PUSH2 0x76D DUP2 DUP5 PUSH2 0x6E1 JUMP JUMPDEST SWAP1 POP SWAP3 SWAP2 POP POP JUMP JUMPDEST PUSH1 0x0 PUSH1 0x20 DUP3 ADD SWAP1 POP PUSH2 0x78A PUSH1 0x0 DUP4 ADD DUP5 PUSH2 0x71A JUMP JUMPDEST SWAP3 SWAP2 POP POP JUMP JUMPDEST PUSH1 0x0 PUSH1 0x40 DUP3 ADD SWAP1 POP PUSH2 0x7A5 PUSH1 0x0 DUP4 ADD DUP6 PUSH2 0x729 JUMP JUMPDEST DUP2 DUP2 SUB PUSH1 0x20 DUP4 ADD MSTORE PUSH2 0x7B7 DUP2 DUP5 PUSH2 0x6E1 JUMP JUMPDEST SWAP1 POP SWAP4 SWAP3 POP POP POP JUMP JUMPDEST PUSH1 0x0 PUSH2 0x7CA PUSH2 0x7DB JUMP JUMPDEST SWAP1 POP PUSH2 0x7D6 DUP3 DUP3 PUSH2 0x8F2 JUMP JUMPDEST SWAP2 SWAP1 POP JUMP JUMPDEST PUSH1 0x0 PUSH1 0x40 MLOAD SWAP1 POP SWAP1 JUMP JUMPDEST PUSH1 0x0 PUSH8 0xFFFFFFFFFFFFFFFF DUP3 GT ISZERO PUSH2 0x800 JUMPI PUSH2 0x7FF PUSH2 0x952 JUMP JUMPDEST JUMPDEST PUSH2 0x809 DUP3 PUSH2 0x995 JUMP JUMPDEST SWAP1 POP PUSH1 0x20 DUP2 ADD SWAP1 POP SWAP2 SWAP1 POP JUMP JUMPDEST PUSH1 0x0 DUP2 MLOAD SWAP1 POP SWAP2 SWAP1 POP JUMP JUMPDEST PUSH1 0x0 DUP3 DUP3 MSTORE PUSH1 0x20 DUP3 ADD SWAP1 POP SWAP3 SWAP2 POP POP JUMP JUMPDEST PUSH1 0x0 PUSH2 0x83D DUP3 PUSH2 0x844 JUMP JUMPDEST SWAP1 POP SWAP2 SWAP1 POP JUMP JUMPDEST PUSH1 0x0 PUSH20 0xFFFFFFFFFFFFFFFFFFFFFFFFFFFFFFFFFFFFFFFF DUP3 AND SWAP1 POP SWAP2 SWAP1 POP JUMP JUMPDEST PUSH1 0x0 DUP2 SWAP1 POP SWAP2 SWAP1 POP JUMP JUMPDEST PUSH1 0x0 PUSH4 0xFFFFFFFF DUP3 AND SWAP1 POP SWAP2 SWAP1 POP JUMP JUMPDEST DUP3 DUP2 DUP4 CALLDATACOPY PUSH1 0x0 DUP4 DUP4 ADD MSTORE POP POP POP JUMP JUMPDEST PUSH1 0x0 JUMPDEST DUP4 DUP2 LT ISZERO PUSH2 0x8AB JUMPI DUP1 DUP3 ADD MLOAD DUP2 DUP5 ADD MSTORE PUSH1 0x20 DUP2 ADD SWAP1 POP PUSH2 0x890 JUMP JUMPDEST DUP4 DUP2 GT ISZERO PUSH2 0x8BA JUMPI PUSH1 0x0 DUP5 DUP5 ADD MSTORE JUMPDEST POP POP POP POP JUMP JUMPDEST PUSH1 0x0 PUSH1 0x2 DUP3 DIV SWAP1 POP PUSH1 0x1 DUP3 AND DUP1 PUSH2 0x8D8 JUMPI PUSH1 0x7F DUP3 AND SWAP2 POP JUMPDEST PUSH1 0x20 DUP3 LT DUP2 EQ ISZERO PUSH2 0x8EC JUMPI PUSH2 0x8EB PUSH2 0x923 JUMP JUMPDEST JUMPDEST POP SWAP2 SWAP1 POP JUMP JUMPDEST PUSH2 0x8FB DUP3 PUSH2 0x995 JUMP JUMPDEST DUP2 ADD DUP2 DUP2 LT PUSH8 0xFFFFFFFFFFFFFFFF DUP3 GT OR ISZERO PUSH2 0x91A JUMPI PUSH2 0x919 PUSH2 0x952 JUMP JUMPDEST JUMPDEST DUP1 PUSH1 0x40 MSTORE POP POP POP JUMP JUMPDEST PUSH32 0x4E487B7100000000000000000000000000000000000000000000000000000000 PUSH1 0x0 MSTORE PUSH1 0x22 PUSH1 0x4 MSTORE PUSH1 0x24 PUSH1 0x0 REVERT JUMPDEST PUSH32 0x4E487B7100000000000000000000000000000000000000000000000000000000 PUSH1 0x0 MSTORE PUSH1 0x41 PUSH1 0x4 MSTORE PUSH1 0x24 PUSH1 0x0 REVERT JUMPDEST PUSH1 0x0 DUP1 REVERT JUMPDEST PUSH1 0x0 DUP1 REVERT JUMPDEST PUSH1 0x0 DUP1 REVERT JUMPDEST PUSH1 0x0 DUP1 REVERT JUMPDEST PUSH1 0x0 PUSH1 0x1F NOT PUSH1 0x1F DUP4 ADD AND SWAP1 POP SWAP2 SWAP1 POP JUMP JUMPDEST PUSH2 0x9AF DUP2 PUSH2 0x864 JUMP JUMPDEST DUP2 EQ PUSH2 0x9BA JUMPI PUSH1 0x0 DUP1 REVERT JUMPDEST POP JUMP JUMPDEST PUSH2 0x9C6 DUP2 PUSH2 0x86E JUMP JUMPDEST DUP2 EQ PUSH2 0x9D1 JUMPI PUSH1 0x0 DUP1 REVERT JUMPDEST POP JUMP INVALID LOG2 PUSH5 0x6970667358 0x22 SLT KECCAK256 0x2D CREATE2 BYTE 0xB6 0x2A 0x21 PUSH31 0x1558892A432911EDB396E25E329F20E203BD448D58DE41CA864736F6C6343 STOP ADDMOD SMOD STOP CALLER "
				},
				"gasEstimates": {
					"creation": {
						"codeDepositCost": "514000",
						"executionCost": "infinite",
						"totalCost": "infinite"
					},
					"external": {
						"EmployeeArr(uint256)": "infinite",
						"Name()": "infinite",
						"addEmployee(uint32,string)": "infinite",
						"employee1()": "infinite",
						"employee2()": "infinite",
						"get()": "2437",
						"myWalletAdd()": "2559",
						"set(uint256)": "22587"
					}
				},
				"methodIdentifiers": {
					"EmployeeArr(uint256)": "0a81eeb9",
					"Name()": "8052474d",
					"addEmployee(uint32,string)": "03797a0b",
					"employee1()": "b75113b1",
					"employee2()": "ca5a7ce0",
					"get()": "6d4ce63c",
					"myWalletAdd()": "4d96a003",
					"set(uint256)": "60fe47b1"
				}
			},
			"storageLayout": {
				"storage": [
					{
						"astId": 4,
						"contract": "contracts/firstSolidity.sol:FirstContract",
						"label": "BooleanVal",
						"offset": 0,
						"slot": "0",
						"type": "t_bool"
					},
					{
						"astId": 8,
						"contract": "contracts/firstSolidity.sol:FirstContract",
						"label": "positiveOrNegtiveNum",
						"offset": 0,
						"slot": "1",
						"type": "t_int256"
					},
					{
						"astId": 10,
						"contract": "contracts/firstSolidity.sol:FirstContract",
						"label": "EightBitNum",
						"offset": 0,
						"slot": "2",
						"type": "t_int8"
					},
					{
						"astId": 13,
						"contract": "contracts/firstSolidity.sol:FirstContract",
						"label": "positiveNum",
						"offset": 0,
						"slot": "3",
						"type": "t_uint256"
					},
					{
						"astId": 16,
						"contract": "contracts/firstSolidity.sol:FirstContract",
						"label": "myWalletAdd",
						"offset": 0,
						"slot": "4",
						"type": "t_address"
					},
					{
						"astId": 19,
						"contract": "contracts/firstSolidity.sol:FirstContract",
						"label": "anyNumOfByteData",
						"offset": 0,
						"slot": "5",
						"type": "t_bytes32"
					},
					{
						"astId": 22,
						"contract": "contracts/firstSolidity.sol:FirstContract",
						"label": "Name",
						"offset": 0,
						"slot": "6",
						"type": "t_string_storage"
					},
					{
						"astId": 52,
						"contract": "contracts/firstSolidity.sol:FirstContract",
						"label": "employee1",
						"offset": 0,
						"slot": "7",
						"type": "t_struct(Employee)45_storage"
					},
					{
						"astId": 59,
						"contract": "contracts/firstSolidity.sol:FirstContract",
						"label": "employee2",
						"offset": 0,
						"slot": "9",
						"type": "t_struct(Employee)45_storage"
					},
					{
						"astId": 63,
						"contract": "contracts/firstSolidity.sol:FirstContract",
						"label": "EmployeeArr",
						"offset": 0,
						"slot": "11",
						"type": "t_array(t_struct(Employee)45_storage)dyn_storage"
					}
				],
				"types": {
					"t_address": {
						"encoding": "inplace",
						"label": "address",
						"numberOfBytes": "20"
					},
					"t_array(t_struct(Employee)45_storage)dyn_storage": {
						"base": "t_struct(Employee)45_storage",
						"encoding": "dynamic_array",
						"label": "struct FirstContract.Employee[]",
						"numberOfBytes": "32"
					},
					"t_bool": {
						"encoding": "inplace",
						"label": "bool",
						"numberOfBytes": "1"
					},
					"t_bytes32": {
						"encoding": "inplace",
						"label": "bytes32",
						"numberOfBytes": "32"
					},
					"t_int256": {
						"encoding": "inplace",
						"label": "int256",
						"numberOfBytes": "32"
					},
					"t_int8": {
						"encoding": "inplace",
						"label": "int8",
						"numberOfBytes": "1"
					},
					"t_string_storage": {
						"encoding": "bytes",
						"label": "string",
						"numberOfBytes": "32"
					},
					"t_struct(Employee)45_storage": {
						"encoding": "inplace",
						"label": "struct FirstContract.Employee",
						"members": [
							{
								"astId": 42,
								"contract": "contracts/firstSolidity.sol:FirstContract",
								"label": "UniqueNum",
								"offset": 0,
								"slot": "0",
								"type": "t_uint32"
							},
							{
								"astId": 44,
								"contract": "contracts/firstSolidity.sol:FirstContract",
								"label": "name",
								"offset": 0,
								"slot": "1",
								"type": "t_string_storage"
							}
						],
						"numberOfBytes": "64"
					},
					"t_uint256": {
						"encoding": "inplace",
						"label": "uint256",
						"numberOfBytes": "32"
					},
					"t_uint32": {
						"encoding": "inplace",
						"label": "uint32",
						"numberOfBytes": "4"
					}
				}
			},
			"userdoc": {
				"kind": "user",
				"methods": {},
				"version": 1
			}
		}
	}
}