{
	"contracts/firstSolidity.sol": {
		"FirstContract": {
			"abi": [
				{
					"inputs": [],
					"name": "Name",
					"outputs": [
						{
							"internalType": "string",
							"name": "",
							"type": "string"
						}
					],
					"stateMutability": "view",
					"type": "function"
				},
				{
					"inputs": [],
					"name": "employee1",
					"outputs": [
						{
							"internalType": "uint32",
							"name": "UniqueNum",
							"type": "uint32"
						},
						{
							"internalType": "string",
							"name": "name",
							"type": "string"
						}
					],
					"stateMutability": "view",
					"type": "function"
				},
				{
					"inputs": [],
					"name": "get",
					"outputs": [
						{
							"internalType": "uint256",
							"name": "",
							"type": "uint256"
						}
					],
					"stateMutability": "view",
					"type": "function"
				},
				{
					"inputs": [],
					"name": "myWalletAdd",
					"outputs": [
						{
							"internalType": "address",
							"name": "",
							"type": "address"
						}
					],
					"stateMutability": "view",
					"type": "function"
				},
				{
					"inputs": [
						{
							"internalType": "uint256",
							"name": "num",
							"type": "uint256"
						}
					],
					"name": "set",
					"outputs": [],
					"stateMutability": "nonpayable",
					"type": "function"
				}
			],
			"devdoc": {
				"kind": "dev",
				"methods": {},
				"version": 1
			},
			"evm": {
				"assembly": "    /* \"contracts/firstSolidity.sol\":86:1759  contract FirstContract {\r... */\n  mstore(0x40, 0x80)\n    /* \"contracts/firstSolidity.sol\":276:280  true */\n  0x01\n    /* \"contracts/firstSolidity.sol\":258:280  bool BooleanVal = true */\n  0x00\n  dup1\n  0x0100\n  exp\n  dup2\n  sload\n  dup2\n  0xff\n  mul\n  not\n  and\n  swap1\n  dup4\n  iszero\n  iszero\n  mul\n  or\n  swap1\n  sstore\n  pop\n    /* \"contracts/firstSolidity.sol\":316:320  -123 */\n  0xffffffffffffffffffffffffffffffffffffffffffffffffffffffffffffff85\n    /* \"contracts/firstSolidity.sol\":289:320  int positiveOrNegtiveNum = -123 */\n  0x01\n  sstore\n    /* \"contracts/firstSolidity.sol\":394:397  123 */\n  0x7b\n    /* \"contracts/firstSolidity.sol\":375:397  uint positiveNum = 123 */\n  0x03\n  sstore\n    /* \"contracts/firstSolidity.sol\":754:796  0xE4A976FdEa6CAA37638a4554F3779663535af314 */\n  0xe4a976fdea6caa37638a4554f3779663535af314\n    /* \"contracts/firstSolidity.sol\":725:796  address public myWalletAdd = 0xE4A976FdEa6CAA37638a4554F3779663535af314 */\n  0x04\n  exp(0x0100, 0x00)\n  dup2\n  sload\n  dup2\n  0xffffffffffffffffffffffffffffffffffffffff\n  mul\n  not\n  and\n  swap1\n  dup4\n  0xffffffffffffffffffffffffffffffffffffffff\n  and\n  mul\n  or\n  swap1\n  sstore\n  pop\n    /* \"contracts/firstSolidity.sol\":803:852  bytes32 anyNumOfByteData = \"suppose name or file\" */\n  sstore(0x05, 0x737570706f7365206e616d65206f722066696c65000000000000000000000000)\n    /* \"contracts/firstSolidity.sol\":1040:1078  string public Name= \"solidity program\" */\n  mload(0x40)\n  dup1\n  0x40\n  add\n  0x40\n  mstore\n  dup1\n  0x10\n  dup2\n  mstore\n  0x20\n  add\n  0x736f6c69646974792070726f6772616d00000000000000000000000000000000\n  dup2\n  mstore\n  pop\n  0x06\n  swap1\n  dup1\n  mload\n  swap1\n  0x20\n  add\n  swap1\n  tag_1\n  swap3\n  swap2\n  swap1\n  tag_2\n  jump\t// in\ntag_1:\n  pop\n    /* \"contracts/firstSolidity.sol\":1714:1751  Employee({UniqueNum:7,name:\"devesh\"}) */\n  mload(0x40)\n  dup1\n  0x40\n  add\n  0x40\n  mstore\n  dup1\n    /* \"contracts/firstSolidity.sol\":1734:1735  7 */\n  0x07\n    /* \"contracts/firstSolidity.sol\":1714:1751  Employee({UniqueNum:7,name:\"devesh\"}) */\n  0xffffffff\n  and\n  dup2\n  mstore\n  0x20\n  add\n  mload(0x40)\n  dup1\n  0x40\n  add\n  0x40\n  mstore\n  dup1\n  0x06\n  dup2\n  mstore\n  0x20\n  add\n  0x6465766573680000000000000000000000000000000000000000000000000000\n  dup2\n  mstore\n  pop\n  dup2\n  mstore\n  pop\n    /* \"contracts/firstSolidity.sol\":1686:1751  Employee public employee1 = Employee({UniqueNum:7,name:\"devesh\"}) */\n  0x07\n  0x00\n  dup3\n  add\n  mload\n  dup2\n  0x00\n  add\n  exp(0x0100, 0x00)\n  dup2\n  sload\n  dup2\n  0xffffffff\n  mul\n  not\n  and\n  swap1\n  dup4\n  0xffffffff\n  and\n  mul\n  or\n  swap1\n  sstore\n  pop\n  0x20\n  dup3\n  add\n  mload\n  dup2\n  0x01\n  add\n  swap1\n  dup1\n  mload\n  swap1\n  0x20\n  add\n  swap1\n  tag_3\n  swap3\n  swap2\n  swap1\n  tag_2\n  jump\t// in\ntag_3:\n  pop\n  pop\n  pop\n    /* \"contracts/firstSolidity.sol\":86:1759  contract FirstContract {\r... */\n  callvalue\n  dup1\n  iszero\n  tag_4\n  jumpi\n  0x00\n  dup1\n  revert\ntag_4:\n  pop\n  jump(tag_5)\ntag_2:\n  dup3\n  dup1\n  sload\n  tag_6\n  swap1\n  tag_7\n  jump\t// in\ntag_6:\n  swap1\n  0x00\n  mstore\n  keccak256(0x00, 0x20)\n  swap1\n  0x1f\n  add\n  0x20\n  swap1\n  div\n  dup2\n  add\n  swap3\n  dup3\n  tag_9\n  jumpi\n  0x00\n  dup6\n  sstore\n  jump(tag_8)\ntag_9:\n  dup3\n  0x1f\n  lt\n  tag_10\n  jumpi\n  dup1\n  mload\n  not(0xff)\n  and\n  dup4\n  dup1\n  add\n  or\n  dup6\n  sstore\n  jump(tag_8)\ntag_10:\n  dup3\n  dup1\n  add\n  0x01\n  add\n  dup6\n  sstore\n  dup3\n  iszero\n  tag_8\n  jumpi\n  swap2\n  dup3\n  add\ntag_11:\n  dup3\n  dup2\n  gt\n  iszero\n  tag_12\n  jumpi\n  dup3\n  mload\n  dup3\n  sstore\n  swap2\n  0x20\n  add\n  swap2\n  swap1\n  0x01\n  add\n  swap1\n  jump(tag_11)\ntag_12:\ntag_8:\n  pop\n  swap1\n  pop\n  tag_13\n  swap2\n  swap1\n  tag_14\n  jump\t// in\ntag_13:\n  pop\n  swap1\n  jump\t// out\ntag_14:\ntag_15:\n  dup1\n  dup3\n  gt\n  iszero\n  tag_16\n  jumpi\n  0x00\n  dup2\n  0x00\n  swap1\n  sstore\n  pop\n  0x01\n  add\n  jump(tag_15)\ntag_16:\n  pop\n  swap1\n  jump\t// out\n    /* \"#utility.yul\":7:327   */\ntag_7:\n    /* \"#utility.yul\":51:57   */\n  0x00\n    /* \"#utility.yul\":88:89   */\n  0x02\n    /* \"#utility.yul\":82:86   */\n  dup3\n    /* \"#utility.yul\":78:90   */\n  div\n    /* \"#utility.yul\":68:90   */\n  swap1\n  pop\n    /* \"#utility.yul\":135:136   */\n  0x01\n    /* \"#utility.yul\":129:133   */\n  dup3\n    /* \"#utility.yul\":125:137   */\n  and\n    /* \"#utility.yul\":156:174   */\n  dup1\n    /* \"#utility.yul\":146:227   */\n  tag_19\n  jumpi\n    /* \"#utility.yul\":212:216   */\n  0x7f\n    /* \"#utility.yul\":204:210   */\n  dup3\n    /* \"#utility.yul\":200:217   */\n  and\n    /* \"#utility.yul\":190:217   */\n  swap2\n  pop\n    /* \"#utility.yul\":146:227   */\ntag_19:\n    /* \"#utility.yul\":274:276   */\n  0x20\n    /* \"#utility.yul\":266:272   */\n  dup3\n    /* \"#utility.yul\":263:277   */\n  lt\n    /* \"#utility.yul\":243:261   */\n  dup2\n    /* \"#utility.yul\":240:278   */\n  eq\n    /* \"#utility.yul\":237:321   */\n  iszero\n  tag_20\n  jumpi\n    /* \"#utility.yul\":293:311   */\n  tag_21\n  tag_22\n  jump\t// in\ntag_21:\n    /* \"#utility.yul\":237:321   */\ntag_20:\n    /* \"#utility.yul\":58:327   */\n  pop\n    /* \"#utility.yul\":7:327   */\n  swap2\n  swap1\n  pop\n  jump\t// out\n    /* \"#utility.yul\":333:513   */\ntag_22:\n    /* \"#utility.yul\":381:458   */\n  0x4e487b7100000000000000000000000000000000000000000000000000000000\n    /* \"#utility.yul\":378:379   */\n  0x00\n    /* \"#utility.yul\":371:459   */\n  mstore\n    /* \"#utility.yul\":478:482   */\n  0x22\n    /* \"#utility.yul\":475:476   */\n  0x04\n    /* \"#utility.yul\":468:483   */\n  mstore\n    /* \"#utility.yul\":502:506   */\n  0x24\n    /* \"#utility.yul\":499:500   */\n  0x00\n    /* \"#utility.yul\":492:507   */\n  revert\n    /* \"contracts/firstSolidity.sol\":86:1759  contract FirstContract {\r... */\ntag_5:\n  dataSize(sub_0)\n  dup1\n  dataOffset(sub_0)\n  0x00\n  codecopy\n  0x00\n  return\nstop\n\nsub_0: assembly {\n        /* \"contracts/firstSolidity.sol\":86:1759  contract FirstContract {\r... */\n      mstore(0x40, 0x80)\n      callvalue\n      dup1\n      iszero\n      tag_1\n      jumpi\n      0x00\n      dup1\n      revert\n    tag_1:\n      pop\n      jumpi(tag_2, lt(calldatasize, 0x04))\n      shr(0xe0, calldataload(0x00))\n      dup1\n      0x4d96a003\n      eq\n      tag_3\n      jumpi\n      dup1\n      0x60fe47b1\n      eq\n      tag_4\n      jumpi\n      dup1\n      0x6d4ce63c\n      eq\n      tag_5\n      jumpi\n      dup1\n      0x8052474d\n      eq\n      tag_6\n      jumpi\n      dup1\n      0xb75113b1\n      eq\n      tag_7\n      jumpi\n    tag_2:\n      0x00\n      dup1\n      revert\n        /* \"contracts/firstSolidity.sol\":725:796  address public myWalletAdd = 0xE4A976FdEa6CAA37638a4554F3779663535af314 */\n    tag_3:\n      tag_8\n      tag_9\n      jump\t// in\n    tag_8:\n      mload(0x40)\n      tag_10\n      swap2\n      swap1\n      tag_11\n      jump\t// in\n    tag_10:\n      mload(0x40)\n      dup1\n      swap2\n      sub\n      swap1\n      return\n        /* \"contracts/firstSolidity.sol\":1198:1263  function set(uint num) public{\r... */\n    tag_4:\n      tag_12\n      0x04\n      dup1\n      calldatasize\n      sub\n      dup2\n      add\n      swap1\n      tag_13\n      swap2\n      swap1\n      tag_14\n      jump\t// in\n    tag_13:\n      tag_15\n      jump\t// in\n    tag_12:\n      stop\n        /* \"contracts/firstSolidity.sol\":1420:1499  function get() public view returns (uint) {\r... */\n    tag_5:\n      tag_16\n      tag_17\n      jump\t// in\n    tag_16:\n      mload(0x40)\n      tag_18\n      swap2\n      swap1\n      tag_19\n      jump\t// in\n    tag_18:\n      mload(0x40)\n      dup1\n      swap2\n      sub\n      swap1\n      return\n        /* \"contracts/firstSolidity.sol\":1040:1078  string public Name= \"solidity program\" */\n    tag_6:\n      tag_20\n      tag_21\n      jump\t// in\n    tag_20:\n      mload(0x40)\n      tag_22\n      swap2\n      swap1\n      tag_23\n      jump\t// in\n    tag_22:\n      mload(0x40)\n      dup1\n      swap2\n      sub\n      swap1\n      return\n        /* \"contracts/firstSolidity.sol\":1686:1751  Employee public employee1 = Employee({UniqueNum:7,name:\"devesh\"}) */\n    tag_7:\n      tag_24\n      tag_25\n      jump\t// in\n    tag_24:\n      mload(0x40)\n      tag_26\n      swap3\n      swap2\n      swap1\n      tag_27\n      jump\t// in\n    tag_26:\n      mload(0x40)\n      dup1\n      swap2\n      sub\n      swap1\n      return\n        /* \"contracts/firstSolidity.sol\":725:796  address public myWalletAdd = 0xE4A976FdEa6CAA37638a4554F3779663535af314 */\n    tag_9:\n      0x04\n      0x00\n      swap1\n      sload\n      swap1\n      0x0100\n      exp\n      swap1\n      div\n      0xffffffffffffffffffffffffffffffffffffffff\n      and\n      dup2\n      jump\t// out\n        /* \"contracts/firstSolidity.sol\":1198:1263  function set(uint num) public{\r... */\n    tag_15:\n        /* \"contracts/firstSolidity.sol\":1252:1255  num */\n      dup1\n        /* \"contracts/firstSolidity.sol\":1238:1249  positiveNum */\n      0x03\n        /* \"contracts/firstSolidity.sol\":1238:1255  positiveNum = num */\n      dup2\n      swap1\n      sstore\n      pop\n        /* \"contracts/firstSolidity.sol\":1198:1263  function set(uint num) public{\r... */\n      pop\n      jump\t// out\n        /* \"contracts/firstSolidity.sol\":1420:1499  function get() public view returns (uint) {\r... */\n    tag_17:\n        /* \"contracts/firstSolidity.sol\":1456:1460  uint */\n      0x00\n        /* \"contracts/firstSolidity.sol\":1480:1491  positiveNum */\n      sload(0x03)\n        /* \"contracts/firstSolidity.sol\":1473:1491  return positiveNum */\n      swap1\n      pop\n        /* \"contracts/firstSolidity.sol\":1420:1499  function get() public view returns (uint) {\r... */\n      swap1\n      jump\t// out\n        /* \"contracts/firstSolidity.sol\":1040:1078  string public Name= \"solidity program\" */\n    tag_21:\n      0x06\n      dup1\n      sload\n      tag_30\n      swap1\n      tag_31\n      jump\t// in\n    tag_30:\n      dup1\n      0x1f\n      add\n      0x20\n      dup1\n      swap2\n      div\n      mul\n      0x20\n      add\n      mload(0x40)\n      swap1\n      dup2\n      add\n      0x40\n      mstore\n      dup1\n      swap3\n      swap2\n      swap1\n      dup2\n      dup2\n      mstore\n      0x20\n      add\n      dup3\n      dup1\n      sload\n      tag_32\n      swap1\n      tag_31\n      jump\t// in\n    tag_32:\n      dup1\n      iszero\n      tag_33\n      jumpi\n      dup1\n      0x1f\n      lt\n      tag_34\n      jumpi\n      0x0100\n      dup1\n      dup4\n      sload\n      div\n      mul\n      dup4\n      mstore\n      swap2\n      0x20\n      add\n      swap2\n      jump(tag_33)\n    tag_34:\n      dup3\n      add\n      swap2\n      swap1\n      0x00\n      mstore\n      keccak256(0x00, 0x20)\n      swap1\n    tag_35:\n      dup2\n      sload\n      dup2\n      mstore\n      swap1\n      0x01\n      add\n      swap1\n      0x20\n      add\n      dup1\n      dup4\n      gt\n      tag_35\n      jumpi\n      dup3\n      swap1\n      sub\n      0x1f\n      and\n      dup3\n      add\n      swap2\n    tag_33:\n      pop\n      pop\n      pop\n      pop\n      pop\n      dup2\n      jump\t// out\n        /* \"contracts/firstSolidity.sol\":1686:1751  Employee public employee1 = Employee({UniqueNum:7,name:\"devesh\"}) */\n    tag_25:\n      0x07\n      dup1\n      0x00\n      add\n      0x00\n      swap1\n      sload\n      swap1\n      0x0100\n      exp\n      swap1\n      div\n      0xffffffff\n      and\n      swap1\n      dup1\n      0x01\n      add\n      dup1\n      sload\n      tag_36\n      swap1\n      tag_31\n      jump\t// in\n    tag_36:\n      dup1\n      0x1f\n      add\n      0x20\n      dup1\n      swap2\n      div\n      mul\n      0x20\n      add\n      mload(0x40)\n      swap1\n      dup2\n      add\n      0x40\n      mstore\n      dup1\n      swap3\n      swap2\n      swap1\n      dup2\n      dup2\n      mstore\n      0x20\n      add\n      dup3\n      dup1\n      sload\n      tag_37\n      swap1\n      tag_31\n      jump\t// in\n    tag_37:\n      dup1\n      iszero\n      tag_38\n      jumpi\n      dup1\n      0x1f\n      lt\n      tag_39\n      jumpi\n      0x0100\n      dup1\n      dup4\n      sload\n      div\n      mul\n      dup4\n      mstore\n      swap2\n      0x20\n      add\n      swap2\n      jump(tag_38)\n    tag_39:\n      dup3\n      add\n      swap2\n      swap1\n      0x00\n      mstore\n      keccak256(0x00, 0x20)\n      swap1\n    tag_40:\n      dup2\n      sload\n      dup2\n      mstore\n      swap1\n      0x01\n      add\n      swap1\n      0x20\n      add\n      dup1\n      dup4\n      gt\n      tag_40\n      jumpi\n      dup3\n      swap1\n      sub\n      0x1f\n      and\n      dup3\n      add\n      swap2\n    tag_38:\n      pop\n      pop\n      pop\n      pop\n      pop\n      swap1\n      pop\n      dup3\n      jump\t// out\n        /* \"#utility.yul\":7:146   */\n    tag_42:\n        /* \"#utility.yul\":53:58   */\n      0x00\n        /* \"#utility.yul\":91:97   */\n      dup2\n        /* \"#utility.yul\":78:98   */\n      calldataload\n        /* \"#utility.yul\":69:98   */\n      swap1\n      pop\n        /* \"#utility.yul\":107:140   */\n      tag_44\n        /* \"#utility.yul\":134:139   */\n      dup2\n        /* \"#utility.yul\":107:140   */\n      tag_45\n      jump\t// in\n    tag_44:\n        /* \"#utility.yul\":7:146   */\n      swap3\n      swap2\n      pop\n      pop\n      jump\t// out\n        /* \"#utility.yul\":152:481   */\n    tag_14:\n        /* \"#utility.yul\":211:217   */\n      0x00\n        /* \"#utility.yul\":260:262   */\n      0x20\n        /* \"#utility.yul\":248:257   */\n      dup3\n        /* \"#utility.yul\":239:246   */\n      dup5\n        /* \"#utility.yul\":235:258   */\n      sub\n        /* \"#utility.yul\":231:263   */\n      slt\n        /* \"#utility.yul\":228:347   */\n      iszero\n      tag_47\n      jumpi\n        /* \"#utility.yul\":266:345   */\n      tag_48\n      tag_49\n      jump\t// in\n    tag_48:\n        /* \"#utility.yul\":228:347   */\n    tag_47:\n        /* \"#utility.yul\":386:387   */\n      0x00\n        /* \"#utility.yul\":411:464   */\n      tag_50\n        /* \"#utility.yul\":456:463   */\n      dup5\n        /* \"#utility.yul\":447:453   */\n      dup3\n        /* \"#utility.yul\":436:445   */\n      dup6\n        /* \"#utility.yul\":432:454   */\n      add\n        /* \"#utility.yul\":411:464   */\n      tag_42\n      jump\t// in\n    tag_50:\n        /* \"#utility.yul\":401:464   */\n      swap2\n      pop\n        /* \"#utility.yul\":357:474   */\n      pop\n        /* \"#utility.yul\":152:481   */\n      swap3\n      swap2\n      pop\n      pop\n      jump\t// out\n        /* \"#utility.yul\":487:605   */\n    tag_51:\n        /* \"#utility.yul\":574:598   */\n      tag_53\n        /* \"#utility.yul\":592:597   */\n      dup2\n        /* \"#utility.yul\":574:598   */\n      tag_54\n      jump\t// in\n    tag_53:\n        /* \"#utility.yul\":569:572   */\n      dup3\n        /* \"#utility.yul\":562:599   */\n      mstore\n        /* \"#utility.yul\":487:605   */\n      pop\n      pop\n      jump\t// out\n        /* \"#utility.yul\":611:975   */\n    tag_55:\n        /* \"#utility.yul\":699:702   */\n      0x00\n        /* \"#utility.yul\":727:766   */\n      tag_57\n        /* \"#utility.yul\":760:765   */\n      dup3\n        /* \"#utility.yul\":727:766   */\n      tag_58\n      jump\t// in\n    tag_57:\n        /* \"#utility.yul\":782:853   */\n      tag_59\n        /* \"#utility.yul\":846:852   */\n      dup2\n        /* \"#utility.yul\":841:844   */\n      dup6\n        /* \"#utility.yul\":782:853   */\n      tag_60\n      jump\t// in\n    tag_59:\n        /* \"#utility.yul\":775:853   */\n      swap4\n      pop\n        /* \"#utility.yul\":862:914   */\n      tag_61\n        /* \"#utility.yul\":907:913   */\n      dup2\n        /* \"#utility.yul\":902:905   */\n      dup6\n        /* \"#utility.yul\":895:899   */\n      0x20\n        /* \"#utility.yul\":888:893   */\n      dup7\n        /* \"#utility.yul\":884:900   */\n      add\n        /* \"#utility.yul\":862:914   */\n      tag_62\n      jump\t// in\n    tag_61:\n        /* \"#utility.yul\":939:968   */\n      tag_63\n        /* \"#utility.yul\":961:967   */\n      dup2\n        /* \"#utility.yul\":939:968   */\n      tag_64\n      jump\t// in\n    tag_63:\n        /* \"#utility.yul\":934:937   */\n      dup5\n        /* \"#utility.yul\":930:969   */\n      add\n        /* \"#utility.yul\":923:969   */\n      swap2\n      pop\n        /* \"#utility.yul\":703:975   */\n      pop\n        /* \"#utility.yul\":611:975   */\n      swap3\n      swap2\n      pop\n      pop\n      jump\t// out\n        /* \"#utility.yul\":981:1099   */\n    tag_65:\n        /* \"#utility.yul\":1068:1092   */\n      tag_67\n        /* \"#utility.yul\":1086:1091   */\n      dup2\n        /* \"#utility.yul\":1068:1092   */\n      tag_68\n      jump\t// in\n    tag_67:\n        /* \"#utility.yul\":1063:1066   */\n      dup3\n        /* \"#utility.yul\":1056:1093   */\n      mstore\n        /* \"#utility.yul\":981:1099   */\n      pop\n      pop\n      jump\t// out\n        /* \"#utility.yul\":1105:1220   */\n    tag_69:\n        /* \"#utility.yul\":1190:1213   */\n      tag_71\n        /* \"#utility.yul\":1207:1212   */\n      dup2\n        /* \"#utility.yul\":1190:1213   */\n      tag_72\n      jump\t// in\n    tag_71:\n        /* \"#utility.yul\":1185:1188   */\n      dup3\n        /* \"#utility.yul\":1178:1214   */\n      mstore\n        /* \"#utility.yul\":1105:1220   */\n      pop\n      pop\n      jump\t// out\n        /* \"#utility.yul\":1226:1448   */\n    tag_11:\n        /* \"#utility.yul\":1319:1323   */\n      0x00\n        /* \"#utility.yul\":1357:1359   */\n      0x20\n        /* \"#utility.yul\":1346:1355   */\n      dup3\n        /* \"#utility.yul\":1342:1360   */\n      add\n        /* \"#utility.yul\":1334:1360   */\n      swap1\n      pop\n        /* \"#utility.yul\":1370:1441   */\n      tag_74\n        /* \"#utility.yul\":1438:1439   */\n      0x00\n        /* \"#utility.yul\":1427:1436   */\n      dup4\n        /* \"#utility.yul\":1423:1440   */\n      add\n        /* \"#utility.yul\":1414:1420   */\n      dup5\n        /* \"#utility.yul\":1370:1441   */\n      tag_51\n      jump\t// in\n    tag_74:\n        /* \"#utility.yul\":1226:1448   */\n      swap3\n      swap2\n      pop\n      pop\n      jump\t// out\n        /* \"#utility.yul\":1454:1767   */\n    tag_23:\n        /* \"#utility.yul\":1567:1571   */\n      0x00\n        /* \"#utility.yul\":1605:1607   */\n      0x20\n        /* \"#utility.yul\":1594:1603   */\n      dup3\n        /* \"#utility.yul\":1590:1608   */\n      add\n        /* \"#utility.yul\":1582:1608   */\n      swap1\n      pop\n        /* \"#utility.yul\":1654:1663   */\n      dup2\n        /* \"#utility.yul\":1648:1652   */\n      dup2\n        /* \"#utility.yul\":1644:1664   */\n      sub\n        /* \"#utility.yul\":1640:1641   */\n      0x00\n        /* \"#utility.yul\":1629:1638   */\n      dup4\n        /* \"#utility.yul\":1625:1642   */\n      add\n        /* \"#utility.yul\":1618:1665   */\n      mstore\n        /* \"#utility.yul\":1682:1760   */\n      tag_76\n        /* \"#utility.yul\":1755:1759   */\n      dup2\n        /* \"#utility.yul\":1746:1752   */\n      dup5\n        /* \"#utility.yul\":1682:1760   */\n      tag_55\n      jump\t// in\n    tag_76:\n        /* \"#utility.yul\":1674:1760   */\n      swap1\n      pop\n        /* \"#utility.yul\":1454:1767   */\n      swap3\n      swap2\n      pop\n      pop\n      jump\t// out\n        /* \"#utility.yul\":1773:1995   */\n    tag_19:\n        /* \"#utility.yul\":1866:1870   */\n      0x00\n        /* \"#utility.yul\":1904:1906   */\n      0x20\n        /* \"#utility.yul\":1893:1902   */\n      dup3\n        /* \"#utility.yul\":1889:1907   */\n      add\n        /* \"#utility.yul\":1881:1907   */\n      swap1\n      pop\n        /* \"#utility.yul\":1917:1988   */\n      tag_78\n        /* \"#utility.yul\":1985:1986   */\n      0x00\n        /* \"#utility.yul\":1974:1983   */\n      dup4\n        /* \"#utility.yul\":1970:1987   */\n      add\n        /* \"#utility.yul\":1961:1967   */\n      dup5\n        /* \"#utility.yul\":1917:1988   */\n      tag_65\n      jump\t// in\n    tag_78:\n        /* \"#utility.yul\":1773:1995   */\n      swap3\n      swap2\n      pop\n      pop\n      jump\t// out\n        /* \"#utility.yul\":2001:2420   */\n    tag_27:\n        /* \"#utility.yul\":2140:2144   */\n      0x00\n        /* \"#utility.yul\":2178:2180   */\n      0x40\n        /* \"#utility.yul\":2167:2176   */\n      dup3\n        /* \"#utility.yul\":2163:2181   */\n      add\n        /* \"#utility.yul\":2155:2181   */\n      swap1\n      pop\n        /* \"#utility.yul\":2191:2260   */\n      tag_80\n        /* \"#utility.yul\":2257:2258   */\n      0x00\n        /* \"#utility.yul\":2246:2255   */\n      dup4\n        /* \"#utility.yul\":2242:2259   */\n      add\n        /* \"#utility.yul\":2233:2239   */\n      dup6\n        /* \"#utility.yul\":2191:2260   */\n      tag_69\n      jump\t// in\n    tag_80:\n        /* \"#utility.yul\":2307:2316   */\n      dup2\n        /* \"#utility.yul\":2301:2305   */\n      dup2\n        /* \"#utility.yul\":2297:2317   */\n      sub\n        /* \"#utility.yul\":2292:2294   */\n      0x20\n        /* \"#utility.yul\":2281:2290   */\n      dup4\n        /* \"#utility.yul\":2277:2295   */\n      add\n        /* \"#utility.yul\":2270:2318   */\n      mstore\n        /* \"#utility.yul\":2335:2413   */\n      tag_81\n        /* \"#utility.yul\":2408:2412   */\n      dup2\n        /* \"#utility.yul\":2399:2405   */\n      dup5\n        /* \"#utility.yul\":2335:2413   */\n      tag_55\n      jump\t// in\n    tag_81:\n        /* \"#utility.yul\":2327:2413   */\n      swap1\n      pop\n        /* \"#utility.yul\":2001:2420   */\n      swap4\n      swap3\n      pop\n      pop\n      pop\n      jump\t// out\n        /* \"#utility.yul\":2507:2606   */\n    tag_58:\n        /* \"#utility.yul\":2559:2565   */\n      0x00\n        /* \"#utility.yul\":2593:2598   */\n      dup2\n        /* \"#utility.yul\":2587:2599   */\n      mload\n        /* \"#utility.yul\":2577:2599   */\n      swap1\n      pop\n        /* \"#utility.yul\":2507:2606   */\n      swap2\n      swap1\n      pop\n      jump\t// out\n        /* \"#utility.yul\":2612:2781   */\n    tag_60:\n        /* \"#utility.yul\":2696:2707   */\n      0x00\n        /* \"#utility.yul\":2730:2736   */\n      dup3\n        /* \"#utility.yul\":2725:2728   */\n      dup3\n        /* \"#utility.yul\":2718:2737   */\n      mstore\n        /* \"#utility.yul\":2770:2774   */\n      0x20\n        /* \"#utility.yul\":2765:2768   */\n      dup3\n        /* \"#utility.yul\":2761:2775   */\n      add\n        /* \"#utility.yul\":2746:2775   */\n      swap1\n      pop\n        /* \"#utility.yul\":2612:2781   */\n      swap3\n      swap2\n      pop\n      pop\n      jump\t// out\n        /* \"#utility.yul\":2787:2883   */\n    tag_54:\n        /* \"#utility.yul\":2824:2831   */\n      0x00\n        /* \"#utility.yul\":2853:2877   */\n      tag_87\n        /* \"#utility.yul\":2871:2876   */\n      dup3\n        /* \"#utility.yul\":2853:2877   */\n      tag_88\n      jump\t// in\n    tag_87:\n        /* \"#utility.yul\":2842:2877   */\n      swap1\n      pop\n        /* \"#utility.yul\":2787:2883   */\n      swap2\n      swap1\n      pop\n      jump\t// out\n        /* \"#utility.yul\":2889:3015   */\n    tag_88:\n        /* \"#utility.yul\":2926:2933   */\n      0x00\n        /* \"#utility.yul\":2966:3008   */\n      0xffffffffffffffffffffffffffffffffffffffff\n        /* \"#utility.yul\":2959:2964   */\n      dup3\n        /* \"#utility.yul\":2955:3009   */\n      and\n        /* \"#utility.yul\":2944:3009   */\n      swap1\n      pop\n        /* \"#utility.yul\":2889:3015   */\n      swap2\n      swap1\n      pop\n      jump\t// out\n        /* \"#utility.yul\":3021:3098   */\n    tag_68:\n        /* \"#utility.yul\":3058:3065   */\n      0x00\n        /* \"#utility.yul\":3087:3092   */\n      dup2\n        /* \"#utility.yul\":3076:3092   */\n      swap1\n      pop\n        /* \"#utility.yul\":3021:3098   */\n      swap2\n      swap1\n      pop\n      jump\t// out\n        /* \"#utility.yul\":3104:3197   */\n    tag_72:\n        /* \"#utility.yul\":3140:3147   */\n      0x00\n        /* \"#utility.yul\":3180:3190   */\n      0xffffffff\n        /* \"#utility.yul\":3173:3178   */\n      dup3\n        /* \"#utility.yul\":3169:3191   */\n      and\n        /* \"#utility.yul\":3158:3191   */\n      swap1\n      pop\n        /* \"#utility.yul\":3104:3197   */\n      swap2\n      swap1\n      pop\n      jump\t// out\n        /* \"#utility.yul\":3203:3510   */\n    tag_62:\n        /* \"#utility.yul\":3271:3272   */\n      0x00\n        /* \"#utility.yul\":3281:3394   */\n    tag_93:\n        /* \"#utility.yul\":3295:3301   */\n      dup4\n        /* \"#utility.yul\":3292:3293   */\n      dup2\n        /* \"#utility.yul\":3289:3302   */\n      lt\n        /* \"#utility.yul\":3281:3394   */\n      iszero\n      tag_95\n      jumpi\n        /* \"#utility.yul\":3380:3381   */\n      dup1\n        /* \"#utility.yul\":3375:3378   */\n      dup3\n        /* \"#utility.yul\":3371:3382   */\n      add\n        /* \"#utility.yul\":3365:3383   */\n      mload\n        /* \"#utility.yul\":3361:3362   */\n      dup2\n        /* \"#utility.yul\":3356:3359   */\n      dup5\n        /* \"#utility.yul\":3352:3363   */\n      add\n        /* \"#utility.yul\":3345:3384   */\n      mstore\n        /* \"#utility.yul\":3317:3319   */\n      0x20\n        /* \"#utility.yul\":3314:3315   */\n      dup2\n        /* \"#utility.yul\":3310:3320   */\n      add\n        /* \"#utility.yul\":3305:3320   */\n      swap1\n      pop\n        /* \"#utility.yul\":3281:3394   */\n      jump(tag_93)\n    tag_95:\n        /* \"#utility.yul\":3412:3418   */\n      dup4\n        /* \"#utility.yul\":3409:3410   */\n      dup2\n        /* \"#utility.yul\":3406:3419   */\n      gt\n        /* \"#utility.yul\":3403:3504   */\n      iszero\n      tag_96\n      jumpi\n        /* \"#utility.yul\":3492:3493   */\n      0x00\n        /* \"#utility.yul\":3483:3489   */\n      dup5\n        /* \"#utility.yul\":3478:3481   */\n      dup5\n        /* \"#utility.yul\":3474:3490   */\n      add\n        /* \"#utility.yul\":3467:3494   */\n      mstore\n        /* \"#utility.yul\":3403:3504   */\n    tag_96:\n        /* \"#utility.yul\":3252:3510   */\n      pop\n        /* \"#utility.yul\":3203:3510   */\n      pop\n      pop\n      pop\n      jump\t// out\n        /* \"#utility.yul\":3516:3836   */\n    tag_31:\n        /* \"#utility.yul\":3560:3566   */\n      0x00\n        /* \"#utility.yul\":3597:3598   */\n      0x02\n        /* \"#utility.yul\":3591:3595   */\n      dup3\n        /* \"#utility.yul\":3587:3599   */\n      div\n        /* \"#utility.yul\":3577:3599   */\n      swap1\n      pop\n        /* \"#utility.yul\":3644:3645   */\n      0x01\n        /* \"#utility.yul\":3638:3642   */\n      dup3\n        /* \"#utility.yul\":3634:3646   */\n      and\n        /* \"#utility.yul\":3665:3683   */\n      dup1\n        /* \"#utility.yul\":3655:3736   */\n      tag_98\n      jumpi\n        /* \"#utility.yul\":3721:3725   */\n      0x7f\n        /* \"#utility.yul\":3713:3719   */\n      dup3\n        /* \"#utility.yul\":3709:3726   */\n      and\n        /* \"#utility.yul\":3699:3726   */\n      swap2\n      pop\n        /* \"#utility.yul\":3655:3736   */\n    tag_98:\n        /* \"#utility.yul\":3783:3785   */\n      0x20\n        /* \"#utility.yul\":3775:3781   */\n      dup3\n        /* \"#utility.yul\":3772:3786   */\n      lt\n        /* \"#utility.yul\":3752:3770   */\n      dup2\n        /* \"#utility.yul\":3749:3787   */\n      eq\n        /* \"#utility.yul\":3746:3830   */\n      iszero\n      tag_99\n      jumpi\n        /* \"#utility.yul\":3802:3820   */\n      tag_100\n      tag_101\n      jump\t// in\n    tag_100:\n        /* \"#utility.yul\":3746:3830   */\n    tag_99:\n        /* \"#utility.yul\":3567:3836   */\n      pop\n        /* \"#utility.yul\":3516:3836   */\n      swap2\n      swap1\n      pop\n      jump\t// out\n        /* \"#utility.yul\":3842:4022   */\n    tag_101:\n        /* \"#utility.yul\":3890:3967   */\n      0x4e487b7100000000000000000000000000000000000000000000000000000000\n        /* \"#utility.yul\":3887:3888   */\n      0x00\n        /* \"#utility.yul\":3880:3968   */\n      mstore\n        /* \"#utility.yul\":3987:3991   */\n      0x22\n        /* \"#utility.yul\":3984:3985   */\n      0x04\n        /* \"#utility.yul\":3977:3992   */\n      mstore\n        /* \"#utility.yul\":4011:4015   */\n      0x24\n        /* \"#utility.yul\":4008:4009   */\n      0x00\n        /* \"#utility.yul\":4001:4016   */\n      revert\n        /* \"#utility.yul\":4151:4268   */\n    tag_49:\n        /* \"#utility.yul\":4260:4261   */\n      0x00\n        /* \"#utility.yul\":4257:4258   */\n      dup1\n        /* \"#utility.yul\":4250:4262   */\n      revert\n        /* \"#utility.yul\":4274:4376   */\n    tag_64:\n        /* \"#utility.yul\":4315:4321   */\n      0x00\n        /* \"#utility.yul\":4366:4368   */\n      0x1f\n        /* \"#utility.yul\":4362:4369   */\n      not\n        /* \"#utility.yul\":4357:4359   */\n      0x1f\n        /* \"#utility.yul\":4350:4355   */\n      dup4\n        /* \"#utility.yul\":4346:4360   */\n      add\n        /* \"#utility.yul\":4342:4370   */\n      and\n        /* \"#utility.yul\":4332:4370   */\n      swap1\n      pop\n        /* \"#utility.yul\":4274:4376   */\n      swap2\n      swap1\n      pop\n      jump\t// out\n        /* \"#utility.yul\":4382:4504   */\n    tag_45:\n        /* \"#utility.yul\":4455:4479   */\n      tag_108\n        /* \"#utility.yul\":4473:4478   */\n      dup2\n        /* \"#utility.yul\":4455:4479   */\n      tag_68\n      jump\t// in\n    tag_108:\n        /* \"#utility.yul\":4448:4453   */\n      dup2\n        /* \"#utility.yul\":4445:4480   */\n      eq\n        /* \"#utility.yul\":4435:4498   */\n      tag_109\n      jumpi\n        /* \"#utility.yul\":4494:4495   */\n      0x00\n        /* \"#utility.yul\":4491:4492   */\n      dup1\n        /* \"#utility.yul\":4484:4496   */\n      revert\n        /* \"#utility.yul\":4435:4498   */\n    tag_109:\n        /* \"#utility.yul\":4382:4504   */\n      pop\n      jump\t// out\n\n    auxdata: 0xa26469706673582212206f90213fece3e245bd1fb1c60ba16a408b544a35c9388afc1ba7779407dfa0fc64736f6c63430008070033\n}\n",
				"bytecode": {
					"linkReferences": {},
					"object": "608060405260016000806101000a81548160ff0219169083151502179055507fffffffffffffffffffffffffffffffffffffffffffffffffffffffffffffff85600155607b60035573e4a976fdea6caa37638a4554f3779663535af314600460006101000a81548173ffffffffffffffffffffffffffffffffffffffff021916908373ffffffffffffffffffffffffffffffffffffffff1602179055507f737570706f7365206e616d65206f722066696c650000000000000000000000006005556040518060400160405280601081526020017f736f6c69646974792070726f6772616d000000000000000000000000000000008152506006908051906020019061010b9291906101b7565b506040518060400160405280600763ffffffff1681526020016040518060400160405280600681526020017f6465766573680000000000000000000000000000000000000000000000000000815250815250600760008201518160000160006101000a81548163ffffffff021916908363ffffffff16021790555060208201518160010190805190602001906101a29291906101b7565b5050503480156101b157600080fd5b506102bb565b8280546101c39061025a565b90600052602060002090601f0160209004810192826101e5576000855561022c565b82601f106101fe57805160ff191683800117855561022c565b8280016001018555821561022c579182015b8281111561022b578251825591602001919060010190610210565b5b509050610239919061023d565b5090565b5b8082111561025657600081600090555060010161023e565b5090565b6000600282049050600182168061027257607f821691505b602082108114156102865761028561028c565b5b50919050565b7f4e487b7100000000000000000000000000000000000000000000000000000000600052602260045260246000fd5b6104f2806102ca6000396000f3fe608060405234801561001057600080fd5b50600436106100575760003560e01c80634d96a0031461005c57806360fe47b11461007a5780636d4ce63c146100965780638052474d146100b4578063b75113b1146100d2575b600080fd5b6100646100f1565b604051610071919061030b565b60405180910390f35b610094600480360381019061008f9190610278565b610117565b005b61009e610121565b6040516100ab9190610348565b60405180910390f35b6100bc61012b565b6040516100c99190610326565b60405180910390f35b6100da6101b9565b6040516100e8929190610363565b60405180910390f35b600460009054906101000a900473ffffffffffffffffffffffffffffffffffffffff1681565b8060038190555050565b6000600354905090565b600680546101389061042e565b80601f01602080910402602001604051908101604052809291908181526020018280546101649061042e565b80156101b15780601f10610186576101008083540402835291602001916101b1565b820191906000526020600020905b81548152906001019060200180831161019457829003601f168201915b505050505081565b60078060000160009054906101000a900463ffffffff16908060010180546101e09061042e565b80601f016020809104026020016040519081016040528092919081815260200182805461020c9061042e565b80156102595780601f1061022e57610100808354040283529160200191610259565b820191906000526020600020905b81548152906001019060200180831161023c57829003601f168201915b5050505050905082565b600081359050610272816104a5565b92915050565b60006020828403121561028e5761028d61048f565b5b600061029c84828501610263565b91505092915050565b6102ae816103af565b82525050565b60006102bf82610393565b6102c9818561039e565b93506102d98185602086016103fb565b6102e281610494565b840191505092915050565b6102f6816103e1565b82525050565b610305816103eb565b82525050565b600060208201905061032060008301846102a5565b92915050565b6000602082019050818103600083015261034081846102b4565b905092915050565b600060208201905061035d60008301846102ed565b92915050565b600060408201905061037860008301856102fc565b818103602083015261038a81846102b4565b90509392505050565b600081519050919050565b600082825260208201905092915050565b60006103ba826103c1565b9050919050565b600073ffffffffffffffffffffffffffffffffffffffff82169050919050565b6000819050919050565b600063ffffffff82169050919050565b60005b838110156104195780820151818401526020810190506103fe565b83811115610428576000848401525b50505050565b6000600282049050600182168061044657607f821691505b6020821081141561045a57610459610460565b5b50919050565b7f4e487b7100000000000000000000000000000000000000000000000000000000600052602260045260246000fd5b600080fd5b6000601f19601f8301169050919050565b6104ae816103e1565b81146104b957600080fd5b5056fea26469706673582212206f90213fece3e245bd1fb1c60ba16a408b544a35c9388afc1ba7779407dfa0fc64736f6c63430008070033",
					"opcodes": "PUSH1 0x80 PUSH1 0x40 MSTORE PUSH1 0x1 PUSH1 0x0 DUP1 PUSH2 0x100 EXP DUP2 SLOAD DUP2 PUSH1 0xFF MUL NOT AND SWAP1 DUP4 ISZERO ISZERO MUL OR SWAP1 SSTORE POP PUSH32 0xFFFFFFFFFFFFFFFFFFFFFFFFFFFFFFFFFFFFFFFFFFFFFFFFFFFFFFFFFFFFFF85 PUSH1 0x1 SSTORE PUSH1 0x7B PUSH1 0x3 SSTORE PUSH20 0xE4A976FDEA6CAA37638A4554F3779663535AF314 PUSH1 0x4 PUSH1 0x0 PUSH2 0x100 EXP DUP2 SLOAD DUP2 PUSH20 0xFFFFFFFFFFFFFFFFFFFFFFFFFFFFFFFFFFFFFFFF MUL NOT AND SWAP1 DUP4 PUSH20 0xFFFFFFFFFFFFFFFFFFFFFFFFFFFFFFFFFFFFFFFF AND MUL OR SWAP1 SSTORE POP PUSH32 0x737570706F7365206E616D65206F722066696C65000000000000000000000000 PUSH1 0x5 SSTORE PUSH1 0x40 MLOAD DUP1 PUSH1 0x40 ADD PUSH1 0x40 MSTORE DUP1 PUSH1 0x10 DUP2 MSTORE PUSH1 0x20 ADD PUSH32 0x736F6C69646974792070726F6772616D00000000000000000000000000000000 DUP2 MSTORE POP PUSH1 0x6 SWAP1 DUP1 MLOAD SWAP1 PUSH1 0x20 ADD SWAP1 PUSH2 0x10B SWAP3 SWAP2 SWAP1 PUSH2 0x1B7 JUMP JUMPDEST POP PUSH1 0x40 MLOAD DUP1 PUSH1 0x40 ADD PUSH1 0x40 MSTORE DUP1 PUSH1 0x7 PUSH4 0xFFFFFFFF AND DUP2 MSTORE PUSH1 0x20 ADD PUSH1 0x40 MLOAD DUP1 PUSH1 0x40 ADD PUSH1 0x40 MSTORE DUP1 PUSH1 0x6 DUP2 MSTORE PUSH1 0x20 ADD PUSH32 0x6465766573680000000000000000000000000000000000000000000000000000 DUP2 MSTORE POP DUP2 MSTORE POP PUSH1 0x7 PUSH1 0x0 DUP3 ADD MLOAD DUP2 PUSH1 0x0 ADD PUSH1 0x0 PUSH2 0x100 EXP DUP2 SLOAD DUP2 PUSH4 0xFFFFFFFF MUL NOT AND SWAP1 DUP4 PUSH4 0xFFFFFFFF AND MUL OR SWAP1 SSTORE POP PUSH1 0x20 DUP3 ADD MLOAD DUP2 PUSH1 0x1 ADD SWAP1 DUP1 MLOAD SWAP1 PUSH1 0x20 ADD SWAP1 PUSH2 0x1A2 SWAP3 SWAP2 SWAP1 PUSH2 0x1B7 JUMP JUMPDEST POP POP POP CALLVALUE DUP1 ISZERO PUSH2 0x1B1 JUMPI PUSH1 0x0 DUP1 REVERT JUMPDEST POP PUSH2 0x2BB JUMP JUMPDEST DUP3 DUP1 SLOAD PUSH2 0x1C3 SWAP1 PUSH2 0x25A JUMP JUMPDEST SWAP1 PUSH1 0x0 MSTORE PUSH1 0x20 PUSH1 0x0 KECCAK256 SWAP1 PUSH1 0x1F ADD PUSH1 0x20 SWAP1 DIV DUP2 ADD SWAP3 DUP3 PUSH2 0x1E5 JUMPI PUSH1 0x0 DUP6 SSTORE PUSH2 0x22C JUMP JUMPDEST DUP3 PUSH1 0x1F LT PUSH2 0x1FE JUMPI DUP1 MLOAD PUSH1 0xFF NOT AND DUP4 DUP1 ADD OR DUP6 SSTORE PUSH2 0x22C JUMP JUMPDEST DUP3 DUP1 ADD PUSH1 0x1 ADD DUP6 SSTORE DUP3 ISZERO PUSH2 0x22C JUMPI SWAP2 DUP3 ADD JUMPDEST DUP3 DUP2 GT ISZERO PUSH2 0x22B JUMPI DUP3 MLOAD DUP3 SSTORE SWAP2 PUSH1 0x20 ADD SWAP2 SWAP1 PUSH1 0x1 ADD SWAP1 PUSH2 0x210 JUMP JUMPDEST JUMPDEST POP SWAP1 POP PUSH2 0x239 SWAP2 SWAP1 PUSH2 0x23D JUMP JUMPDEST POP SWAP1 JUMP JUMPDEST JUMPDEST DUP1 DUP3 GT ISZERO PUSH2 0x256 JUMPI PUSH1 0x0 DUP2 PUSH1 0x0 SWAP1 SSTORE POP PUSH1 0x1 ADD PUSH2 0x23E JUMP JUMPDEST POP SWAP1 JUMP JUMPDEST PUSH1 0x0 PUSH1 0x2 DUP3 DIV SWAP1 POP PUSH1 0x1 DUP3 AND DUP1 PUSH2 0x272 JUMPI PUSH1 0x7F DUP3 AND SWAP2 POP JUMPDEST PUSH1 0x20 DUP3 LT DUP2 EQ ISZERO PUSH2 0x286 JUMPI PUSH2 0x285 PUSH2 0x28C JUMP JUMPDEST JUMPDEST POP SWAP2 SWAP1 POP JUMP JUMPDEST PUSH32 0x4E487B7100000000000000000000000000000000000000000000000000000000 PUSH1 0x0 MSTORE PUSH1 0x22 PUSH1 0x4 MSTORE PUSH1 0x24 PUSH1 0x0 REVERT JUMPDEST PUSH2 0x4F2 DUP1 PUSH2 0x2CA PUSH1 0x0 CODECOPY PUSH1 0x0 RETURN INVALID PUSH1 0x80 PUSH1 0x40 MSTORE CALLVALUE DUP1 ISZERO PUSH2 0x10 JUMPI PUSH1 0x0 DUP1 REVERT JUMPDEST POP PUSH1 0x4 CALLDATASIZE LT PUSH2 0x57 JUMPI PUSH1 0x0 CALLDATALOAD PUSH1 0xE0 SHR DUP1 PUSH4 0x4D96A003 EQ PUSH2 0x5C JUMPI DUP1 PUSH4 0x60FE47B1 EQ PUSH2 0x7A JUMPI DUP1 PUSH4 0x6D4CE63C EQ PUSH2 0x96 JUMPI DUP1 PUSH4 0x8052474D EQ PUSH2 0xB4 JUMPI DUP1 PUSH4 0xB75113B1 EQ PUSH2 0xD2 JUMPI JUMPDEST PUSH1 0x0 DUP1 REVERT JUMPDEST PUSH2 0x64 PUSH2 0xF1 JUMP JUMPDEST PUSH1 0x40 MLOAD PUSH2 0x71 SWAP2 SWAP1 PUSH2 0x30B JUMP JUMPDEST PUSH1 0x40 MLOAD DUP1 SWAP2 SUB SWAP1 RETURN JUMPDEST PUSH2 0x94 PUSH1 0x4 DUP1 CALLDATASIZE SUB DUP2 ADD SWAP1 PUSH2 0x8F SWAP2 SWAP1 PUSH2 0x278 JUMP JUMPDEST PUSH2 0x117 JUMP JUMPDEST STOP JUMPDEST PUSH2 0x9E PUSH2 0x121 JUMP JUMPDEST PUSH1 0x40 MLOAD PUSH2 0xAB SWAP2 SWAP1 PUSH2 0x348 JUMP JUMPDEST PUSH1 0x40 MLOAD DUP1 SWAP2 SUB SWAP1 RETURN JUMPDEST PUSH2 0xBC PUSH2 0x12B JUMP JUMPDEST PUSH1 0x40 MLOAD PUSH2 0xC9 SWAP2 SWAP1 PUSH2 0x326 JUMP JUMPDEST PUSH1 0x40 MLOAD DUP1 SWAP2 SUB SWAP1 RETURN JUMPDEST PUSH2 0xDA PUSH2 0x1B9 JUMP JUMPDEST PUSH1 0x40 MLOAD PUSH2 0xE8 SWAP3 SWAP2 SWAP1 PUSH2 0x363 JUMP JUMPDEST PUSH1 0x40 MLOAD DUP1 SWAP2 SUB SWAP1 RETURN JUMPDEST PUSH1 0x4 PUSH1 0x0 SWAP1 SLOAD SWAP1 PUSH2 0x100 EXP SWAP1 DIV PUSH20 0xFFFFFFFFFFFFFFFFFFFFFFFFFFFFFFFFFFFFFFFF AND DUP2 JUMP JUMPDEST DUP1 PUSH1 0x3 DUP2 SWAP1 SSTORE POP POP JUMP JUMPDEST PUSH1 0x0 PUSH1 0x3 SLOAD SWAP1 POP SWAP1 JUMP JUMPDEST PUSH1 0x6 DUP1 SLOAD PUSH2 0x138 SWAP1 PUSH2 0x42E JUMP JUMPDEST DUP1 PUSH1 0x1F ADD PUSH1 0x20 DUP1 SWAP2 DIV MUL PUSH1 0x20 ADD PUSH1 0x40 MLOAD SWAP1 DUP2 ADD PUSH1 0x40 MSTORE DUP1 SWAP3 SWAP2 SWAP1 DUP2 DUP2 MSTORE PUSH1 0x20 ADD DUP3 DUP1 SLOAD PUSH2 0x164 SWAP1 PUSH2 0x42E JUMP JUMPDEST DUP1 ISZERO PUSH2 0x1B1 JUMPI DUP1 PUSH1 0x1F LT PUSH2 0x186 JUMPI PUSH2 0x100 DUP1 DUP4 SLOAD DIV MUL DUP4 MSTORE SWAP2 PUSH1 0x20 ADD SWAP2 PUSH2 0x1B1 JUMP JUMPDEST DUP3 ADD SWAP2 SWAP1 PUSH1 0x0 MSTORE PUSH1 0x20 PUSH1 0x0 KECCAK256 SWAP1 JUMPDEST DUP2 SLOAD DUP2 MSTORE SWAP1 PUSH1 0x1 ADD SWAP1 PUSH1 0x20 ADD DUP1 DUP4 GT PUSH2 0x194 JUMPI DUP3 SWAP1 SUB PUSH1 0x1F AND DUP3 ADD SWAP2 JUMPDEST POP POP POP POP POP DUP2 JUMP JUMPDEST PUSH1 0x7 DUP1 PUSH1 0x0 ADD PUSH1 0x0 SWAP1 SLOAD SWAP1 PUSH2 0x100 EXP SWAP1 DIV PUSH4 0xFFFFFFFF AND SWAP1 DUP1 PUSH1 0x1 ADD DUP1 SLOAD PUSH2 0x1E0 SWAP1 PUSH2 0x42E JUMP JUMPDEST DUP1 PUSH1 0x1F ADD PUSH1 0x20 DUP1 SWAP2 DIV MUL PUSH1 0x20 ADD PUSH1 0x40 MLOAD SWAP1 DUP2 ADD PUSH1 0x40 MSTORE DUP1 SWAP3 SWAP2 SWAP1 DUP2 DUP2 MSTORE PUSH1 0x20 ADD DUP3 DUP1 SLOAD PUSH2 0x20C SWAP1 PUSH2 0x42E JUMP JUMPDEST DUP1 ISZERO PUSH2 0x259 JUMPI DUP1 PUSH1 0x1F LT PUSH2 0x22E JUMPI PUSH2 0x100 DUP1 DUP4 SLOAD DIV MUL DUP4 MSTORE SWAP2 PUSH1 0x20 ADD SWAP2 PUSH2 0x259 JUMP JUMPDEST DUP3 ADD SWAP2 SWAP1 PUSH1 0x0 MSTORE PUSH1 0x20 PUSH1 0x0 KECCAK256 SWAP1 JUMPDEST DUP2 SLOAD DUP2 MSTORE SWAP1 PUSH1 0x1 ADD SWAP1 PUSH1 0x20 ADD DUP1 DUP4 GT PUSH2 0x23C JUMPI DUP3 SWAP1 SUB PUSH1 0x1F AND DUP3 ADD SWAP2 JUMPDEST POP POP POP POP POP SWAP1 POP DUP3 JUMP JUMPDEST PUSH1 0x0 DUP2 CALLDATALOAD SWAP1 POP PUSH2 0x272 DUP2 PUSH2 0x4A5 JUMP JUMPDEST SWAP3 SWAP2 POP POP JUMP JUMPDEST PUSH1 0x0 PUSH1 0x20 DUP3 DUP5 SUB SLT ISZERO PUSH2 0x28E JUMPI PUSH2 0x28D PUSH2 0x48F JUMP JUMPDEST JUMPDEST PUSH1 0x0 PUSH2 0x29C DUP5 DUP3 DUP6 ADD PUSH2 0x263 JUMP JUMPDEST SWAP2 POP POP SWAP3 SWAP2 POP POP JUMP JUMPDEST PUSH2 0x2AE DUP2 PUSH2 0x3AF JUMP JUMPDEST DUP3 MSTORE POP POP JUMP JUMPDEST PUSH1 0x0 PUSH2 0x2BF DUP3 PUSH2 0x393 JUMP JUMPDEST PUSH2 0x2C9 DUP2 DUP6 PUSH2 0x39E JUMP JUMPDEST SWAP4 POP PUSH2 0x2D9 DUP2 DUP6 PUSH1 0x20 DUP7 ADD PUSH2 0x3FB JUMP JUMPDEST PUSH2 0x2E2 DUP2 PUSH2 0x494 JUMP JUMPDEST DUP5 ADD SWAP2 POP POP SWAP3 SWAP2 POP POP JUMP JUMPDEST PUSH2 0x2F6 DUP2 PUSH2 0x3E1 JUMP JUMPDEST DUP3 MSTORE POP POP JUMP JUMPDEST PUSH2 0x305 DUP2 PUSH2 0x3EB JUMP JUMPDEST DUP3 MSTORE POP POP JUMP JUMPDEST PUSH1 0x0 PUSH1 0x20 DUP3 ADD SWAP1 POP PUSH2 0x320 PUSH1 0x0 DUP4 ADD DUP5 PUSH2 0x2A5 JUMP JUMPDEST SWAP3 SWAP2 POP POP JUMP JUMPDEST PUSH1 0x0 PUSH1 0x20 DUP3 ADD SWAP1 POP DUP2 DUP2 SUB PUSH1 0x0 DUP4 ADD MSTORE PUSH2 0x340 DUP2 DUP5 PUSH2 0x2B4 JUMP JUMPDEST SWAP1 POP SWAP3 SWAP2 POP POP JUMP JUMPDEST PUSH1 0x0 PUSH1 0x20 DUP3 ADD SWAP1 POP PUSH2 0x35D PUSH1 0x0 DUP4 ADD DUP5 PUSH2 0x2ED JUMP JUMPDEST SWAP3 SWAP2 POP POP JUMP JUMPDEST PUSH1 0x0 PUSH1 0x40 DUP3 ADD SWAP1 POP PUSH2 0x378 PUSH1 0x0 DUP4 ADD DUP6 PUSH2 0x2FC JUMP JUMPDEST DUP2 DUP2 SUB PUSH1 0x20 DUP4 ADD MSTORE PUSH2 0x38A DUP2 DUP5 PUSH2 0x2B4 JUMP JUMPDEST SWAP1 POP SWAP4 SWAP3 POP POP POP JUMP JUMPDEST PUSH1 0x0 DUP2 MLOAD SWAP1 POP SWAP2 SWAP1 POP JUMP JUMPDEST PUSH1 0x0 DUP3 DUP3 MSTORE PUSH1 0x20 DUP3 ADD SWAP1 POP SWAP3 SWAP2 POP POP JUMP JUMPDEST PUSH1 0x0 PUSH2 0x3BA DUP3 PUSH2 0x3C1 JUMP JUMPDEST SWAP1 POP SWAP2 SWAP1 POP JUMP JUMPDEST PUSH1 0x0 PUSH20 0xFFFFFFFFFFFFFFFFFFFFFFFFFFFFFFFFFFFFFFFF DUP3 AND SWAP1 POP SWAP2 SWAP1 POP JUMP JUMPDEST PUSH1 0x0 DUP2 SWAP1 POP SWAP2 SWAP1 POP JUMP JUMPDEST PUSH1 0x0 PUSH4 0xFFFFFFFF DUP3 AND SWAP1 POP SWAP2 SWAP1 POP JUMP JUMPDEST PUSH1 0x0 JUMPDEST DUP4 DUP2 LT ISZERO PUSH2 0x419 JUMPI DUP1 DUP3 ADD MLOAD DUP2 DUP5 ADD MSTORE PUSH1 0x20 DUP2 ADD SWAP1 POP PUSH2 0x3FE JUMP JUMPDEST DUP4 DUP2 GT ISZERO PUSH2 0x428 JUMPI PUSH1 0x0 DUP5 DUP5 ADD MSTORE JUMPDEST POP POP POP POP JUMP JUMPDEST PUSH1 0x0 PUSH1 0x2 DUP3 DIV SWAP1 POP PUSH1 0x1 DUP3 AND DUP1 PUSH2 0x446 JUMPI PUSH1 0x7F DUP3 AND SWAP2 POP JUMPDEST PUSH1 0x20 DUP3 LT DUP2 EQ ISZERO PUSH2 0x45A JUMPI PUSH2 0x459 PUSH2 0x460 JUMP JUMPDEST JUMPDEST POP SWAP2 SWAP1 POP JUMP JUMPDEST PUSH32 0x4E487B7100000000000000000000000000000000000000000000000000000000 PUSH1 0x0 MSTORE PUSH1 0x22 PUSH1 0x4 MSTORE PUSH1 0x24 PUSH1 0x0 REVERT JUMPDEST PUSH1 0x0 DUP1 REVERT JUMPDEST PUSH1 0x0 PUSH1 0x1F NOT PUSH1 0x1F DUP4 ADD AND SWAP1 POP SWAP2 SWAP1 POP JUMP JUMPDEST PUSH2 0x4AE DUP2 PUSH2 0x3E1 JUMP JUMPDEST DUP2 EQ PUSH2 0x4B9 JUMPI PUSH1 0x0 DUP1 REVERT JUMPDEST POP JUMP INVALID LOG2 PUSH5 0x6970667358 0x22 SLT KECCAK256 PUSH16 0x90213FECE3E245BD1FB1C60BA16A408B SLOAD 0x4A CALLDATALOAD 0xC9 CODESIZE DUP11 0xFC SHL 0xA7 PUSH24 0x9407DFA0FC64736F6C634300080700330000000000000000 "
				},
				"gasEstimates": {
					"creation": {
						"codeDepositCost": "253200",
						"executionCost": "infinite",
						"totalCost": "infinite"
					},
					"external": {
						"Name()": "infinite",
						"employee1()": "infinite",
						"get()": "2459",
						"myWalletAdd()": "2492",
						"set(uint256)": "22520"
					}
				},
				"methodIdentifiers": {
					"Name()": "8052474d",
					"employee1()": "b75113b1",
					"get()": "6d4ce63c",
					"myWalletAdd()": "4d96a003",
					"set(uint256)": "60fe47b1"
				}
			},
			"storageLayout": {
				"storage": [
					{
						"astId": 4,
						"contract": "contracts/firstSolidity.sol:FirstContract",
						"label": "BooleanVal",
						"offset": 0,
						"slot": "0",
						"type": "t_bool"
					},
					{
						"astId": 8,
						"contract": "contracts/firstSolidity.sol:FirstContract",
						"label": "positiveOrNegtiveNum",
						"offset": 0,
						"slot": "1",
						"type": "t_int256"
					},
					{
						"astId": 10,
						"contract": "contracts/firstSolidity.sol:FirstContract",
						"label": "EightBitNum",
						"offset": 0,
						"slot": "2",
						"type": "t_int8"
					},
					{
						"astId": 13,
						"contract": "contracts/firstSolidity.sol:FirstContract",
						"label": "positiveNum",
						"offset": 0,
						"slot": "3",
						"type": "t_uint256"
					},
					{
						"astId": 16,
						"contract": "contracts/firstSolidity.sol:FirstContract",
						"label": "myWalletAdd",
						"offset": 0,
						"slot": "4",
						"type": "t_address"
					},
					{
						"astId": 19,
						"contract": "contracts/firstSolidity.sol:FirstContract",
						"label": "anyNumOfByteData",
						"offset": 0,
						"slot": "5",
						"type": "t_bytes32"
					},
					{
						"astId": 22,
						"contract": "contracts/firstSolidity.sol:FirstContract",
						"label": "Name",
						"offset": 0,
						"slot": "6",
						"type": "t_string_storage"
					},
					{
						"astId": 52,
						"contract": "contracts/firstSolidity.sol:FirstContract",
						"label": "employee1",
						"offset": 0,
						"slot": "7",
						"type": "t_struct(Employee)45_storage"
					}
				],
				"types": {
					"t_address": {
						"encoding": "inplace",
						"label": "address",
						"numberOfBytes": "20"
					},
					"t_bool": {
						"encoding": "inplace",
						"label": "bool",
						"numberOfBytes": "1"
					},
					"t_bytes32": {
						"encoding": "inplace",
						"label": "bytes32",
						"numberOfBytes": "32"
					},
					"t_int256": {
						"encoding": "inplace",
						"label": "int256",
						"numberOfBytes": "32"
					},
					"t_int8": {
						"encoding": "inplace",
						"label": "int8",
						"numberOfBytes": "1"
					},
					"t_string_storage": {
						"encoding": "bytes",
						"label": "string",
						"numberOfBytes": "32"
					},
					"t_struct(Employee)45_storage": {
						"encoding": "inplace",
						"label": "struct FirstContract.Employee",
						"members": [
							{
								"astId": 42,
								"contract": "contracts/firstSolidity.sol:FirstContract",
								"label": "UniqueNum",
								"offset": 0,
								"slot": "0",
								"type": "t_uint32"
							},
							{
								"astId": 44,
								"contract": "contracts/firstSolidity.sol:FirstContract",
								"label": "name",
								"offset": 0,
								"slot": "1",
								"type": "t_string_storage"
							}
						],
						"numberOfBytes": "64"
					},
					"t_uint256": {
						"encoding": "inplace",
						"label": "uint256",
						"numberOfBytes": "32"
					},
					"t_uint32": {
						"encoding": "inplace",
						"label": "uint32",
						"numberOfBytes": "4"
					}
				}
			},
			"userdoc": {
				"kind": "user",
				"methods": {},
				"version": 1
			}
		}
	}
}