{
	"contracts/firstSolidity.sol": {
		"FirstContract": {
			"abi": [
				{
					"inputs": [],
					"name": "Name",
					"outputs": [
						{
							"internalType": "string",
							"name": "",
							"type": "string"
						}
					],
					"stateMutability": "view",
					"type": "function"
				},
				{
					"inputs": [],
					"name": "get",
					"outputs": [
						{
							"internalType": "uint256",
							"name": "",
							"type": "uint256"
						}
					],
					"stateMutability": "view",
					"type": "function"
				},
				{
					"inputs": [],
					"name": "myWalletAdd",
					"outputs": [
						{
							"internalType": "address",
							"name": "",
							"type": "address"
						}
					],
					"stateMutability": "view",
					"type": "function"
				},
				{
					"inputs": [
						{
							"internalType": "uint256",
							"name": "num",
							"type": "uint256"
						}
					],
					"name": "set",
					"outputs": [],
					"stateMutability": "nonpayable",
					"type": "function"
				}
			],
			"devdoc": {
				"kind": "dev",
				"methods": {},
				"version": 1
			},
			"evm": {
				"assembly": "    /* \"contracts/firstSolidity.sol\":84:1339  contract FirstContract {\r... */\n  mstore(0x40, 0x80)\n    /* \"contracts/firstSolidity.sol\":256:260  true */\n  0x01\n    /* \"contracts/firstSolidity.sol\":238:260  bool BooleanVal = true */\n  0x00\n  dup1\n  0x0100\n  exp\n  dup2\n  sload\n  dup2\n  0xff\n  mul\n  not\n  and\n  swap1\n  dup4\n  iszero\n  iszero\n  mul\n  or\n  swap1\n  sstore\n  pop\n    /* \"contracts/firstSolidity.sol\":294:298  -123 */\n  0xffffffffffffffffffffffffffffffffffffffffffffffffffffffffffffff85\n    /* \"contracts/firstSolidity.sol\":267:298  int positiveOrNegtiveNum = -123 */\n  0x01\n  sstore\n    /* \"contracts/firstSolidity.sol\":372:375  123 */\n  0x7b\n    /* \"contracts/firstSolidity.sol\":353:375  uint positiveNum = 123 */\n  0x03\n  sstore\n    /* \"contracts/firstSolidity.sol\":732:774  0xE4A976FdEa6CAA37638a4554F3779663535af314 */\n  0xe4a976fdea6caa37638a4554f3779663535af314\n    /* \"contracts/firstSolidity.sol\":703:774  address public myWalletAdd = 0xE4A976FdEa6CAA37638a4554F3779663535af314 */\n  0x04\n  exp(0x0100, 0x00)\n  dup2\n  sload\n  dup2\n  0xffffffffffffffffffffffffffffffffffffffff\n  mul\n  not\n  and\n  swap1\n  dup4\n  0xffffffffffffffffffffffffffffffffffffffff\n  and\n  mul\n  or\n  swap1\n  sstore\n  pop\n    /* \"contracts/firstSolidity.sol\":781:830  bytes32 anyNumOfByteData = \"suppose name or file\" */\n  sstore(0x05, 0x737570706f7365206e616d65206f722066696c65000000000000000000000000)\n    /* \"contracts/firstSolidity.sol\":1018:1056  string public Name= \"solidity program\" */\n  mload(0x40)\n  dup1\n  0x40\n  add\n  0x40\n  mstore\n  dup1\n  0x10\n  dup2\n  mstore\n  0x20\n  add\n  0x736f6c69646974792070726f6772616d00000000000000000000000000000000\n  dup2\n  mstore\n  pop\n  0x06\n  swap1\n  dup1\n  mload\n  swap1\n  0x20\n  add\n  swap1\n  tag_1\n  swap3\n  swap2\n  swap1\n  tag_2\n  jump\t// in\ntag_1:\n  pop\n    /* \"contracts/firstSolidity.sol\":84:1339  contract FirstContract {\r... */\n  callvalue\n  dup1\n  iszero\n  tag_3\n  jumpi\n  0x00\n  dup1\n  revert\ntag_3:\n  pop\n  jump(tag_4)\ntag_2:\n  dup3\n  dup1\n  sload\n  tag_5\n  swap1\n  tag_6\n  jump\t// in\ntag_5:\n  swap1\n  0x00\n  mstore\n  keccak256(0x00, 0x20)\n  swap1\n  0x1f\n  add\n  0x20\n  swap1\n  div\n  dup2\n  add\n  swap3\n  dup3\n  tag_8\n  jumpi\n  0x00\n  dup6\n  sstore\n  jump(tag_7)\ntag_8:\n  dup3\n  0x1f\n  lt\n  tag_9\n  jumpi\n  dup1\n  mload\n  not(0xff)\n  and\n  dup4\n  dup1\n  add\n  or\n  dup6\n  sstore\n  jump(tag_7)\ntag_9:\n  dup3\n  dup1\n  add\n  0x01\n  add\n  dup6\n  sstore\n  dup3\n  iszero\n  tag_7\n  jumpi\n  swap2\n  dup3\n  add\ntag_10:\n  dup3\n  dup2\n  gt\n  iszero\n  tag_11\n  jumpi\n  dup3\n  mload\n  dup3\n  sstore\n  swap2\n  0x20\n  add\n  swap2\n  swap1\n  0x01\n  add\n  swap1\n  jump(tag_10)\ntag_11:\ntag_7:\n  pop\n  swap1\n  pop\n  tag_12\n  swap2\n  swap1\n  tag_13\n  jump\t// in\ntag_12:\n  pop\n  swap1\n  jump\t// out\ntag_13:\ntag_14:\n  dup1\n  dup3\n  gt\n  iszero\n  tag_15\n  jumpi\n  0x00\n  dup2\n  0x00\n  swap1\n  sstore\n  pop\n  0x01\n  add\n  jump(tag_14)\ntag_15:\n  pop\n  swap1\n  jump\t// out\n    /* \"#utility.yul\":7:327   */\ntag_6:\n    /* \"#utility.yul\":51:57   */\n  0x00\n    /* \"#utility.yul\":88:89   */\n  0x02\n    /* \"#utility.yul\":82:86   */\n  dup3\n    /* \"#utility.yul\":78:90   */\n  div\n    /* \"#utility.yul\":68:90   */\n  swap1\n  pop\n    /* \"#utility.yul\":135:136   */\n  0x01\n    /* \"#utility.yul\":129:133   */\n  dup3\n    /* \"#utility.yul\":125:137   */\n  and\n    /* \"#utility.yul\":156:174   */\n  dup1\n    /* \"#utility.yul\":146:227   */\n  tag_18\n  jumpi\n    /* \"#utility.yul\":212:216   */\n  0x7f\n    /* \"#utility.yul\":204:210   */\n  dup3\n    /* \"#utility.yul\":200:217   */\n  and\n    /* \"#utility.yul\":190:217   */\n  swap2\n  pop\n    /* \"#utility.yul\":146:227   */\ntag_18:\n    /* \"#utility.yul\":274:276   */\n  0x20\n    /* \"#utility.yul\":266:272   */\n  dup3\n    /* \"#utility.yul\":263:277   */\n  lt\n    /* \"#utility.yul\":243:261   */\n  dup2\n    /* \"#utility.yul\":240:278   */\n  eq\n    /* \"#utility.yul\":237:321   */\n  iszero\n  tag_19\n  jumpi\n    /* \"#utility.yul\":293:311   */\n  tag_20\n  tag_21\n  jump\t// in\ntag_20:\n    /* \"#utility.yul\":237:321   */\ntag_19:\n    /* \"#utility.yul\":58:327   */\n  pop\n    /* \"#utility.yul\":7:327   */\n  swap2\n  swap1\n  pop\n  jump\t// out\n    /* \"#utility.yul\":333:513   */\ntag_21:\n    /* \"#utility.yul\":381:458   */\n  0x4e487b7100000000000000000000000000000000000000000000000000000000\n    /* \"#utility.yul\":378:379   */\n  0x00\n    /* \"#utility.yul\":371:459   */\n  mstore\n    /* \"#utility.yul\":478:482   */\n  0x22\n    /* \"#utility.yul\":475:476   */\n  0x04\n    /* \"#utility.yul\":468:483   */\n  mstore\n    /* \"#utility.yul\":502:506   */\n  0x24\n    /* \"#utility.yul\":499:500   */\n  0x00\n    /* \"#utility.yul\":492:507   */\n  revert\n    /* \"contracts/firstSolidity.sol\":84:1339  contract FirstContract {\r... */\ntag_4:\n  dataSize(sub_0)\n  dup1\n  dataOffset(sub_0)\n  0x00\n  codecopy\n  0x00\n  return\nstop\n\nsub_0: assembly {\n        /* \"contracts/firstSolidity.sol\":84:1339  contract FirstContract {\r... */\n      mstore(0x40, 0x80)\n      callvalue\n      dup1\n      iszero\n      tag_1\n      jumpi\n      0x00\n      dup1\n      revert\n    tag_1:\n      pop\n      jumpi(tag_2, lt(calldatasize, 0x04))\n      shr(0xe0, calldataload(0x00))\n      dup1\n      0x4d96a003\n      eq\n      tag_3\n      jumpi\n      dup1\n      0x60fe47b1\n      eq\n      tag_4\n      jumpi\n      dup1\n      0x6d4ce63c\n      eq\n      tag_5\n      jumpi\n      dup1\n      0x8052474d\n      eq\n      tag_6\n      jumpi\n    tag_2:\n      0x00\n      dup1\n      revert\n        /* \"contracts/firstSolidity.sol\":703:774  address public myWalletAdd = 0xE4A976FdEa6CAA37638a4554F3779663535af314 */\n    tag_3:\n      tag_7\n      tag_8\n      jump\t// in\n    tag_7:\n      mload(0x40)\n      tag_9\n      swap2\n      swap1\n      tag_10\n      jump\t// in\n    tag_9:\n      mload(0x40)\n      dup1\n      swap2\n      sub\n      swap1\n      return\n        /* \"contracts/firstSolidity.sol\":1263:1328  function set(uint num) public{\r... */\n    tag_4:\n      tag_11\n      0x04\n      dup1\n      calldatasize\n      sub\n      dup2\n      add\n      swap1\n      tag_12\n      swap2\n      swap1\n      tag_13\n      jump\t// in\n    tag_12:\n      tag_14\n      jump\t// in\n    tag_11:\n      stop\n        /* \"contracts/firstSolidity.sol\":1176:1255  function get() public view returns (uint) {\r... */\n    tag_5:\n      tag_15\n      tag_16\n      jump\t// in\n    tag_15:\n      mload(0x40)\n      tag_17\n      swap2\n      swap1\n      tag_18\n      jump\t// in\n    tag_17:\n      mload(0x40)\n      dup1\n      swap2\n      sub\n      swap1\n      return\n        /* \"contracts/firstSolidity.sol\":1018:1056  string public Name= \"solidity program\" */\n    tag_6:\n      tag_19\n      tag_20\n      jump\t// in\n    tag_19:\n      mload(0x40)\n      tag_21\n      swap2\n      swap1\n      tag_22\n      jump\t// in\n    tag_21:\n      mload(0x40)\n      dup1\n      swap2\n      sub\n      swap1\n      return\n        /* \"contracts/firstSolidity.sol\":703:774  address public myWalletAdd = 0xE4A976FdEa6CAA37638a4554F3779663535af314 */\n    tag_8:\n      0x04\n      0x00\n      swap1\n      sload\n      swap1\n      0x0100\n      exp\n      swap1\n      div\n      0xffffffffffffffffffffffffffffffffffffffff\n      and\n      dup2\n      jump\t// out\n        /* \"contracts/firstSolidity.sol\":1263:1328  function set(uint num) public{\r... */\n    tag_14:\n        /* \"contracts/firstSolidity.sol\":1317:1320  num */\n      dup1\n        /* \"contracts/firstSolidity.sol\":1303:1314  positiveNum */\n      0x03\n        /* \"contracts/firstSolidity.sol\":1303:1320  positiveNum = num */\n      dup2\n      swap1\n      sstore\n      pop\n        /* \"contracts/firstSolidity.sol\":1263:1328  function set(uint num) public{\r... */\n      pop\n      jump\t// out\n        /* \"contracts/firstSolidity.sol\":1176:1255  function get() public view returns (uint) {\r... */\n    tag_16:\n        /* \"contracts/firstSolidity.sol\":1212:1216  uint */\n      0x00\n        /* \"contracts/firstSolidity.sol\":1236:1247  positiveNum */\n      sload(0x03)\n        /* \"contracts/firstSolidity.sol\":1229:1247  return positiveNum */\n      swap1\n      pop\n        /* \"contracts/firstSolidity.sol\":1176:1255  function get() public view returns (uint) {\r... */\n      swap1\n      jump\t// out\n        /* \"contracts/firstSolidity.sol\":1018:1056  string public Name= \"solidity program\" */\n    tag_20:\n      0x06\n      dup1\n      sload\n      tag_25\n      swap1\n      tag_26\n      jump\t// in\n    tag_25:\n      dup1\n      0x1f\n      add\n      0x20\n      dup1\n      swap2\n      div\n      mul\n      0x20\n      add\n      mload(0x40)\n      swap1\n      dup2\n      add\n      0x40\n      mstore\n      dup1\n      swap3\n      swap2\n      swap1\n      dup2\n      dup2\n      mstore\n      0x20\n      add\n      dup3\n      dup1\n      sload\n      tag_27\n      swap1\n      tag_26\n      jump\t// in\n    tag_27:\n      dup1\n      iszero\n      tag_28\n      jumpi\n      dup1\n      0x1f\n      lt\n      tag_29\n      jumpi\n      0x0100\n      dup1\n      dup4\n      sload\n      div\n      mul\n      dup4\n      mstore\n      swap2\n      0x20\n      add\n      swap2\n      jump(tag_28)\n    tag_29:\n      dup3\n      add\n      swap2\n      swap1\n      0x00\n      mstore\n      keccak256(0x00, 0x20)\n      swap1\n    tag_30:\n      dup2\n      sload\n      dup2\n      mstore\n      swap1\n      0x01\n      add\n      swap1\n      0x20\n      add\n      dup1\n      dup4\n      gt\n      tag_30\n      jumpi\n      dup3\n      swap1\n      sub\n      0x1f\n      and\n      dup3\n      add\n      swap2\n    tag_28:\n      pop\n      pop\n      pop\n      pop\n      pop\n      dup2\n      jump\t// out\n        /* \"#utility.yul\":7:146   */\n    tag_32:\n        /* \"#utility.yul\":53:58   */\n      0x00\n        /* \"#utility.yul\":91:97   */\n      dup2\n        /* \"#utility.yul\":78:98   */\n      calldataload\n        /* \"#utility.yul\":69:98   */\n      swap1\n      pop\n        /* \"#utility.yul\":107:140   */\n      tag_34\n        /* \"#utility.yul\":134:139   */\n      dup2\n        /* \"#utility.yul\":107:140   */\n      tag_35\n      jump\t// in\n    tag_34:\n        /* \"#utility.yul\":7:146   */\n      swap3\n      swap2\n      pop\n      pop\n      jump\t// out\n        /* \"#utility.yul\":152:481   */\n    tag_13:\n        /* \"#utility.yul\":211:217   */\n      0x00\n        /* \"#utility.yul\":260:262   */\n      0x20\n        /* \"#utility.yul\":248:257   */\n      dup3\n        /* \"#utility.yul\":239:246   */\n      dup5\n        /* \"#utility.yul\":235:258   */\n      sub\n        /* \"#utility.yul\":231:263   */\n      slt\n        /* \"#utility.yul\":228:347   */\n      iszero\n      tag_37\n      jumpi\n        /* \"#utility.yul\":266:345   */\n      tag_38\n      tag_39\n      jump\t// in\n    tag_38:\n        /* \"#utility.yul\":228:347   */\n    tag_37:\n        /* \"#utility.yul\":386:387   */\n      0x00\n        /* \"#utility.yul\":411:464   */\n      tag_40\n        /* \"#utility.yul\":456:463   */\n      dup5\n        /* \"#utility.yul\":447:453   */\n      dup3\n        /* \"#utility.yul\":436:445   */\n      dup6\n        /* \"#utility.yul\":432:454   */\n      add\n        /* \"#utility.yul\":411:464   */\n      tag_32\n      jump\t// in\n    tag_40:\n        /* \"#utility.yul\":401:464   */\n      swap2\n      pop\n        /* \"#utility.yul\":357:474   */\n      pop\n        /* \"#utility.yul\":152:481   */\n      swap3\n      swap2\n      pop\n      pop\n      jump\t// out\n        /* \"#utility.yul\":487:605   */\n    tag_41:\n        /* \"#utility.yul\":574:598   */\n      tag_43\n        /* \"#utility.yul\":592:597   */\n      dup2\n        /* \"#utility.yul\":574:598   */\n      tag_44\n      jump\t// in\n    tag_43:\n        /* \"#utility.yul\":569:572   */\n      dup3\n        /* \"#utility.yul\":562:599   */\n      mstore\n        /* \"#utility.yul\":487:605   */\n      pop\n      pop\n      jump\t// out\n        /* \"#utility.yul\":611:975   */\n    tag_45:\n        /* \"#utility.yul\":699:702   */\n      0x00\n        /* \"#utility.yul\":727:766   */\n      tag_47\n        /* \"#utility.yul\":760:765   */\n      dup3\n        /* \"#utility.yul\":727:766   */\n      tag_48\n      jump\t// in\n    tag_47:\n        /* \"#utility.yul\":782:853   */\n      tag_49\n        /* \"#utility.yul\":846:852   */\n      dup2\n        /* \"#utility.yul\":841:844   */\n      dup6\n        /* \"#utility.yul\":782:853   */\n      tag_50\n      jump\t// in\n    tag_49:\n        /* \"#utility.yul\":775:853   */\n      swap4\n      pop\n        /* \"#utility.yul\":862:914   */\n      tag_51\n        /* \"#utility.yul\":907:913   */\n      dup2\n        /* \"#utility.yul\":902:905   */\n      dup6\n        /* \"#utility.yul\":895:899   */\n      0x20\n        /* \"#utility.yul\":888:893   */\n      dup7\n        /* \"#utility.yul\":884:900   */\n      add\n        /* \"#utility.yul\":862:914   */\n      tag_52\n      jump\t// in\n    tag_51:\n        /* \"#utility.yul\":939:968   */\n      tag_53\n        /* \"#utility.yul\":961:967   */\n      dup2\n        /* \"#utility.yul\":939:968   */\n      tag_54\n      jump\t// in\n    tag_53:\n        /* \"#utility.yul\":934:937   */\n      dup5\n        /* \"#utility.yul\":930:969   */\n      add\n        /* \"#utility.yul\":923:969   */\n      swap2\n      pop\n        /* \"#utility.yul\":703:975   */\n      pop\n        /* \"#utility.yul\":611:975   */\n      swap3\n      swap2\n      pop\n      pop\n      jump\t// out\n        /* \"#utility.yul\":981:1099   */\n    tag_55:\n        /* \"#utility.yul\":1068:1092   */\n      tag_57\n        /* \"#utility.yul\":1086:1091   */\n      dup2\n        /* \"#utility.yul\":1068:1092   */\n      tag_58\n      jump\t// in\n    tag_57:\n        /* \"#utility.yul\":1063:1066   */\n      dup3\n        /* \"#utility.yul\":1056:1093   */\n      mstore\n        /* \"#utility.yul\":981:1099   */\n      pop\n      pop\n      jump\t// out\n        /* \"#utility.yul\":1105:1327   */\n    tag_10:\n        /* \"#utility.yul\":1198:1202   */\n      0x00\n        /* \"#utility.yul\":1236:1238   */\n      0x20\n        /* \"#utility.yul\":1225:1234   */\n      dup3\n        /* \"#utility.yul\":1221:1239   */\n      add\n        /* \"#utility.yul\":1213:1239   */\n      swap1\n      pop\n        /* \"#utility.yul\":1249:1320   */\n      tag_60\n        /* \"#utility.yul\":1317:1318   */\n      0x00\n        /* \"#utility.yul\":1306:1315   */\n      dup4\n        /* \"#utility.yul\":1302:1319   */\n      add\n        /* \"#utility.yul\":1293:1299   */\n      dup5\n        /* \"#utility.yul\":1249:1320   */\n      tag_41\n      jump\t// in\n    tag_60:\n        /* \"#utility.yul\":1105:1327   */\n      swap3\n      swap2\n      pop\n      pop\n      jump\t// out\n        /* \"#utility.yul\":1333:1646   */\n    tag_22:\n        /* \"#utility.yul\":1446:1450   */\n      0x00\n        /* \"#utility.yul\":1484:1486   */\n      0x20\n        /* \"#utility.yul\":1473:1482   */\n      dup3\n        /* \"#utility.yul\":1469:1487   */\n      add\n        /* \"#utility.yul\":1461:1487   */\n      swap1\n      pop\n        /* \"#utility.yul\":1533:1542   */\n      dup2\n        /* \"#utility.yul\":1527:1531   */\n      dup2\n        /* \"#utility.yul\":1523:1543   */\n      sub\n        /* \"#utility.yul\":1519:1520   */\n      0x00\n        /* \"#utility.yul\":1508:1517   */\n      dup4\n        /* \"#utility.yul\":1504:1521   */\n      add\n        /* \"#utility.yul\":1497:1544   */\n      mstore\n        /* \"#utility.yul\":1561:1639   */\n      tag_62\n        /* \"#utility.yul\":1634:1638   */\n      dup2\n        /* \"#utility.yul\":1625:1631   */\n      dup5\n        /* \"#utility.yul\":1561:1639   */\n      tag_45\n      jump\t// in\n    tag_62:\n        /* \"#utility.yul\":1553:1639   */\n      swap1\n      pop\n        /* \"#utility.yul\":1333:1646   */\n      swap3\n      swap2\n      pop\n      pop\n      jump\t// out\n        /* \"#utility.yul\":1652:1874   */\n    tag_18:\n        /* \"#utility.yul\":1745:1749   */\n      0x00\n        /* \"#utility.yul\":1783:1785   */\n      0x20\n        /* \"#utility.yul\":1772:1781   */\n      dup3\n        /* \"#utility.yul\":1768:1786   */\n      add\n        /* \"#utility.yul\":1760:1786   */\n      swap1\n      pop\n        /* \"#utility.yul\":1796:1867   */\n      tag_64\n        /* \"#utility.yul\":1864:1865   */\n      0x00\n        /* \"#utility.yul\":1853:1862   */\n      dup4\n        /* \"#utility.yul\":1849:1866   */\n      add\n        /* \"#utility.yul\":1840:1846   */\n      dup5\n        /* \"#utility.yul\":1796:1867   */\n      tag_55\n      jump\t// in\n    tag_64:\n        /* \"#utility.yul\":1652:1874   */\n      swap3\n      swap2\n      pop\n      pop\n      jump\t// out\n        /* \"#utility.yul\":1961:2060   */\n    tag_48:\n        /* \"#utility.yul\":2013:2019   */\n      0x00\n        /* \"#utility.yul\":2047:2052   */\n      dup2\n        /* \"#utility.yul\":2041:2053   */\n      mload\n        /* \"#utility.yul\":2031:2053   */\n      swap1\n      pop\n        /* \"#utility.yul\":1961:2060   */\n      swap2\n      swap1\n      pop\n      jump\t// out\n        /* \"#utility.yul\":2066:2235   */\n    tag_50:\n        /* \"#utility.yul\":2150:2161   */\n      0x00\n        /* \"#utility.yul\":2184:2190   */\n      dup3\n        /* \"#utility.yul\":2179:2182   */\n      dup3\n        /* \"#utility.yul\":2172:2191   */\n      mstore\n        /* \"#utility.yul\":2224:2228   */\n      0x20\n        /* \"#utility.yul\":2219:2222   */\n      dup3\n        /* \"#utility.yul\":2215:2229   */\n      add\n        /* \"#utility.yul\":2200:2229   */\n      swap1\n      pop\n        /* \"#utility.yul\":2066:2235   */\n      swap3\n      swap2\n      pop\n      pop\n      jump\t// out\n        /* \"#utility.yul\":2241:2337   */\n    tag_44:\n        /* \"#utility.yul\":2278:2285   */\n      0x00\n        /* \"#utility.yul\":2307:2331   */\n      tag_70\n        /* \"#utility.yul\":2325:2330   */\n      dup3\n        /* \"#utility.yul\":2307:2331   */\n      tag_71\n      jump\t// in\n    tag_70:\n        /* \"#utility.yul\":2296:2331   */\n      swap1\n      pop\n        /* \"#utility.yul\":2241:2337   */\n      swap2\n      swap1\n      pop\n      jump\t// out\n        /* \"#utility.yul\":2343:2469   */\n    tag_71:\n        /* \"#utility.yul\":2380:2387   */\n      0x00\n        /* \"#utility.yul\":2420:2462   */\n      0xffffffffffffffffffffffffffffffffffffffff\n        /* \"#utility.yul\":2413:2418   */\n      dup3\n        /* \"#utility.yul\":2409:2463   */\n      and\n        /* \"#utility.yul\":2398:2463   */\n      swap1\n      pop\n        /* \"#utility.yul\":2343:2469   */\n      swap2\n      swap1\n      pop\n      jump\t// out\n        /* \"#utility.yul\":2475:2552   */\n    tag_58:\n        /* \"#utility.yul\":2512:2519   */\n      0x00\n        /* \"#utility.yul\":2541:2546   */\n      dup2\n        /* \"#utility.yul\":2530:2546   */\n      swap1\n      pop\n        /* \"#utility.yul\":2475:2552   */\n      swap2\n      swap1\n      pop\n      jump\t// out\n        /* \"#utility.yul\":2558:2865   */\n    tag_52:\n        /* \"#utility.yul\":2626:2627   */\n      0x00\n        /* \"#utility.yul\":2636:2749   */\n    tag_75:\n        /* \"#utility.yul\":2650:2656   */\n      dup4\n        /* \"#utility.yul\":2647:2648   */\n      dup2\n        /* \"#utility.yul\":2644:2657   */\n      lt\n        /* \"#utility.yul\":2636:2749   */\n      iszero\n      tag_77\n      jumpi\n        /* \"#utility.yul\":2735:2736   */\n      dup1\n        /* \"#utility.yul\":2730:2733   */\n      dup3\n        /* \"#utility.yul\":2726:2737   */\n      add\n        /* \"#utility.yul\":2720:2738   */\n      mload\n        /* \"#utility.yul\":2716:2717   */\n      dup2\n        /* \"#utility.yul\":2711:2714   */\n      dup5\n        /* \"#utility.yul\":2707:2718   */\n      add\n        /* \"#utility.yul\":2700:2739   */\n      mstore\n        /* \"#utility.yul\":2672:2674   */\n      0x20\n        /* \"#utility.yul\":2669:2670   */\n      dup2\n        /* \"#utility.yul\":2665:2675   */\n      add\n        /* \"#utility.yul\":2660:2675   */\n      swap1\n      pop\n        /* \"#utility.yul\":2636:2749   */\n      jump(tag_75)\n    tag_77:\n        /* \"#utility.yul\":2767:2773   */\n      dup4\n        /* \"#utility.yul\":2764:2765   */\n      dup2\n        /* \"#utility.yul\":2761:2774   */\n      gt\n        /* \"#utility.yul\":2758:2859   */\n      iszero\n      tag_78\n      jumpi\n        /* \"#utility.yul\":2847:2848   */\n      0x00\n        /* \"#utility.yul\":2838:2844   */\n      dup5\n        /* \"#utility.yul\":2833:2836   */\n      dup5\n        /* \"#utility.yul\":2829:2845   */\n      add\n        /* \"#utility.yul\":2822:2849   */\n      mstore\n        /* \"#utility.yul\":2758:2859   */\n    tag_78:\n        /* \"#utility.yul\":2607:2865   */\n      pop\n        /* \"#utility.yul\":2558:2865   */\n      pop\n      pop\n      pop\n      jump\t// out\n        /* \"#utility.yul\":2871:3191   */\n    tag_26:\n        /* \"#utility.yul\":2915:2921   */\n      0x00\n        /* \"#utility.yul\":2952:2953   */\n      0x02\n        /* \"#utility.yul\":2946:2950   */\n      dup3\n        /* \"#utility.yul\":2942:2954   */\n      div\n        /* \"#utility.yul\":2932:2954   */\n      swap1\n      pop\n        /* \"#utility.yul\":2999:3000   */\n      0x01\n        /* \"#utility.yul\":2993:2997   */\n      dup3\n        /* \"#utility.yul\":2989:3001   */\n      and\n        /* \"#utility.yul\":3020:3038   */\n      dup1\n        /* \"#utility.yul\":3010:3091   */\n      tag_80\n      jumpi\n        /* \"#utility.yul\":3076:3080   */\n      0x7f\n        /* \"#utility.yul\":3068:3074   */\n      dup3\n        /* \"#utility.yul\":3064:3081   */\n      and\n        /* \"#utility.yul\":3054:3081   */\n      swap2\n      pop\n        /* \"#utility.yul\":3010:3091   */\n    tag_80:\n        /* \"#utility.yul\":3138:3140   */\n      0x20\n        /* \"#utility.yul\":3130:3136   */\n      dup3\n        /* \"#utility.yul\":3127:3141   */\n      lt\n        /* \"#utility.yul\":3107:3125   */\n      dup2\n        /* \"#utility.yul\":3104:3142   */\n      eq\n        /* \"#utility.yul\":3101:3185   */\n      iszero\n      tag_81\n      jumpi\n        /* \"#utility.yul\":3157:3175   */\n      tag_82\n      tag_83\n      jump\t// in\n    tag_82:\n        /* \"#utility.yul\":3101:3185   */\n    tag_81:\n        /* \"#utility.yul\":2922:3191   */\n      pop\n        /* \"#utility.yul\":2871:3191   */\n      swap2\n      swap1\n      pop\n      jump\t// out\n        /* \"#utility.yul\":3197:3377   */\n    tag_83:\n        /* \"#utility.yul\":3245:3322   */\n      0x4e487b7100000000000000000000000000000000000000000000000000000000\n        /* \"#utility.yul\":3242:3243   */\n      0x00\n        /* \"#utility.yul\":3235:3323   */\n      mstore\n        /* \"#utility.yul\":3342:3346   */\n      0x22\n        /* \"#utility.yul\":3339:3340   */\n      0x04\n        /* \"#utility.yul\":3332:3347   */\n      mstore\n        /* \"#utility.yul\":3366:3370   */\n      0x24\n        /* \"#utility.yul\":3363:3364   */\n      0x00\n        /* \"#utility.yul\":3356:3371   */\n      revert\n        /* \"#utility.yul\":3506:3623   */\n    tag_39:\n        /* \"#utility.yul\":3615:3616   */\n      0x00\n        /* \"#utility.yul\":3612:3613   */\n      dup1\n        /* \"#utility.yul\":3605:3617   */\n      revert\n        /* \"#utility.yul\":3629:3731   */\n    tag_54:\n        /* \"#utility.yul\":3670:3676   */\n      0x00\n        /* \"#utility.yul\":3721:3723   */\n      0x1f\n        /* \"#utility.yul\":3717:3724   */\n      not\n        /* \"#utility.yul\":3712:3714   */\n      0x1f\n        /* \"#utility.yul\":3705:3710   */\n      dup4\n        /* \"#utility.yul\":3701:3715   */\n      add\n        /* \"#utility.yul\":3697:3725   */\n      and\n        /* \"#utility.yul\":3687:3725   */\n      swap1\n      pop\n        /* \"#utility.yul\":3629:3731   */\n      swap2\n      swap1\n      pop\n      jump\t// out\n        /* \"#utility.yul\":3737:3859   */\n    tag_35:\n        /* \"#utility.yul\":3810:3834   */\n      tag_90\n        /* \"#utility.yul\":3828:3833   */\n      dup2\n        /* \"#utility.yul\":3810:3834   */\n      tag_58\n      jump\t// in\n    tag_90:\n        /* \"#utility.yul\":3803:3808   */\n      dup2\n        /* \"#utility.yul\":3800:3835   */\n      eq\n        /* \"#utility.yul\":3790:3853   */\n      tag_91\n      jumpi\n        /* \"#utility.yul\":3849:3850   */\n      0x00\n        /* \"#utility.yul\":3846:3847   */\n      dup1\n        /* \"#utility.yul\":3839:3851   */\n      revert\n        /* \"#utility.yul\":3790:3853   */\n    tag_91:\n        /* \"#utility.yul\":3737:3859   */\n      pop\n      jump\t// out\n\n    auxdata: 0xa26469706673582212201b86dfc53e749d33faf1c7014b54d99b29053bc4b62e8f8036e5edcdb91edbc164736f6c63430008070033\n}\n",
				"bytecode": {
					"linkReferences": {},
					"object": "608060405260016000806101000a81548160ff0219169083151502179055507fffffffffffffffffffffffffffffffffffffffffffffffffffffffffffffff85600155607b60035573e4a976fdea6caa37638a4554f3779663535af314600460006101000a81548173ffffffffffffffffffffffffffffffffffffffff021916908373ffffffffffffffffffffffffffffffffffffffff1602179055507f737570706f7365206e616d65206f722066696c650000000000000000000000006005556040518060400160405280601081526020017f736f6c69646974792070726f6772616d000000000000000000000000000000008152506006908051906020019061010b92919061011e565b5034801561011857600080fd5b50610222565b82805461012a906101c1565b90600052602060002090601f01602090048101928261014c5760008555610193565b82601f1061016557805160ff1916838001178555610193565b82800160010185558215610193579182015b82811115610192578251825591602001919060010190610177565b5b5090506101a091906101a4565b5090565b5b808211156101bd5760008160009055506001016101a5565b5090565b600060028204905060018216806101d957607f821691505b602082108114156101ed576101ec6101f3565b5b50919050565b7f4e487b7100000000000000000000000000000000000000000000000000000000600052602260045260246000fd5b6103cf806102316000396000f3fe608060405234801561001057600080fd5b506004361061004c5760003560e01c80634d96a0031461005157806360fe47b11461006f5780636d4ce63c1461008b5780638052474d146100a9575b600080fd5b6100596100c7565b6040516100669190610228565b60405180910390f35b610089600480360381019061008491906101a4565b6100ed565b005b6100936100f7565b6040516100a09190610265565b60405180910390f35b6100b1610101565b6040516100be9190610243565b60405180910390f35b600460009054906101000a900473ffffffffffffffffffffffffffffffffffffffff1681565b8060038190555050565b6000600354905090565b6006805461010e9061030b565b80601f016020809104026020016040519081016040528092919081815260200182805461013a9061030b565b80156101875780601f1061015c57610100808354040283529160200191610187565b820191906000526020600020905b81548152906001019060200180831161016a57829003601f168201915b505050505081565b60008135905061019e81610382565b92915050565b6000602082840312156101ba576101b961036c565b5b60006101c88482850161018f565b91505092915050565b6101da8161029c565b82525050565b60006101eb82610280565b6101f5818561028b565b93506102058185602086016102d8565b61020e81610371565b840191505092915050565b610222816102ce565b82525050565b600060208201905061023d60008301846101d1565b92915050565b6000602082019050818103600083015261025d81846101e0565b905092915050565b600060208201905061027a6000830184610219565b92915050565b600081519050919050565b600082825260208201905092915050565b60006102a7826102ae565b9050919050565b600073ffffffffffffffffffffffffffffffffffffffff82169050919050565b6000819050919050565b60005b838110156102f65780820151818401526020810190506102db565b83811115610305576000848401525b50505050565b6000600282049050600182168061032357607f821691505b602082108114156103375761033661033d565b5b50919050565b7f4e487b7100000000000000000000000000000000000000000000000000000000600052602260045260246000fd5b600080fd5b6000601f19601f8301169050919050565b61038b816102ce565b811461039657600080fd5b5056fea26469706673582212201b86dfc53e749d33faf1c7014b54d99b29053bc4b62e8f8036e5edcdb91edbc164736f6c63430008070033",
					"opcodes": "PUSH1 0x80 PUSH1 0x40 MSTORE PUSH1 0x1 PUSH1 0x0 DUP1 PUSH2 0x100 EXP DUP2 SLOAD DUP2 PUSH1 0xFF MUL NOT AND SWAP1 DUP4 ISZERO ISZERO MUL OR SWAP1 SSTORE POP PUSH32 0xFFFFFFFFFFFFFFFFFFFFFFFFFFFFFFFFFFFFFFFFFFFFFFFFFFFFFFFFFFFFFF85 PUSH1 0x1 SSTORE PUSH1 0x7B PUSH1 0x3 SSTORE PUSH20 0xE4A976FDEA6CAA37638A4554F3779663535AF314 PUSH1 0x4 PUSH1 0x0 PUSH2 0x100 EXP DUP2 SLOAD DUP2 PUSH20 0xFFFFFFFFFFFFFFFFFFFFFFFFFFFFFFFFFFFFFFFF MUL NOT AND SWAP1 DUP4 PUSH20 0xFFFFFFFFFFFFFFFFFFFFFFFFFFFFFFFFFFFFFFFF AND MUL OR SWAP1 SSTORE POP PUSH32 0x737570706F7365206E616D65206F722066696C65000000000000000000000000 PUSH1 0x5 SSTORE PUSH1 0x40 MLOAD DUP1 PUSH1 0x40 ADD PUSH1 0x40 MSTORE DUP1 PUSH1 0x10 DUP2 MSTORE PUSH1 0x20 ADD PUSH32 0x736F6C69646974792070726F6772616D00000000000000000000000000000000 DUP2 MSTORE POP PUSH1 0x6 SWAP1 DUP1 MLOAD SWAP1 PUSH1 0x20 ADD SWAP1 PUSH2 0x10B SWAP3 SWAP2 SWAP1 PUSH2 0x11E JUMP JUMPDEST POP CALLVALUE DUP1 ISZERO PUSH2 0x118 JUMPI PUSH1 0x0 DUP1 REVERT JUMPDEST POP PUSH2 0x222 JUMP JUMPDEST DUP3 DUP1 SLOAD PUSH2 0x12A SWAP1 PUSH2 0x1C1 JUMP JUMPDEST SWAP1 PUSH1 0x0 MSTORE PUSH1 0x20 PUSH1 0x0 KECCAK256 SWAP1 PUSH1 0x1F ADD PUSH1 0x20 SWAP1 DIV DUP2 ADD SWAP3 DUP3 PUSH2 0x14C JUMPI PUSH1 0x0 DUP6 SSTORE PUSH2 0x193 JUMP JUMPDEST DUP3 PUSH1 0x1F LT PUSH2 0x165 JUMPI DUP1 MLOAD PUSH1 0xFF NOT AND DUP4 DUP1 ADD OR DUP6 SSTORE PUSH2 0x193 JUMP JUMPDEST DUP3 DUP1 ADD PUSH1 0x1 ADD DUP6 SSTORE DUP3 ISZERO PUSH2 0x193 JUMPI SWAP2 DUP3 ADD JUMPDEST DUP3 DUP2 GT ISZERO PUSH2 0x192 JUMPI DUP3 MLOAD DUP3 SSTORE SWAP2 PUSH1 0x20 ADD SWAP2 SWAP1 PUSH1 0x1 ADD SWAP1 PUSH2 0x177 JUMP JUMPDEST JUMPDEST POP SWAP1 POP PUSH2 0x1A0 SWAP2 SWAP1 PUSH2 0x1A4 JUMP JUMPDEST POP SWAP1 JUMP JUMPDEST JUMPDEST DUP1 DUP3 GT ISZERO PUSH2 0x1BD JUMPI PUSH1 0x0 DUP2 PUSH1 0x0 SWAP1 SSTORE POP PUSH1 0x1 ADD PUSH2 0x1A5 JUMP JUMPDEST POP SWAP1 JUMP JUMPDEST PUSH1 0x0 PUSH1 0x2 DUP3 DIV SWAP1 POP PUSH1 0x1 DUP3 AND DUP1 PUSH2 0x1D9 JUMPI PUSH1 0x7F DUP3 AND SWAP2 POP JUMPDEST PUSH1 0x20 DUP3 LT DUP2 EQ ISZERO PUSH2 0x1ED JUMPI PUSH2 0x1EC PUSH2 0x1F3 JUMP JUMPDEST JUMPDEST POP SWAP2 SWAP1 POP JUMP JUMPDEST PUSH32 0x4E487B7100000000000000000000000000000000000000000000000000000000 PUSH1 0x0 MSTORE PUSH1 0x22 PUSH1 0x4 MSTORE PUSH1 0x24 PUSH1 0x0 REVERT JUMPDEST PUSH2 0x3CF DUP1 PUSH2 0x231 PUSH1 0x0 CODECOPY PUSH1 0x0 RETURN INVALID PUSH1 0x80 PUSH1 0x40 MSTORE CALLVALUE DUP1 ISZERO PUSH2 0x10 JUMPI PUSH1 0x0 DUP1 REVERT JUMPDEST POP PUSH1 0x4 CALLDATASIZE LT PUSH2 0x4C JUMPI PUSH1 0x0 CALLDATALOAD PUSH1 0xE0 SHR DUP1 PUSH4 0x4D96A003 EQ PUSH2 0x51 JUMPI DUP1 PUSH4 0x60FE47B1 EQ PUSH2 0x6F JUMPI DUP1 PUSH4 0x6D4CE63C EQ PUSH2 0x8B JUMPI DUP1 PUSH4 0x8052474D EQ PUSH2 0xA9 JUMPI JUMPDEST PUSH1 0x0 DUP1 REVERT JUMPDEST PUSH2 0x59 PUSH2 0xC7 JUMP JUMPDEST PUSH1 0x40 MLOAD PUSH2 0x66 SWAP2 SWAP1 PUSH2 0x228 JUMP JUMPDEST PUSH1 0x40 MLOAD DUP1 SWAP2 SUB SWAP1 RETURN JUMPDEST PUSH2 0x89 PUSH1 0x4 DUP1 CALLDATASIZE SUB DUP2 ADD SWAP1 PUSH2 0x84 SWAP2 SWAP1 PUSH2 0x1A4 JUMP JUMPDEST PUSH2 0xED JUMP JUMPDEST STOP JUMPDEST PUSH2 0x93 PUSH2 0xF7 JUMP JUMPDEST PUSH1 0x40 MLOAD PUSH2 0xA0 SWAP2 SWAP1 PUSH2 0x265 JUMP JUMPDEST PUSH1 0x40 MLOAD DUP1 SWAP2 SUB SWAP1 RETURN JUMPDEST PUSH2 0xB1 PUSH2 0x101 JUMP JUMPDEST PUSH1 0x40 MLOAD PUSH2 0xBE SWAP2 SWAP1 PUSH2 0x243 JUMP JUMPDEST PUSH1 0x40 MLOAD DUP1 SWAP2 SUB SWAP1 RETURN JUMPDEST PUSH1 0x4 PUSH1 0x0 SWAP1 SLOAD SWAP1 PUSH2 0x100 EXP SWAP1 DIV PUSH20 0xFFFFFFFFFFFFFFFFFFFFFFFFFFFFFFFFFFFFFFFF AND DUP2 JUMP JUMPDEST DUP1 PUSH1 0x3 DUP2 SWAP1 SSTORE POP POP JUMP JUMPDEST PUSH1 0x0 PUSH1 0x3 SLOAD SWAP1 POP SWAP1 JUMP JUMPDEST PUSH1 0x6 DUP1 SLOAD PUSH2 0x10E SWAP1 PUSH2 0x30B JUMP JUMPDEST DUP1 PUSH1 0x1F ADD PUSH1 0x20 DUP1 SWAP2 DIV MUL PUSH1 0x20 ADD PUSH1 0x40 MLOAD SWAP1 DUP2 ADD PUSH1 0x40 MSTORE DUP1 SWAP3 SWAP2 SWAP1 DUP2 DUP2 MSTORE PUSH1 0x20 ADD DUP3 DUP1 SLOAD PUSH2 0x13A SWAP1 PUSH2 0x30B JUMP JUMPDEST DUP1 ISZERO PUSH2 0x187 JUMPI DUP1 PUSH1 0x1F LT PUSH2 0x15C JUMPI PUSH2 0x100 DUP1 DUP4 SLOAD DIV MUL DUP4 MSTORE SWAP2 PUSH1 0x20 ADD SWAP2 PUSH2 0x187 JUMP JUMPDEST DUP3 ADD SWAP2 SWAP1 PUSH1 0x0 MSTORE PUSH1 0x20 PUSH1 0x0 KECCAK256 SWAP1 JUMPDEST DUP2 SLOAD DUP2 MSTORE SWAP1 PUSH1 0x1 ADD SWAP1 PUSH1 0x20 ADD DUP1 DUP4 GT PUSH2 0x16A JUMPI DUP3 SWAP1 SUB PUSH1 0x1F AND DUP3 ADD SWAP2 JUMPDEST POP POP POP POP POP DUP2 JUMP JUMPDEST PUSH1 0x0 DUP2 CALLDATALOAD SWAP1 POP PUSH2 0x19E DUP2 PUSH2 0x382 JUMP JUMPDEST SWAP3 SWAP2 POP POP JUMP JUMPDEST PUSH1 0x0 PUSH1 0x20 DUP3 DUP5 SUB SLT ISZERO PUSH2 0x1BA JUMPI PUSH2 0x1B9 PUSH2 0x36C JUMP JUMPDEST JUMPDEST PUSH1 0x0 PUSH2 0x1C8 DUP5 DUP3 DUP6 ADD PUSH2 0x18F JUMP JUMPDEST SWAP2 POP POP SWAP3 SWAP2 POP POP JUMP JUMPDEST PUSH2 0x1DA DUP2 PUSH2 0x29C JUMP JUMPDEST DUP3 MSTORE POP POP JUMP JUMPDEST PUSH1 0x0 PUSH2 0x1EB DUP3 PUSH2 0x280 JUMP JUMPDEST PUSH2 0x1F5 DUP2 DUP6 PUSH2 0x28B JUMP JUMPDEST SWAP4 POP PUSH2 0x205 DUP2 DUP6 PUSH1 0x20 DUP7 ADD PUSH2 0x2D8 JUMP JUMPDEST PUSH2 0x20E DUP2 PUSH2 0x371 JUMP JUMPDEST DUP5 ADD SWAP2 POP POP SWAP3 SWAP2 POP POP JUMP JUMPDEST PUSH2 0x222 DUP2 PUSH2 0x2CE JUMP JUMPDEST DUP3 MSTORE POP POP JUMP JUMPDEST PUSH1 0x0 PUSH1 0x20 DUP3 ADD SWAP1 POP PUSH2 0x23D PUSH1 0x0 DUP4 ADD DUP5 PUSH2 0x1D1 JUMP JUMPDEST SWAP3 SWAP2 POP POP JUMP JUMPDEST PUSH1 0x0 PUSH1 0x20 DUP3 ADD SWAP1 POP DUP2 DUP2 SUB PUSH1 0x0 DUP4 ADD MSTORE PUSH2 0x25D DUP2 DUP5 PUSH2 0x1E0 JUMP JUMPDEST SWAP1 POP SWAP3 SWAP2 POP POP JUMP JUMPDEST PUSH1 0x0 PUSH1 0x20 DUP3 ADD SWAP1 POP PUSH2 0x27A PUSH1 0x0 DUP4 ADD DUP5 PUSH2 0x219 JUMP JUMPDEST SWAP3 SWAP2 POP POP JUMP JUMPDEST PUSH1 0x0 DUP2 MLOAD SWAP1 POP SWAP2 SWAP1 POP JUMP JUMPDEST PUSH1 0x0 DUP3 DUP3 MSTORE PUSH1 0x20 DUP3 ADD SWAP1 POP SWAP3 SWAP2 POP POP JUMP JUMPDEST PUSH1 0x0 PUSH2 0x2A7 DUP3 PUSH2 0x2AE JUMP JUMPDEST SWAP1 POP SWAP2 SWAP1 POP JUMP JUMPDEST PUSH1 0x0 PUSH20 0xFFFFFFFFFFFFFFFFFFFFFFFFFFFFFFFFFFFFFFFF DUP3 AND SWAP1 POP SWAP2 SWAP1 POP JUMP JUMPDEST PUSH1 0x0 DUP2 SWAP1 POP SWAP2 SWAP1 POP JUMP JUMPDEST PUSH1 0x0 JUMPDEST DUP4 DUP2 LT ISZERO PUSH2 0x2F6 JUMPI DUP1 DUP3 ADD MLOAD DUP2 DUP5 ADD MSTORE PUSH1 0x20 DUP2 ADD SWAP1 POP PUSH2 0x2DB JUMP JUMPDEST DUP4 DUP2 GT ISZERO PUSH2 0x305 JUMPI PUSH1 0x0 DUP5 DUP5 ADD MSTORE JUMPDEST POP POP POP POP JUMP JUMPDEST PUSH1 0x0 PUSH1 0x2 DUP3 DIV SWAP1 POP PUSH1 0x1 DUP3 AND DUP1 PUSH2 0x323 JUMPI PUSH1 0x7F DUP3 AND SWAP2 POP JUMPDEST PUSH1 0x20 DUP3 LT DUP2 EQ ISZERO PUSH2 0x337 JUMPI PUSH2 0x336 PUSH2 0x33D JUMP JUMPDEST JUMPDEST POP SWAP2 SWAP1 POP JUMP JUMPDEST PUSH32 0x4E487B7100000000000000000000000000000000000000000000000000000000 PUSH1 0x0 MSTORE PUSH1 0x22 PUSH1 0x4 MSTORE PUSH1 0x24 PUSH1 0x0 REVERT JUMPDEST PUSH1 0x0 DUP1 REVERT JUMPDEST PUSH1 0x0 PUSH1 0x1F NOT PUSH1 0x1F DUP4 ADD AND SWAP1 POP SWAP2 SWAP1 POP JUMP JUMPDEST PUSH2 0x38B DUP2 PUSH2 0x2CE JUMP JUMPDEST DUP2 EQ PUSH2 0x396 JUMPI PUSH1 0x0 DUP1 REVERT JUMPDEST POP JUMP INVALID LOG2 PUSH5 0x6970667358 0x22 SLT KECCAK256 SHL DUP7 0xDF 0xC5 RETURNDATACOPY PUSH21 0x9D33FAF1C7014B54D99B29053BC4B62E8F8036E5ED 0xCD 0xB9 0x1E 0xDB 0xC1 PUSH5 0x736F6C6343 STOP ADDMOD SMOD STOP CALLER "
				},
				"gasEstimates": {
					"creation": {
						"codeDepositCost": "195000",
						"executionCost": "infinite",
						"totalCost": "infinite"
					},
					"external": {
						"Name()": "infinite",
						"get()": "2459",
						"myWalletAdd()": "2492",
						"set(uint256)": "22520"
					}
				},
				"methodIdentifiers": {
					"Name()": "8052474d",
					"get()": "6d4ce63c",
					"myWalletAdd()": "4d96a003",
					"set(uint256)": "60fe47b1"
				}
			},
			"storageLayout": {
				"storage": [
					{
						"astId": 4,
						"contract": "contracts/firstSolidity.sol:FirstContract",
						"label": "BooleanVal",
						"offset": 0,
						"slot": "0",
						"type": "t_bool"
					},
					{
						"astId": 8,
						"contract": "contracts/firstSolidity.sol:FirstContract",
						"label": "positiveOrNegtiveNum",
						"offset": 0,
						"slot": "1",
						"type": "t_int256"
					},
					{
						"astId": 10,
						"contract": "contracts/firstSolidity.sol:FirstContract",
						"label": "EightBitNum",
						"offset": 0,
						"slot": "2",
						"type": "t_int8"
					},
					{
						"astId": 13,
						"contract": "contracts/firstSolidity.sol:FirstContract",
						"label": "positiveNum",
						"offset": 0,
						"slot": "3",
						"type": "t_uint256"
					},
					{
						"astId": 16,
						"contract": "contracts/firstSolidity.sol:FirstContract",
						"label": "myWalletAdd",
						"offset": 0,
						"slot": "4",
						"type": "t_address"
					},
					{
						"astId": 19,
						"contract": "contracts/firstSolidity.sol:FirstContract",
						"label": "anyNumOfByteData",
						"offset": 0,
						"slot": "5",
						"type": "t_bytes32"
					},
					{
						"astId": 22,
						"contract": "contracts/firstSolidity.sol:FirstContract",
						"label": "Name",
						"offset": 0,
						"slot": "6",
						"type": "t_string_storage"
					}
				],
				"types": {
					"t_address": {
						"encoding": "inplace",
						"label": "address",
						"numberOfBytes": "20"
					},
					"t_bool": {
						"encoding": "inplace",
						"label": "bool",
						"numberOfBytes": "1"
					},
					"t_bytes32": {
						"encoding": "inplace",
						"label": "bytes32",
						"numberOfBytes": "32"
					},
					"t_int256": {
						"encoding": "inplace",
						"label": "int256",
						"numberOfBytes": "32"
					},
					"t_int8": {
						"encoding": "inplace",
						"label": "int8",
						"numberOfBytes": "1"
					},
					"t_string_storage": {
						"encoding": "bytes",
						"label": "string",
						"numberOfBytes": "32"
					},
					"t_uint256": {
						"encoding": "inplace",
						"label": "uint256",
						"numberOfBytes": "32"
					}
				}
			},
			"userdoc": {
				"kind": "user",
				"methods": {},
				"version": 1
			}
		}
	}
}